:10000000B5EF14F00000000000EF00F00000000069
:0A0010000000000000000000F3D71C
:10001C002BC4C9FFC7B002D00000FCD7C9CF00F079
:02002C001200C0
:10002E002BC46FFF6DB002D00000FCD76FCF00F075
:02003E001200AE
:10004000F250026EF29E0500FF6A0150FE6E0050F3
:08005000FD6E02BEF28E1200EB
:100058008292400E04012811006E58C3E1FF59C373
:10006800E2FF00C0E6FF56C300F057C301F0E4DF2B
:1000780058C3E1FF59C3E2FF29C4E6FF56C300F0A5
:1000880057C301F0D9DF58C3E1FF59C3E2FF2AC4BF
:10009800E6FF56C300F057C301F0CEDF828212009C
:1000A800020E0401286F25C429F426C42AF4D0DFDF
:1000B800829258C3E1FF59C3E2FF7A0EE66E56C337
:1000C80000F057C301F0B8DF58C3E1FF59C3E2FF9E
:1000D80027C4E6FF56C300F057C301F0ADDF8282A4
:0200E800120004
:1000EA000401286B25C429F426C42AF4B0DF8292BD
:1000FA0058C3E1FF59C3E2FF3A0EE66E56C300F059
:10010A0057C301F098DF58C3E1FF59C3E2FFE66A1B
:0E011A0056C300F057C301F08EDF8282120040
:10012800829258C3E1FF59C3E2FF7A0EE66E56C3C6
:1001380000F057C301F080DF58C3E1FF59C3E2FF65
:1001480025C4E6FF56C300F057C301F075DF82826D
:02015800120093
:10015A008292800E04012511006E58C3E1FF59C333
:10016A00E2FF00C0E6FF56C300F057C301F063DFA9
:10017A0058C3E1FF59C3E2FF26C4E6FF56C300F0A5
:0A018A0057C301F058DF8282120013
:10019400829258C3E1FF59C3E2FF25C4E6FF56C368
:1001A40000F057C301F04ADF58C3E1FF59C3E2FF2F
:1001B400E66A56C300F057C301F040DF82821200A2
:1001C4008292A00E04012511006E58C3E1FF59C3A9
:1001D400E2FF00C0E6FF56C300F057C301F02EDF74
:1001E40058C3E1FF59C3E2FF26C4E6FF56C300F03B
:0A01F40057C301F023DF82821200DE
:1001FE000401246B010E195F000E1A5B1D530DE0F6
:10020E001A51190802E11951AD0807E2242BAD0E5F
:10021E00195D226F190E1A59236F245305E0AD0E86
:10022E001E6F190E1F6F04D019C41EF41AC41FF4CA
:10023E0018511F1902E11E5117190DE117C425F4AB
:10024E0018C426F44BDF00C027F41BC425F41CC4CD
:10025E0026F423DF36D0100E0401286F17C429F4BC
:10026E0018C42AF4F2DE120E0401286F245305E09E
:10027E00AD0E206F190E216F04D019C420F41AC4CC
:10028E0021F420C429F421C42AF4DFDE140E040163
:10029E00286F1BC429F41CC42AF4D7DE1F0E0401D8
:1002AE00256F100E266F87DF1F0E0401256F200E9F
:1002BE00266F4CDF1F0E0401256F65DF00AA01D0EB
:1002CE00F9D7040124531AE01751195D006E185125
:1002DE001A59016E2251005E2351015A004A012A19
:1002EE0000501B2701501C23010E225D196F000EBA
:0E02FE0023591A6F176B186B246B8FD71200E1
:10030C00020E0401286F17C429F418C42AF49EDEC7
:10031C00829258C3E1FF59C3E2FF7A0EE66E56C3D0
:10032C0000F057C301F086DE04011B511C1117E0CD
:10033C0058C3E1FF59C3E2FF19C4E9FF1AC4EAFF2D
:10034C00EECFE6FF56C300F057C301F073DE040195
:10035C00194B1A2B010E1B5F000E1C5BE5D782821A
:02036C0012007D
:10036E000401195117251B6F1A5118211C6F010E0C
:10037E001B5F000E1C5B100E286F17C429F418C4E7
:10038E002AF463DE120E0401286F1BC429F41CC468
:10039E002AF45BDE1F0E0401256F300E266FD6DEAB
:1003AE001F0E0401256FEFDE00AA01D0F9D712004F
:1003BE0017C425F418C426F419C427F46EDE1AC423
:0603CE0025F4ABDE120075
:1003D400829258C3E1FF59C3E2FF7A0EE66E56C318
:1003E40000F057C301F02ADE19C400F01AC401F06A
:1003F400010E0401195F000E1A5B0050011013E096
:1004040058C3E1FF59C3E2FF17C4E9FF18C4EAFF68
:10041400EECFE6FF56C300F057C301F00FDE040130
:0A042400174B182BE1D7828212005B
:10042E00829258C3E1FF59C3E2FF7A0EE66E56C3BD
:10043E0000F057C301F0FDDD58C3E1FF59C3E2FFE1
:10044E0018C4E6FF56C300F057C301F0F2DD58C3DF
:10045E00E1FF59C3E2FF17C4E6FF56C300F057C3CE
:08046E0001F0E7DD82821200BB
:1004760019C404F01AC405F017C402F018C403F036
:100486001BC400F01CC401F0010E04011B5F000E2A
:100496001C5B005001100FE004C0E9FF05C0EAFF35
:1004A60002C0E1FF03C0E2FFEECFE6FF024A032AE5
:1004B600044A052AE5D717C400F018C401F0120053
:1004C600AE0E0401256F190E266F276BEADDAE0E00
:1004D60004011725006E190E1821016E00C017F4CD
:1004E60001C018F4060E286F00C029F401C02AF4D2
:1004F600B0DD1F0E0401256F800E266F2BDE1F0E4A
:100506000401256F800E266F5ADE03016151050A2C
:1005160004E06151070A01E006D01C0E0401256FB4
:100526000A0E266F4CDE1F0E0401256F080E266F7D
:1005360011DE03016151050A04E06151070A01E079
:1005460080D004011C6B1D6B1C0E256F20DE0A0E6D
:10055600001600520AE104011C4B1D2B030E1D5D03
:1005660002E1E80E1C5D01E2EFD704011C0E256FC7
:100576000EDE00B208D0030E04011D5D02E1E80E96
:100586001C5D01E25DD004011F0E256F080E266F6B
:1005960016DE040E04011725256F000E1821266F9E
:1005A600A1DD00C01BF40401196B100E195D48E2B1
:1005B6001C0E256FECDD00A23FD004011BAB3CD026
:1005C6001F0E256F800E266FC5DD1F0E0401256FD9
:1005D600800E266FF4DD1C0E0401256F0A0E266FB1
:1005E600EEDD1F0E0401256F080E266FB3DD040134
:1005F6001C6B1D6B1C0E256FCADD0A0E0016005201
:100606000AE104011C4B1D2B030E1D5D02E1E80EE1
:100616001C5D01E2EFD704011F0E256F080E266F41
:10062600CEDD040E04011725256F000E1821266F56
:1006360059DD00C01BF401D003D00401192BB5D736
:1006460007D004011F0E256FA2DD00A601D0F9D741
:100656001D0E0401256F9BDD060E0016005203E0F9
:1006660004011A6B03D00401010E1A6F1AC400F0BC
:02067600120070
:1006780009C417F40AC418F45D0E0401196F030EB7
:100688001A6F040E1B6F000E1C6FF1DE0B6B0B5103
:10069800030821E30B510925026E000E0A21036E9F
:1006A80002C0E9FF03C0EAFFEECF01F03E0EE96E9B
:1006B800030EEA6E0B51E926D8B0EA2AFF0EEE18AF
:1006C800006E0150001202C0E1FF03C0E2FF00C04B
:0806D800E6FF0B2BDCD712003A
:1006E000AF0E0401176F190E186F09C419F40AC46C
:1006F0001AF4060E1B6F000E1C6F08DE380E176F03
:10070000030E186F060E196F000E1A6F63DE000ECF
:10071000176F080E186F8BDE1C0E04011125146F65
:10072000000E1221156F000E176F450E186F7FDE39
:1007300014C417F415C418F47ADE6AC317F46BC333
:1007400018F475DE03016A4B6B2B0401176B186BF1
:100750006EDE110E0401176F800E186F68DE040143
:10076000176B186B64DE5D0E0401176F030E186FB4
:10077000040E196F000E1A6F2DDE0BC417F40CC493
:1007800018F4040E196F000E1A6F24DE080E1125DE
:10079000146F000E1221156F0DC417F40EC418F457
:1007A00046DE0FC417F410C418F441DE14C417F465
:1007B00015C418F43CDE0401176B186B38DEBD0E4F
:1007C0000401176F190E186F140E196F000E1A6FAF
:1007D000CEDD160E0401256FDDDC00C016F4170E09
:1007E0000401256FD7DC00C019F4C70E0401176F90
:1007F000190E186F16C41AF4E2DD010E0401141567
:10080000136FD90E1125256F190E1221266F276B34
:100810004BDCC90E0401176F190E186FD10E196F3A
:10082000190E1A6FD90E11251B6F190E12211C6F8C
:1008300013511B27000E1C231D6BE1DCD90E112563
:10084000176F190E1221186F13511727000E182356
:10085000080E1727000E1823196B110E1A6FAFDD43
:1008600015C425F461DC14C425F45EDCD10E04014A
:10087000176F190E186F0C0E1425196F000E152125
:100880001A6F13511927000E1A2371DD160E040179
:10089000256F80DC00C016F4170E0401256F7ADC8A
:1008A00000C019F4D70E0401176F190E186F16C483
:1008B0001AF485DD2A0E04011125176F000E12218E
:0608C000186F01DE1200BA
:1008C600829258C3E1FF59C3E2FF7A0EE66E56C321
:1008D60000F057C301F020EC00F00CC400F00DC48A
:1008E60001F0010E04010C5F000E0D5B00500110BB
:1008F6001CE058C3E1FF59C3E2FF09C4F6FF0AC46E
:10090600F7FF0BC4F8FF0900F5CF00F000C0E6FFC3
:1009160056C300F057C301F020EC00F0010E0401AD
:0E0926000927000E0A230B23D8D78282120065
:1009340004010C51FF0A02E1FF0E0B1907E0286BBA
:100944000BC429F40CC42AF42CEC00F0829258C392
:10095400E1FF59C3E2FF3A0EE66E56C300F057C3F7
:1009640001F020EC00F00DC400F00EC401F0010E03
:1009740004010D5F000E0E5B0050011015E058C31A
:10098400E1FF59C3E2FFE66A56C300F057C301F022
:1009940020EC00F009C4E1FF0AC4E2FF00C0E6FF56
:0C09A4000401094B0A2BDFD782821200ED
:1009B000829258C3E1FF59C3E2FF3A0EE66E56C376
:1009C00000F057C301F020EC00F058C3E1FF59C319
:1009D000E2FFE66A56C300F057C301F020EC00F0D6
:0409E00082821200FD
:1009E4000DC401F00EC402F0010E04010D5F000EEF
:1009F4000E5B000E021802E1000E01181FE009C48C
:100A0400E9FF0AC4EAFF0BC4D9FF0CC4DAFFEE50B5
:100A1400DE180FE009C4E9FF0AC4EAFF0BC4D9FFDA
:100A24000CC4DAFFDE50EE5C006E016A000E015A5F
:100A340007D0094B0A2B0B4B0C2BD2D7006A016A47
:020A440012009E
:100A46003E0E0401176F030E186F01C419F402C499
:100A56001AF4040E1B6F000E1C6F0ADD760E176F5C
:100A6600030E186F03C419F404C41AF4040E1B6FA2
:100A7600000E1C6FFDDC7A0E176F030E186F05C48F
:100A860019F406C41AF4040E1B6F000E1C6FF0DC7A
:0C0A9600700E096F030E0A6FECDD1200F9
:100AA200020E0C6E490E0D6E0D2EFED70C2EFCD7CB
:060AB2000000000012002C
:100AB8000401036B3C0E0301426F000E436F446F49
:100AC800456F72DF00C001F40050020AD8A419D1A2
:100AD8000401026B0F0E025D04E266DF0401022BC3
:100AE800F9D7340E096F030E0A6FFF0E0B6FFF0E56
:100AF8000C6F040E0D6F000E0E6F18DF026B080EE0
:100B0800025D04E251DF0401022BF9D7026B060EE5
:100B1800025D12E249DF00C001F4380ED96E030EFF
:100B2800DA6E04010251D926D8B0DA2A0050DE184C
:100B380001E012D1022BEBD7026BCE0E025D04E26C
:100B480033DF0401022BF9D7046B2EDF00C001F458
:100B5800B9D02ADF00C001F40050010A04E124DF03
:100B680000C003F401D0F8D0C8D01EDF00C001F4E3
:100B78000050040A0FE14E0E0401096F030E0A6FBC
:100B8800FF0E0B6FFF0E0C6F040E0D6F000E0E6F35
:100B9800CDDE01D0E1D0B1D007DF00C001F4040EF2
:100BA800005C0FE3520E0401096F030E0A6FFF0E7B
:100BB8000B6FFF0E0C6F040E0D6F000E0E6FB6DE7E
:100BC80001D0CAD00401040E015F040101C400F081
:100BD8000107005202E0E8DEF8D78FD0E5DE00C05A
:100BE80001F4040E005C0FE3460E0401096F030EC6
:100BF8000A6FFF0E0B6FFF0E0C6F040E0D6F000EC9
:100C08000E6F94DE01D0A8D00401040E015F040128
:100C180001C400F00107005202E0C6DEF8D76DD02B
:100C2800C3DE00C001F40050040A0FE1050E040100
:100C3800096F040E0A6FFF0E0B6FFF0E0C6F040E88
:100C48000D6F000E0E6F72DE01D086D056D00401F3
:100C5800010E046F52D0A8DE00C001F40050040A4F
:100C680023E1420E0401096F030E0A6FFF0E0B6F9A
:100C7800FF0E0C6F040E0D6F000E0E6F57DE030192
:100C88004551000808E14451000805E143510708AF
:100C980002E14251080807E2080E425F070E435B73
:100CA800000E445B455B01D057D027D07DDE00C0E5
:100CB80001F401C400F004010107005202E074DEEF
:100CC800F8D71BD004010151350AD8B442D70151D5
:100CD800010AD8B44AD70151030AD8B45DD70151E3
:100CE800060AD8B47BD70151360A9AE00151FF0AA7
:100CF800AEE00151330AAFE0D9D704010453D8B4A8
:100D080024D704010351020A0FE14A0E176F030E9C
:100D1800186F050E196F040E1A6F040E1B6F000E64
:100D28001C6F3BEC02F015D04A0E096F030E0A6FD8
:100D3800050E0B6F040E0C6F040E0D6F000E0E6F78
:100D48004DDE000E011802E1000E001802E0040159
:0C0D5800036B03C400F001D0006A12001D
:100D640001C402F002C403F004C400F005C401F09D
:100D7400010E0401045F000E055B0050011009E040
:100D840002C0E1FF03C0E2FF03C4E6FF024A032AF4
:0C0D9400EBD701C400F002C401F0120013
:100DA000F90E0401046F000E056F020E286FD90EB4
:100DB000296F190E2A6F2CEC00F0E30E0401096F65
:100DC0002C0E0A6F000E0B6F0C0E0C6F000E0D6FC9
:100DD0007ADD0151030A0DE102530BE0340E176F67
:100DE000030E186F040E196F000E1A6FEAEC01F073
:100DF0000AD0036B040E035D06E2256B94EC00F051
:100E00000401032BF7D7036B0C0E035D06E2256B81
:100E100094EC00F00401032BF7D7380E176F030E84
:100E2000186F060E196F000E1A6FEAEC01F0036BD3
:100E3000CA0E035D06E2256B94EC00F00401032B5F
:100E4000F7D7FB0E096F2C0E0A6F000E0B6F060E04
:100E50000C6F000E0D6F37DD01C425F494EC00F02B
:100E600004010151030A1AE1025318E1360E256FFD
:100E700094EC00F0040E0401256F94EC00F04A0E8F
:100E80000401176F030E186F040E196F000E1A6F0E
:100E9000EAEC01F0060E0427000E0523010E096F8F
:100EA0002D0E0A6F000E0B6F050E0C6F000E0D6FEE
:100EB0000ADD0151030A23E1025321E1320E256FBD
:100EC00094EC00F0040E0401256F94EC00F0040192
:100ED000036B040E035D0FE2340EE96E030EEA6E3F
:100EE0000351E926D8B0EA2AEECF25F494EC00F0BD
:100EF0000401032BEED7060E0427000E0523FF0E78
:100F0000256F94EC00F0220E0401096F000E0A6FA9
:100F1000220E0B6F000E0C6F440E0D6F000E0E6F45
:100F2000430E0F6F000E106F04C411F405C412F4C9
:060F300070EC03F012005A
:100F36000401056B066B829258C3E1FF59C3E2FFB9
:100F46007A0EE66E56C300F057C301F020EC00F0AF
:100F560001C400F002C401F003C402F0010E040152
:100F66000127000E0223032300C0F6FF01C0F7FF8E
:100F760002C0F8FF0900F5CF00F000C004F40052EB
:100F860010E058C3E1FF59C3E2FF04C4E6FF56C3AD
:100F960000F057C301F020EC00F00401054B062BCE
:0E0FA600D7D7828205C400F006C401F0120005
:100FB4000401046B056B829258C3E1FF59C3E2FF3D
:100FC4007A0EE66E56C300F057C301F020EC00F031
:100FD40001C400F002C401F00401014B022B00C063
:100FE400E9FF01C0EAFFEECF00F000C003F40052B5
:100FF40010E058C3E1FF59C3E2FF03C4E6FF56C340
:1010040000F057C301F020EC00F00401044B052B61
:0E101400DFD7828204C400F005C401F0120090
:101022000301F451190802E1F351AD0804E2AE0ED6
:10103200F35F190EF45B0401286BF3C329F4F4C3C4
:081042002AF42CEC00F012006E
:10104A000B6A0A6A096A00500402F4CF09F0F3CF66
:10105A0008F001500502F4CF0BF0F3CF0AF000506C
:10106A000502F3500926F4500A22E86A0B220150BD
:10107A000402F3500926F4500A22E86A0B2208C037
:10108A0000F009C001F00AC002F00BC003F0120020
:10109A00B50E0401176F190E186FBB0E196F190ED2
:1010AA001A6FAF0E1B6F190E1C6F1D6BFFEC00F051
:1010BA00B50E176F190E186F380E196F030E1A6FC7
:0E10CA00060E1B6F000E1C6F86EC01F012006C
:1010D8000401256BCAEC00F000C0F8F3010E04010E
:1010E800256FCAEC00F000C0F9F30401286BF3C3C4
:1010F80029F4F4C32AF42CEC00F0829258C3E1FFDF
:1011080059C3E2FF3A0EE66E56C300F057C301F02A
:1011180020EC00F00301F75318E058C3E1FF59C36E
:10112800E2FFE66A56C300F057C301F020EC00F076
:10113800F5C3D9FFF6C3DAFF0050DE1801E005D089
:101148000301F54BF62BF707E5D782820401286BDC
:10115800F8C329F4F9C32AF42CEC00F0F7C300F023
:02116800120073
:10116A008292400E0301F311006E58C3E1FF59C386
:10117A00E2FF00C0E6FF56C300F057C301F020ECBF
:10118A0000F058C3E1FF59C3E2FFF4C3E6FF56C3B8
:0E119A0000F057C301F020EC00F0828212003A
:1011A8000301F36BC80EF35D04E277DC76DCF32B06
:0411B800F9D7120051
:1011BC000301FD6BFE6B000EFE5D02E10A0EFD5D90
:1011CC0013E2AB0EFD25FF6F030EFE210401006F31
:1011DC00D8EC04F0FFC3E1FF00C4E2FF00C0E6FF5F
:1011EC000301FD4BFE2BE7D7AB0EFD25E16E030E85
:1011FC00FE21E26EE66AAB0E0401096F030E0A6F64
:10120C002B0E0B6F030E0C6F050E0D6F000E0E6F79
:10121C00F2EC04F00050011003E0006A016A7CD08B
:10122C00B10E0401096F030E0A6F310E0B6F030E22
:10123C000C6F020E0D6F000E0E6FF2EC04F00050EE
:10124C00011008E103011D6B1E6B010E1F6F000ED8
:10125C00206F31D0B10E0401096F030E0A6F230EFB
:10126C000B6F030E0C6F020E0D6F000E0E6FF2EC77
:10127C0004F0005001100AE1010E03011D6F000E75
:10128C001E6F010E1F6F000E206F15D0B10E0401E2
:10129C00096F030E0A6F260E0B6F030E0C6F040EF4
:1012AC000D6F000E0E6FF2EC04F00050011003E114
:1012BC0003011F6B206B0301000EF81902E1500EA5
:1012CC00F71903E0006A016A27D0C50E0401016F0B
:1012DC002C0E026F000E036F28DE00C0FDF301C060
:1012EC00FEF3EF0E016F2C0E026F000E036F1DDE6E
:1012FC0000500301FD270150FE23380E0401016F3D
:10130C00000E026F51DE0301FD510026FE51012239
:0A131C0000C0FDF301C0FEF3120053
:10132600C90E0401176F190E186FCD0E196F190E1D
:101336001A6FCD0E1B6F190E1C6F1D6BFFEC00F0A4
:10134600C90E176F190E186F5D0E196F030E1A6FFF
:0E135600040E1B6F000E1C6F86EC01F01200DF
:06136400006A016A12009C
:10136A00D8EC04F0D8EC04F0D8EC04F000C0F4F3A4
:10137A00D8EC04F000C0F3F3D8EC04F000C0F6F3A4
:10138A00D8EC04F000C0F5F3D8EC04F000C0F8F390
:10139A00D8EC04F000C0F7F3D8EC04F0D8EC04F071
:1013AA00D8EC04F0D8EC04F0F5C300F0F6C301F071
:1013BA00010E0301F55F000EF65B005001100EE00E
:1013CA00D8EC04F0005201E0FBD7D8EC04F0D8ECDA
:1013DA0004F0D8EC04F0D8EC04F0E6D7F7C300F038
:1013EA00F8C301F0010E0301F75F000EF85B00502D
:1013FA00011048E0D8EC04F0D8EC04F0D8EC04F082
:10140A0000C0FCF3D8EC04F000C0FBF3D8EC04F005
:10141A00D8EC04F0D8EC04F0D8EC04F0D8EC04F0E2
:10142A00D8EC04F0D8EC04F000C0FAF3D8EC04F0DD
:10143A0000C0F9F3000E0301FC1902E1010EFB19C9
:10144A0011E1D8EC04F000C066F3D8EC04F000C057
:10145A0067F3D8EC04F000C068F3D8EC04F000C0DD
:10146A0069F310D0F9C300F0FAC301F0010E0301C9
:10147A00F95F000EFA5B0050011003E0D8EC04F0AB
:06148A00F1D7ACD71200FF
:10149000B0D05D0E0401016F030E026F036B040EEA
:1014A000046F000E056F5EDC010E016F026B78DCCD
:1014B0002BC062F32CC063F32DC064F32EC065F320
:1014C000030E216EA7D0050E03016225016E000EEA
:1014D0006321026E000E6421036E000E6521046E0E
:1014E0002E50045C08E12D50035C05E12C50025C99
:1014F00002E12B50015C02E2020E216E5CEC05F071
:101500000050020A03E1040E216E01D083D0030EC5
:101510000401016F2AC002F443DC2BC062F32CC02B
:1015200063F32DC064F32EC065F3050E216E72D0F7
:101530005CEC05F000C0F3F30050060A03E1040E72
:10154000216E2DD00301F351050A29E12BC062F36E
:101550002CC063F32DC064F32EC065F3060E216E1C
:101560005D0E0401176F030E186F340E196F030E12
:101570001A6F040E1B6F000E1C6F3BEC02F04E0E38
:10158000016F030E026F520E036F030E046F460EBF
:10159000056F030E066F23EC05F02A6A3BD03AD0A4
:1015A000010E03016225016E000E6321026E000E22
:1015B0006421036E000E6521046E04502E5C08E168
:1015C00003502D5C05E102502C5C02E101502B5CC4
:1015D0000FE30301010E425F000E435B445B455B7A
:1015E0002BC062F32CC063F32DC064F32EC065F3EF
:1015F00011D02150020AD8B44CD72150030AD8B4D4
:1016000062D72150040A83E02150050A91E021505D
:06161000060AC6E012000C
:10161600C9C325F4CAC326F475EC00F000C0D4F3A0
:10162600D8EC04F000C0D3F3D8EC04F000C0D2F339
:10163600D8EC04F000C0D1F3000E0301D21902E188
:10164600000ED11901E18BD0D8EC04F000C0D6F31E
:10165600D8EC04F000C0D5F3D70E0401096F030ED1
:101666000A6FC90E0B6F190E0C6F040E0D6F000E6C
:101676000E6F9AEC04F0020E286F080E0301C925BE
:101686000401296F000E0301CA2104012A6F2CEC04
:1016960000F00E0E0301C625F36F000EC721F46F8E
:1016A600C851F327000EF423080EF327000EF42387
:1016B600B5DC000E0301D41902E1350ED31902E19F
:1016C60051DE4DD0000E0301D21902E1440ED119AC
:1016D60002E1DBDE44D0D70E0301F36F030EF46F95
:1016E600D3C3F5F3D4C3F6F3D1C3F7F3D2C3F8F3F8
:1016F600080ED55DF96F000ED659FA6F5C0EFB6FBA
:10170600030EFC6F2CDE00C0D5F301C0D6F30050EB
:10171600011025E0CB0E0401096F030E0A6FB50E0A
:101726000B6F190E0C6F060E0D6F000E0E6F9AECF6
:1017360004F0CB0E096F030E0A6FD70E0B6F030E64
:101746000C6FD1C30DF4D2C30EF4D3C30FF4D4C3BC
:1017560010F4D5C311F4D6C312F470EC03F01200E2
:10176600CAC325F4CBC326F475EC00F000C0DAF347
:10177600D8EC04F000C0D9F3D8EC04F000C0D8F3DC
:10178600D8EC04F000C0D7F30301DF6BE46B010E65
:10179600E56FE26BE36B0C0ECA250401256F000EA4
:1017A6000301CB210401266F75EC00F000C0DDF3C8
:1017B600000E0301DE6FDD33DD9FDD33DD9F000E9E
:1017C600DE6FFC0EDD17FF0EDE17EE0E0401096F4D
:1017D600030E0A6FC90E0B6F190E0C6F040E0D6FF8
:1017E600000E0E6F9AEC04F00D0E0301CA250401DB
:1017F600256F000E0301CB210401266F75EC00F066
:101806003F0E00140301DB6FDC6B000EDC17000ECD
:10181600DC6F0E0E5A5DE06F000E5B59E16FC8512A
:10182600E05FC951E15BDD51E05FDE51E15B020E35
:10183600CA250401256F000E0301CB210401266F82
:1018460075EC00F000C027F4CAC325F4CBC326F418
:1018560054EC00F0030E0301CA250401256F000EA7
:101866000301CB210401266F75EC00F000C025F4BE
:1018760094EC00F0D9C317F4DAC318F417EC02F0AD
:10188600040E0301CA250401256F000E0301CB21B6
:101896000401266F75EC00F000C0E9F3D8EC04F003
:1018A60000C0E8F3D8EC04F000C0E7F3D8EC04F08D
:1018B60000C0E6F3D8EC04F000C0EDF3D8EC04F079
:1018C60000C0ECF3D8EC04F000C0EBF3D8EC04F065
:1018D60000C0EAF3000E0301DC1902E1020EDB1977
:1018E6003DE1010EE625006E000EE721016E000EB9
:1018F600E821026E000EE921036E00C0EAF301C082
:10190600EBF302C0ECF303C0EDF3120EDB6F000E37
:10191600DC6F0C0E0401256FCAEC00F000C0E6F384
:101926000D0E0401256FCAEC00F000C0E7F30401B8
:10193600256BCAEC00F000C0E8F3010E0401256F28
:10194600CAEC00F000C0E9F30301DF2B180EDD6FCF
:10195600000EDE6FE26BE36B1F6A6ED0000EDC19C1
:1019660002E1180EDB192FE1E6C3CCF3E7C3CDF392
:10197600E8C3CEF3E9C3CFF3EAC3E6F3EBC3E7F379
:10198600ECC3E8F3EDC3E9F3E051CC25006EE15179
:10199600CD21016E000ECE21026E000ECF21036E08
:1019A60000C0EAF301C0EBF302C0ECF303C0EDF3B1
:1019B600100EDB6F000EDC6FDF2B140EDD6F000EDA
:1019C600DE6FE42B39D0000EDC1902E1110EDB19B3
:1019D60033E1E6C3D0F3E7C3D1F3E8C3D2F3E9C3F7
:1019E600D3F3EAC3E6F3EBC3E7F3ECC3E8F3EDC3E3
:1019F600E9F3010ED025006E000ED121016E000E16
:101A0600D221026E000ED321036E00C0EAF301C09C
:101A1600EBF302C0ECF303C0EDF3100EDB6F000E28
:101A2600DC6FDF2B140EDD6F000EDE6FE26BE36BF7
:101A3600205202E11F2A206ADF53D8B408D2040ECE
:101A4600CA250401176F000E0301CB210401186F8C
:101A5600E9C319F4E8C31AF4DFEC01F0E7C325F48F
:101A660094EC00F0E6C325F494EC00F0EDC325F405
:101A760094EC00F0ECC325F494EC00F0EBC325F4F1
:101A860094EC00F0EAC325F494EC00F00C0E03018C
:101A9600CA250401256F000E0301CB210401266F20
:101AA60075EC00F00F0E00140401276FDDC300F083
:101AB6000036009000360090005027130C0E0301EC
:101AC600CA250401256F000E0301CB210401266FF0
:101AD60054EC00F00D0E0301CA250401256F000E1B
:101AE6000301CB210401266F75EC00F0C00E001433
:101AF6000401276F0301DB51040127130D0E0301B7
:101B0600CA250401256F000E0301CB210401266FAF
:101B160054EC00F0000E0301DC1902E1120EDB1991
:101B260029E10E0ECA250401176F000E0301CB2111
:101B36000401186F050E196FEE0E1A6FDFEC01F037
:101B4600140E0301CA250401176F000E0301CB21F1
:101B56000401186F020E196F040E1A6FDFEC01F004
:101B6600050E0401256F94EC00F0780E0401256F34
:101B760094EC00F00301C851E225E06FC951E3215E
:101B8600E16FDD51E027DE51E123E55304E04DEC42
:101B960008F093EC09F00401BF0E176F190E186FC9
:101BA600E1C319F4E0C31AF4DFEC01F0C70E040137
:101BB600176F190E186F196B1A6BDFEC01F0BD0E5B
:101BC6000401176F190E186FC8C319F4C9C31AF4A4
:101BD600B7EC01F0160E0401256FCAEC00F000C048
:101BE600F2F3170E0401256FCAEC00F000C019F4D9
:101BF600C70E0401176F190E186FF2C31AF4DFEC43
:101C060001F0BD0E0301E025D56F190EE121D66F57
:101C1600100ECA250401176F000E0301CB21040123
:101C2600186F196B1A6BDFEC01F0010E0301E0155A
:101C3600D46FD5C325F4D6C326F40401276B54EC20
:101C460000F0C90E0401176F190E186FD10E196F27
:101C5600190E1A6F0301D451D52504011B6F000E0E
:101C66000301D62104011C6F1D6BFFEC00F0080E6A
:101C76000301D5250401176F000E0301D6210401C7
:101C8600186F0301D45104011727000E1823196B8E
:101C9600060E1A6FDFEC01F00A0E0301D5250401CA
:101CA600176F000E0301D6210401186F0301D451EA
:101CB60004011727000E18230301E251DD25036EE8
:101CC600E351DE21046E04C000F0016A00C019F47D
:101CD60003C01AF4DFEC01F0CAC317F4CBC318F43F
:101CE6000301E251DD250401196F0301E351DE21F1
:101CF60004011A6F0C0E1927000E1A230301D45182
:101D060004011927000E1A23B7EC01F0160E040180
:101D1600256FCAEC00F000C0F2F3170E0401256F20
:101D2600CAEC00F000C019F4100E0301CA25040124
:101D3600176F000E0301CB210401186FF2C31AF4CA
:101D4600DFEC01F00E0E0301E0250401176F000E13
:101D56000301E1210401186F63EC02F00301E4536F
:101D660051E0100EDB6F000EDC6FE46BE56B020ECC
:101D76000401286F0301DD51CA250401296F0301FF
:101D8600DE51CB2104012A6F2CEC00F00E0E03016C
:101D9600C625F36F000EC721F46FC851F327C9514A
:101DA600F423DD51F327DE51F42311EC08F01F2A4A
:101DB600EE0E0301F36F030EF46FD9C3F5F3DAC326
:101DC600F6F3D7C3F7F3D8C3F8F30E0E5A5DF96FDF
:101DD600000E5B59FA6FC851F95FC951FA5BDD51C4
:101DE600F95FDE51FA5B5C0EFB6F030EFC6FDEECF7
:101DF60008F000C0E2F301C0E3F303015CB101D0D7
:101E06001F6A1DD61F5223E0E251E625006EE351FC
:101E1600E721016E000EE821026E000EE921036E35
:101E260000C0E6F301C0E7F302C0E8F303C0E9F33C
:101E3600110EDB6F000EDC6F1F6AE56B140EDD6F93
:101E4600000EDE6FE26BE36B010E206EF8D512001A
:101E56001F0E0401256F010E266FE2EC00F01F0E27
:101E66000401256F020E266FADEC00F0140E03017F
:101E7600F36FC6C3F4F3B5EC08F0120E0401256F38
:101E8600010E266FADEC00F0D4EC08F0120E040142
:101E9600256F010E266FE2EC00F0180E0401256F87
:101EA600CAEC00F0C9C3E1FFCAC3E2FF00C0E6FF07
:101EB600190E0401256FCAEC00F0C7C3E1FFC8C3C1
:081EC600E2FF00C0E6FF12007C
:101ECE001F0E0401256F010E266FE2EC00F01F0EAF
:101EDE000401256F020E266FADEC00F0140E030107
:101EEE00F36FC6C3F4F3B5EC08F0D4EC08F0160E9D
:101EFE00F36FC8C3F4F3B5EC08F0D4EC08F0170E8A
:101F0E00F36FC7C3F4F3B5EC08F0D4EC08F012008D
:101F1E00C40E0401256F190E266F75EC00F000C07B
:101F2E00C6F3E8D0D50E0301F36F190EF46F5D0EF4
:101F3E00F56F030EF66F040EF76F6CEC08F00050A1
:101F4E00000A4BE1C40E0401256F190E266F020E16
:101F5E00276F54EC00F04DEC08F0CB0E176F190EF6
:101F6E00186FCF0E196F190E1A6FD50E1B6F190E33
:101F7E001C6F1D6BFFEC00F0CB0E176F190E186F58
:101F8E005D0E196F030E1A6F040E1B6F000E1C6F81
:101F9E0086EC01F0C50E176F190E186FCB0E196F68
:101FAE00190E1A6FCF0E1B6F190E1C6F1D6BFFECE7
:101FBE0000F0C50E176F190E186F380E196F030E3D
:101FCE001A6F060E1B6F000E1C6F86EC01F03C0E96
:101FDE00176F000E186F63EC02F095D0AF0E030171
:101FEE00F36F190EF46F380EF56F030EF66F060EC3
:101FFE00F76F6CEC08F00050000A7BE1CB0E03018A
:10200E00F36F190EF46F74C3F5F375C3F6F3040E84
:10201E00F76F6CEC08F00050000A6BE10F0E006ECB
:10202E00000E016E37C004F0000E056E25EC08F0B0
:10203E007E0E00240401096F030E01200A6F090EA3
:10204E000927000E0A23C50E0B6F190E0C6F060E14
:10205E000D6F000E0E6F9AEC04F00F0E006E000E58
:10206E00016E37C004F0000E056E25EC08F07E0EF2
:10207E000024176F030E0120186F050E1727000E90
:10208E00182374C319F475C31AF4040E1B6F000ED3
:10209E001C6F3BEC02F00F0E006E000E016E37C08F
:1020AE0004F0000E056E25EC08F07E0E0024E16EA5
:1020BE00030E0120E26E010EE66E0F0E006E000E94
:1020CE00016E37C004F0000E056E25EC08F07E0E92
:1020DE000026030E0122010E0024E16E000E0120E7
:1020EE00E26E2BC0E6FF2CC0E6FF2DC0E6FF2EC031
:1020FE00E6FF09D00301C651010AD8B413D7C65161
:08210E00020AD8B46BD71200DD
:102116000301F36BBA5303E00D0EBB6F02D0050E3D
:10212600BB6FBBC3F4F3B5EC08F0020E0301F36F0B
:10213600BA5303E0310EBC6F02D0300EBC6FBCC385
:10214600F4F3B5EC08F00A0E0401286FEE0E296FC1
:10215600050E2A6F2CEC00F0040E0301F36FBA5340
:1021660003E0150EBD6F02D0120EBD6FBDC3F4F3B2
:10217600B5EC08F0060E0301F36F120EF46FB5EC22
:1021860008F00301BA5306E1070EF36F0C0EF46F65
:10219600B5EC08F00301BA5306E1090EF36F3F0EE2
:1021A600F46FB5EC08F01F0E0401256F010E266FC3
:1021B600ADEC00F01F0E0401256F020E266FADEC8C
:1021C60000F0040E0301F36F38C3F4F3B5EC08F026
:1021D600050E0301F36F39C3F4F3B5EC08F0020EF4
:1021E6000301F36F3AC3F4F3B5EC08F0030E0301F1
:1021F600F36F3BC3F4F3B5EC08F00301F36B3CC398
:10220600F4F3B5EC08F0010E0301F36F3DC3F4F3EC
:10221600B5EC08F0150E0301F36FF46BB5EC08F09E
:10222600120E0401256FCAEC00F000C061F3030131
:10223600C66BBF0EC76F030EC86FC00EC96F030E05
:10224600CA6F06DE0301C66BFE0EBF15C76FBA5313
:1022560003E0010EBE6F01D0BE6BBE51C713C0C3F3
:10226600C8F332DE100EC66F010EC76FC86B2CDEC8
:102276001F0E0401256F040E266FADEC00F0D4ECA2
:1022860008F07E0E0401016F030E026F036B2D0E24
:10229600046F000E056FB2EC06F01F0E256F010EDF
:1022A600266FE2EC00F01F0E0401256F020E266F6A
:0622B600E2EC00F0120052
:1022BC000301C36B5C815C931F0E0401256F010E3F
:1022CC00266FE2EC00F01F0E0401256F020E266F44
:1022DC00E2EC00F00401286B28C029F429C02AF490
:1022EC002CEC00F0829258C3E1FF59C3E2FF3A0E86
:1022FC00E66E56C300F057C301F020EC00F058C353
:10230C00E1FF59C3E2FFE66A56C300F057C301F080
:10231C0020EC00F000C028F058C3E1FF59C3E2FFE5
:10232C00E66A56C300F057C301F020EC00F000C081
:10233C0029F058C3E1FF59C3E2FFE66A56C300F027
:10234C0057C301F020EC00F000C05AF358C3E1FF72
:10235C0059C3E2FFE66A56C300F057C301F020EC04
:10236C0000F000C05BF358C3E1FF59C3E2FFE66A1B
:10237C0056C300F057C301F020EC00F000C0C1F3CD
:10238C0058C3E1FF59C3E2FFE66A56C300F057C3D6
:10239C0001F020EC00F000C0C2F38282040E0301B5
:1023AC005A5F000E5B5B2950190802E12850AD08FA
:1023BC000DE328B00BD0C2BF09D05B51050802E178
:1023CC005A51EE0803E3C1AF01D003D0010E006EE9
:1023DC00DAD10401256BCAEC00F000C0BFF3010E8A
:1023EC000401256FCAEC00F000C0C0F3BFC317F4A2
:1023FC00C0C318F403015A51BF250401196F03011E
:10240C005B51C02104011A6FAF0E1B6F190E1C6FAC
:10241C00010E1D6FFFEC00F0BB0E256F190E266F21
:10242C0075EC00F000C0C2F3D8EC04F000C0C1F3AE
:10243C000301C251080A02E1060EC11911E1BD0ED9
:10244C00F36F190EF46F2F0EF56F000EF66F070E6B
:10245C00F76F6CEC08F00050000A01E15ADD69D10D
:10246C000301C251080A02E1000EC119D8A45ED1C1
:10247C00CD0EF36F190EF46F700EF56F030EF66F31
:10248C00040EF76F6CEC08F0005202E103015C8360
:10249C000301CD0EF36F190EF46F220EF56F000EC3
:1024AC00F66F040EF76F6CEC08F0005202E10301BA
:1024BC005C830301CD0EF36F190EF46F5D0EF56F97
:1024CC00030EF66F040EF76F6CEC08F0005206E08A
:1024DC0003015CB303D0020EC36F27D1BD0E040100
:1024EC00256F190E266F75EC00F0F00E0014016EBE
:1024FC000150400A04E0030E0301C36F16D1BD0E58
:10250C000401256F190E266F75EC00F000C0BDF3A9
:10251C00000E0301BE6F0F0EBD17000EBE17BD37A8
:10252C00BD91BE37BD37BD91BE37C30E0401256FBB
:10253C00190E266F75EC00F0BF0E0014016E0150E1
:10254C00000AD8A4F2D0C40E0401256F190E266F10
:10255C0075EC00F00050000AD8A4E7D0BD0E0301C2
:10256C00BD25BB6F190EBE21BC6FC60E0401256FB5
:10257C00190E266F75EC00F000C0BAF30050010A7A
:10258C00D8A494D0BBC325F4BCC326F475EC00F0DE
:10259C000050080AD8A489D0010E0301BB25040100
:1025AC00256F000E0301BC210401266F75EC00F0B1
:1025BC000050000A7AE1BBC325F4BCC326F4040125
:1025CC00276B54EC00F04DEC08F093EC09F0C70EBF
:1025DC00176F190E186F196B1A6BDFEC01F0BD0E2B
:1025EC000401176F190E186FBDC319F4BEC31AF48A
:1025FC00B7EC01F0160E0401256FCAEC00F000C018
:10260C00C4F3170E0401256FCAEC00F000C019F4D6
:10261C00C70E0401176F190E186FC4C31AF4DFEC40
:10262C0001F0020E0301BB250401176F000E03011C
:10263C00BC210401186F196B1A6BDFEC01F0BBC3E2
:10264C0017F4BCC318F40301BD515A5D0401196F92
:10265C000301BE515B5904011A6F0E0E195F000E77
:10266C001A5BB7EC01F0160E0401256FCAEC00F0F2
:10267C0000C0C4F3170E0401256FCAEC00F000C0B3
:10268C0019F4020E0301BB250401176F000E0301A0
:10269C00BC210401186FC4C31AF4DFEC01F05AC357
:1026AC0017F45BC318F463EC02F03FD00301BA518A
:1026BC00110A0DE1BFC3C6F3C0C3C7F3BDC3C8F352
:1026CC00BBC3C9F3BCC3CAF30BEC0BF02ED0030194
:1026DC00BA51060A2AE1100EBF250401256F000E1F
:1026EC000301C0210401266F75EC00F000C0C5F396
:1026FC000301C46BD8EC04F000500301C4255A6FDD
:10270C00000EC5215B6F0E0E5A27000E5B23BFC354
:10271C00C6F3C0C3C7F3BDC3C8F3BEC3C9F3BBC3C1
:10272C00CAF3BCC3CBF3B3EC0BF003D00301040E20
:10273C00C36F1E0E0401256F400E266FADEC00F02A
:10274C00010E285C016E000E2958026E0250190809
:10275C0002E10150AD080AE20C0E0401286FAD0E27
:10276C00296F190E2A6F2CEC00F00BD00C0E040103
:10277C00286F010E285C296F000E29582A6F2CEC4B
:08278C0000F0C3C300F01200CD
:10279400C69A1C0E0301566F000E576F2B0E586F0E
:1027A400040E596FFF0E6C6FFF0E6D6FFF0E6E6F90
:1027B400FF0E6F6F949A94969488C66A400EC76E03
:0427C400C68A1200AF
:1027C8000900F5CFE6FF0006FBE10106F9E112007A
:1027D8009490828094928282D4EC08F08280D4EC27
:1027E80008F08290D4EC08F08280D4EC08F0829251
:1027F80058C3E1FF59C3E2FFFF0EE66E56C300F06F
:1028080057C301F020EC00F08282D4EC08F0380EB7
:102818000401176F030E186FB5C319F4B6C31AF481
:10282800060E1B6F000E1C6F3BEC02F05D0E176F5F
:10283800030E186FB7C319F4B8C31AF4040E1B6F4C
:10284800000E1C6F3BEC02F01F0E256F010E266F69
:10285800E2EC00F01F0E0401256F020E266FE2EC79
:1028680000F0080E0401286F296B2A6B2CEC00F08D
:102878000A0E0401286FAD0E296F190E2A6F2CEC71
:1028880000F00C0E0401286FAD0E296F190E2A6F87
:102898002CEC00F00401286B296B2A6B2CEC00F05F
:1028A800040E0401286FAE0E296F190E2A6F2CEC46
:1028B80000F01F0E0401256F010E266FE2EC00F0F8
:1028C8001F0E0401256F020E266FADEC00F0B9C390
:0628D800BAF31DDC120042
:1028DE0003011F51201102E1816A13D006D0050EAB
:1028EE00816E0FD0010E816E0CD0000E1E1902E10A
:1028FE00000E1D19F4E0000E1E1902E1010E1D1945
:04290E00F1E01200E2
:102912000301B56B1F0E0401256F010E266FADEC8E
:1029220000F01F0E0401256F020E266FE2EC00F08C
:10293200190E0401256FCAEC00F00050000803E2F2
:10294200BCDC00C0B5F31F0E0401256F010E266F1B
:10295200E2EC00F01F0E0401256F020E266FE2EC7E
:0829620000F0B5C300F0120003
:10296A0083EC16F0380ED36E936A926A816A010E6E
:10297A00806E0F013A6B3B6B956A836A06DF150E10
:10298A00B56F000EB66F1B0EB76F000EB86F010E53
:0C299A00B96F1DDFB9DF9EDFFDD7FFD74E
:102D060010EE15F01F0E006E040E016EA60EF66E86
:0E2D1600290EF76E000EF86EE4EC13F01200BA
:0629A6000014A576193FA4
:0429AC000AD337050E
:0129B0000026
:0129B1000025
:0129B2000024
:0629B300FFFFFFFFFFFF24
:0229B90000001C
:0129BB00001B
:0429BC000000000017
:0829C0000001080006040000FC
:0129C800000E
:1029C9003C68746D6C3E3C626F64793E3C666F7224
:1029D9006D206E616D653D22696E70757422206D82
:1029E9006574686F643D22676574223E3C74616258
:1029F9006C6520616C69676E3D63656E74657220F4
:102A090077696474683D353030206267636F6C6F35
:102A1900723D236163666666666620626F726465ED
:102A2900723D343E3C74723E3C746420616C69674B
:102A39006E3D63656E74657220636F6C7370616E51
:102A49003D323E3C666F6E742073697A653D37206E
:102A5900636F6C6F723D426C61636B206661636585
:102A69003D2276657264616E61223E3C623E4D4F45
:102A7900544F5220434F4E54524F4C3C2F623E3CD0
:102A89002F666F6E743E3C2F74643E3C2F74723E09
:102A99003C74723E3C746420616C69676E3D636589
:102AA9006E746572206267636F6C6F723D23616338
:102AB90066666666663E3C696E707574206E616D09
:102AC900653D22544C2220747970653D22737562EC
:102AD9006D6974222076616C75653D224C6566745A
:102AE900223E3C2F74643E3C746420616C69676EBD
:102AF9003D63656E746572206267636F6C6F723DCA
:102B090023616366666666663E3C696E707574200D
:102B19006E616D653D2254522220747970653D22A3
:102B29007375626D6974222076616C75653D2252F8
:102B390069676874223E3C2F74643E3C2F74723E70
:102B49003C74723E3C746420616C69676E3D6365D8
:102B59006E746572206267636F6C6F723D23616387
:102B6900666666666620636F6C7370616E3D313EA2
:102B79003C696E707574206E616D653D222B222053
:102B8900747970653D227375626D6974222076616E
:102B99006C75653D222B223E3C2F74643E3C746467
:102BA90020616C69676E3D63656E7465722062674A
:102BB900636F6C6F723D2361636666666666206348
:102BC9006F6C7370616E3D313E3C696E7075742037
:102BD9006E616D653D222D2220747970653D2273E9
:102BE90075626D6974222076616C75653D222D22AE
:102BF9003E3C2F74643E3C2F74723E3C74723E3CE2
:102C0900746420616C69676E3D63656E74657220DA
:102C19006267636F6C6F723D2361636666666666A1
:102C290020636F6C7370616E3D323E3C696E7075E6
:102C390074206E616D653D2253544F502220747982
:102C490070653D227375626D6974222076616C75B9
:102C5900653D2253746F70223E3C2F74643E3C2FB5
:102C690074723E3C2F7461626C653E3C2F666F72D4
:102C79006D3E3C736372697074207372633D2222E6
:102C8900206173796E632064656665723E3C2F73BB
:102C990063726970743E3C2F626F64793E3C2F68A1
:052CA900746D6C3E009B
:062CAE0000000000000020
:032CB40054520077
:052CB70053544F5000D2
:062CBC00474554202F00E3
:032CC200544C006F
:102CC500485454502F312E3120323030204F4B0A8A
:0E2CD500436F6E74656E742D747970653A00ED
:0C2CE300010106001223344500008000AF
:0C2CEF00746578742F68746D6C0A0A001C
:062CFB0063825363350102
:052D0100370301030689
:020000040030CA
:0D000100231F3CFFBF81FF0FC00FE00F4029
:00000001FF
