:10000000A3EF14F00000000000EF00F0000000007B
:0A0010000000000000000000F3D71C
:10001C00F7C5C9FFC7B002D00000FCD7C9CF00F0AC
:02002C001200C0
:10002E00F7C56FFF6DB002D00000FCD76FCF00F0A8
:02003E001200AE
:10004000F250026EF29E0500FF6A0150FE6E0050F3
:08005000FD6E02BEF28E1200EB
:100058008292400E0501F411006E1EC5E1FF1FC516
:10006800E2FF00C0E6FF1CC500F01DC501F0E4DF9B
:100078001EC5E1FF1FC5E2FFF5C5E6FF1CC500F080
:100088001DC501F0D9DF1EC5E1FF1FC5E2FFF6C59A
:10009800E6FF1CC500F01DC501F0CEDF828212000C
:1000A800020E0501F46FF1C5F5F5F2C5F6F5D0DFDE
:1000B80082921EC5E1FF1FC5E2FF7A0EE66E1CC5DF
:1000C80000F01DC501F0B8DF1EC5E1FF1FC5E2FF46
:1000D800F3C5E6FF1CC500F01DC501F0ADDF828247
:0200E800120004
:1000EA000501F46BF1C5F5F5F2C5F6F5B0DF8292BC
:1000FA001EC5E1FF1FC5E2FF3A0EE66E1CC500F001
:10010A001DC501F098DF1EC5E1FF1FC5E2FFE66AC3
:0E011A001CC500F01DC501F08EDF82821200B0
:1001280082921EC5E1FF1FC5E2FF7A0EE66E1CC56E
:1001380000F01DC501F080DF1EC5E1FF1FC5E2FF0D
:10014800F1C5E6FF1CC500F01DC501F075DF828210
:02015800120093
:10015A008292800E0501F111006E1EC5E1FF1FC5D6
:10016A00E2FF00C0E6FF1CC500F01DC501F063DF19
:10017A001EC5E1FF1FC5E2FFF2C5E6FF1CC500F080
:0A018A001DC501F058DF828212004B
:1001940082921EC5E1FF1FC5E2FFF1C5E6FF1CC543
:1001A40000F01DC501F04ADF1EC5E1FF1FC5E2FFD7
:1001B400E66A1CC500F01DC501F040DF8282120012
:1001C4008292A00E0501F111006E1EC5E1FF1FC54C
:1001D400E2FF00C0E6FF1CC500F01DC501F02EDFE4
:1001E4001EC5E1FF1FC5E2FFF2C5E6FF1CC500F016
:0A01F4001DC501F023DF8282120016
:1001FE000501F06B010EE55F000EE65BE9530DE0C5
:10020E00E651190802E1E551AD0807E2F02BAD0EFB
:10021E00E55DEE6F190EE659EF6FF05305E0AD0E8A
:10022E00EA6F190EEB6F04D0E5C5EAF5E6C5EBF5FE
:10023E00E451EB1902E1EA51E3190DE1E3C5F1F5E1
:10024E00E4C5F2F54BDF00C0F3F5E7C5F1F5E8C5FF
:10025E00F2F523DF36D0100E0501F46FE3C5F5F588
:10026E00E4C5F6F5F2DE120E0501F46FF05305E06B
:10027E00AD0EEC6F190EED6F04D0E5C5ECF5E6C5CD
:10028E00EDF5ECC5F5F5EDC5F6F5DFDE140E050161
:10029E00F46FE7C5F5F5E8C5F6F5D7DE1F0E0501D7
:1002AE00F16F100EF26F87DF1F0E0501F16F200E3A
:1002BE00F26F4CDF1F0E0501F16F65DF00AA01D052
:1002CE00F9D70501F0531AE0E351E55D006EE451F4
:1002DE00E659016EEE51005EEF51015A004A012AB5
:1002EE000050E7270150E823010EEE5DE56F000E8A
:0E02FE00EF59E66FE36BE46BF06B8FD71200E5
:10030C00020E0501F46FE3C5F5F5E4C5F6F59EDEC6
:10031C0082921EC5E1FF1FC5E2FF7A0EE66E1CC578
:10032C0000F01DC501F086DE0501E751E81117E06C
:10033C001EC5E1FF1FC5E2FFE5C5E9FFE6C5EAFF03
:10034C00EECFE6FF1CC500F01DC501F073DE050104
:10035C00E54BE62B010EE75F000EE85BE5D78282EA
:02036C0012007D
:10036E000501E551E325E76FE651E421E86F010E43
:10037E00E75F000EE85B100EF46FE3C5F5F5E4C51C
:10038E00F6F563DE120E0501F46FE7C5F5F5E8C567
:10039E00F6F55BDE1F0E0501F16F300EF26FD6DE45
:1003AE001F0E0501F16FEFDE00AA01D0F9D7120082
:1003BE00E3C5F1F5E4C5F2F5E5C5F3F56EDEE6C588
:0603CE00F1F5ABDE1200A8
:1003D40082921EC5E1FF1FC5E2FF7A0EE66E1CC5C0
:1003E40000F01DC501F02ADEE5C500F0E6C501F008
:1003F400010E0501E55F000EE65B0050011013E0FD
:100404001EC5E1FF1FC5E2FFE3C5E9FFE4C5EAFF3E
:10041400EECFE6FF1CC500F01DC501F00FDE05019F
:0A042400E34BE42BE1D782821200C3
:10042E0082921EC5E1FF1FC5E2FF7A0EE66E1CC565
:10043E0000F01DC501F0FDDD1EC5E1FF1FC5E2FF89
:10044E00E4C5E6FF1CC500F01DC501F0F2DD1EC5BA
:10045E00E1FF1FC5E2FFE3C5E6FF1CC500F01DC5A9
:08046E0001F0E7DD82821200BB
:10047600E5C504F0E6C505F0E3C502F0E4C503F002
:10048600E7C500F0E8C501F0010E0501E75F000EC3
:10049600E85B005001100FE004C0E9FF05C0EAFF69
:1004A60002C0E1FF03C0E2FFEECFE6FF024A032AE5
:1004B600044A052AE5D7E3C500F0E4C501F01200B9
:1004C600AE0E0501F16F190EF26FF36BEADDAE0E9B
:1004D6000501E325006E190EE421016E00C0E3F567
:1004E60001C0E4F5060EF46F00C0F5F501C0F6F59F
:1004F600B0DD1F0E0501F16F800EF26F2BDE1F0EB1
:100506000501F16F800EF26F5ADE05017851050A7A
:1005160004E07851070A01E005D01C0EF16F0A0EBF
:10052600F26F4DDE1F0E0501F16F080EF26F12DE3F
:1005360005017851050A04E07851070A01E07FD0E9
:10054600E86BE96B1C0EF16F22DE0A0E00160052F4
:100556000AE10501E84BE92B030EE95D02E1E80E2D
:10056600E85D01E2EFD705011C0EF16F10DE00B267
:1005760008D0030E0501E95D02E1E80EE85D01E23F
:100586005DD005011F0EF16F080EF26F18DE040E26
:100596000501E325F16F000EE421F26FA3DD00C033
:1005A600E7F50501E56B100EE55D48E21C0EF16FFF
:1005B600EEDD00A23FD00501E7AB3CD01F0EF16F88
:1005C600800EF26FC7DD1F0E0501F16F800EF26F10
:1005D600F6DD1C0E0501F16F0A0EF26FF0DD1F0E3F
:1005E6000501F16F080EF26FB5DD0501E86BE96BE9
:1005F6001C0EF16FCCDD0A0E001600520AE1050151
:10060600E84BE92B030EE95D02E1E80EE85D01E245
:10061600EFD705011F0EF16F080EF26FD0DD040E45
:100626000501E325F16F000EE421F26F5BDD00C0EA
:10063600E7F501D003D00501E52BB5D707D00501B5
:100646001F0EF16FA4DD00A601D0F9D71D0E05011E
:10065600F16F9DDD060E0016005203E00501E66B04
:0E06660003D00501010EE66FE6C500F012009C
:10067400D5C5E3F5D6C5E4F52F0E0501E56F050EE6
:10068400E66F040EE76F000EE86FF3DED76BD75109
:10069400030821E3D751D525026E000ED621036E3F
:1006A40002C0E9FF03C0EAFFEECF01F0330EE96EAA
:1006B400050EEA6ED751E926D8B0EA2AFF0EEE18E5
:1006C400006E0150001202C0E1FF03C0E2FF00C04F
:0806D400E6FFD72BDCD7120072
:1006DC00AF0E0501E36F190EE46FD5C5E5F5D6C570
:1006EC00E6F5060EE76F000EE86F0ADE280EE36FE4
:1006FC00050EE46F060EE56F000EE66F65DE000E6C
:10070C00E36F080EE46F8DDE1C0E0501DD25E06F36
:10071C00000EDE21E16F000EE36F450EE46F81DE0B
:10072C00E0C5E3F5E1C5E4F57CDE6EC5E3F56FC528
:10073C00E4F577DE05016E4B6F2BE36BE46B71DE3A
:10074C00110E0501E36F800EE46F6BDE0501E36BA8
:10075C00E46B67DE2F0E0501E36F050EE46F040EEC
:10076C00E56F000EE66F30DED7C5E3F5D8C5E4F5CE
:10077C00040EE56F000EE66F27DE080EDD25E06F38
:10078C00000EDE21E16FD9C5E3F5DAC5E4F549DEEB
:10079C00DBC5E3F5DCC5E4F544DEE0C5E3F5E1C516
:1007AC00E4F53FDE0501E36BE46B3BDEBD0E0501BA
:1007BC00E36F190EE46F140EE56F000EE66FD1DDDA
:1007CC00160E0501F16FE0DC00C0E2F5170E050115
:1007DC00F16FDADC00C0E5F5C70E0501E36F190E09
:1007EC00E46FE2C5E6F5E5DD010E0501E015DF6F0E
:1007FC00D90EDD25F16F190EDE21F26FF36B4EDC95
:10080C00C90E0501E36F190EE46FD10EE56F190ED9
:10081C00E66FD90EDD25E76F190EDE21E86FDF518B
:10082C00E727000EE823E96BE4DCD90EDD25E36F46
:10083C00190EDE21E46FDF51E327000EE423080ECE
:10084C00E327000EE423E56B110EE66FB2DDE1C584
:10085C00F1F564DCE0C5F1F561DCD10E0501E36F67
:10086C00190EE46F0C0EE025E56F000EE121E66F2A
:10087C00DF51E527000EE62374DD160E0501F16F3E
:10088C0083DC00C0E2F5170E0501F16F7DDC00C0C2
:10089C00E5F5D70E0501E36F190EE46FE2C5E6F539
:1008AC0088DD2A0E0501DD25E36F000EDE21E46FE5
:0408BC0004DE120044
:1008C00082921EC5E1FF1FC5E2FF7A0EE66E1CC5CF
:1008D00000F01DC501F020EC00F0D8C500F0D9C52E
:1008E00001F0010E0501D85F000ED95B0050011028
:1008F0001CE01EC5E1FF1FC5E2FFD5C5F6FFD6C54A
:10090000F7FFD7C5F8FF0900F5CF00F000C0E6FFFC
:100910001CC500F01DC501F020EC00F0010E050122
:0E092000D527000ED623D723D8D78282120007
:10092E000501D851FF0A02E1FF0ED71907E0F46B5B
:10093E00D7C5F5F5D8C5F6F52CEC00F082921EC59C
:10094E00E1FF1FC5E2FF3A0EE66E1CC500F01DC5A5
:10095E0001F020EC00F0D9C500F0DAC501F0010E6F
:10096E000501D95F000EDA5B0050011015E01EC5BF
:10097E00E1FF1FC5E2FFE66A1CC500F01DC501F0D0
:10098E0020EC00F0D5C5E1FFD6C5E2FF00C0E6FFC2
:0C099E000501D54BD62BDFD7828212005A
:1009AA0082921EC5E1FF1FC5E2FF3A0EE66E1CC524
:1009BA0000F01DC501F020EC00F01EC5E1FF1FC5C7
:1009CA00E2FFE66A1CC500F01DC501F020EC00F04C
:0409DA008282120003
:1009DE00D9C501F0DAC502F0010E0501D95F000E8E
:1009EE00DA5B000E021802E1000E01181FE0D5C5F9
:1009FE00E9FFD6C5EAFFD7C5D9FFD8C5DAFFEE5055
:100A0E00DE180FE0D5C5E9FFD6C5EAFFD7C5D9FF79
:100A1E00D8C5DAFFDE50EE5C006E016A000E015A98
:100A2E0007D0D54BD62BD74BD82BD2D7006A016A1D
:020A3E001200A4
:100A4000330E0501E36F050EE46FCDC5E5F5CEC5A8
:100A5000E6F5040EE76F000EE86F0DDD790EE36F2B
:100A6000050EE46FCFC5E5F5D0C5E6F5040EE76FDA
:100A7000000EE86F00DD700EE36F050EE46FD1C568
:100A8000E5F5D2C5E6F5040EE76F000EE86FF3DC7E
:0C0A90007D0ED56F050ED66FEDDD120057
:100A9C00020E0C6E490E0D6E0D2EFED70C2EFCD7D1
:060AAC0000000000120032
:100AB2000501CF6B3C0E206F000E216F226F236F5A
:100AC20073DF00C0CDF50050020AD8A418D1050189
:100AD200CE6B0F0ECE5D04E267DF0501CE2BF9D798
:100AE200240ED56F050ED66FFF0ED76FFF0ED86F8F
:100AF200040ED96F000EDA6F19DFCE6B080ECE5DD1
:100B020004E252DF0501CE2BF9D7CE6B060ECE5D85
:100B120012E24ADF00C0CDF5280ED96E050EDA6E5C
:100B22000501CE51D926D8B0DA2A0050DE1801E0EC
:100B320011D1CE2BEBD7CE6BCE0ECE5D04E234DFDD
:100B42000501CE2BF9D7D06B2FDF00C0CDF5B8D081
:100B52002BDF00C0CDF50050010A04E125DF00C003
:100B6200CFF501D0F7D0C7D01FDF00C0CDF50050C0
:100B7200040A0FE1160E0501D56F050ED66FFF0EA2
:100B8200D76FFF0ED86F040ED96F000EDA6FCEDE6C
:100B920001D0E0D0B0D008DF00C0CDF5040E005C7B
:100BA2000FE3000E0501D56F050ED66FFF0ED76F4E
:100BB200FF0ED86F040ED96F000EDA6FB7DE01D0C8
:100BC200C9D00501040ECD5F0501CDC500F0CD07EA
:100BD200005202E0E9DEF8D78ED0E6DE00C0CDF5A5
:100BE200040E005C0FE3040E0501D56F050ED66FEF
:100BF200FF0ED76FFF0ED86F040ED96F000EDA6F9B
:100C020095DE01D0A7D00501040ECD5F0501CDC54B
:100C120000F0CD07005202E0C7DEF8D76CD0C4DE88
:100C220000C0CDF50050040A0FE1D10E0501D56FC9
:100C3200050ED66FFF0ED76FFF0ED86F040ED96F59
:100C4200000EDA6F73DE01D085D055D00501010E9A
:100C5200D06F51D0A9DE00C0CDF50050040A22E1C8
:100C6200200E0501D56F050ED66FFF0ED76FFF0E52
:100C7200D86F040ED96F000EDA6F58DE23510008C8
:100C820008E12251000805E12151070802E1205143
:100C9200080807E2080E205F070E215B000E225BA8
:100CA200235B01D057D027D07FDE00C0CDF5CDC564
:100CB20000F00501CD07005202E076DEF8D71BD026
:100CC2000501CD51350AD8B443D7CD51010AD8B464
:100CD2004BD7CD51030AD8B45ED7CD51060AD8B44A
:100CE2007CD7CD51360A9BE0CD51FF0AAFE0CD5102
:100CF200330AB0E0D9D70501D053D8B425D70501BE
:100D0200CF51020A0FE1120EE36F050EE46FD10E0E
:100D1200E56F050EE66F040EE76F000EE86F3BEC21
:100D220002F015D0120ED56F050ED66FD10ED76F09
:100D3200050ED86F040ED96F000EDA6F4FDE000E6B
:100D4200011802E1000E001802E00501CF6BCFC5C9
:080D520000F001D0006A12005C
:100D5A00CDC502F0CEC503F0D0C500F0D1C501F073
:100D6A00010E0501D05F000ED15B0050011009E0B1
:100D7A0002C0E1FF03C0E2FFCFC5E6FF024A032A31
:0C0D8A00EBD7CDC500F0CEC501F0120083
:100D9600F90E0501D06F000ED16F020EF46FD90E59
:100DA600F56F190EF66F2CEC00F0C70E0501D56F26
:100DB6002E0ED66F000ED76F0C0ED86F000ED96FA1
:100DC6007CDDCD51030A0DE1CE530BE0240EE36F1B
:100DD600050EE46F040EE56F000EE66FEAEC01F017
:100DE6000AD0CF6B040ECF5D06E2F16B94EC00F0F7
:100DF6000501CF2BF7D7CF6B0C0ECF5D06E2F16B5B
:100E060094EC00F00501CF2BF7D7280EE36F050E03
:100E1600E46F060EE56F000EE66FEAEC01F0CF6BAD
:100E2600CA0ECF5D06E2F16B94EC00F00501CF2B04
:100E3600F7D7DF0ED56F2E0ED66F000ED76F060EC4
:100E4600D86F000ED96F39DDCDC5F1F594EC00F001
:100E56000501CD51030A1AE1CE5318E1360EF16FA2
:100E660094EC00F0040E0501F16F94EC00F0120E04
:100E76000501E36F050EE46F040EE56F000EE66FE5
:100E8600EAEC01F0060ED027000ED123E50ED56F51
:100E96002E0ED66F000ED76F050ED86F000ED96FC7
:100EA6000CDDCD51030A23E1CE5321E1320EF16F61
:100EB60094EC00F0040E0501F16F94EC00F00501CE
:100EC600CF6B040ECF5D0FE2240EE96E050EEA6EBF
:100ED600CF51E926D8B0EA2AEECFF1F594EC00F02E
:100EE6000501CF2BEED7060ED027000ED123FF0E1D
:100EF600F16F94EC00F0F50E0501D56F040ED66F78
:100F0600F50ED76F040ED86F440ED96F000EDA6F48
:100F1600430EDB6F000EDC6FD0C5DDF5D1C5DEF507
:060F26006EEC03F0120066
:100F2C000501D16BD26B82921EC5E1FF1FC5E2FF9A
:100F3C007A0EE66E1CC500F01DC501F020EC00F029
:100F4C00CDC500F0CEC501F0CFC502F0010E0501F4
:100F5C00CD27000ECE23CF2300C0F6FF01C0F7FF34
:100F6C0002C0F8FF0900F5CF00F000C0D0F5005228
:100F7C0010E01EC5E1FF1FC5E2FFD0C5E6FF1CC592
:100F8C0000F01DC501F020EC00F00501D14BD22B77
:0E0F9C00D7D78282D1C500F0D2C501F0120075
:100FAA000501D06BD16B82921EC5E1FF1FC5E2FF1E
:100FBA007A0EE66E1CC500F01DC501F020EC00F0AB
:100FCA00CDC500F0CEC501F00501CD4BCE2B00C03A
:100FDA00E9FF01C0EAFFEECF00F000C0CFF50052F2
:100FEA0010E01EC5E1FF1FC5E2FFCFC5E6FF1CC525
:100FFA0000F01DC501F020EC00F00501D04BD12B0B
:0E100A00DFD78282D0C500F0D1C501F0120000
:101018000501C051190802E1BF51AD0804E2AE0E46
:10102800BF5F190EC05BF46BBFC5F5F5C0C5F6F51B
:061038002CEC00F0120098
:10103E000B6A0A6A096A00500402F4CF09F0F3CF72
:10104E0008F001500502F4CF0BF0F3CF0AF0005078
:10105E000502F3500926F4500A22E86A0B220150C9
:10106E000402F3500926F4500A22E86A0B2208C043
:10107E0000F009C001F00AC002F00BC003F012002C
:10108E00B50E0501E36F190EE46FBB0EE56F190E79
:10109E00E66FAF0EE76F190EE86FE96BFFEC00F02D
:1010AE00B50EE36F190EE46F280EE56F050EE66FB1
:0E10BE00060EE76F000EE86F86EC01F01200E0
:1010CC000501F16BCAEC00F000C0C4F5010E05017E
:1010DC00F16FCAEC00F000C0C5F50501F46BBFC59B
:1010EC00F5F5C0C5F6F52CEC00F082921EC5E1FFBB
:1010FC001FC5E2FF3A0EE66E1CC500F01DC501F0DF
:10110C0020EC00F00501C35318E01EC5E1FF1FC51C
:10111C00E2FFE66A1CC500F01DC501F020EC00F0F2
:10112C00C1C5D9FFC2C5DAFF0050DE1801E005D0F9
:10113C000501C14BC22BC307E5D705018282F46BB5
:10114C00C4C5F5F5C5C5F6F52CEC00F0C3C500F02B
:02115C0012007F
:10115E008292400E0501BF11006E1EC5E1FF1FC534
:10116E00E2FF00C0E6FF1CC500F01DC501F020EC3B
:10117E0000F01EC5E1FF1FC5E2FFC0C5E6FF1CC59E
:0E118E0000F01DC501F020EC00F0828212007E
:10119C000501BF6BC80EBF5D04E27ADC79DCBF2BA6
:0411AC00F9D712005D
:1011B0000501C96BCA6B000ECA5D02E10A0EC95D6A
:1011C00012E2080EC925CB6F050ECA21CC6FD5ECF3
:1011D00004F0CBC5E1FFCCC5E2FF00C0E6FF05018E
:1011E000C94BCA2BE8D7080EC925E16E050ECA21E6
:1011F000E26EE66A080ED56F050ED66FC70ED76F82
:10120000040ED86F050ED96F000EDA6FEFEC04F004
:101210000050011003E0006A016ABDD00E0E050106
:10122000D56F050ED66FDA0ED76F040ED86F020E8B
:10123000D96F000EDA6FEFEC04F00050011008E1F6
:101240000401D26BD36B010ED06F000ED16F76D03C
:101250000E0E0501D56F050ED66FCD0ED76F040E9D
:10126000D86F020ED96F000EDA6FEFEC04F0005069
:1012700001100AE1010E0401D26F000ED36F010EBE
:10128000D06F000ED16F5AD00E0E0501D56F050E2E
:10129000D66F1F0ED76F000ED86F040ED96F000ED9
:1012A000DA6FEFEC04F00050011004E10401D06BA0
:1012B000D16B44D00E0E0501D56F050ED66F1A0EF8
:1012C000D76F000ED86F040ED96F000EDA6FEFECF7
:1012D00004F00050011015E1800E006E800E040134
:1012E000D519005C02E1D45102080BE2050ED45D71
:1012F000006E000ED559016E00C0D4F401C0D5F4C3
:101300001DD00E0E0501D56F050ED66F150ED76FC9
:10131000000ED86F040ED96F000EDA6FEFEC04F0F8
:10132000005001100BE1050E0401D425006E000EE3
:10133000D521016E00C0D4F401C0D5F4000E050122
:10134000C41902E1500EC31903E0006A016A23D0F8
:10135000A90ECD6F2E0ECE6F000ECF6FE7DD00C051
:10136000C9F501C0CAF5D30ECD6F2E0ECE6F000E9B
:10137000CF6FDCDD0050C9270150CA23240ECD6F8A
:10138000000ECE6F12DEC9510026CA51012200C0E4
:08139000C9F501C0CAF5120005
:10139800C90E0501E36F190EE46FCD0EE56F190E46
:1013A800E66FCD0EE76F190EE86FE96BFFEC00F002
:1013B800C90EE36F190EE46F2F0EE56F050EE66F89
:0E13C800040EE76F000EE86F86EC01F01200D5
:0613D600006A016A12002A
:1013DC00D5EC04F0D5EC04F0D5EC04F000C0C0F56D
:1013EC00D5EC04F000C0BFF5D5EC04F000C0C2F59C
:1013FC00D5EC04F000C0C1F5D5EC04F000C0C4F588
:10140C00D5EC04F000C0C3F5D5EC04F0D5EC04F039
:10141C00D5EC04F0D5EC04F0C1C500F0C2C501F068
:10142C00010E0501C15F000EC25B005001100EE001
:10143C00D5EC04F0005201E0FBD7D5EC04F0D5EC70
:10144C0004F0D5EC04F0D5EC04F0E6D7C3C500F0FD
:10145C00C4C501F0010E0501C35F000EC45B005052
:10146C00011048E0D5EC04F0D5EC04F0D5EC04F018
:10147C0000C0C8F5D5EC04F000C0C7F5D5EC04F0FD
:10148C00D5EC04F0D5EC04F0D5EC04F0D5EC04F07C
:10149C00D5EC04F0D5EC04F000C0C6F5D5EC04F0A6
:1014AC0000C0C5F5000E0501C81902E1010EC719EF
:1014BC0011E1D5EC04F000C06AF5D5EC04F000C0E5
:1014CC006BF5D5EC04F000C06CF5D5EC04F000C065
:1014DC006DF510D0C5C500F0C6C501F0010E0501B3
:1014EC00C55F000EC65B0050011003E0D5EC04F0A4
:0614FC00F1D7ACD712008D
:10150200B8D02F0E0501CD6F050ECE6FCF6B040E36
:10151200D06F000ED16F20DC010ECD6FCE6B3ADCA6
:10152200E9C466F5EAC467F5EBC468F5ECC469F58D
:10153200030E0401FC6FB0D0050E05016625016E95
:10154200000E6721026E000E6821036E000E6921F3
:10155200046E0401EC51045C08E1EB51035C05E10B
:10156200EA51025C02E1E951015C02E2020EFC6F07
:1015720059EC05F00050020A04E1040E0401FC6F6C
:1015820001D08AD0030E0501CD6FFDC4CEF502DC79
:10159200E9C466F5EAC467F5EBC468F5ECC469F51D
:1015A200050E0401FC6F78D059EC05F000C0BFF5C0
:1015B2000050060A04E1040E0401FC6F2FD005015D
:1015C200BF51050A2BE1E9C466F5EAC467F5EBC42D
:1015D20068F5ECC469F5060E0401FC6F2F0E0501D7
:1015E200E36F050EE46F240EE56F050EE66F040E41
:1015F200E76F000EE86F3BEC02F0160ECD6F050EA2
:10160200CE6F000ECF6F050ED06F040ED16F050E98
:10161200D26F20EC05F00401FD6B3ED03DD0010EEF
:1016220005016625016E000E6721026E000E68211B
:10163200036E000E6921046E04500401EC5D08E1A2
:101642000350EB5D05E10250EA5D02E10150E95D04
:101652000FE3010E0501205F000E215B225B235B7D
:10166200E9C466F5EAC467F5EBC468F5ECC469F54C
:1016720013D00401FC51020AD8B443D7FC51030A27
:10168200D8B45AD7FC51040AD8B47CD7FC51050A05
:0A1692008BE0FC51060AC3E01200D1
:10169C0095C5F1F596C5F2F575EC00F000C0A0F516
:1016AC00D5EC04F000C09FF5D5EC04F000C09EF51D
:1016BC00D5EC04F000C09DF5000E05019E1902E169
:1016CC00000E9D1901E186D0D5EC04F000C0A2F506
:1016DC00D5EC04F000C0A1F5A30E0501D56F050EE5
:1016EC00D66FC90ED76F190ED86F040ED96F000EB6
:1016FC00DA6F97EC04F0020EF46F080E9525F56F77
:10170C00000E9621F66F2CEC00F00E0E05019225C2
:10171C00BF6F000E9321C06F9451BF27000EC023E2
:10172C00080EBF27000EC02371DC000E0501A019A6
:10173C0002E1350E9F1902E14BDE4CD0000E050183
:10174C009E1902E1440E9D1902E1D5DE43D0A30E91
:10175C000501BF6F050EC06F9FC5C1F5A0C5C2F5D1
:10176C009DC5C3F59EC5C4F5080EA15DC56F000EE1
:10177C00A259C66F2E0EC76F050EC86F26DE00C0AD
:10178C00A1F501C0A2F50050011024E0970ED56F11
:10179C00050ED66FB50ED76F190ED86F060ED96F12
:1017AC00000EDA6F97EC04F0970ED56F050ED66F1E
:1017BC00A30ED76F050ED86F9DC5D9F59EC5DAF56A
:1017CC009FC5DBF5A0C5DCF5A1C5DDF5A2C5DEF531
:0617DC006EEC03F01200A8
:1017E20096C5F1F597C5F2F575EC00F000C0A6F5C7
:1017F200D5EC04F000C0A5F5D5EC04F000C0A4F5CA
:10180200D5EC04F000C0A3F50501AB6BB06B010E83
:10181200B16FAE6BAF6B0C0E9625F16F000E972178
:10182200F26F75EC00F000C0A9F5000E0501AA6F79
:10183200A933A99FA933A99F000EAA6FFC0EA9176D
:10184200FF0EAA17BA0ED56F050ED66FC90ED76F47
:10185200190ED86F040ED96F000EDA6F97EC04F0F0
:101862000D0E9625F16F000E9721F26F75EC00F0C8
:101872003F0E00140501A76FA86B000EA817000EFB
:10188200A86F0E0E1A5DAC6F000E1B59AD6F94510E
:10189200AC5F9551AD5BA951AC5FAA51AD5B020E35
:1018A2009625F16F000E9721F26F75EC00F000C0E3
:1018B200F3F596C5F1F597C5F2F554EC00F0030E79
:1018C20005019625F16F000E9721F26F75EC00F07D
:1018D20000C0F1F594EC00F0A5C5E3F5A6C5E4F56A
:1018E20017EC02F0040E05019625F16F000E972108
:1018F200F26F75EC00F000C0B5F5D5EC04F000C055
:10190200B4F5D5EC04F000C0B3F5D5EC04F000C09A
:10191200B2F5D5EC04F000C0B9F5D5EC04F000C086
:10192200B8F5D5EC04F000C0B7F5D5EC04F000C072
:10193200B6F5000E0501A81902E1020EA7193DE154
:10194200010EB225006E000EB321016E000EB4210D
:10195200026E000EB521036E00C0B6F501C0B7F5E8
:1019620002C0B8F503C0B9F5120EA76F000EA86F3A
:101972000C0EF16FCAEC00F000C0B2F50D0E0501BD
:10198200F16FCAEC00F000C0B3F50501F16BCAECCF
:1019920000F000C0B4F5010E0501F16FCAEC00F0D1
:1019A20000C0B5F50501AB2B180EA96F000EAA6F8A
:1019B200AE6BAF6B0401E86B70D0000E0501A81985
:1019C20002E1180EA7192FE1B2C598F5B3C599F532
:1019D200B4C59AF5B5C59BF5B6C5B2F5B7C5B3F5AD
:1019E200B8C5B4F5B9C5B5F5AC519825006EAD5181
:1019F2009921016E000E9A21026E000E9B21036E48
:101A020000C0B6F501C0B7F502C0B8F503C0B9F51C
:101A1200100EA76F000EA86FAB2B140EA96F000E4D
:101A2200AA6FB02B3AD0000EA81902E1110EA71925
:101A320034E1B2C59CF5B3C59DF5B4C59EF5B5C5F7
:101A42009FF5B6C5B2F5B7C5B3F5B8C5B4F5B9C516
:101A5200B5F5010E9C25006E000E9D21016E000E53
:101A62009E21026E000E9F21036E00C0B6F501C0DA
:101A7200B7F502C0B8F503C0B9F5100EA76F000E96
:101A8200A86FAB2B140EA96F000EAA6FAE6BAF6BD3
:101A92000401DD5302E1E82BDD6B0501AB53D8B441
:101AA200D1D10501040E9625E36F000E9721E46F54
:101AB200B5C5E5F5B4C5E6F5DFEC01F0B3C5F1F562
:101AC20094EC00F0B2C5F1F594EC00F0B9C5F1F573
:101AD20094EC00F0B8C5F1F594EC00F0B7C5F1F55F
:101AE20094EC00F0B6C5F1F594EC00F00C0E050193
:101AF2009625F16F000E9721F26F75EC00F00F0E34
:101B020000140501F36FA9C500F0003600900036FD
:101B120000900050F3130C0E9625F16F000E9721E2
:101B2200F26F54EC00F00D0E05019625F16F000ED8
:101B32009721F26F75EC00F0C00E00140501F36FEF
:101B4200A751F3130D0E9625F16F000E9721F26F38
:101B520054EC00F0000E0501A81902E1120EA719BB
:101B620023E10E0E9625E36F000E9721E46F050E1A
:101B7200E56FEE0EE66FDFEC01F0140E050196251F
:101B8200E36F000E9721E46F020EE56F040EE66F1D
:101B9200DFEC01F0050E0501F16F94EC00F0780E18
:101BA2000501F16F94EC00F005019451AE25AC6F84
:101BB2009551AF21AD6FA951AC27AA51AD23B153B5
:101BC20004E047EC08F0CCEC09F0BF0EE36F190E0D
:101BD200E46FADC5E5F5ACC5E6F5DFEC01F0C70E87
:101BE2000501E36F190EE46FE56BE66BDFEC01F0C4
:101BF200BD0E0501E36F190EE46F94C5E5F595C5B9
:101C0200E6F5B7EC01F0160E0501F16FCAEC00F033
:101C120000C0BEF5170E0501F16FCAEC00F000C05E
:101C2200E5F5C70E0501E36F190EE46FBEC5E6F5D3
:101C3200DFEC01F0BD0E0501AC25A16F190EAD213F
:101C4200A26F100E9625E36F000E9721E46FE56BED
:101C5200E66BDFEC01F0010E0501AC15A06FA1C52A
:101C6200F1F5A2C5F2F5F36B54EC00F0C90E0501D3
:101C7200E36F190EE46FD10EE56F190EE66FA051F6
:101C8200A125E76F000EA221E86FE96BFFEC00F0DF
:101C9200080EA125E36F000EA221E46FA051E327F5
:101CA200000EE423E56B060EE66FDFEC01F00A0E90
:101CB2000501A125E36F000EA221E46FA051E327E5
:101CC200000EE423AE51A925036EAF51AA21046E82
:101CD20004C000F0016A00C0E5F503C0E6F5DFECE0
:101CE20001F096C5E3F597C5E4F50501AE51A925C6
:101CF200E56FAF51AA21E66F0C0EE527000EE62331
:101D0200A051E527000EE623B7EC01F0160E0501FF
:101D1200F16FCAEC00F000C0BEF5170E0501F16FBD
:101D2200CAEC00F000C0E5F5100E05019625E36F40
:101D3200000E9721E46FBEC5E6F5DFEC01F00E0E52
:101D42000501AC25E36F000EAD21E46F63EC02F0F8
:101D5200B0534EE0100EA76F000EA86FB06BB16BC0
:101D6200020EF46FA9519625F56FAA519721F66FCD
:101D72002CEC00F00E0E05019225BF6F000E932190
:101D8200C06F9451BF279551C023A951BF27AA51B3
:101D9200C0230CEC08F00401E82BBA0E0501BF6F5A
:101DA200050EC06FA5C5C1F5A6C5C2F5A3C5C3F58D
:101DB200A4C5C4F50E0E1A5DC56F000E1B59C66F81
:101DC2009451C55F9551C65BA951C55FAA51C65BC7
:101DD2002E0EC76F050EC86FD8EC08F000C0AEF526
:101DE20001C0AFF505012EB102D00401E86B59D64E
:101DF2000401E85327E00501AE51B225006EAF5150
:101E0200B321016E000EB421026E000EB521036EE5
:101E120000C0B2F501C0B3F502C0B4F503C0B5F518
:101E2200110EA76F000EA86F0401E86B0501B16BDC
:101E3200140EA96F000EAA6FAE6BAF6B010E0401F8
:061E4200DD6F2FD6120037
:101E48001F0E0501F16F010EF26FE2EC00F01F0E9C
:101E58000501F16F020EF26FADEC00F0140E0501F2
:101E6800BF6F92C5C0F5AFEC08F0120E0501F16F17
:101E7800010EF26FADEC00F0CEEC08F0120EF16F2F
:101E8800010EF26FE2EC00F0180E0501F16FCAECDA
:101E980000F095C5E1FF96C5E2FF00C0E6FF190E08
:101EA8000501F16FCAEC00F093C5E1FF94C5E2FFAC
:061EB80000C0E6FF12006D
:101EBE001F0E0501F16F010EF26FE2EC00F01F0E26
:101ECE000501F16F020EF26FADEC00F0140E05017C
:101EDE00BF6F92C5C0F5AFEC08F0CEEC08F0160E51
:101EEE00BF6F94C5C0F5AFEC08F0CEEC08F0170E3E
:101EFE00BF6F93C5C0F5AFEC08F0CEEC08F0120042
:101F0E00C40E0501F16F190EF26F75EC00F000C0F2
:101F1E0092F5E8D0D50E0501BF6F190EC06F2F0ECA
:101F2E00C16F050EC26F040EC36F66EC08F0005051
:101F3E00000A4BE1C40E0501F16F190EF26F020E8D
:101F4E00F36F54EC00F047EC08F0CB0EE36F190E74
:101F5E00E46FCF0EE56F190EE66FD50EE76F190E13
:101F6E00E86FE96BFFEC00F0CB0EE36F190EE46F38
:101F7E002F0EE56F050EE66F040EE76F000EE86F8D
:101F8E0086EC01F0C50EE36F190EE46FCB0EE56F14
:101F9E00190EE66FCF0EE76F190EE86FE96BFFECC7
:101FAE0000F0C50EE36F190EE46F280EE56F050EF7
:101FBE00E66F060EE76F000EE86F86EC01F03C0E42
:101FCE00E36F000EE46F63EC02F095D00501AF0EE7
:101FDE00BF6F190EC06F280EC16F050EC26F060EB1
:101FEE00C36F66EC08F00050000A7BE1CB0E0501D2
:101FFE00BF6F190EC06F37C5C1F538C5C2F5040ED7
:10200E00C36F66EC08F00050000A6BE10F0E006E15
:10201E00000E016EFBC404F0000E056E1FEC08F0FE
:10202E00390E00240501D56F050E0120D66F090E5D
:10203E00D527000ED623C50ED76F190ED86F060EF4
:10204E00D96F000EDA6F97EC04F00F0E006E000ED3
:10205E00016EFBC404F0000E056E1FEC08F0390E85
:10206E000024E36F050E0120E46F050EE327000E3A
:10207E00E42337C5E5F538C5E6F5040EE76F000E27
:10208E00E86F3BEC02F00F0E006E000E016EFBC40B
:10209E0004F0000E056E1FEC08F0390E0024E16E00
:1020AE00050E0120E26E010EE66E0F0E006E000EA2
:1020BE00016EFBC404F0000E056E1FEC08F0390E25
:1020CE000026050E0122010E0024E16E000E0120F5
:1020DE00E26EE9C4E6FFEAC4E6FFEBC4E6FFECC439
:1020EE00E6FF09D005019251010AD8B413D79251D7
:0820FE00020AD8B46BD71200EE
:102106000501BF6B865303E00D0E876F02D0050EE7
:10211600876F87C5C0F5AFEC08F0020E0501BF6FEB
:10212600865303E0310E886F02D0300E886F88C563
:10213600C0F5AFEC08F00A0E0501F46FEE0EF56F70
:10214600050EF66F2CEC00F0040E0501BF6F8653EA
:1021560003E0150E896F02D0120E896F89C5C0F58E
:10216600AFEC08F0060E0501BF6F120EC06FAFECA4
:1021760008F00501865306E1070EBF6F0C0EC06F0F
:10218600AFEC08F00501865306E1090EBF6F3F0E5E
:10219600C06FAFEC08F01F0E0501F16F010EF26F74
:1021A600ADEC00F01F0E0501F16F020EF26FADEC03
:1021B60000F0040E0501BF6F28C5C0F5AFEC08F0AE
:1021C600050E0501BF6F29C5C0F5AFEC08F0020E7C
:1021D6000501BF6F2AC5C0F5AFEC08F0030E050177
:1021E600BF6F2BC5C0F5AFEC08F00501BF6B2CC562
:1021F600C0F5AFEC08F0010E0501BF6F2DC5C0F5A7
:10220600AFEC08F0150E0501BF6FC06BAFEC08F020
:10221600120E0501F16FCAEC00F000C078F5050159
:10222600926B8B0E936F050E946F8C0E956F050E49
:10223600966F07DE0501926BFE0E8B15936F865324
:1022460003E0010E8A6F01D08A6B8A5193138CC505
:1022560094F532DE100E926F010E936F946B2CDEA6
:102266001F0EF16F040EF26FADEC00F0CEEC08F02D
:10227600390ECD6F050ECE6FCF6B2D0ED06F000EC3
:10228600D16FADEC06F01F0EF16F010EF26FE2ECAE
:1022960000F01F0E0501F16F020EF26FE2EC00F086
:0222A600120024
:1022A80005018F6B2E812E931F0EF16F010EF26FB9
:1022B800E2EC00F01F0E0501F16F020EF26FE2EC86
:1022C80000F00501F46BFEC4F5F5FFC4F6F52CEC3F
:1022D80000F082921EC5E1FF1FC5E2FF3A0EE66ECE
:1022E8001CC500F01DC501F020EC00F01EC5E1FF83
:1022F8001FC5E2FFE66A1CC500F01DC501F020EC11
:1023080000F000C0FEF41EC5E1FF1FC5E2FFE66A4B
:102318001CC500F01DC501F020EC00F000C0FFF462
:102328001EC5E1FF1FC5E2FFE66A1CC500F01DC51A
:1023380001F020EC00F000C01AF51EC5E1FF1FC532
:10234800E2FFE66A1CC500F01DC501F020EC00F0B4
:1023580000C01BF51EC5E1FF1FC5E2FFE66A1CC5EC
:1023680000F01DC501F020EC00F000C08DF51EC581
:10237800E1FF1FC5E2FFE66A1CC500F01DC501F0BC
:1023880020EC00F000C08EF58282040E05011A5F71
:10239800000E1B5B0401FF51190802E1FE51AD0854
:1023A8000EE3FEB10CD005018EBF09D01B51050804
:1023B80002E11A51EE0803E38DAF01D003D0010EFC
:1023C800006ECBD10501F16BCAEC00F000C08BF5B3
:1023D800010E0501F16FCAEC00F000C08CF58BC549
:1023E800E3F58CC5E4F505011A518B25E56F1B5102
:1023F8008C21E66FAF0EE76F190EE86F010EE96FDB
:10240800FFEC00F0BB0EF16F190EF26F75EC00F0E7
:1024180000C08EF5D5EC04F000C08DF505018E5195
:10242800080A02E1060E8D1911E1BD0EBF6F190EE3
:10243800C06FED0EC16F040EC26F070EC36F66EC5E
:1024480008F00050000A01E15EDD58D105018E5107
:10245800080A02E1000E8D19D8A44DD1CD0EBF6F28
:10246800190EC06F7D0EC16F050EC26F040EC36FCB
:1024780066EC08F0005202E105012E830501CD0E3D
:10248800BF6F190EC06FF50EC16F040EC26F040E38
:10249800C36F66EC08F0005202E105012E830501C6
:1024A800CD0EBF6F190EC06F2F0EC16F050EC26F14
:1024B800040EC36F66EC08F0005206E005012EB367
:1024C80003D0020E8F6F16D10501BD0EF16F190EE4
:1024D800F26F75EC00F0F00E0014016E0150400A26
:1024E80004E0030E05018F6F05D10501BD0EF16FE4
:1024F800190EF26F75EC00F000C089F5000E0501A9
:102508008A6F0F0E8917000E8A17893789918A37C3
:10251800893789918A37C30EF16F190EF26F75ECFE
:1025280000F0BF0E0014016E0150000AD8A4E2D0DA
:10253800C40E0501F16F190EF26F75EC00F0005032
:10254800000AD8A4D7D0BD0E05018925876F190EBA
:102558008A21886FC60EF16F190EF26F75EC00F0C4
:1025680000C086F50050010AD8A488D087C5F1F5C7
:1025780088C5F2F575EC00F00050080AD8A47DD0A3
:10258800010E05018725F16F000E8821F26F75ECA9
:1025980000F00050000A71E187C5F1F588C5F2F531
:1025A8000501F36B54EC00F047EC08F0CCEC09F0B3
:1025B800C70EE36F190EE46FE56BE66BDFEC01F015
:1025C800BD0E0501E36F190EE46F89C5E5F58AC5EF
:1025D800E6F5B7EC01F0160E0501F16FCAEC00F054
:1025E80000C090F5170E0501F16FCAEC00F000C0AD
:1025F800E5F5C70E0501E36F190EE46F90C5E6F522
:10260800DFEC01F0020E05018725E36F000E88213B
:10261800E46FE56BE66BDFEC01F087C5E3F588C591
:10262800E4F5050189511A5DE56F8A511B59E66F7A
:102638000E0EE55F000EE65BB7EC01F0160E050125
:10264800F16FCAEC00F000C090F5170E0501F16FAC
:10265800CAEC00F000C0E5F5020E05018725E36F1E
:10266800000E8821E46F90C5E6F5DFEC01F01AC58D
:10267800E3F51BC5E4F563EC02F03CD00501865197
:10268800110A0DE18BC592F58CC593F589C594F5B2
:1026980087C595F588C596F54EEC0BF02BD005014E
:1026A8008651060A27E1100E8B25F16F000E8C214A
:1026B800F26F75EC00F000C091F50501906BD5EC58
:1026C80004F00050050190251A6F000E91211B6F30
:1026D8000E0E1A27000E1B238BC592F58CC593F599
:1026E80089C594F58AC595F587C596F588C597F582
:1026F800F1EC0BF003D0040E05018F6F05011E0EDF
:10270800F16F400EF26FADEC00F0010E0401FE5DBA
:10271800016E000EFF59026E0250190802E10150C5
:10272800AD080AE20C0E0501F46FAD0EF56F190E37
:10273800F66F2CEC00F00FD00C0E0501F46F010EB3
:102748000401FE5D0501F56F000E0401FF59050146
:0C275800F66F2CEC00F08FC500F01200B2
:10276400C69A1C0E05011C6F000E1D6FF70E1E6F1E
:10277400050E1F6FFF0E746FFF0E756FFF0E766FE1
:10278400FF0E776F949A94969488C66A400EC76E2B
:04279400C68A1200DF
:102798000900F5CFE6FF0006FBE10106F9E11200AA
:1027A8009490828094928282CEEC08F08280CEEC63
:1027B80008F08290CEEC08F08280CEEC08F082928D
:1027C8001EC5E1FF1FC5E2FFFF0EE66E1CC500F047
:1027D8001DC501F020EC00F08282CEEC08F0280E36
:1027E800E36F050EE46F81C5E5F582C5E6F5060ED3
:1027F800E76F000EE86F3BEC02F02F0EE36F050E5B
:10280800E46F83C5E5F584C5E6F5040EE76F000EB1
:10281800E86F3BEC02F01F0EF16F010EF26FE2EC75
:1028280000F01F0E0501F16F020EF26FE2EC00F0EE
:10283800080E0501F46FF56BF66B2CEC00F00A0E30
:102848000501F46FAD0EF56F190EF66F2CEC00F064
:102858000C0E0501F46FAD0EF56F190EF66F2CEC2A
:1028680000F00501F46BF56BF66B2CEC00F0040E30
:102878000501F46FAE0EF56F190EF66F2CEC00F033
:102888001F0E0501F16F010EF26FE2EC00F01F0E52
:102898000501F16F020EF26FADEC00F085C586F50B
:0428A8002EDC120010
:1028AC00000E0401D11902E1000ED01903E1D86B1E
:1028BC00D96B17D00AD0050ED86F000ED96F11D076
:1028CC00010ED86F000ED96F0CD0000ED31902E197
:1028DC00000ED219F0E0000ED31902E1010ED2194C
:0428EC00EFE0120007
:1028F0000501816B1F0EF16F010EF26FADEC00F060
:102900001F0E0501F16F020EF26FE2EC00F0190EDE
:102910000501F16FCAEC00F00050000803E2C4DCCE
:1029200000C081F51F0E0501F16F010EF26FE2ECA0
:1029300000F01F0E0501F16F020EF26FE2EC00F0E5
:0629400081C500F0120049
:1029460075EC17F0380ED36E936A926A816A806AC4
:102956000F013A6B3B6B956A836A01DFE20E816F6A
:10296600040E826FDE0E836F040E846F010E856F78
:1029760018DFBBDF98DF010ED625006E000ED721CB
:10298600016E00C0D6F401C0D7F4D751D51902E1C3
:10299600D451D6190DE1080ED819006ED9C401F02C
:1029A600000E011A00C0D8F401C0D9F4D66BD76B5B
:0829B600D8C481FFDED7FFD772
:102EEA0010EE15F0EB0E006E050E016EBE0EF66EBC
:0E2EFA00290EF76E000EF86ECCEC13F01200ED
:0529BE00494E435200E8
:0529C3004445435200F1
:0529C80053544F5000C4
:1029CD003C68746D6C3E3C626F64793E3C666F7220
:1029DD006D206E616D653D22696E70757422206D7E
:1029ED006574686F643D22676574223E3C74616254
:1029FD006C6520616C69676E3D63656E74657220F0
:102A0D0077696474683D353030206267636F6C6F31
:102A1D00723D236163666666666620626F726465E9
:102A2D00723D343E3C74723E3C746420616C696747
:102A3D006E3D63656E74657220636F6C7370616E4D
:102A4D003D323E3C666F6E742073697A653D37206A
:102A5D00636F6C6F723D426C61636B206661636581
:102A6D003D2276657264616E61223E3C623E4D4F41
:102A7D00544F5220434F4E54524F4C3C2F623E3CCC
:102A8D002F666F6E743E3C2F74643E3C2F74723E05
:102A9D003C74723E3C746420616C69676E3D636585
:102AAD006E74657220636F6C7370616E3D323E3C67
:102ABD00666F6E742073697A653D3220636F6C6F3B
:102ACD00723D426C61636B20666163653D22766584
:102ADD007264616E61223E3C623E4469726563744C
:102AED00696F6E3C2F623E3C2F666F6E743E3C2FBD
:102AFD0074643E3C2F74723E3C74723E3C74642090
:102B0D00616C69676E3D63656E74657220626763A3
:102B1D006F6C6F723D2361636666666666207769CA
:102B2D006474683D22353025223E3C696E707574A3
:102B3D00206E616D653D22544C2220747970653D87
:102B4D00227375626D6974222076616C75653D2204
:102B5D004C65667422207374796C653D22776964C7
:102B6D0074683A203930253B206261636B67726F60
:102B7D00756E643A20303B223E3C2F74643E3C74AB
:102B8D006420616C69676E3D63656E746572206269
:102B9D0067636F6C6F723D23616366666666662060
:102BAD0077696474683D22353025223E3C696E702C
:102BBD007574206E616D653D2254522220747970BA
:102BCD00653D227375626D6974222076616C756541
:102BDD003D22526967687422207374796C653D22B9
:102BED0077696474683A203930253B206261636BE4
:102BFD0067726F756E643A20303B223E3C2F7464D1
:102C0D003E3C2F74723E3C74723E3C746420616C89
:102C1D0069676E3D63656E74657220636F6C73706A
:102C2D00616E3D323E3C666F6E742073697A653D10
:102C3D003220636F6C6F723D426C61636B20666115
:102C4D0063653D2276657264616E61223E3C623E33
:102C5D0053706565643C2F623E3C2F666F6E743E0B
:102C6D003C2F74643E3C2F74723E3C74723E3C7437
:102C7D006420616C69676E3D63656E746572206278
:102C8D0067636F6C6F723D2361636666666666206F
:102C9D00636F6C7370616E3D313E3C696E7075741F
:102CAD00206E616D653D22494E435222207479702C
:102CBD00653D227375626D6974222076616C756550
:102CCD003D222B22207374796C653D2277696474E3
:102CDD00683A203930253B6261636B67726F756EA0
:102CED00642D636F6C6F723A2072676228393420DD
:102CFD0032343820313436293B223E3C2F74643E29
:102D0D003C746420616C69676E3D63656E746572B9
:102D1D00206267636F6C6F723D23616366666666E2
:102D2D006620636F6C7370616E3D313E3C696E70F1
:102D3D007574206E616D653D2244454352222074A9
:102D4D007970653D227375626D6974222076616CB0
:102D5D0075653D222D22207374796C653D2277694E
:102D6D006474683A203930253B6261636B67726F1A
:102D7D00756E642D636F6C6F723A207267622832C4
:102D8D003438203934203934293B223E3C2F7464A9
:102D9D003E3C2F74723E3C74723E3C746420616CF8
:102DAD0069676E3D63656E746572206267636F6CF3
:102DBD006F723D236163666666666620636F6C7332
:102DCD0070616E3D323E3C696E707574206E616D42
:102DDD00653D2253544F502220747970653D227306
:102DED0075626D6974222076616C75653D22537430
:102DFD006F7022207374796C653D227769647468F5
:102E0D003A203930253B206261636B67726F756EB6
:102E1D00643A20303B223E3C2F74643E3C2F74724A
:102E2D003E3C2F7461626C653E3C2F666F726D3E49
:102E3D003C736372697074207372633D222220614A
:102E4D0073796E632064656665723E3C2F736372A1
:102E5D006970743E3C2F626F64793E3C2F68746DCF
:032E6D006C3E00B8
:062E7000474554202F002D
:032E7600545200B3
:0A2E7900000000000200000000004D
:032E8300544C00AC
:012E8600004B
:042E87000AD337052E
:062E8B000014A576193FBA
:012E91000040
:042E9200000000003C
:082E9600000108000604000021
:062E9E00FFFFFFFFFFFF34
:012EA400002D
:012EA500002C
:012EA600002B
:022EA700000029
:102EA900485454502F312E3120323030204F4B0AA4
:0E2EB900436F6E74656E742D747970653A0007
:0C2EC700010106001223344500008000C9
:0C2ED300746578742F68746D6C0A0A0036
:062EDF006382536335011C
:052EE5003703010306A4
:020000040030CA
:0D000100231F3CFFBF81FF0FC00FE00F4029
:00000001FF
