:1000000049EF1EF00000000000EF00F000000000CB
:0A0010000000000000000000F3D71C
:10001C0069C1C9FFC7B002D00000FCD7C9CF00F03E
:02002C001200C0
:10002E0069C16FFF6DB002D00000FCD76FCF00F03A
:02003E001200AE
:10004000F250026EF29E0500FF6A0150FE6E0050F3
:08005000FD6E02BEF28E1200EB
:100058008292400E01016611006E70C0E1FF71C00E
:10006800E2FF00C0E6FF6EC000F06FC001F0E4DF01
:1000780070C0E1FF71C0E2FF67C1E6FF6EC000F02B
:100088006FC001F0D9DF70C0E1FF71C0E2FF68C145
:10009800E6FF6EC000F06FC001F0CEDF8282120072
:1000A800829270C0E1FF71C0E2FF7A0EE66E6EC008
:1000B80000F06FC001F0C0DF70C0E1FF71C0E2FF67
:1000C80063C1E6FF6EC000F06FC001F0B5DF828249
:0200D800120014
:1000DA000101666B63C167F164C168F1B8DF82929E
:1000EA0070C0E1FF71C0E2FF3A0EE66E6EC000F02A
:1000FA006FC001F0A0DF70C0E1FF71C0E2FFE66AE5
:0E010A006EC000F06FC001F096DF828212001E
:100118008292A00E01016311006E70C0E1FF71C0F0
:10012800E2FF00C0E6FF6EC000F06FC001F084DFA0
:1001380070C0E1FF71C0E2FF64C1E6FF6EC000F06D
:0A0148006FC001F079DF828212001F
:10015200829270C0E1FF71C0E2FF63C1E6FF6EC030
:1001620000F06FC001F06BDF70C0E1FF71C0E2FF11
:10017200E66A6EC000F06FC001F061DF8282120099
:100182008292800E01016311006E70C0E1FF71C0A6
:10019200E2FF00C0E6FF6EC000F06FC001F04FDF6B
:1001A20070C0E1FF71C0E2FF64C1E6FF6EC000F003
:0A01B2006FC001F044DF82821200EA
:1001BC00020E0101666F63C167F164C168F146DF2D
:1001CC00829270C0E1FF71C0E2FF7A0EE66E6EC0E3
:1001DC0000F06FC001F02EDF70C0E1FF71C0E2FFD4
:1001EC0065C1E6FF6EC000F06FC001F023DF8282B4
:0201FC001200EF
:0801FE000AAE029E000E120081
:100206000B840BAE0EEF01F0010E036E026A016A5B
:0A021600006A0A360232FF0E1200E1
:0E022000026A016A006A086A036A000E120090
:10022E000B820BAE21EF01F00368026801680068D3
:08023E000A360232FF0E120025
:10024600829270C0E1FF71C0E2FF7A0EE66E6EC068
:1002560000F06FC001F0F1DE70C0E1FF71C0E2FF97
:1002660056C1E6FF6EC000F06FC001F0E6DE70C05A
:10027600E1FF71C0E2FF55C1E6FF6EC000F06FC03E
:0802860001F0DBDE82821200B0
:10028E00010157515525596F585156215A6F010E7C
:10029E00595F000E5A5B100E666F55C167F156C15D
:1002AE0068F1D3DE120E0101666F59C167F15AC1B2
:1002BE0068F1CBDE1F0E0101636F300E646F5ADFE3
:1002CE001F0E0101636F3EDF00AA01D0F9D71200A5
:1002DE00020E0101666F55C167F156C168F1B5DEB8
:1002EE00829270C0E1FF71C0E2FF7A0EE66E6EC0C0
:1002FE0000F06FC001F09DDE010159515A1117E057
:10030E0070C0E1FF71C0E2FF57C1E9FF58C1EAFFBB
:10031E00EECFE6FF6EC000F06FC001F08ADE010185
:10032E00574B582B010E595F000E5A5BE5D7828250
:02033E001200AB
:10034000829270C0E1FF71C0E2FF7A0EE66E6EC06D
:1003500000F06FC001F074DE57C100F058C101F029
:10036000010E0101575F000E585B0050011013E0B1
:1003700070C0E1FF71C0E2FF55C1E9FF56C1EAFF5D
:10038000EECFE6FF6EC000F06FC001F059DE010154
:0A039000554B562BE1D78282120074
:10039A0057C104F058C105F055C102F056C103F027
:1003AA0059C100F05AC101F0010E0101595F000E56
:1003BA005A5B005001100FE004C0E9FF05C0EAFFD4
:1003CA0002C0E1FF03C0E2FFEECFE6FF024A032AC2
:1003DA00044A052AE5D755C100F056C101F01200BA
:1003EA000CB037EF02F00CA2DDEF02F00E6A000E3D
:1003FA0002644EEF02F0F00E0214D8A419EF02F0D4
:10040A00023A01380F0B02260138F00B016E003850
:10041A000F0B01260038F00B006E08380F0B002670
:10042A000838F00B086E0E84D89002BE32EF02F044
:10043A0008360036013602360E2A02BE32EF02F0C4
:10044A0008360036013602360E2A02BE32EF02F0B4
:10045A0008360036013602360E2A0E500364D3EFF0
:10046A0002F0035E0BBC08AED8EF02F0D880800E13
:10047A0008640030000E002201220222D8A0D8EF20
:10048A0002F0023201320032034ADDEF02F0D8EF05
:10049A0002F001C002F000C001F008C000F0086AD2
:1004AA00000E0E86026485EF02F0F00E0214D8A444
:1004BA006DEF02F0023A01380F0B02260138F00BF9
:1004CA00016E00380F0B01260038F00B006E0E8407
:1004DA00D89002BE32EF02F00036013602360E2AFA
:1004EA0002BE32EF02F00036013602360E2A02BE92
:1004FA0032EF02F00036013602360E2A32EF02F0EF
:10050A0001C002F000C001F0006A000E0E960E88CB
:10051A000264B2EF02F0F00E0214D8A49DEF02F0CA
:10052A00023A01380F0B02260138F00B016E0E84D5
:10053A00D89002BE32EF02F0013602360E2A02BE0F
:10054A0032EF02F0013602360E2A02BE32EF02F014
:10055A00013602360E2A32EF02F001C002F0016AB9
:10056A00000E0E860264E2EF02F0F00E0214D8A426
:10057A00C1EF02F0023A0E84D89002BE32EF02F0C6
:10058A0002360E2A02BE32EF02F002360E2A02BEEE
:10059A0032EF02F002360E2A32EF02F0010E0C6E32
:1005AA002DDEE5EF02F0020E0C6E24DEE5EF02F01E
:1005BA00040E0C6E37DEE5EF02F0080E0C6E2BDE31
:0205CA0012001D
:1005CC000101626B010E575F000E585B5B530DE02F
:1005DC005851190802E15751AD0807E2622BAD0ED4
:1005EC00575D606F190E5859616F625305E0AD0E7F
:1005FC005C6F190E5D6F04D057C15CF158C15DF191
:10060C0056515D1902E15C5155190DE155C163F16B
:10061C0056C164F15CDD00C065F159C163F15AC18A
:10062C0064F1C6DD36D0100E0101666F55C167F15D
:10063C0056C168F10BDD120E0101666F625305E0C5
:10064C00AD0E5E6F190E5F6F04D057C15EF158C1CD
:10065C005FF15EC167F15FC168F1F8DC140E010156
:10066C00666F59C167F15AC168F1F0DC1F0E0101C8
:10067C00636F100E646F4ADD1F0E0101636F200E55
:10068C00646F79DD1F0E0101636F5DDD00AA01D07F
:10069C00F9D7010162531AE05551575D006E56515E
:1006AC005859016E6051005E6151015A004A012A8D
:1006BC000050592701505A23010E605D576F000EF0
:0E06CC006159586F556B566B626B8FD71200D9
:1006DA0055C163F156C164F157C165F16ADD58C16C
:0606EA0063F1DDDC1200EB
:1006F000AE0E0101636F190E646F656B5FDDAE0EA8
:1007000001015525006E190E5621016E00C055F1EC
:1007100001C056F1060E666F00C067F101C068F1B6
:100720009BDC1F0E0101636F800E646F2ADD1F0EBC
:100730000101636F800E646FEFDC00017251050AE6
:1007400004E07251070A01E006D01C0E0101636F3C
:100750000A0E646FE1DC1F0E0101636F080E646F07
:1007600010DD00017251050A04E07251070A01E030
:1007700080D001015A6B5B6B1C0E636FEADC0A0EC2
:10078000001600520AE101015A4B5B2B030E5B5D20
:1007900002E1E80E5A5D01E2EFD701011C0E636F22
:1007A000D8DC00B208D0030E01015B5D02E1E80E67
:1007B0005A5D01E25DD001011F0E636F080E646F88
:1007C000ABDC040E01015525636F000E5621646FEA
:1007D00084DC00C059F10101576B100E575D48E2EF
:1007E0001C0E636FB6DC00A23FD0010159AB3CD0B8
:1007F0001F0E636F800E646FC4DC1F0E0101636FF8
:10080000800E646F89DC1C0E0101636F0A0E646F39
:1008100083DC1F0E0101636F080E646FB2DC0101FF
:100820005A6B5B6B1C0E636F94DC0A0E0016005251
:100830000AE101015A4B5B2B030E5B5D02E1E80EFE
:100840005A5D01E2EFD701011F0E636F080E646F5E
:1008500063DC040E01015525636F000E5621646FA1
:100860003CDC00C059F101D003D00101572BB5D7B2
:1008700007D001011F0E636F6CDC00A601D0F9D711
:100880001D0E0101636F65DC060E0016005203E0C9
:100890000101586B03D00101010E586F58C100F0DF
:0208A000120044
:1008A20001014A51FF0A02E1FF0E491907E0666B96
:1008B20049C167F14AC168F12CEC00F0829270C024
:1008C200E1FF71C0E2FF3A0EE66E6EC000F06FC04B
:1008D20001F020EC00F04BC100F04CC101F0010E20
:1008E20001014B5F000E4C5B0050011015E070C01F
:1008F200E1FF71C0E2FFE66A6EC000F06FC001F076
:1009020020EC00F047C1E1FF48C1E2FF00C0E6FF72
:0C0912000101474B482BDFD78282120006
:10091E004BC101F04CC102F0010E01014B5F000E04
:10092E004C5B000E021802E1000E01181FE047C1D9
:10093E00E9FF48C1EAFF49C1D9FF4AC1DAFFEE50CB
:10094E00DE180FE047C1E9FF48C1EAFF49C1D9FFF0
:10095E004AC1DAFFDE50EE5C006E016A000E015AEB
:10096E0007D0474B482B494B4A2BD2D7006A016A16
:02097E00120065
:100980000101476B486B3A503B10D8A44781010ED8
:10099000476F000E486F000E471802E1010E46181F
:1009A000D8B4478307D0478511D00B0E4717000EE8
:1009B00048170CD0000E3D1802E1000E3C18F3E081
:1009C000000E3D1802E1010E3C18EFE047C14AF06D
:0609D00048C14BF01200CB
:1009D600829270C0E1FF71C0E2FF3A0EE66E6EC011
:1009E60000F06FC001F020EC00F070C0E1FF71C0B4
:1009F600E2FFE66A6EC000F06FC001F020EC00F086
:040A060082821200D6
:080A0A000B6A0B86FF0E1200BF
:100A12000C6A0E6A0250D8A422EF05F001C002F05F
:100A220000C001F0006A0E860250D8A422EF05F041
:100A320001C002F0016A0E960E880250D8B434EF5B
:100A420005F00E50035ED8A4D8A03AEF05F0D89076
:100A520002BE40EF05F0003601360236032E29EFC2
:100A620005F03AEF05F0010E0C6E10EC01F044EFC8
:100A720005F0020E0C6E03EC01F044EF05F0040EDB
:080A82000C6EFFEC00F0120005
:100A8A00025006180E6E086A096A0B6A0350076458
:100A9A0038EF06F006500A6E068E028E03500B6E71
:100AAA000750036E000E0B6488EF05F00B50075ECB
:100ABA00D8B429EF06F0070E0764F7EF05F0075ED2
:100ACA0000C008F001C000F002C001F0026A074E3F
:100ADA0029EF06F00764CCEF05F0075E00C008F0C6
:100AEA0001C000F0016A074E29EF06F00764AAEF79
:100AFA0005F0075E00C008F0006A074E29EF06F00D
:100B0A00076491EF05F00AC002F005C001F004C0C5
:100B1A0000F0086A55EF07F0030E07649CEF05F032
:100B2A00075E08380F0B086E074E29EF06F0D890BB
:100B3A000832074E29EF06F0D8900832074E29EFFF
:100B4A0006F0D890083229EF06F0030E0764BBEFCF
:100B5A0005F0075E08380F0B086E0038F00B082600
:100B6A0000380F0B006E074E29EF06F0D8900032BE
:100B7A000832074E29EF06F0D89000320832074EA5
:100B8A0029EF06F0D8900032083229EF06F0030E5A
:100B9A000764E3EF05F0075E08380F0B086E0038AC
:100BAA00F00B082600380F0B006E0138F00B0026F8
:100BBA0001380F0B016E074E29EF06F0D89001326B
:100BCA0000320832074E29EF06F0D890013200327F
:100BDA000832074E29EF06F0D89001320032083267
:100BEA0029EF06F0030E076414EF06F0075E0838D3
:100BFA000F0B086E0038F00B082600380F0B006E3A
:100C0A000138F00B002601380F0B016E0238F00B89
:100C1A00012602380F0B026E074E29EF06F0D89014
:100C2A000232013200320832074E29EF06F0D8901C
:100C3A000232013200320832074E29EF06F0D8900C
:100C4A000232013200320832096A000E0EAE1DEF7E
:100C5A0007F0081E001E011E021E082A0022012299
:100C6A0002221DEF07F00750D8A43EEF06F055EF19
:100C7A0007F0096A02C00AF0028E068E0750035C6A
:100C8A00076ED8B410EF07F0070E0764DEEF06F020
:100C9A00075E0450096E0550046E0650056E066A1A
:100CAA00074E10EF07F0070E0764B3EF06F0075E72
:100CBA000450096E0550046E056A074E10EF07F0DE
:100CCA00070E076491EF06F0075E0450096E046A86
:100CDA00074E10EF07F0070E076478EF06F00AC018
:100CEA0002F055EF07F0030E076483EF06F0075E84
:100CFA0009380F0B096E074E10EF07F0D89009322A
:100D0A00074E10EF07F0D8900932074E10EF07F0A0
:100D1A00D890093210EF07F0030E0764A2EF06F02D
:100D2A00075E09380F0B096E0438F00B09260438E0
:100D3A000F0B046E074E10EF07F0D89004320932F9
:100D4A00074E10EF07F0D89004320932074E10EF21
:100D5A0007F0D8900432093210EF07F0030E076447
:100D6A00CAEF06F0075E09380F0B096E0438F00B5C
:100D7A00092604380F0B046E0538F00B04260538D3
:100D8A000F0B056E074E10EF07F0D89005320432AC
:100D9A000932074E10EF07F0D890053204320932B3
:100DAA00074E10EF07F0D89005320432093210EFDF
:100DBA0007F0030E0764FBEF06F0075E09380F0B16
:100DCA00096E0438F00B092604380F0B046E053837
:100DDA00F00B042605380F0B056E0638F00B0526B6
:100DEA0006380F0B066E074E10EF07F0D890063242
:100DFA00053204320932074E10EF07F0D890063256
:100E0A00053204320932074E10EF07F0D890063245
:100E1A00053204320932086A000E0EAE1DEF07F0E1
:100E2A00091E041E051E061E092A04220522062280
:100E3A0009500826045000220550012206500222B9
:100E4A000EBE34EF07F0D8A043EF07F002320132AA
:100E5A0000320832033E43EF07F04FEF07F0D8B0F5
:100E6A0049EF07F0000E081E001E011E021E082A86
:100E7A000022012202220A7E49EF07F0010E0C6EBF
:100E8A00F5EC01F057EF07F0020E0C6EF5EC01F0ED
:100E9A0057EF07F0040E0C6E17EC01F057EF07F04E
:060EAA00000E0C6E1200A8
:100EB0000B6A0A6A096A00500402F4CF09F0F3CF02
:100EC00008F001500502F4CF0BF0F3CF0AF0005008
:100ED0000502F3500926F4500A22E86A0B22015059
:100EE0000402F3500926F4500A22E86A0B2208C0D3
:100EF00000F009C001F00AC002F00BC003F01200BC
:100F0000829270C0E1FF71C0E2FF7A0EE66E6EC0A1
:100F100000F06FC001F020EC00F04AC100F04BC1BE
:100F200001F0010E01014A5F000E4B5B0050011001
:100F30001CE070C0E1FF71C0E2FF47C1F6FF48C18D
:100F4000F7FF49C1F8FF0900F5CF00F000C0E6FF48
:100F50006EC000F06FC001F020EC00F0010E010146
:0E0F60004727000E48234923D8D7828212006B
:100F6E00AF0E0101556F190E566F47C157F148C1AB
:100F7E0058F1060E596F000E5A6F6FEC01F0640EA9
:100F8E00556F000E566F060E576F000E586FA0EC81
:100F9E0001F0000E556F080E566F23EC01F01C0E7B
:100FAE0001014F25526F000E5021536F000E556FE9
:100FBE00450E566F23EC01F052C155F153C156F157
:100FCE0023EC01F082C055F183C056F123EC01F001
:100FDE000001824B832B0101556B566B23EC01F004
:100FEE00110E0101556F800E566F23EC01F00101B9
:100FFE00556B566B23EC01F0540E0101556F000E2C
:10100E00566F040E576F000E586FA0EC01F049C1D9
:10101E0055F14AC156F1040E576F000E586FA0ECF1
:10102E0001F0080E4F25526F000E5021536F4BC129
:10103E0055F14CC156F123EC01F04DC155F14EC1A5
:10104E0056F123EC01F052C155F153C156F123EC88
:10105E0001F00101556B566B23EC01F0BD0E010141
:10106E00556F190E566F140E576F000E586F47ECD2
:10107E0001F0160E0101636FA9EC00F000C054F1EF
:10108E00170E0101636FA9EC00F000C057F1C70EF7
:10109E000101556F190E566F54C158F16DEC03F0E6
:1010AE00010E01015215516FD90E4F25636F190EA6
:1010BE005021646F656BDEEC00F0C90E0101556FB7
:1010CE00190E566FD10E576F190E586FD90E4F2538
:1010DE00596F190E50215A6F51515927000E5A232C
:1010EE005B6BE6EC02F0D90E4F25556F190E5021B1
:1010FE00566F51515527000E5623080E5527000ED8
:10110E005623576B110E586F6DEC03F053C163F1FC
:10111E0054EC00F052C163F154EC00F0D10E010119
:10112E00556F190E566F0C0E5225576F000E532128
:10113E00586F51515727000E582347EC01F0160EE9
:10114E000101636FA9EC00F000C054F1170E01010C
:10115E00636FA9EC00F000C057F1D70E0101556F77
:10116E00190E566F54C158F16DEC03F02A0E0101A1
:10117E004F25556F000E5021566F78EC03F012007C
:10118E0001014751390806E3300E475D03E3010EB6
:08119E00006E01D0006A12008E
:1011A6000134083609360450085E0550D8A0053CBF
:1011B600095E003601360F0E0C6E0134083609360C
:1011C600045000A006D0085E0550D8A0053C095E74
:1011D60005D008260550D8B0053C0926003601364C
:1011E6000C2EEBD700B006D0045008260550D8B018
:0811F600053C0926000012006F
:1011FE0047C155F148C156F1540E0101576F000E0B
:10120E00586F040E596F000E5A6FCDEC01F0496BFA
:10121E004951030821E349514725026E000E48212A
:10122E00036E02C0E9FF03C0EAFFEECF01F0580ED5
:10123E00E96E000EEA6E4951E926D8B0EA2AFF0E91
:10124E00EE18006E0150001202C0E1FF03C0E2FF73
:0A125E0000C0E6FF492BDCD71200A8
:10126800386A396A3A6A3B6A3C6A3D6A3E6A3F6A4A
:10127800406A416A426A436A446A456A466A476AFA
:0A128800486A496A4A6A4B6A12007C
:101292000B800BAE55EF09F0026A0AAEFF0E026E2A
:0C12A200016E006E0A360232FF0E1200D0
:1012AE003FC102F040C103F042C100F043C101F062
:1012BE00010E0101425F000E435B0050011009E078
:1012CE0002C0E1FF03C0E2FF41C1E6FF024A032A6A
:0C12DE00EBD73FC100F040C101F012004E
:1012EA000A6A0350D8A40A800750D8A40A820A506E
:1012FA00D8B4D8EF09F0030AD8B491EF09F00AB0CC
:10130A008CEF09F006AED6EF09F0D4EF09F002AE81
:10131A00D4EF09F0D6EF09F00250800B0A6E029E54
:10132A000650800B069E0A18D8B4A2EF09F00A509C
:10133A00D8B4D4EF09F0D6EF09F00750035CD8B45B
:10134A00ACEF09F0D8A0C8EF09F0CEEF09F00650CB
:10135A00025CD8B4B6EF09F0D8A0C8EF09F0CEEF16
:10136A0009F00550015CD8B4C0EF09F0D8A0C8EF65
:10137A0009F0CEEF09F00450005CD8B4D8EF09F0B8
:10138A00D8B0CEEF09F00A52D8B4D6EF09F0D4EFAC
:10139A0009F00A52D8B4D4EF09F0D6EF09F0D88090
:0E13AA001200D8901200D880D88412001200D1
:1013B8003A503B10D8B466D0000E391802E1000E3E
:1013C800381858E1C0EC04F0010E4024006E000EFD
:1013D8004120016E00C040F001C041F0800E41186C
:1013E800006E800E3F18005C02E13E50405C17E33F
:1013F800080E4A18006E4BC001F0000E011A00C01A
:101408004AF001C04BF0406A416A010E4824006E60
:10141800000E4920016E00C048F001C049F04AC0E2
:1014280081FF000E471802E1000E461815E14950E9
:10143800431802E1425048180FE1000E451802E136
:10144800000E441802E10CDFB3D7010E466E000E01
:10145800476E486A496A0DD0000E471802E1010E2E
:10146800461807E14950451802E14450481801E17F
:10147800F7DE07D0000E391802E1010E381801E135
:0614880001D096D712000E
:10148E00020E0C6E490E0D6E0D2EFED70C2EFCD7D5
:06149E0000000000120036
:1014A400F90E0101426F000E436F020E666FD90EF2
:1014B400676F190E686F2CEC00F0EA0E0101476F9C
:1014C4003D0E486F000E496F0C0E4A6F000E4B6FB5
:1014D40015DD3F51030A0DE140530BE0500E556FEB
:1014E400000E566F040E576F000E586FA0EC01F0FB
:1014F4000AD0416B040E415D06E2636B54EC00F0CC
:101504000101412BF7D7416B0C0E415D06E2636B81
:1015140054EC00F00101412BF7D7640E556F000E17
:10152400566F060E576F000E586FA0EC01F0416B1A
:10153400CA0E415D06E2636B54EC00F00101412BDD
:10154400F7D7F60E476F3D0E486F000E496F060E33
:101554004A6F000E4B6FD2DC3FC163F154EC00F0D4
:1015640001013F51030A1AE1405318E1360E636F3B
:1015740054EC00F0040E0101636F54EC00F0760E9D
:101584000101556F000E566F040E576F000E586F11
:10159400A0EC01F0060E4227000E4323FC0E476F19
:1015A4003D0E486F000E496F050E4A6F000E4B6FDB
:1015B400A5DC3F51030A23E1405321E1320E636F5E
:1015C40054EC00F0040E0101636F54EC00F00101CF
:1015D400416B040E415D0FE2500EE96E000EEA6E9F
:1015E4004151E926D8B0EA2AEECF63F154EC00F079
:1015F4000101412BEED7060E4227000E4323FF0EB6
:10160400636F54EC00F0220E0101476F000E486F27
:10161400220E496F000E4A6F440E4B6F000E4C6F42
:10162400430E4D6F000E4E6F42C14FF143C150F156
:041634009CDC120028
:101638000450000A08E10550000A05E1FF0E006E9B
:101648007F0E016E57D00D6A096A086A01500010B2
:10165800D8B4000C015005180A6E0ABE0D1E0B6A9C
:1016680005AE05D0041E051E042AD8B4052A01AE0D
:1016780005D0001E011E002AD8B4012A0150051009
:101688000A6E0ABE10D08BDD0BB020D00DAE000C58
:10169800001E011E002AD8B4012A081E091E082AA5
:1016A800D8B4092A000C05AE0DD001BE07D00150F0
:1016B800096E0050086E016A006AE8D7016A006A7C
:1016C800002A000C011E001E0B2ADDD7082AD8B4F8
:1016D800092A0450085CD8A4D9D70550095CD8A4B5
:1016E800D5D7096A086A002AD8B4012A01AECED72C
:0616F8000000FF0C1200CF
:1016FE003FC1E9FF40C1EAFFEECF41F1000E01010B
:10170E00426F000E426F000E421902E1200E411987
:10171E0007E0000E421902E1090E411901E003D063
:10172E003F4B402BE5D7436B446B456B466B000E2E
:10173E00421902E12D0E411905E1454B462B3F4B57
:10174E00402B08D0000E421902E12B0E411902E186
:10175E003F4B402B3FC1E9FF40C1EAFFEECF41F1C5
:10176E00000E426F000E426F41C147F109DD00527B
:10177E0019E043C100F044C101F00A0E046E000EE0
:10178E00056E58EC07F0300E415D026E000E4259A8
:10179E00036E02500024436F03500120446F3F4BF1
:1017AE00402BD8D74551461108E043510008006E32
:1017BE0044C101F0000E015604D043C100F044C1F3
:0417CE0001F0120014
:1017D2000101436B446B829270C0E1FF71C0E2FF72
:1017E2007A0EE66E6EC000F06FC001F020EC00F0E1
:1017F2003FC100F040C101F041C102F0010E010100
:101802003F27000E4023412300C0F6FF01C0F7FF2F
:1018120002C0F8FF0900F5CF00F000C042F100520B
:1018220010E070C0E1FF71C0E2FF42C1E6FF6EC08E
:1018320000F06FC001F020EC00F00101434B442B9B
:0E184200D7D7828243C100F044C101F01200EA
:101850000450000A12E10550000A0FE10650000A88
:101860000CE10750000A09E1FF0E006EFF0E016E49
:101870007F0E026EFF0E036EA8D0086A096A075039
:10188000D8B4D3EF0CF00350D8B4D8EF0CF002501A
:1018900006180A6E028E068E0E6A02C008F001C09B
:1018A0000CF000C00DF004500D5E0550D8A0053CB2
:1018B0000C5E0650D8A0063C085E086A0C6A0D6AE9
:1018C000D8A06AEF0CF0D890023201320032083210
:1018D000010E0E6E0750035ED8A077EF0CF07E0E5F
:1018E0000E240326D8B0DDEF0CF07DEF0CF07E0E59
:1018F0000E240326D8A0E2EF0CF0180E0B6E0D3666
:101900000C3608360036013602360E360450005EBC
:101910000550D8A0053C015E0650D8A0063C025EEA
:1019200006340E120EA098EF0CF00D80A3EF0CF011
:10193000045000260550D8B0053C01260650D8B00A
:10194000062802260D900B2E7FEF0CF0C9EF0CF04D
:10195000D8900036013602360E360450005E05502F
:10196000D8A0053C015E0650D8A0063C025E0634B5
:101970000E10010B0D26D8B00C2AD8B4082AD8A412
:10198000C9EF0CF008320C320D32032AD8B4DDEF67
:101990000CF00AAE089E0850026E0C50016E0D50FD
:1019A000006EE5EF0CF0010E05EC05F0E5EF0CF034
:1019B000020E10EC01F0E5EF0CF0040E17EC01F054
:0C19C000E5EF0CF0080E03EC01F0120043
:1019CC0000C008F00150006E016A026A036A0B6ADB
:1019DC000C6A016A026A036A960E036E0A6A00AE0A
:1019EC00FEEF0CF0081E001E082AD8B4002A0A8E3E
:1019FC0000C001F008C000F0086A026A09EC05F0AA
:021A0C001200C6
:101A0E003FC1E9FF40C1EAFFEE500101411905E176
:101A1E003FC100F040C101F010D03FC100F040C105
:101A2E0001F03F4B402B00C0E9FF01C0EAFFEECFB3
:0C1A3E0000F00052E5E1006A016A1200AD
:101A4A00580E0101556F000E566F3FC157F140C144
:101A5A0058F1040E596F000E5A6FCDEC01F08E0E3C
:101A6A00556F000E566F41C157F142C158F1040E2D
:101A7A00596F000E5A6FCDEC01F0920E556F000EA1
:101A8A00566F43C157F144C158F1040E596F000E05
:101A9A005A6FCDEC01F0880E476F000E486FFFECCD
:041AAA0008F012002E
:101AAE000101416B3C0E4C6E000E4D6E4E6E4F6E34
:101ABE00EBEC04F000C03FF10050020AD8A42ED186
:101ACE000101406B0F0E405D05E2EBEC04F00101ED
:101ADE00402BF8D7500E476F000E486FFF0E496F20
:101AEE00FF0E4A6F040E4B6F000E4C6F51EC04F05C
:101AFE00406B080E405D05E2EBEC04F00101402B5B
:101B0E00F8D7406B060E405D13E2EBEC04F000C01C
:101B1E003FF1640ED96E000EDA6E01014051D926E6
:101B2E00D8B0DA2A0050DE1801E024D1402BEAD7D3
:101B3E00406BCE0E405D05E2EBEC04F00101402B54
:101B4E00F8D7426BEBEC04F000C03FF1C8D0EBECE1
:101B5E0004F000C03FF10050010A05E1EBEC04F087
:101B6E0000C041F101D006D1D5D0EBEC04F000C09D
:101B7E003FF10050040A10E16A0E0101476F000E9A
:101B8E00486FFF0E496FFF0E4A6F040E4B6F000E2B
:101B9E004C6F51EC04F001D0EDD0BCD0EBEC04F066
:101BAE0000C03FF1040E005C10E35C0E0101476FB4
:101BBE00000E486FFF0E496FFF0E4A6F040E4B6FFB
:101BCE00000E4C6F51EC04F001D0D4D00101040E84
:101BDE003F5F01013FC100F03F07005203E0EBEC15
:101BEE0004F0F7D797D0EBEC04F000C03FF1040EF1
:101BFE00005C10E3600E0101476F000E486FFF0E90
:101C0E00496FFF0E4A6F040E4B6F000E4C6F51EC76
:101C1E0004F001D0AFD00101040E3F5F01013FC1BE
:101C2E0000F03F07005203E0EBEC04F0F7D772D060
:101C3E00EBEC04F000C03FF10050040A10E1430E3B
:101C4E000101476F010E486FFF0E496FFF0E4A6F7D
:101C5E00040E4B6F000E4C6F51EC04F001D08AD085
:101C6E0059D00101010E426F55D0EBEC04F000C0CB
:101C7E003FF10050040A23E14C0E0101476F000EA4
:101C8E00486FFF0E496FFF0E4A6F040E4B6F000E2A
:101C9E004C6F51EC04F04F50000808E14E50000814
:101CAE0005E14D50070802E14C50080807E2080E06
:101CBE004C5E070E4D5A000E4E5A4F5A01D05AD056
:101CCE0029D0EBEC04F000C03FF13FC100F0010160
:101CDE003F07005203E0EBEC04F0F7D71BD00101F5
:101CEE003F51350AD8B433D73F51010AD8B43DD746
:101CFE003F51030AD8B452D73F51060AD8B473D70E
:101D0E003F51360A95E03F51FF0AABE03F51330A8F
:101D1E00ACE0D7D701014253D8B414D701014151D9
:101D2E00020A0FE1760E556F000E566F430E576F77
:101D3E00010E586F040E596F000E5A6FCDEC01F064
:101D4E0016D0760E476F000E486F430E496F010E88
:101D5E004A6F040E4B6F000E4C6F8FEC04F0000EAA
:101D6E00011802E1000E001802E00101416B41C1B1
:081D7E0000F001D0006A120020
:101D86000B6A0350D8B409EF0FF002500A6E028EA8
:101D96008E0E035E03AE0DEF0FF0036C080E035CB0
:101DA600D8A0E8EF0EF0036E013602C001F0026A19
:101DB600080E035CD8A0E8EF0EF0036E0136016A48
:101DC6000350D8A4D890F2EF0EF00350D8B4F2EF37
:101DD6000EF0D89002320132032EECEF0EF00BBC5F
:101DE60001A0FFEF0EF0D8A0FFEF0EF0012AD8B445
:101DF600022A02BE1CEF0FF00AAE22EF0FF0021EFF
:101E0600011E012AD8B4022A22EF0FF0026A016AE3
:101E160022EF0FF00B800BAE26EF0FF0026A0AAE30
:101E260026EF0FF0FF0E026E016E0A36023226EF23
:101E36000FF0010E0C6E49EC09F028EF0FF0000EC2
:101E46000C6E28EF0FF0FF0E0C6E0150006E025064
:041E5600016E120007
:081E5A00067E45EC05F01200C4
:101E62008292400E01011511006E70C0E1FF71C037
:101E7200E2FF00C0E6FF6EC000F06FC001F020EC90
:101E820000F070C0E1FF71C0E2FF16C1E6FF6EC054
:0E1E920000F06FC001F020EC00F08282120020
:101EA00001011651190802E11551AD0804E2AE0E08
:101EB000155F190E165B666B15C167F116C168F1E7
:061EC0002CEC00F0120002
:101EC600B50E0101556F190E566FBB0E576F190EE1
:101ED600586FAF0E596F190E5A6F5B6BE6EC02F036
:101EE600B50E556F190E566F640E576F000E586F6C
:0E1EF600060E596F000E5A6F6FEC01F01200CD
:101F04000101636BA9EC00F000C01AF1010E01019C
:101F1400636FA9EC00F000C01BF10101666B15C1F1
:101F240067F116C168F12CEC00F0829270C0E1FFF9
:101F340071C0E2FF3A0EE66E6EC000F06FC001F0B1
:101F440020EC00F00101195318E070C0E1FF71C0EA
:101F5400E2FFE66A6EC000F06FC001F020EC00F012
:101F640017C1D9FF18C1DAFF0050DE1801E005D00F
:101F74000101174B182B1907E5D701018282666B03
:101F84001AC167F11BC168F12CEC00F019C100F013
:021F9400120039
:101F96000101156BC80E155D06E247EC0AF047EC29
:081FA6000AF0152BF7D7120019
:101FAE00C90E0101556F190E566FCD0E576F190ED2
:101FBE00586FCD0E596F190E5A6F5B6BE6EC02F02F
:101FCE00C90E556F190E566F540E576F000E586F7F
:0E1FDE00040E596F000E5A6F6FEC01F01200E6
:101FEC000101376B386B000E385D02E1140E375D62
:101FFC0012E2C30E3725396F000E38213A6FEBEC25
:10200C0004F039C1E1FF3AC1E2FF00C0E6FF010173
:10201C00374B382BE8D7C30E3725E16E000E38212D
:10202C00E26EE66AC30E476F000E486F470E1F6FD5
:10203C00450E206F540E216F200E226F2F0E236F32
:10204C00246B1F0E496F010E4A6F050E4B6F000E6D
:10205C004C6F8FEC04F00050011003E0006A016A31
:10206C00EED2000E01011A1902E1500E191903E00B
:10207C00006A016AE4D2C80E476F000E486F4F0E1B
:10208C00256F460E266F460E276F286B250E496F5F
:10209C00010E4A6F030E4B6F000E4C6F8FEC04F069
:1020AC00005001102CE134EC09F0050E01013F6FDA
:1020BC003D0E406F000E416FE9EC0BF000C037F1A4
:1020CC0001C038F1DE0E3F6F3D0E406F000E416FC8
:1020DC00E9EC0BF00050372701503823010E3F6F0D
:1020EC003E0E406F000E416FE9EC0BF037510026AD
:1020FC003851012200C037F101C038F1A0D20101E2
:10210C00C80E476F000E486F530E296F540E2A6F7E
:10211C002B6B290E496F010E4A6F020E4B6F000E8E
:10212C004C6F8FEC04F00050011003E1386A396AEF
:10213C0046D0C80E0101476F000E486F410E2C6F40
:10214C00430E2D6F2E6B2C0E496F010E4A6F020E33
:10215C004B6F000E4C6F8FEC04F00050011005E13A
:10216C00010E386E000E396E2AD0C00E01013F6F81
:10217C003C0E406F000E416FE9EC0BF000C037F1E4
:10218C0001C038F1DE0E3F6F3D0E406F000E416F07
:10219C00E9EC0BF00050372701503823D10E3F6F7C
:1021AC003D0E406F000E416FE9EC0BF037510026ED
:1021BC003851012200C037F101C038F140D2010181
:1021CC00CA0E476F000E486F2C0E2F6F306B2F0E00
:1021DC00496F010E4A6F010E4B6F000E4C6F8FEC66
:1021EC0004F0005001102AE0C00E01013F6F3C0EBC
:1021FC00406F000E416FE9EC0BF000C037F101C0ED
:10220C0038F1DE0E3F6F3D0E406F000E416FE9EC72
:10221C000BF00050372701503823BC0E3F6F3D0E9A
:10222C00406F000E416FE9EC0BF03751002638512E
:10223C00012200C037F101C038F101D20101CB0EEF
:10224C00476F000E486F520E316F326B310E496F73
:10225C00010E4A6F010E4B6F000E4C6F8FEC04F0A9
:10226C000050011005E1010E3C6E000E3D6E42D097
:10227C00CB0E0101476F000E486F4C0E336F346B61
:10228C00330E496F010E4A6F010E4B6F000E4C6FEF
:10229C008FEC04F00050011003E13C6A3D6A2AD037
:1022AC00C00E01013F6F3C0E406F000E416FE9EC18
:1022BC000BF000C037F101C038F1DE0E3F6F3D0E60
:1022CC00406F000E416FE9EC0BF0005037270150C6
:1022DC003823D10E3F6F3D0E406F000E416FE9EC7D
:1022EC000BF0375100263851012200C037F101C0E4
:1022FC0038F1A5D10101CC0E476F000E486F2C0EA2
:10230C00356F366B350E496F010E4A6F010E4B6FF0
:10231C00000E4C6F8FEC04F0005001102AE0C00E40
:10232C0001013F6F3C0E406F000E416FE9EC0BF06A
:10233C0000C037F101C038F1DE0E3F6F3D0E406F2B
:10234C00000E416FE9EC0BF0005037270150382399
:10235C00BC0E3F6F3D0E406F000E416FE9EC0BF071
:10236C00375100263851012200C037F101C038F135
:10237C0066D10101CD0E3F6F000E406F7FEC0BF06C
:10238C0000C03EF001C03FF0000E011802E1000E4B
:10239C00001829E1C00E3F6F3C0E406F000E416FDC
:1023AC00E9EC0BF000C037F101C038F1DE0E3F6FE5
:1023BC003D0E406F000E416FE9EC0BF000503727DB
:1023CC0001503823900E3F6F3D0E406F000E416F51
:1023DC00E9EC0BF0375100263851012200C037F1DF
:1023EC0001C038F12CD13EC004F03FC005F0500EB6
:1023FC00006E480E016E1CEC0BF000C03EF001C0EC
:10240C003FF0CD0E01013F6F000E406F2C0E416F5F
:10241C0007EC0DF0C30E005E000E015A004A012AB3
:10242C00C30E00243F6F000E0120406F7FEC0BF0B9
:10243C0000C042F001C043F0000E011802E1000E92
:10244C00001829E1C00E3F6F3C0E406F000E416F2B
:10245C00E9EC0BF000C037F101C038F1DE0E3F6F34
:10246C003D0E406F000E416FE9EC0BF0005037272A
:10247C0001503823A60E3F6F3D0E406F000E416F8A
:10248C00E9EC0BF0375100263851012200C037F12E
:10249C0001C038F1D4D097D0010E4224006E000E4A
:1024AC004320016E00C042F001C043F042C000F076
:1024BC0043C001F0E6EC0CF000C039F101C03AF178
:1024CC0002C03BF103C03CF1660E046E660E056E55
:1024DC00660E066E7F0E076E39C100F03AC101F030
:1024EC003BC102F03CC103F028EC0CF046DC00C010
:1024FC003DF101C03EF13DC144F03EC145F0660ED8
:10250C00046E660E056E660E066E7F0E076E39C182
:10251C0000F03AC101F03BC102F03CC103F028ECE1
:10252C000CF000C039F101C03AF102C03BF103C01C
:10253C003CF13DC100F03EC101F0E6EC0CF000C0F6
:10254C0004F001C005F002C006F003C007F039C169
:10255C0000F03AC101F03BC102F03CC103F077DC62
:10256C0000C004F001C005F002C006F003C007F083
:10257C00006A016A026A036A75EC09F0010ED8B0B0
:10258C00000E006E005205E0010E446E000E456E0A
:10259C0002D0446A456A42C000F043C001F0E6EC48
:1025AC000CF0660E046E660E056E660E066E7F0EE1
:1025BC00076E28EC0CF0C3EC0EF000C042F001C02A
:1025CC0043F00ED00DD0000E391802E1000E381871
:1025DC00D8B462D7000E391802E1010E3818F2E0B7
:1025EC00010E3A6E000E3B6EDCEC09F0050E01019B
:1025FC003F6F3D0E406F000E416FE9EC0BF000C0D9
:10260C0037F101C038F1DE0E3F6F3D0E406F000E0A
:10261C00416FE9EC0BF00050372701503823010EC5
:10262C003F6F3E0E406F000E416FE9EC0BF03751DF
:10263C0000263851012200C037F101C038F11200D8
:06264C00006A016A1200A1
:10265200EBEC04F0EBEC04F0EBEC04F000C016F150
:10266200EBEC04F000C015F1EBEC04F000C018F143
:10267200EBEC04F000C017F1EBEC04F000C01AF12F
:10268200EBEC04F000C019F1EBEC04F0EBEC04F01D
:10269200EBEC04F0EBEC04F017C100F018C101F010
:1026A200010E0101175F000E185B005001100EE0D1
:1026B200EBEC04F0005201E0FBD7EBEC04F0EBECA6
:1026C20004F0EBEC04F0EBEC04F0E6D719C100F0F7
:1026D2001AC101F0010E0101195F000E1A5B0050D0
:1026E200011048E0EBEC04F0EBEC04F0EBEC04F04E
:1026F20000C01EF1EBEC04F000C01DF1EBEC04F0A5
:10270200EBEC04F0EBEC04F0EBEC04F0EBEC04F09B
:10271200EBEC04F0EBEC04F000C01CF1EBEC04F089
:1027220000C01BF1000E01011E1902E1010E1D196C
:1027320011E1EBEC04F000C07EF0EBEC04F000C021
:102742007FF0EBEC04F000C080F0EBEC04F000C092
:1027520081F010D01BC100F01CC101F0010E01017B
:102762001B5F000E1C5B0050011003E0EBEC04F059
:06277200F1D7ACD7120004
:10277800B1D0540E01013F6F000E406F416B040E43
:10278800426F000E436F57EC09F0010E3F6F406B2C
:1027980052EC0AF02BC07AF02CC07BF02DC07CF0F4
:1027A8002EC07DF0030E216EA6D0050E00017A25FD
:1027B800016E000E7B21026E000E7C21036E000E5E
:1027C8007D21046E2E50045C08E12D50035C05E168
:1027D8002C50025C02E12B50015C02E2020E216ED9
:1027E80057EC0DF00050020A03E1040E216E01D0EF
:1027F80082D0030E01013F6F2AC040F152EC0AF06B
:102808002BC07AF02CC07BF02DC07CF02EC07DF060
:10281800050E216E70D057EC0DF000C015F1005078
:10282800060A03E1040E216E2CD001011551050A98
:1028380028E12BC07AF02CC07BF02DC07CF02EC094
:102848007DF0060E216E540E556F000E566F500E19
:10285800576F000E586F040E596F000E5A6FCDEC6B
:1028680001F06A0E3F6F000E406F5C0E416F000E64
:10287800426F600E436F000E446F25EC0DF02A6A1C
:102888003AD039D0010E00017A25016E000E7B2165
:10289800026E000E7C21036E000E7D21046E045032
:1028A8002E5C08E103502D5C05E102502C5C02E12E
:1028B80001502B5C0EE3010E4C5E000E4D5A4E5A31
:1028C8004F5A2BC07AF02CC07BF02DC07CF02EC064
:1028D8007DF011D02150020AD8B44BD72150030AF9
:1028E800D8B463D72150040A84E02150050A93E044
:0828F8002150060AC7E012009E
:102900001F0E0101636F010E646F8CEC00F01F0E4F
:102910000101636F020E646FC1EC00F0140E01013F
:10292000156FE8C016F131EC0FF0CBEC0FF0160E7E
:10293000156FEAC016F131EC0FF0CBEC0FF0170E6B
:10294000156FE9C016F131EC0FF0CBEC0FF012006F
:102950001F0E0101636F010E646F8CEC00F01F0EFF
:102960000101636F020E646FC1EC00F0140E0101EF
:10297000156FE8C016F131EC0FF0120E0101636F14
:10298000010E646FC1EC00F0CBEC0FF0120E636F20
:10299000010E646F8CEC00F0180E0101636FA9EC5E
:1029A00000F0EBC0E1FFECC0E2FF00C0E6FF190E53
:1029B0000101636FA9EC00F0E9C0E1FFEAC0E2FFAA
:0629C00000C0E6FF12005A
:1029C600C40E0101636F190E646F6DEC00F000C058
:1029D600E8F0E8D0D50E0101156F190E166F540EEA
:1029E600176F000E186F040E196F82EC0FF000506F
:1029F600000A4BE1C40E0101636F190E646F020EEB
:102A0600656FDEEC00F063EC0FF0CB0E556F190E20
:102A1600566FCF0E576F190E586FD50E596F190E88
:102A26005A6F5B6BE6EC02F0CB0E556F190E566FC4
:102A3600540E576F000E586F040E596F000E5A6FE2
:102A46006FEC01F0C50E556F190E566FCB0E576F12
:102A5600190E586FCF0E596F190E5A6F5B6BE6EC55
:102A660002F0C50E556F190E566F640E576F000EA5
:102A7600586F060E596F000E5A6F6FEC01F03C0E40
:102A8600556F000E566F78EC03F095D00101AF0E2E
:102A9600156F190E166F640E176F000E186F060E5F
:102AA600196F82EC0FF00050000A7BE1CB0E01019A
:102AB600156F190E166F8CC017F18DC018F1040E24
:102AC600196F82EC0FF00050000A6BE10F0E006EDA
:102AD600000E016E37C004F0000E056E58EC07F0CC
:102AE600960E00240101476F000E0120486F090E63
:102AF6004727000E4823C50E496F190E4A6F060E6A
:102B06004B6F000E4C6F51EC04F00F0E006E000E72
:102B1600016E37C004F0000E056E58EC07F0960EF5
:102B26000024556F000E0120566F050E5527000E26
:102B360056238CC057F18DC058F1040E596F000E04
:102B46005A6FCDEC01F00F0E006E000E016E37C00D
:102B560004F0000E056E58EC07F0960E0024E16EA8
:102B6600000E0120E26E010EE66E0F0E006E000EE4
:102B7600016E37C004F0000E056E58EC07F0960E95
:102B86000026000E0122010E0024E16E000E012037
:102B9600E26E2BC0E6FF2CC0E6FF2DC0E6FF2EC07E
:102BA600E6FF09D00001E851010AD8B413D7E8516D
:082BB600020AD8B46BD712002B
:102BBE00EBC063F1ECC064F16DEC00F000C0F6F018
:102BCE00EBEC04F000C0F5F0EBEC04F000C0F4F018
:102BDE00EBEC04F000C0F3F0000E0001F41902E17A
:102BEE00000EF31901E194D0EBEC04F000C0F8F004
:102BFE00EBEC04F000C0F7F0F90E0101476F000E88
:102C0E00486FC90E496F190E4A6F040E4B6F000EB6
:102C1E004C6F51EC04F0020E666F080E0001EB25AE
:102C2E000101676F000E0001EC210101686F2CECB1
:102C3E0000F00E0E0001E8250101156F000E0001D7
:102C4E00E9210101166F0001EA5101011527000E5D
:102C5E001623080E1527000E162350EC0FF0000E4B
:102C6E000001F61902E1350EF51902E1EBDC50D048
:102C7E00000E0001F41902E1440EF31902E175DDB4
:102C8E0047D0F90E0101156F000E166FF5C017F142
:102C9E00F6C018F1F3C019F1F4C01AF1080E0001D4
:102CAE00F75D01011B6F000E0001F85901011C6F49
:102CBE00730E1D6F000E1E6FC2DC00C0F7F001C058
:102CCE00F8F00050011024E0ED0E476F000E486F33
:102CDE00B50E496F190E4A6F060E4B6F000E4C6FF4
:102CEE0051EC04F0ED0E476F000E486FF90E496F70
:102CFE00000E4A6FF3C04BF1F4C04CF1F5C04DF12C
:102D0E00F6C04EF1F7C04FF1F8C050F1B7EC07F036
:022D1E001200A1
:102D2000ECC063F1EDC064F16DEC00F000C0FCF0AC
:102D3000EBEC04F000C0FBF0EBEC04F000C0FAF0A8
:102D4000EBEC04F000C0F9F00001FF6B0101006B37
:102D5000010E076F056B066B0C0E0001EC250101DF
:102D6000636F000E0001ED210101646F6DEC00F056
:102D700000C001F1000E0101026F0133019F013318
:102D8000019F000E026FFC0E0117FF0E0217100EBE
:102D9000476F010E486FC90E496F190E4A6F040E36
:102DA0004B6F000E4C6F51EC04F00D0E0001EC2542
:102DB0000101636F000E0001ED210101646F6DECF4
:102DC00000F03F0E00140001FD6FFE6B000EFE17B9
:102DD000000EFE6F0E0E745D0101036F000E000108
:102DE00075590101046F0001EA510101035F0001FF
:102DF000EB510101045B0151035F0251045B020EC0
:102E00000001EC250101636F000E0001ED210101BD
:102E1000646F6DEC00F000C065F1ECC063F1EDC0D3
:102E200064F1DEEC00F0030E0001EC250101636F9C
:102E3000000E0001ED210101646F6DEC00F000C097
:102E400063F154EC00F0FBC055F1FCC056F123ECEB
:102E500001F0040E0001EC250101636F000E00017A
:102E6000ED210101646F6DEC00F000C00BF1EBECA3
:102E700004F000C00AF1EBEC04F000C009F1EBEC47
:102E800004F000C008F1EBEC04F000C00FF1EBEC33
:102E900004F000C00EF1EBEC04F000C00DF1EBEC1F
:102EA00004F000C00CF1000E0001FE1902E1020E58
:102EB000FD1940E1010E01010825006E000E0921F7
:102EC000016E000E0A21026E000E0B21036E00C07F
:102ED0000CF101C00DF102C00EF103C00FF1120E92
:102EE0000001FD6F000EFE6F0C0E0101636FA9EC77
:102EF00000F000C008F10D0E0101636FA9EC00F0B5
:102F000000C009F10101636BA9EC00F000C00AF1F7
:102F1000010E0101636FA9EC00F000C00BF100018C
:102F2000FF2B180E0101016F000E026F056B066B7F
:102F3000206A76D0000E0001FE1902E1180EFD197C
:102F400034E108C1EEF009C1EFF00AC1F0F00BC1A5
:102F5000F1F00CC108F10DC109F10EC10AF10FC168
:102F60000BF1010103510001EE25006E0101045136
:102F70000001EF21016E000EF021026E000EF12122
:102F8000036E00C00CF101C00DF102C00EF103C0D0
:102F90000FF1100EFD6F000EFE6FFF2B140E0101DE
:102FA000016F000E026F002B3BD0000E0001FE19D6
:102FB00002E1110EFD1934E108C1F2F009C1F3F08C
:102FC0000AC1F4F00BC1F5F00CC108F10DC109F113
:102FD0000EC10AF10FC10BF1010EF225006E000EB9
:102FE000F321016E000EF421026E000EF521036E36
:102FF00000C00CF101C00DF102C00EF103C00FF1D1
:10300000100EFD6F000EFE6FFF2B140E0101016FFD
:10301000000E026F056B066B1F5202E1202A1F6A29
:103020000001FF53D8B41AD20001040EEC250101AF
:10303000556F000E0001ED210101566F0BC157F1D4
:103040000AC158F16DEC03F009C163F154EC00F0D2
:1030500008C163F154EC00F00FC163F154EC00F0CF
:103060000EC163F154EC00F00DC163F154EC00F0BB
:103070000CC163F154EC00F00C0E0001EC250101D1
:10308000636F000E0001ED210101646F6DEC00F033
:103090000F0E00140101656F01C100F000360090B1
:1030A00000360090005065130C0E0001EC25010164
:1030B000636F000E0001ED210101646FDEEC00F092
:1030C0000D0E0001EC250101636F000E0001ED21E2
:1030D0000101646F6DEC00F0C00E00140101656F1A
:1030E0000001FD51010165130D0E0001EC250101E8
:1030F000636F000E0001ED210101646FDEEC00F052
:10310000000E0001FE1902E1120EFD1929E10E0E5A
:10311000EC250101556F000E0001ED210101566FF4
:10312000050E576FEE0E586F6DEC03F0140E000194
:10313000EC250101556F000E0001ED210101566FD4
:10314000020E576F040E586F6DEC03F0050E01016F
:10315000636F54EC00F0780E0101636F54EC00F0E3
:103160000001EA5101010525036F0001EB51010146
:103170000621046F0151032702510423075304E081
:1031800063EC0FF0D7EC0FF0BF0E556F190E566FB2
:1031900004C157F103C158F16DEC03F0C70E0101F2
:1031A000556F190E566F576B586B6DEC03F0BD0ED3
:1031B0000101556F190E566FEAC057F1EBC058F177
:1031C00047EC01F0160E0101636FA9EC00F000C09E
:1031D00014F1170E0101636FA9EC00F000C057F164
:1031E000C70E0101556F190E566F14C158F16DECE1
:1031F00003F0BD0E010103250001F76F190E010157
:1032000004210001F86F100EEC250101556F000E2E
:103210000001ED210101566F576B586B6DEC03F007
:10322000010E010103150001F66FF7C063F1F8C04C
:1032300064F10101656BDEEC00F0C90E0101556F10
:10324000190E566FD10E576F190E586F0001F651B7
:10325000F7250101596F000E0001F82101015A6F95
:103260005B6BE6EC02F0080E0001F7250101556FDB
:10327000000E0001F8210101566F0001F651010115
:103280005527000E5623576B060E586F6DEC03F052
:103290000A0E0001F7250101556F000E0001F8210B
:1032A0000101566F0001F65101015527000E56230A
:1032B00005510125036E06510221046E04C000F081
:1032C000016A00C057F103C058F16DEC03F0ECC087
:1032D00055F1EDC056F1010105510125576F065119
:1032E0000221586F0C0E5727000E58230001F6518B
:1032F00001015727000E582347EC01F0160E01017B
:10330000636FA9EC00F000C014F1170E0101636FA8
:10331000A9EC00F000C057F1100E0001EC250101EE
:10332000556F000E0001ED210101566F14C158F1D7
:103330006DEC03F00E0E01010325556F000E042104
:10334000566F78EC03F0005361E0100E0001FD6F42
:10335000000EFE6F0101006B076B020E666F0151DC
:103360000001EC250101676F02510001ED2101010F
:10337000686F2CEC00F00E0E0001E8250101156FBE
:10338000000E0001E9210101166F0001EA5101015F
:1033900015270001EB510101162301511527025198
:1033A000162350EC0FF0202A100E0101156F010EAC
:1033B000166FFBC017F1FCC018F1F9C019F1FAC083
:1033C0001AF10E0E0001745D01011B6F000E000169
:1033D000755901011C6F0001EA5101011B5F0001D9
:1033E000EB5101011C5B01511B5F02511C5B730E11
:1033F0001D6F000E1E6FF6EC0FF000C005F101C04E
:1034000006F1000173B101D0206A0ED6205226E0E9
:10341000010105510825006E06510921016E000EBB
:103420000A21026E000E0B21036E00C008F101C0DC
:1034300009F102C00AF103C00BF1110E0001FD6F8A
:10344000000EFE6F206A0101076B140E016F000E63
:0E345000026F056B066B010E1F6EE6D51200B3
:10345E000101156B0001DC5303E00D0EDD6F02D090
:10346E00050EDD6FDDC016F131EC0FF0020E01011D
:10347E00156F0001DC5303E0310EDE6F02D0300E0B
:10348E00DE6FDEC016F131EC0FF00A0E0101666F31
:10349E00EE0E676F050E686F2CEC00F0040E010146
:1034AE00156F0001DC5303E0150EDF6F02D0120E14
:1034BE00DF6FDFC016F131EC0FF0060E0101156F54
:1034CE00120E166F31EC0FF00001DC5307E1070E00
:1034DE000101156F0C0E166F31EC0FF00001DC536D
:1034EE0007E1090E0101156F3F0E166F31EC0FF05B
:1034FE001F0E0101636F010E646FC1EC00F01F0E11
:10350E000101636F020E646FC1EC00F0040E010145
:10351E00156F64C016F131EC0FF0050E0101156F39
:10352E0065C016F131EC0FF0020E0101156F66C089
:10353E0016F131EC0FF0030E0101156F67C016F195
:10354E0031EC0FF00101156B68C016F131EC0FF084
:10355E00010E0101156F69C016F131EC0FF0150E59
:10356E000101156F166B31EC0FF0120E0101636F36
:10357E00A9EC00F000C072F00001E86BE10EE96FFB
:10358E00000EEA6FE20EEB6F000EEC6FA8EC14F07B
:10359E000001E86BFE0EE115E96FDC5303E0010E4E
:1035AE00E06F01D0E06BE051E913E2C0EAF080EC8D
:1035BE0014F0100E0001E86F010EE96FEA6B80EC5B
:1035CE0014F01F0E636F040E646FC1EC00F0CBECB1
:1035DE000FF0960E3F6F000E406F416B2D0E426F37
:1035EE00000E436F57EC09F01F0E636F010E646FF0
:1035FE008CEC00F01F0E0101636F020E646F8CECF9
:04360E0000F01200B6
:103612000001E56B738173931F0E0101636F010E4D
:10362200646F8CEC00F01F0E0101636F020E646F79
:103632008CEC00F00101666B28C067F129C068F1CB
:103642002CEC00F0829270C0E1FF71C0E2FF3A0EF2
:10365200E66E6EC000F06FC001F020EC00F070C0AA
:10366200E1FF71C0E2FFE66A6EC000F06FC001F0D8
:1036720020EC00F000C028F070C0E1FF71C0E2FF52
:10368200E66A6EC000F06FC001F020EC00F000C0EE
:1036920029F070C0E1FF71C0E2FFE66A6EC000F07F
:1036A2006FC001F020EC00F000C074F070C0E1FFC8
:1036B20071C0E2FFE66A6EC000F06FC001F020EC5C
:1036C20000F000C075F070C0E1FF71C0E2FFE66A71
:1036D2006EC000F06FC001F020EC00F000C0E3F01B
:1036E20070C0E1FF71C0E2FFE66A6EC000F06FC019
:1036F20001F020EC00F000C0E4F08282040E000130
:10370200745F000E755B2950190802E12850AD085C
:103712000DE328B00BD0E4BF09D07551050802E1D2
:103722007451EE0803E3E3AF01D003D0010E006E43
:10373200DDD10101636BA9EC00F000C0E1F0010EE4
:103742000101636FA9EC00F000C0E2F0E1C055F1A5
:10375200E2C056F100017451E1250101576F0001E9
:103762007551E2210101586FAF0E596F190E5A6F50
:10377200010E5B6FE6EC02F0BB0E636F190E646F15
:103782006DEC00F000C0E4F0EBEC04F000C0E3F0FC
:103792000001E451080A02E1060EE31913E1BD0E2D
:1037A2000101156F190E166F2F0E176F000E186F8D
:1037B200070E196F82EC0FF00050000A02E1E3ECF1
:1037C20014F06AD10001E451080A02E1000EE31983
:1037D200D8A45FD1CD0E0101156F190E166F880E98
:1037E200176F000E186F040E196F82EC0FF0005263
:1037F20002E100017383CD0E0101156F190E166FE0
:10380200220E176F000E186F040E196F82EC0FF064
:10381200005202E100017383CD0E0101156F190EF2
:10382200166F540E176F000E186F040E196F82EC8C
:103832000FF0005206E0000173B303D0020EE56FF1
:1038420027D1BD0E0101636F190E646F6DEC00F09C
:10385200F00E0014016E0150400A04E0030E000154
:10386200E56F16D1BD0E0101636F190E646F6DEC29
:1038720000F000C0DFF0000E0001E06F0F0EDF1756
:10388200000EE017DF37DF91E037DF37DF91E037F7
:10389200C30E0101636F190E646F6DEC00F0BF0E71
:1038A2000014016E0150000AD8A4F2D0C40E010126
:1038B200636F190E646F6DEC00F00050000AD8A41B
:1038C200E7D0BD0E0001DF25DD6F190EE021DE6FAE
:1038D200C60E0101636F190E646F6DEC00F000C03B
:1038E200DCF00050010AD8A494D0DDC063F1DEC040
:1038F20064F16DEC00F00050080AD8A489D0010EE2
:103902000001DD250101636F000E0001DE210101CE
:10391200646F6DEC00F00050000A7AE1DDC063F1E3
:10392200DEC064F10101656BDEEC00F063EC0FF0C8
:10393200D7EC0FF0C70E556F190E566F576B586BB9
:103942006DEC03F0BD0E0101556F190E566FDFC00D
:1039520057F1E0C058F147EC01F0160E0101636F18
:10396200A9EC00F000C0E6F0170E0101636FA9ECAC
:1039720000F000C057F1C70E0101556F190E566FC6
:10398200E6C058F16DEC03F0020E0001DD250101E5
:10399200556F000E0001DE210101566F576B586B07
:1039A2006DEC03F0DDC055F1DEC056F10001DF51D0
:1039B200745D0101576F0001E05175590101586FA3
:1039C2000E0E575F000E585B47EC01F0160E010118
:1039D200636FA9EC00F000C0E6F0170E0101636FFF
:1039E200A9EC00F000C057F1020E0001DD25010133
:1039F200556F000E0001DE210101566FE6C058F13D
:103A02006DEC03F074C055F175C056F178EC03F01B
:103A12003FD00001DC51110A0DE1E1C0E8F0E2C043
:103A2200E9F0DFC0EAF0DDC0EBF0DEC0ECF0DFEC85
:103A320015F02ED00001DC51060A2AE1100EE12514
:103A42000101636F000E0001E2210101646F6DEC60
:103A520000F000C0E7F00001E66BEBEC04F0005070
:103A62000001E625746F000EE721756F0E0E7427B4
:103A7200000E7523E1C0E8F0E2C0E9F0DFC0EAF031
:103A8200E0C0EBF0DDC0ECF0DEC0EDF090EC16F043
:103A920003D0040E0001E56F1E0E0101636F400E9C
:103AA200646FC1EC00F0010E285C016E000E295813
:103AB200026E0250190802E10150AD080AE20C0E32
:103AC2000101666FAD0E676F190E686F2CEC00F086
:103AD2000BD00C0E0101666F010E285C676F000EA1
:0E3AE2002958686F2CEC00F0E5C000F01200CF
:103AF000C69A1C0E00016E6F000E6F6F690E706F1C
:103B0000010E716FFF0E846FFF0E856FFF0E866FC3
:103B1000FF0E876F949A94969488C66A400EC76E7B
:043B2000C68A12003F
:103B24000900F5CFE6FF0006FBE10106F9E112000A
:103B34000001D76B1F0E0101636F010E646FC1ECAE
:103B440000F01F0E0101636F020E646F8CEC00F035
:103B5400190E0101636FA9EC00F00050000803E2A4
:103B640056DD00C0D7F01F0E0101636F010E646FB4
:103B74008CEC00F01F0E0101636F020E646F8CEC7D
:083B840000F0D7C000F01200B0
:103B8C009490828094928282CBEC0FF08280CBEC6A
:103B9C000FF08290CBEC0FF08280CBEC0FF0829286
:103BAC0070C0E1FF71C0E2FFFF0EE66E6EC000F068
:103BBC006FC001F020EC00F08282CBEC0FF0640EB1
:103BCC00556F000E566FD7C057F1D8C058F1060E7E
:103BDC00596F000E5A6FCDEC01F0540E556F000E5C
:103BEC00566FD9C057F1DAC058F1040E596F000E58
:103BFC005A6FCDEC01F01F0E636F010E646F8CECED
:103C0C0000F01F0E0101636F020E646F8CEC00F06C
:103C1C00080E0101666F676B686B2CEC00F00A0EE6
:103C2C000101666FAD0E676F190E686F2CEC00F01A
:103C3C000C0E0101666FAD0E676F190E686F2CECE0
:103C4C0000F00101666B676B686B2CEC00F0040EE6
:103C5C000101666FAE0E676F190E686F2CEC00F0E9
:103C6C001F0E0101636F010E646F8CEC00F01F0ED0
:103C7C000101636F020E646FC1EC00F0DBC0DCF07D
:063C8C002FEC1AF01200FB
:103C920002EC1FF0380ED36E936A816A0F013A6B01
:103CA20026DF150ED76F000ED86F1B0ED96F000ED0
:0E3CB200DA6F010EDB6F69DF3CDFFED7FFD754
:103E040010EE15F0370E006E010E016E410EF66EC7
:0E3E14003D0EF76E000EF86E92EC1DF01200DF
:103CC000485454502F312E3120343030204261641A
:103CD00020526571756573740A4163636573732D52
:103CE000436F6E74726F6C2D416C6C6F772D4F72D9
:103CF0006967696E3A2A0A436F6E74656E742D7433
:053D00007970653A0036
:103D0500485454502F312E3120323030204F4B0A39
:103D15004163636573732D436F6E74726F6C2D41D0
:103D25006C6C6F772D4F726967696E3A2A0A436F1B
:0C3D35006E74656E742D747970653A0030
:063D41000014A576193FF5
:043D47000AD337055F
:013D4B000077
:013D4C000076
:013D4D000075
:063D4E00FFFFFFFFFFFF75
:023D540000006D
:013D5600006C
:043D57000000000068
:083D5B0000010800060400004D
:013D6300005F
:103D6400000000000000000000000000000000004F
:043D7400000000004B
:063D7800474554202F0016
:043D7E004F46460066
:033D820053540097
:033D8500414300B7
:023D88002C000D
:023D8A005200E5
:023D8C004C00E9
:023D8E002C0007
:103D90004661696C656420746F2070617273652080
:063DA0007370656564000C
:103DA6004661696C656420746F207061727365206A
:063DB600616E676C650000
:103DBC0057726F6E6720636F6D6D616E6420666FF6
:053DCC00726D6174003E
:0D3DD10057726F6E67206F7074696F6E001F
:0C3DDE00746578742F68746D6C0A0A001C
:0C3DEA0001010600122334450000800097
:063DF600638253633501F6
:053DFC0037030103067E
:033E01004F4B0024
:020000040030CA
:0D000100231F3CFFBF81FF0FC00FE00F4029
:00000001FF
