:100000009CEF15F00000000000EF00F00000000081
:0A0010000000000000000000F3D71C
:10001C006AC1C9FFC7B002D00000FCD7C9CF00F03D
:02002C001200C0
:10002E006AC16FFF6DB002D00000FCD76FCF00F039
:02003E001200AE
:10004000F250026EF29E0500FF6A0150FE6E0050F3
:08005000FD6E02BEF28E1200EB
:100058008292400E01016711006E5AC0E1FF5BC039
:10006800E2FF00C0E6FF58C000F059C001F0E4DF2D
:100078005AC0E1FF5BC0E2FF68C1E6FF58C000F06C
:1000880059C001F0D9DF5AC0E1FF5BC0E2FF69C186
:10009800E6FF58C000F059C001F0CEDF828212009E
:1000A800020E0101676F64C168F165C169F1D0DFB3
:1000B80082925AC0E1FF5BC0E2FF7A0EE66E58C03A
:1000C80000F059C001F0B8DF5AC0E1FF5BC0E2FFA1
:1000D80066C1E6FF58C000F059C001F0ADDF82826A
:0200E800120004
:1000EA008292A00E01016411006E5AC0E1FF5BC04A
:1000FA00E2FF00C0E6FF58C000F059C001F09BDFE4
:10010A005AC0E1FF5BC0E2FF65C1E6FF58C000F0DC
:0A011A0059C001F090DF828212004C
:1001240082925AC0E1FF5BC0E2FF7A0EE66E58C0CD
:1001340000F059C001F082DF5AC0E1FF5BC0E2FF6A
:1001440064C1E6FF58C000F059C001F077DF828235
:02015400120097
:100156008292800E01016411006E5AC0E1FF5BC0FD
:10016600E2FF00C0E6FF58C000F059C001F065DFAD
:100176005AC0E1FF5BC0E2FF65C1E6FF58C000F070
:0A01860059C001F05ADF8282120016
:1001900082925AC0E1FF5BC0E2FF64C1E6FF58C033
:1001A00000F059C001F04CDF5AC0E1FF5BC0E2FF34
:1001B000E66A58C000F059C001F042DF82821200A6
:1001C0000101676B64C168F165C169F145DF829225
:1001D0005AC0E1FF5BC0E2FF3A0EE66E58C000F085
:1001E00059C001F02DDF5AC0E1FF5BC0E2FFE66AB3
:0E01F00058C000F059C001F023DF82821200D7
:1001FE000101636B010E585F000E595B5C530DE0FD
:10020E005951190802E15851AD0807E2632BAD0EA2
:10021E00585D616F190E5959626F635305E0AD0E4B
:10022E005D6F190E5E6F04D058C15DF159C15EF15C
:10023E0057515E1902E15D5156190DE156C164F137
:10024E0057C165F1B6DF00C066F15AC164F15BC1FA
:10025E0065F123DF36D0100E0101676F56C168F1CC
:10026E0057C169F1F2DE120E0101676F635305E0AB
:10027E00AD0E5F6F190E606F04D058C15FF159C19A
:10028E0060F15FC168F160C169F1DFDE140E01013A
:10029E00676F5AC168F15BC169F1D7DE1F0E0101AC
:1002AE00646F100E656F1ADF1F0E0101646F200E52
:1002BE00656F4ADF1F0E0101646F63DF00AA01D074
:1002CE00F9D7010163531AE05651585D006E57512C
:1002DE005959016E6151005E6251015A004A012A5C
:1002EE0000505A2701505B23010E615D586F000EBE
:0E02FE006259596F566B576B636B8FD71200A6
:10030C00020E0101676F56C168F157C169F19EDE9B
:10031C0082925AC0E1FF5BC0E2FF7A0EE66E58C0D3
:10032C0000F059C001F086DE01015A515B1117E053
:10033C005AC0E1FF5BC0E2FF58C1E9FF59C1EAFFB7
:10034C00EECFE6FF58C000F059C001F073DE01019A
:10035C00584B592B010E5A5F000E5B5BE5D782821E
:02036C0012007D
:10036E000101585156255A6F595157215B6F010E95
:10037E005A5F000E5B5B100E676F56C168F157C176
:10038E0069F163DE120E0101676F5AC168F15BC13C
:10039E0069F15BDE1F0E0101646F300E656FD4DEF6
:1003AE001F0E0101646FEDDE00AA01D0F9D7120015
:1003BE0056C164F157C165F158C166F16EDE59C17F
:0603CE0064F1A9DE12003B
:1003D40082925AC0E1FF5BC0E2FF7A0EE66E58C01B
:1003E40000F059C001F02ADE58C100F059C101F0F3
:1003F400010E0101585F000E595B0050011013E01B
:100404005AC0E1FF5BC0E2FF56C1E9FF57C1EAFFF2
:10041400EECFE6FF58C000F059C001F00FDE010135
:0A042400564B572BE1D782821200DD
:10042E0082925AC0E1FF5BC0E2FF7A0EE66E58C0C0
:10043E0000F059C001F0FDDD5AC0E1FF5BC0E2FFE4
:10044E0057C1E6FF58C000F059C001F0F2DD5AC0A6
:10045E00E1FF5BC0E2FF56C1E6FF58C000F059C095
:08046E0001F0E7DD82821200BB
:1004760058C104F059C105F056C102F057C103F046
:100486005AC100F05BC101F0010E01015A5F000E76
:100496005B5B005001100FE004C0E9FF05C0EAFFF6
:1004A60002C0E1FF03C0E2FFEECFE6FF024A032AE5
:1004B600044A052AE5D756C100F057C101F01200DB
:1004C600AE0E0101646F190E656F666BEADDAE0E46
:1004D60001015625006E190E5721016E00C056F116
:1004E60001C057F1060E676F00C068F101C069F1DF
:1004F600B0DD1F0E0101646F800E656F29DE1F0ED1
:100506000101646F800E656FEDDD5350050A04E04E
:100516005350070A01E006D01C0E0101646F0A0E53
:10052600656FE0DD1F0E0101646F080E656F10DE5A
:100536005350050A04E05350070A01E080D0010138
:100546005B6B5C6B1C0E646F20DE0A0E001600529D
:100556000AE101015B4B5C2B030E5C5D02E1E80ED8
:100566005B5D01E2EFD701011C0E646F0EDE00B287
:1005760008D0030E01015C5D02E1E80E5B5D01E25D
:100586005DD001011F0E646F080E656FABDD040EB2
:1005960001015625646F000E5721656F0EDE00C0FF
:1005A6005AF10101586B100E585D48E21C0E646F3B
:1005B600ECDD00A23FD001015AAB3CD01F0E646FA8
:1005C600800E656FC5DD1F0E0101646F800E656FBD
:1005D60089DD1C0E0101646F0A0E656F83DD1F0E37
:1005E6000101646F080E656FB3DD01015B6B5C6B27
:1005F6001C0E646FCADD0A0E001600520AE10101E4
:100606005B4B5C2B030E5C5D02E1E80E5B5D01E279
:10061600EFD701011F0E646F080E656F63DD040ED0
:1006260001015625646F000E5721656FC6DD00C0B7
:100636005AF101D003D00101582BB5D707D00101DB
:100646001F0E646FA2DD00A601D0F9D71D0E0101B1
:10065600646F9BDD060E0016005203E00101596B24
:0E06660003D00101010E596F59C100F01200BE
:10067400AF0E0101566F190E576F48C158F149C1A9
:1006840059F1060E5A6F000E5B6F3EDE4D0E566F2B
:10069400000E576F060E586F000E596F99DE000E4C
:1006A400566F080E576FC1DE1C0E01015025536FA3
:1006B400000E5121546F000E566F450E576FB5DE74
:1006C40053C156F154C157F1B0DE7CC056F17DC020
:1006D40057F1ABDE00017C4B7D2B0101566B576B50
:1006E400A4DE110E0101566F800E576F9EDE0101CC
:1006F400566B576B9ADE5C0E0101566F000E576FF6
:10070400040E586F000E596F63DE4AC156F14BC197
:1007140057F1040E586F000E596F5ADE080E50251B
:10072400536F000E5121546F4CC156F14DC157F116
:100734007CDE4EC156F14FC157F177DE53C156F1FD
:1007440054C157F172DE0101566B576B6EDEBD0E5C
:100754000101566F190E576F140E586F000E596F22
:1007640004DE160E0101646F11DD00C055F1170E91
:100774000101646F0BDD00C058F1C70E0101566F13
:10078400190E576F55C159F118DE010E01015315A9
:10079400526FD90E5025646F190E5121656F666B27
:1007A40081DCC90E0101566F190E576FD10E586FB7
:1007B400190E596FD90E50255A6F190E51215B6FBE
:1007C40052515A27000E5B235C6B17DDD90E50255E
:1007D400566F190E5121576F52515627000E572349
:1007E400080E5627000E5723586B110E596FE5DD7E
:1007F40054C164F195DC53C164F192DCD10E010162
:10080400566F190E576F0C0E5325586F000E542156
:10081400596F52515827000E5923A7DD160E0101B6
:10082400646FB4DC00C055F1170E0101646FAEDCD7
:1008340000C058F1D70E0101566F190E576F55C1FC
:1008440059F1BBDD2A0E01015025566F000E5121CE
:06085400576F37DE1200B1
:10085A0048C156F149C157F15C0E0101586F000EAB
:10086A00596F040E5A6F000E5B6F00DE4A6B4A51D5
:10087A00030821E34A514825026E000E4921036EFE
:10088A0002C0E9FF03C0EAFFEECF01F0680EE96E8D
:10089A00000EEA6E4A51E926D8B0EA2AFF0EEE188F
:1008AA00006E0150001202C0E1FF03C0E2FF00C067
:0808BA00E6FF4A2BDCD7120017
:1008C20082925AC0E1FF5BC0E2FF7A0EE66E58C028
:1008D20000F059C001F020EC00F04BC100F04CC117
:1008E20001F0010E01014B5F000E4C5B0050011044
:1008F2001CE05AC0E1FF5BC0E2FF48C1F6FF49C1FC
:10090200F7FF4AC1F8FF0900F5CF00F000C0E6FF8B
:1009120058C000F059C001F020EC00F0010E0101B6
:0E0922004827000E49234A23D8D782821200AC
:1009300082925AC0E1FF5BC0E2FF3A0EE66E58C0F9
:1009400000F059C001F020EC00F05AC0E1FF5BC09C
:10095000E2FFE66A58C000F059C001F020EC00F058
:04096000828212007D
:1009640001014B51FF0A02E1FF0E4A1907E0676BD0
:100974004AC168F14BC169F12CEC00F082925AC073
:10098400E1FF5BC0E2FF3A0EE66E58C000F059C0CA
:1009940001F020EC00F04CC100F04DC101F0010E5B
:1009A40001014C5F000E4D5B0050011015E05AC070
:1009B400E1FF5BC0E2FFE66A58C000F059C001F0F5
:1009C40020EC00F048C1E1FF49C1E2FF00C0E6FFAE
:0C09D4000101484B492BDFD78282120042
:1009E0004CC101F04DC102F0010E01014C5F000E3F
:1009F0004D5B000E021802E1000E01181FE048C115
:100A0000E9FF49C1EAFF4AC1D9FF4BC1DAFFEE5005
:100A1000DE180FE048C1E9FF49C1EAFF4AC1D9FF2A
:100A20004BC1DAFFDE50EE5C006E016A000E015A27
:100A300007D0484B492B4A4B4B2BD2D7006A016A4F
:020A40001200A2
:100A4200680E0101566F000E576F40C158F141C147
:100A520059F1040E5A6F000E5B6F0CDD6C0E566F6F
:100A6200000E576F42C158F143C159F1040E5A6F3B
:100A7200000E5B6FFFDC600E566F000E576F44C1B5
:100A820058F145C159F1040E5A6F000E5B6FF2DC4A
:0C0A9200640E486F000E496FDFDE12009A
:100A9E00020E0C6E490E0D6E0D2EFED70C2EFCD7CF
:060AAE0000000000120030
:100AB4000101426B3C0E546E000E556E566E576E1D
:100AC40035DF00C040F10050020AD8A418D101015A
:100AD400416B0F0E415D04E229DF0101412BF9D77F
:100AE400490E486F000E496FFF0E4A6FFF0E4B6FA1
:100AF400040E4C6F000E4D6F33DF416B080E415DE9
:100B040004E214DF0101412BF9D7416B060E415D6C
:100B140012E20CDF00C040F14D0ED96E000EDA6E09
:100B240001014151D926D8B0DA2A0050DE1801E07B
:100B340011D1412BEBD7416BCE0E415D04E2F6DEC1
:100B44000101412BF9D7436BF1DE00C040F1B8D06D
:100B5400EDDE00C040F10050010A04E1E7DE00C010
:100B640042F101D0F7D0C7D0E1DE00C040F100501F
:100B7400040A0FE1700E0101486F000E496FFF0E69
:100B84004A6FFF0E4B6F040E4C6F000E4D6FE8DE84
:100B940001D0E0D0B0D0CADE00C040F1040E005C49
:100BA4000FE3880E0101486F000E496FFF0E4A6F74
:100BB400FF0E4B6F040E4C6F000E4D6FD1DE01D053
:100BC400C9D00101040E405F010140C100F040079B
:100BD400005202E0ABDEF8D78ED0A8DE00C040F1B0
:100BE400040E005C0FE38C0E0101486F000E496F88
:100BF400FF0E4A6FFF0E4B6F040E4C6F000E4D6FCD
:100C0400AFDE01D0A7D00101040E405F010140C155
:100C140000F04007005202E089DEF8D76CD086DE8F
:100C240000C040F10050040A0FE1440E0101486F76
:100C3400010E496FFF0E4A6FFF0E4B6F040E4C6F8F
:100C4400000E4D6F8DDE01D085D055D00101010E0F
:100C5400436F51D06BDE00C040F10050040A22E122
:100C6400540E0101486F000E496FFF0E4A6FFF0ECC
:100C74004B6F040E4C6F000E4D6F72DE5750000820
:100C840008E15650000805E15550070802E15450A8
:100C9400080807E2080E545E070E555A000E565A0D
:100CA400575A01D057D027D041DE00C040F140C18F
:100CB40000F001014007005202E038DEF8D71BD0F3
:100CC40001014051350AD8B443D74051010AD8B480
:100CD4004BD74051030AD8B45ED74051060AD8B462
:100CE4007CD74051360A9BE04051FF0AAFE04051A7
:100CF400330AB0E0D9D701014353D8B425D7010151
:100D04004251020A0FE1820E566F000E576F440ED5
:100D1400586F010E596F040E5A6F000E5B6F3BEC57
:100D240002F015D0820E486F000E496F440E4A6FD0
:100D3400010E4B6F040E4C6F000E4D6F4FDE000E14
:100D4400011802E1000E001802E00101426B42C1E9
:080D540000F001D0006A12005A
:100D5C00F90E0101436F000E446F020E676FD90E3E
:100D6C00686F190E696F2CEC00F02C0E0101486FA6
:100D7C002C0E496F000E4A6F0C0E4B6F000E4C6F11
:100D8C009ADD4051030A0DE141530BE0490E566FB9
:100D9C00000E576F040E586F000E596FEAEC01F0FD
:100DAC000AD0426B040E425D06E2646B92EC00F0DA
:100DBC000101422BF7D7426B0C0E425D06E2646BCD
:100DCC0092EC00F00101422BF7D74D0E566F000E3E
:100DDC00576F060E586F000E596FEAEC01F0426B1C
:100DEC00CA0E425D06E2646B92EC00F00101422BEC
:100DFC00F7D7440E486F2C0E496F000E4A6F060E43
:100E0C004B6F000E4C6F57DD40C164F192EC00F05B
:100E1C0001014051030A1AE1415318E1360E646F87
:100E2C0092EC00F0040E0101646F92EC00F0820E63
:100E3C000101566F000E576F040E586F000E596F5C
:100E4C00EAEC01F0060E4327000E44234A0E486FCD
:100E5C002C0E496F000E4A6F050E4B6F000E4C6F37
:100E6C002ADD4051030A23E1415321E1320E646F24
:100E7C0092EC00F0040E0101646F92EC00F00101A1
:100E8C00426B040E425D0FE2490EE96E000EEA6EF3
:100E9C004251E926D8B0EA2AEECF64F192EC00F088
:100EAC000101422BEED7060E4327000E4423FF0E02
:100EBC00646F92EC00F0220E0101486F000E496F36
:100ECC00220E4A6F000E4B6F440E4C6F000E4D6F8E
:100EDC00430E4E6F000E4F6F43C150F144C151F1A0
:060EEC003AEC03F01200D5
:100EF20040C102F041C103F043C100F044C101F01E
:100F0200010E0101435F000E445B0050011009E035
:100F120002C0E1FF03C0E2FF42C1E6FF024A032A28
:0C0F2200EBD740C100F041C101F012000B
:100F2E000101446B456B82925AC0E1FF5BC0E2FF48
:100F3E007A0EE66E58C000F059C001F020EC00F0B9
:100F4E0040C100F041C101F042C102F0010E0101A9
:100F5E004027000E4123422300C0F6FF01C0F7FFD9
:100F6E0002C0F8FF0900F5CF00F000C043F10052B7
:100F7E0010E05AC0E1FF5BC0E2FF43C1E6FF58C07C
:100F8E0000F059C001F020EC00F00101444B452B5C
:0E0F9E00D7D7828244C100F045C101F0120095
:100FAC0001010651190802E10551AD0804E2AE0E2B
:100FBC00055F190E065B676B05C168F106C169F127
:060FCC002CEC00F0120005
:100FD2000B6A0A6A096A00500402F4CF09F0F3CFDF
:100FE20008F001500502F4CF0BF0F3CF0AF00050E5
:100FF2000502F3500926F4500A22E86A0B22015036
:101002000402F3500926F4500A22E86A0B2208C0AF
:1010120000F009C001F00AC002F00BC003F0120098
:10102200B50E0101566F190E576FBB0E586F190E90
:10103200596FAF0E5A6F190E5B6F5C6BFFEC00F0CD
:10104200B50E566F190E576F4D0E586F000E596F31
:0E105200060E5A6F000E5B6F86EC01F0120066
:101060000101646BC8EC00F000C00AF1010E01013F
:10107000646FC8EC00F000C00BF10101676B05C1A3
:1010800068F106C169F12CEC00F082925AC0E1FFD0
:101090005BC0E2FF3A0EE66E58C000F059C001F0A6
:1010A00020EC00F00101095318E05AC0E1FF5BC0D9
:1010B000E2FFE66A58C000F059C001F020EC00F0F1
:1010C00007C1D9FF08C1DAFF0050DE1801E005D0E2
:1010D0000101074B082B0907E5D701018282676BE5
:1010E0000AC168F10BC169F12CEC00F009C100F0F4
:0210F0001200EC
:1010F2008292400E01010511006E5AC0E1FF5BC0F1
:10110200E2FF00C0E6FF58C000F059C001F020EC39
:1011120000F05AC0E1FF5BC0E2FF06C1E6FF58C023
:0E11220000F059C001F020EC00F082821200B3
:101130000101056BC80E055D04E2B1DCB0DC052BD6
:04114000F9D71200C9
:1011440001013C6B3D6B000E3D5D02E10A0E3C5D0E
:1011540012E2BD0E3C253E6F000E3D213F6F98EC20
:1011640004F03EC1E1FF3FC1E2FF00C0E6FF010120
:101174003C4B3D2BE8D7BD0E3C25E16E000E3D21D6
:10118400E26EE66ABD0E486F000E496F470E0F6FA0
:10119400450E106F540E116F200E126F2F0E136F29
:1011A400146B0F0E4A6F010E4B6F050E4C6F000E41
:1011B4004D6F14DC0050011003E0006A016A6AD12B
:1011C400C30E0101486F000E496F530E156F540E84
:1011D400166F500E176F186B150E4A6F010E4B6F7A
:1011E400030E4C6F000E4D6FF0EC04F00050011034
:1011F40003E13A6A3B6A1FD1C30E0101486F000E36
:10120400496F530E196F540E1A6F520E1B6F540E02
:101214001C6F1D6B190E4A6F010E4B6F040E4C6F41
:10122400000E4D6FF0EC04F00050011005E1010ECA
:101234003A6E000E3B6EFFD0C30E0101486F000EE4
:10124400496F440E1E6F4C0E1F6F206B1E0E4A6FAB
:10125400010E4B6F020E4C6F000E4D6FF0EC04F05C
:10126400000E011802E1000E001803E13C6A3D6A19
:10127400E2D0C30E0101486F000E496F440E216F86
:10128400520E226F236B210E4A6F010E4B6F020E1A
:101294004C6F000E4D6FF0EC04F0000E011802E1EB
:1012A400000E001805E1010E3C6E000E3D6EC3D029
:1012B400C30E0101486F000E496F530E246F310EA7
:1012C400256F300E266F300E276F286B240E4A6F61
:1012D400010E4B6F040E4C6F000E4D6FF0EC04F0DA
:1012E400000E011802E1000E001805E1280E3E6E02
:1012F400000E3F6EA0D0C30E0101486F000E496F6F
:10130400530E296F370E2A6F350E2B6F2C6B290E57
:101314004A6F010E4B6F030E4C6F000E4D6FF0ECD5
:1013240004F0000E011802E1000E001805E13C0E65
:101334003E6E000E3F6E7FD0C30E0101486F000E5B
:10134400496F530E2D6F350E2E6F300E2F6F306B8D
:101354002D0E4A6F010E4B6F030E4C6F000E4D6F36
:10136400F0EC04F0000E011802E1000E001805E193
:10137400500E3E6E000E3F6E5ED0C30E0101486FEC
:10138400000E496F530E316F320E326F350E336FCC
:10139400346B310E4A6F010E4B6F030E4C6F000E0F
:1013A4004D6FF0EC04F0000E011802E1000E00187D
:1013B40005E1640E3E6E000E3F6E3DD0C30E01018A
:1013C400486F000E496F4D0E356F530E366F540E35
:1013D400376F386B350E4A6F010E4B6F030E4C6F2F
:1013E400000E4D6FF0EC04F0000E011802E1000E47
:1013F400001803E1386A396A1ED0C30E0101486F30
:10140400000E496F4D0E396F410E3A6F3B6B390E2A
:101414004A6F010E4B6F020E4C6F000E4D6FF0ECD5
:1014240004F0000E011802E1000E001804E1010EA0
:10143400386E000E396E000E01010A1902E1500ED9
:10144400091903E0006A016A25D00E0E406F2C0EC4
:10145400416F000E426F69DD00C03CF101C03DF1F7
:10146400380E406F2C0E416F000E426F5EDD00504F
:101474003C2701503D234F0E406F2C0E416F000E50
:10148400426F53DD3C5100263D51012200C03CF126
:0614940001C03DF1120051
:10149A00C90E0101566F190E576FCD0E586F190EEE
:1014AA00596FCD0E5A6F190E5B6F5C6BFFEC00F033
:1014BA00C90E566F190E576F5C0E586F000E596F92
:0E14CA00040E5A6F000E5B6F86EC01F01200EC
:0614D800006A016A120027
:1014DE0098EC04F098EC04F098EC04F000C006F1DF
:1014EE0098EC04F000C005F198EC04F000C008F18F
:1014FE0098EC04F000C007F198EC04F000C00AF17B
:10150E0098EC04F000C009F198EC04F098EC04F0AB
:10151E0098EC04F098EC04F007C100F008C101F05B
:10152E00010E0101075F000E085B005001100EE076
:10153E0098EC04F0005201E0FBD798EC04F098EC24
:10154E0004F098EC04F098EC04F0E6D709C100F032
:10155E000AC101F0010E0101095F000E0A5B005085
:10156E00011048E098EC04F098EC04F098EC04F0CC
:10157E0000C00EF198EC04F000C00DF198EC04F0F0
:10158E0098EC04F098EC04F098EC04F098EC04F06D
:10159E0098EC04F098EC04F000C00CF198EC04F018
:1015AE0000C00BF1000E01010E1902E1010E0D1922
:1015BE0011E198EC04F000C078F098EC04F000C053
:1015CE0079F098EC04F000C07AF098EC04F000C0CA
:1015DE007BF010D00BC100F00CC101F0010E010127
:1015EE000B5F000E0C5B0050011003E098EC04F052
:0615FE00F1D7ACD712008A
:10160400B0D05C0E0101406F000E416F426B040EBE
:10161400436F000E446F6BDC010E406F416BAEEC08
:1016240006F02BC074F02CC075F02DC076F02EC0DF
:1016340077F0030E216EA6D0050E00017425016E0D
:10164400000E7521026E000E7621036E000E7721C6
:10165400046E2E50045C08E12D50035C05E12C500F
:10166400025C02E12B50015C02E2020E216E5AEC94
:1016740005F00050020A03E1040E216E01D082D06D
:10168400030E0101406F2AC041F1AEEC06F02BC0FD
:1016940074F02CC075F02DC076F02EC077F0050ED6
:1016A400216E70D05AEC05F000C005F10050060A16
:1016B40003E1040E216E2CD001010551050A28E135
:1016C4002BC074F02CC075F02DC076F02EC077F0CE
:1016D400060E216E5C0E566F000E576F490E586F42
:1016E400000E596F040E5A6F000E5B6F3BEC02F054
:1016F400700E406F000E416F880E426F000E436FF4
:101704008C0E446F000E456F21EC05F02A6A3AD026
:1017140039D0010E00017425016E000E7521026E90
:10172400000E7621036E000E7721046E04502E5CA9
:1017340008E103502D5C05E102502C5C02E10150EC
:101744002B5C0EE3010E545E000E555A565A575A3E
:101754002BC074F02CC075F02DC076F02EC077F03D
:1017640011D02150020AD8B44CD72150030AD8B45E
:1017740063D72150040A84E02150050A93E02150E4
:06178400060AC7E0120096
:10178A00DBC064F1DCC065F1E0EC00F000C0E6F01B
:10179A0098EC04F000C0E5F098EC04F000C0E4F026
:1017AA0098EC04F000C0E3F0000E0001E41902E135
:1017BA00000EE31901E194D098EC04F000C0E8F0BF
:1017CA0098EC04F000C0E7F0E90E0101486F000E42
:1017DA00496FC90E4A6F190E4B6F040E4C6F000EFB
:1017EA004D6FB2EC04F0020E676F080E0001DB25A4
:1017FA000101686F000E0001DC210101696F2CEC08
:10180A0000F00E0E0001D8250101056F000E00013F
:10181A00D9210101066F0001DA5101010527000EE5
:10182A000623080E0527000E0623D6EC07F0000E45
:10183A000001E61902E1350EE51902E14BDE50D04E
:10184A00000E0001E41902E1440EE31902E1D5DEBB
:10185A0047D0E90E0101056F000E066FE5C007F1DA
:10186A00E6C008F1E3C009F1E4C00AF1080E00017C
:10187A00E75D01010B6F000E0001E85901010C6FD1
:10188A00460E0D6F000E0E6F22DE00C0E7F001C09B
:10189A00E8F00050011024E0DD0E486F000E496F99
:1018AA00B50E4A6F190E4B6F060E4C6F000E4D6F38
:1018BA00B2EC04F0DD0E486F000E496FE90E4A6F74
:1018CA00000E4B6FE3C04CF1E4C04DF1E5C04EF1A0
:1018DA00E6C04FF1E7C050F1E8C051F13AEC03F02D
:0218EA001200EA
:1018EC00DCC064F1DDC065F1E0EC00F000C0ECF0B0
:1018FC0098EC04F000C0EBF098EC04F000C0EAF0B7
:10190C0098EC04F000C0E9F00001F16BF66B010EED
:10191C00F76FF46BF56B0C0EDC250101646F000E98
:10192C000001DD210101656FE0EC00F000C0EFF07B
:10193C00000E0001F06FEF33EF9FEF33EF9F000EBF
:10194C00F06FFC0EEF17FF0EF017000E0101486F41
:10195C00010E496FC90E4A6F190E4B6F040E4C6F76
:10196C00000E4D6FB2EC04F00D0E0001DC250101F0
:10197C00646F000E0001DD210101656FE0EC00F0E9
:10198C003F0E00140001ED6FEE6B000EEE17000E13
:10199C00EE6F0E0E475CF26F000E4858F36FDA5183
:1019AC00F25FDB51F35BEF51F25FF051F35B020E30
:1019BC00DC250101646F000E0001DD210101656F62
:1019CC00E0EC00F000C066F1DCC064F1DDC065F154
:1019DC0054EC00F0030E0001DC250101646F000ED5
:1019EC000001DD210101656FE0EC00F000C064F145
:1019FC0092EC00F0EBC056F1ECC057F117EC02F092
:101A0C00040E0001DC250101646F000E0001DD21D4
:101A1C000101656FE0EC00F000C0FBF098EC04F005
:101A2C0000C0FAF098EC04F000C0F9F098EC04F067
:101A3C0000C0F8F098EC04F000C0FFF098EC04F053
:101A4C0000C0FEF098EC04F000C0FDF098EC04F03F
:101A5C0000C0FCF0000E0001EE1902E1020EED19BF
:101A6C003DE1010EF825006E000EF921016E000E0D
:101A7C00FA21026E000EFB21036E00C0FCF001C0C7
:101A8C00FDF002C0FEF003C0FFF0120EED6F000E71
:101A9C00EE6F0C0E0101646FC8EC00F000C0F8F0A2
:101AAC000D0E0101646FC8EC00F000C0F9F00101EB
:101ABC00646BC8EC00F000C0FAF0010E0101646F19
:101ACC00C8EC00F000C0FBF00001F12B180EEF6F1A
:101ADC00000EF06FF46BF56B166A6ED0000EEE19FB
:101AEC0002E1180EED192FE1F8C0DEF0F9C0DFF0BD
:101AFC00FAC0E0F0FBC0E1F0FCC0F8F0FDC0F9F07A
:101B0C00FEC0FAF0FFC0FBF0F251DE25006EF3517F
:101B1C00DF21016E000EE021026E000EE121036E4A
:101B2C0000C0FCF001C0FDF002C0FEF003C0FFF0ED
:101B3C00100EED6F000EEE6FF12B140EEF6F000E0A
:101B4C00F06FF62B39D0000EEE1902E1110EED19E3
:101B5C0033E1F8C0E2F0F9C0E3F0FAC0E4F0FBC006
:101B6C00E5F0FCC0F8F0FDC0F9F0FEC0FAF0FFC0E3
:101B7C00FBF0010EE225006E000EE321016E000E5B
:101B8C00E421026E000EE521036E00C0FCF001C0E2
:101B9C00FDF002C0FEF003C0FFF0100EED6F000E62
:101BAC00EE6FF12B140EEF6F000EF06FF46BF56B04
:101BBC00155202E1162A156AF153D8B41BD2000152
:101BCC00040EDC250101566F000E0001DD21010120
:101BDC00576FFBC058F1FAC059F1DFEC01F0F9C0B6
:101BEC0064F192EC00F0F8C064F192EC00F0FFC0EC
:101BFC0064F192EC00F0FEC064F192EC00F0FDC0D8
:101C0C0064F192EC00F0FCC064F192EC00F00C0E6C
:101C1C000001DC250101646F000E0001DD210101D2
:101C2C00656FE0EC00F00F0E00140101666FEFC061
:101C3C0000F00036009000360090005066130C0E39
:101C4C000001DC250101646F000E0001DD210101A2
:101C5C00656F54EC00F00D0E0001DC250101646F82
:101C6C00000E0001DD210101656FE0EC00F0C00EFB
:101C7C0000140101666F0001ED51010166130D0E98
:101C8C000001DC250101646F000E0001DD21010162
:101C9C00656F54EC00F0000E0001EE1902E1120E1B
:101CAC00ED1929E10E0EDC250101566F000E000125
:101CBC00DD210101576F050E586FEE0E596FDFECE9
:101CCC0001F0140E0001DC250101566F000E00011D
:101CDC00DD210101576F020E586F040E596FDFECB6
:101CEC0001F0050E0101646F92EC00F0780E010119
:101CFC00646F92EC00F00001DA51F425F26FDB51C5
:101D0C00F521F36FEF51F227F051F323F75304E071
:101D1C0011EC08F04DEC0AF00101BF0E566F190ED4
:101D2C00576FF3C058F1F2C059F1DFEC01F0C70E58
:101D3C000101566F190E576F586B596BDFEC01F0A0
:101D4C00BD0E0101566F190E576FDAC058F1DBC08A
:101D5C0059F1B7EC01F0160E0101646FC8EC00F0FC
:101D6C0000C004F1170E0101646FC8EC00F000C054
:101D7C0058F1C70E0101566F190E576F04C159F176
:101D8C00DFEC01F0BD0E0001F225E76F190EF32117
:101D9C00E86F100EDC250101566F000E0001DD21ED
:101DAC000101576F586B596BDFEC01F0010E00010C
:101DBC00F215E66FE7C064F1E8C065F10101666BEE
:101DCC0054EC00F0C90E0101566F190E576FD10E6D
:101DDC00586F190E596F0001E651E72501015A6F32
:101DEC00000E0001E82101015B6F5C6BFFEC00F061
:101DFC00080E0001E7250101566F000E0001E821D5
:101E0C000101576F0001E65101015627000E5723BF
:101E1C00586B060E596FDFEC01F00A0E0001E72536
:101E2C000101566F000E0001E8210101576F0001FE
:101E3C00E65101015627000E57230001F451EF25FE
:101E4C00036EF551F021046E04C000F0016A00C06D
:101E5C0058F103C059F1DFEC01F0DCC056F1DDC0E4
:101E6C0057F10001F451EF250101586F0001F551B4
:101E7C00F0210101596F0C0E5827000E5923000157
:101E8C00E65101015827000E5923B7EC01F0160E4C
:101E9C000101646FC8EC00F000C004F1170E0101E1
:101EAC00646FC8EC00F000C058F1100E0001DC2586
:101EBC000101566F000E0001DD210101576F04C1B5
:101ECC0059F1DFEC01F00E0E0001F2250101566F05
:101EDC00000E0001F3210101576F63EC02F00001C9
:101EEC00F65362E0100EED6F000EEE6FF66BF76BB3
:101EFC00020E0101676F0001EF51DC250101686FD3
:101F0C000001F051DD210101696F2CEC00F00E0E87
:101F1C000001D8250101056F000E0001D921010136
:101F2C00066F0001DA51010105270001DB510101A7
:101F3C0006230001EF51010105270001F0510101B9
:101F4C000623D6EC07F0162A000E0101056F010ED0
:101F5C00066FEBC007F1ECC008F1E9C009F1EAC06B
:101F6C000AF10E0E475C0B6F000E48580C6F000107
:101F7C00DA5101010B5F0001DB5101010C5B000127
:101F8C00EF5101010B5F0001F05101010C5B460E9A
:101F9C000D6F000E0E6FA2EC08F000C0F4F001C043
:101FAC00F5F046A0166A0BD6165224E00001F45147
:101FBC00F825006EF551F921016E000EFA21026E22
:101FCC00000EFB21036E00C0F8F001C0F9F002C056
:101FDC00FAF003C0FBF0110EED6F000EEE6F166AF7
:101FEC00F76B140EEF6F000EF06FF46BF56B010EC8
:061FFC00156EE5D5120090
:102002001F0E0101646F010E656F75EC00F01F0E6B
:102012000101646F020E656FABEC00F0140E01015A
:10202200056FD8C006F179EC08F0120E0101646F59
:10203200010E656FABEC00F098EC08F0120E646FC5
:10204200010E656F75EC00F0180E0101646FC8ECAB
:1020520000F0DBC0E1FFDCC0E2FF00C0E6FF190ECA
:102062000101646FC8EC00F0D9C0E1FFDAC0E2FF01
:0620720000C0E6FF1200B1
:102078001F0E0101646F010E656F75EC00F01F0EF5
:102088000101646F020E656FABEC00F0140E0101E4
:10209800056FD8C006F179EC08F098EC08F0160E38
:1020A800056FDAC006F179EC08F098EC08F0170E25
:1020B800056FD9C006F179EC08F098EC08F0120029
:1020C800C40E0101646F190E656FE0EC00F000C0EA
:1020D800D8F0E8D0D50E0101056F190E066F5C0E19
:1020E800076F000E086F040E096F30EC08F00050FF
:1020F800000A4BE1C40E0101646F190E656F020EF0
:10210800666F54EC00F011EC08F0CB0E566F190E08
:10211800576FCF0E586F190E596FD50E5A6F190E8B
:102128005B6F5C6BFFEC00F0CB0E566F190E576FB0
:102138005C0E586F000E596F040E5A6F000E5B6FDD
:1021480086EC01F0C50E566F190E576FCB0E586FFF
:10215800190E596FCF0E5A6F190E5B6F5C6BFFEC3F
:1021680000F0C50E566F190E576F4D0E586F000EC2
:10217800596F060E5A6F000E5B6F86EC01F03C0E2D
:10218800566F000E576F63EC02F095D00101AF0E49
:10219800056F190E066F4D0E076F000E086F060EBD
:1021A800096F30EC08F00050000A7BE1CB0E01010A
:1021B800056F190E066F86C007F187C008F1040E77
:1021C800096F30EC08F00050000A6BE10F0E006E4A
:1021D800000E016E37C004F0000E056EE9EC07F042
:1021E800900E00240101486F000E0120496F090E6E
:1021F8004827000E4923C50E4A6F190E4B6F060E6D
:102208004C6F000E4D6FB2EC04F00F0E006E000E16
:10221800016E37C004F0000E056EE9EC07F0900E71
:102228000024566F000E0120576F050E5627000E2A
:10223800572386C058F187C059F1040E5A6F000E13
:102248005B6F3BEC02F00F0E006E000E016E37C0A4
:1022580004F0000E056EE9EC07F0900E0024E16E24
:10226800000E0120E26E010EE66E0F0E006E000EEB
:10227800016E37C004F0000E056EE9EC07F0900E11
:102288000026000E0122010E0024E16E000E01203E
:10229800E26E2BC0E6FF2CC0E6FF2DC0E6FF2EC085
:1022A800E6FF09D00001D851010AD8B413D7D85194
:0822B800020AD8B46BD7120032
:1022C0000101056B0001CC5303E00D0ECD6F02D070
:1022D000050ECD6FCDC006F179EC08F0020E0101BC
:1022E000056F0001CC5303E0310ECE6F02D0300EEB
:1022F000CE6FCEC006F179EC08F00A0E0101676FCF
:10230000EE0E686F050E696F2CEC00F0040E0101F3
:10231000056F0001CC5303E0150ECF6F02D0120EF3
:10232000CF6FCFC006F179EC08F0060E0101056F02
:10233000120E066F79EC08F00001CC5307E1070E8E
:102340000101056F0C0E066F79EC08F00001CC530B
:1023500007E1090E0101056F3F0E066F79EC08F0E9
:102360001F0E0101646F010E656FABEC00F01F0ED4
:102370000101646F020E656FABEC00F0040E010109
:10238000056F4DC006F179EC08F0050E0101056FEF
:102390004EC006F179EC08F0020E0101056F4FC046
:1023A00006F179EC08F0030E0101056F50C006F14B
:1023B00079EC08F00101056B51C006F179EC08F0E9
:1023C000010E0101056F52C006F179EC08F0150EFF
:1023D0000101056F066B79EC08F0120E0101646FC4
:1023E000C8EC00F000C053F00001D86BD10ED96FDB
:1023F000000EDA6FD20EDB6F000EDC6F02DE000122
:10240000D86BFE0ED115D96FCC5303E0010ED06FFF
:1024100001D0D06BD051D913D2C0DAF02DDE100E1E
:102420000001D86F010ED96FDA6B26DE1F0E646FC4
:10243000040E656FABEC00F098EC08F0900E406F66
:10244000000E416F426B2D0E436F000E446F79EC0E
:1024500007F01F0E646F010E656F75EC00F01F0E24
:0E2460000101646F020E656F75EC00F0120052
:10246E000001D56B468046921F0E0101646F010E6E
:10247E00656F75EC00F01F0E0101646F020E656F43
:10248E0075EC00F00101676B28C068F129C069F195
:10249E002CEC00F082925AC0E1FF5BC0E2FF3A0ED4
:1024AE00E66E58C000F059C001F020EC00F05AC0A2
:1024BE00E1FF5BC0E2FFE66A58C000F059C001F0D0
:1024CE0020EC00F000C028F05AC0E1FF5BC0E2FF34
:1024DE00E66A58C000F059C001F020EC00F000C0D0
:1024EE0029F05AC0E1FF5BC0E2FFE66A58C000F077
:1024FE0059C001F020EC00F000C047F05AC0E1FFD7
:10250E005BC0E2FFE66A58C000F059C001F020EC53
:10251E0000F000C048F05AC0E1FF5BC0E2FFE66A7F
:10252E0058C000F059C001F020EC00F000C0D3F00C
:10253E005AC0E1FF5BC0E2FFE66A58C000F059C026
:10254E0001F020EC00F000C0D4F08282040E475E51
:10255E00000E485A2950190802E12850AD080FE321
:10256E0028B00DD00001D4BF0AD04850050802E1B2
:10257E004750EE0804E30001D3AF01D003D0010EA3
:10258E00006EDAD10101646BC8EC00F000C0D1F02E
:10259E00010E0101646FC8EC00F000C0D2F0D1C092
:1025AE0056F1D2C057F147500001D1250101586FA5
:1025BE0048500001D2210101596FAF0E5A6F190E0A
:1025CE005B6F010E5C6FFFEC00F0BB0E646F190EBB
:1025DE00656FE0EC00F000C0D4F098EC04F000C0A1
:1025EE00D3F00001D451080A02E1060ED31912E10C
:1025FE00BD0E0101056F190E066F2F0E076F000E2F
:10260E00086F070E096F30EC08F00050000A01E168
:10261E0054DD68D10001D451080A02E1000ED3192D
:10262E00D8A45DD1CD0E0101056F190E066F640E93
:10263E00076F000E086F040E096F30EC08F00052A1
:10264E00D8B44682CD0E0101056F190E066F220E0B
:10265E00076F000E086F040E096F30EC08F0005281
:10266E00D8B44682CD0E0101056F190E066F5C0EB1
:10267E00076F000E086F040E096F30EC08F0005261
:10268E0006E046B204D0020E0001D56F27D1BD0E72
:10269E000101646F190E656FE0EC00F0F00E00148E
:1026AE00016E0150400A04E0030E0001D56F16D1F1
:1026BE00BD0E0101646F190E656FE0EC00F000C0F5
:1026CE00CFF0000E0001D06F0F0ECF17000ED017F7
:1026DE00CF37CF91D037CF37CF91D037C30E01013F
:1026EE00646F190E656FE0EC00F0BF0E0014016E02
:1026FE000150000AD8A4F2D0C40E0101646F190E65
:10270E00656FE0EC00F00050000AD8A4E7D0BD0ED3
:10271E000001CF25CD6F190ED021CE6FC60E01014F
:10272E00646F190E656FE0EC00F000C0CCF0005045
:10273E00010AD8A494D0CDC064F1CEC065F1E0EC0E
:10274E0000F00050080AD8A489D0010E0001CD2552
:10275E000101646F000E0001CE210101656FE0ECF6
:10276E0000F00050000A7AE1CDC064F1CEC065F1F0
:10277E000101666B54EC00F011EC08F04DEC0AF020
:10278E00C70E566F190E576F586B596BDFEC01F071
:10279E00BD0E0101566F190E576FCFC058F1D0C044
:1027AE0059F1B7EC01F0160E0101646FC8EC00F0A0
:1027BE0000C0D6F0170E0101646FC8EC00F000C027
:1027CE0058F1C70E0101566F190E576FD6C059F149
:1027DE00DFEC01F0020E0001CD250101566F000E57
:1027EE000001CE210101576F586B596BDFEC01F0E0
:1027FE00CDC056F1CEC057F10001CF51475C01015B
:10280E00586F0001D05148580101596F0E0E585F94
:10281E00000E595BB7EC01F0160E0101646FC8ECA7
:10282E0000F000C0D6F0170E0101646FC8EC00F086
:10283E0000C058F1020E0001CD250101566F000EA9
:10284E000001CE210101576FD6C059F1DFEC01F026
:10285E0047C056F148C057F163EC02F03FD000017B
:10286E00CC51110A0DE1D1C0D8F0D2C0D9F0CFC0F1
:10287E00DAF0CDC0DBF0CEC0DCF0C5EC0BF02ED024
:10288E000001CC51060A2AE1100ED1250101646F18
:10289E00000E0001D2210101656FE0EC00F000C0D6
:1028AE00D7F00001D66B98EC04F000500001D6254D
:1028BE00476E000ED721486E0E0E4726000E482298
:1028CE00D1C0D8F0D2C0D9F0CFC0DAF0D0C0DBF092
:1028DE00CDC0DCF0CEC0DDF076EC0CF003D0040EF3
:1028EE000001D56F1E0E0101646F400E656FABECDB
:1028FE0000F0010E285C016E000E2958026E025087
:10290E00190802E10150AD080AE20C0E0101676FD1
:10291E00AD0E686F190E696F2CEC00F00BD00C0E1B
:10292E000101676F010E285C686F000E2958696FF0
:0A293E002CEC00F0D5C000F01200F0
:10294800C69A1C0E586E000E596E6A0E5A6E010E0B
:102958005B6EFF0E00017E6FFF0E7F6FFF0E806FB4
:10296800FF0E816F949A94969488C66A400EC76E3B
:04297800C68A1200F9
:10297C000900F5CFE6FF0006FBE10106F9E11200C4
:10298C00949082809492828298EC08F0828098ECE9
:10299C0008F0829098EC08F0828098EC08F0829213
:1029AC005AC0E1FF5BC0E2FFFF0EE66E58C000F0BC
:1029BC0059C001F020EC00F0828298EC08F04D0E2A
:1029CC00566F000E576FC7C058F1C8C059F1060EAC
:1029DC005A6F000E5B6F3BEC02F05C0E566F000EF4
:1029EC00576FC9C058F1CAC059F1040E5A6F000E86
:1029FC005B6F3BEC02F01F0E646F010E656F75ECA4
:102A0C0000F01F0E0101646F020E656F75EC00F093
:102A1C00080E0101676F686B696B2CEC00F00A0EF5
:102A2C000101676FAD0E686F190E696F2CEC00F029
:102A3C000C0E0101676FAD0E686F190E696F2CECEF
:102A4C0000F00101676B686B696B2CEC00F0040EF5
:102A5C000101676FAE0E686F190E696F2CEC00F0F8
:102A6C001F0E0101646F010E656F75EC00F01F0EF7
:102A7C000101646F020E656FABEC00F0CBC0CCF0C3
:042A8C0019DC12003F
:102A90000001C76BC86B3A503B1005E1C7C044F05A
:102AA000C8C045F01CD0030EC76F000EC86F07D01A
:102AB000C78511D00B0EC717000EC8170CD0000E1B
:102AC0003D1802E1000E3C18F3E0000E3D1802E153
:102AD000010E3C18EFE0C7C044F0C8C045F012003A
:102AE0000001C76B1F0E0101646F010E656FABEC37
:102AF00000F01F0E0101646F020E656F75EC00F0AF
:102B0000190E0101646FC8EC00F00050000803E2E8
:102B1000AEDC00C0C7F01F0E0101646F010E656FCF
:102B200075EC00F01F0E0101646F020E656F75EC0D
:082B300000F0C7C000F0120024
:102B380029EC16F0380ED36E936A926A816A806A1D
:102B48000F013A6B3B6B956A836AFADE170EC76F03
:102B5800000EC86F1D0EC96F000ECA6F010ECB6F35
:102B680011DFBADF91DF010E4024006E000E412014
:102B7800016E00C040F001C041F041503F1802E131
:102B88003E5040180DE1080E4418006E45C001F093
:102B9800000E011A00C044F001C045F0406A416AC5
:082BA80044C081FFDED7FFD716
:102C520010EE15F0310E006E010E016EB00EF66E22
:0E2C62002B0EF76E000EF86EBEEC14F0120092
:012BB0000024
:012BB1000023
:062BB2000014A576193F96
:042BB8000AD3370500
:012BBC000018
:062BBD00FFFFFFFFFFFF18
:022BC300000010
:012BC500000F
:042BC600000000000B
:082BCA000001080006040000F0
:012BD2000002
:0E2BD3000000000000002800000000000000CC
:062BE100474554202F00BF
:042BE70053545000F3
:052BEB00535452540098
:032BF000444C0052
:032BF30044520049
:052BF6005331303000F6
:042BFB005337350017
:042BFF00533530001A
:042C03005332350013
:042C07004D535400D5
:032C0B004D410038
:102C0E00485454502F312E3120323030204F4B0A41
:0E2C1E00436F6E74656E742D747970653A00A4
:0C2C2C0001010600122334450000800066
:0C2C3800746578742F68746D6C0A0A00D3
:062C4400638253633501B9
:052C4A00370301030641
:032C4F004F4B00E8
:00000001FF
