:1000000067EF15F00000000000EF00F000000000B6
:0A0010000000000000000000F3D71C
:10001C0055C1C9FFC7B002D00000FCD7C9CF00F052
:02002C001200C0
:10002E0055C16FFF6DB002D00000FCD76FCF00F04E
:02003E001200AE
:10004000F250026EF29E0500FF6A0150FE6E0050F3
:08005000FD6E02BEF28E1200EB
:100058008292400E01015211006E5AC0E1FF5BC04E
:10006800E2FF00C0E6FF58C000F059C001F0E4DF2D
:100078005AC0E1FF5BC0E2FF53C1E6FF58C000F081
:1000880059C001F0D9DF5AC0E1FF5BC0E2FF54C19B
:10009800E6FF58C000F059C001F0CEDF828212009E
:1000A800020E0101526F4FC153F150C154F1D0DF1C
:1000B80082925AC0E1FF5BC0E2FF7A0EE66E58C03A
:1000C80000F059C001F0B8DF5AC0E1FF5BC0E2FFA1
:1000D80051C1E6FF58C000F059C001F0ADDF82827F
:0200E800120004
:1000EA008292A00E01014F11006E5AC0E1FF5BC05F
:1000FA00E2FF00C0E6FF58C000F059C001F09BDFE4
:10010A005AC0E1FF5BC0E2FF50C1E6FF58C000F0F1
:0A011A0059C001F090DF828212004C
:1001240082925AC0E1FF5BC0E2FF7A0EE66E58C0CD
:1001340000F059C001F082DF5AC0E1FF5BC0E2FF6A
:100144004FC1E6FF58C000F059C001F077DF82824A
:02015400120097
:100156008292800E01014F11006E5AC0E1FF5BC012
:10016600E2FF00C0E6FF58C000F059C001F065DFAD
:100176005AC0E1FF5BC0E2FF50C1E6FF58C000F085
:0A01860059C001F05ADF8282120016
:1001900082925AC0E1FF5BC0E2FF4FC1E6FF58C048
:1001A00000F059C001F04CDF5AC0E1FF5BC0E2FF34
:1001B000E66A58C000F059C001F042DF82821200A6
:1001C0000101526B4FC153F150C154F145DF82928E
:1001D0005AC0E1FF5BC0E2FF3A0EE66E58C000F085
:1001E00059C001F02DDF5AC0E1FF5BC0E2FFE66AB3
:0E01F00058C000F059C001F023DF82821200D7
:1001FE0001014E6B010E435F000E445B47530DE051
:10020E004451190802E14351AD0807E24E2BAD0EE1
:10021E00435D4C6F190E44594D6F4E5305E0AD0EB4
:10022E00486F190E496F04D043C148F144C149F1DA
:10023E004251491902E1485141190DE141C14FF1B5
:10024E0042C150F1B6DF00C051F145C14FF146C178
:10025E0050F123DF36D0100E0101526F41C153F120
:10026E0042C154F1F2DE120E0101526F4E5305E0FF
:10027E00AD0E4A6F190E4B6F04D043C14AF144C103
:10028E004BF14AC153F14BC154F1DFDE140E0101A3
:10029E00526F45C153F146C154F1D7DE1F0E010115
:1002AE004F6F100E506F1ADF1F0E01014F6F200E91
:1002BE00506F4ADF1F0E01014F6F63DF00AA01D09E
:1002CE00F9D701014E531AE04151435D006E425180
:1002DE004459016E4C51005E4D51015A004A012A9B
:1002EE000050452701504623010E4C5D436F000E12
:0E02FE004D59446F416B426B4E6B8FD712000F
:10030C00020E0101526F41C153F142C154F19EDE04
:10031C0082925AC0E1FF5BC0E2FF7A0EE66E58C0D3
:10032C0000F059C001F086DE01014551461117E07D
:10033C005AC0E1FF5BC0E2FF43C1E9FF44C1EAFFE1
:10034C00EECFE6FF58C000F059C001F073DE01019A
:10035C00434B442B010E455F000E465BE5D7828272
:02036C0012007D
:10036E00010143514125456F44514221466F010E13
:10037E00455F000E465B100E526F41C153F142C1F4
:10038E0054F163DE120E0101526F45C153F146C1A5
:10039E0054F15BDE1F0E01014F6F300E506FD4DE35
:1003AE001F0E01014F6FEDDE00AA01D0F9D712002A
:1003BE0041C14FF142C150F143C151F16EDE44C112
:0603CE004FF1A9DE120050
:1003D40082925AC0E1FF5BC0E2FF7A0EE66E58C01B
:1003E40000F059C001F02ADE43C100F044C101F01D
:1003F400010E0101435F000E445B0050011013E045
:100404005AC0E1FF5BC0E2FF41C1E9FF42C1EAFF1C
:10041400EECFE6FF58C000F059C001F00FDE010135
:0A042400414B422BE1D78282120007
:10042E0082925AC0E1FF5BC0E2FF7A0EE66E58C0C0
:10043E0000F059C001F0FDDD5AC0E1FF5BC0E2FFE4
:10044E0042C1E6FF58C000F059C001F0F2DD5AC0BB
:10045E00E1FF5BC0E2FF41C1E6FF58C000F059C0AA
:08046E0001F0E7DD82821200BB
:1004760043C104F044C105F041C102F042C103F09A
:1004860045C100F046C101F0010E0101455F000EB5
:10049600465B005001100FE004C0E9FF05C0EAFF0B
:1004A60002C0E1FF03C0E2FFEECFE6FF024A032AE5
:1004B600044A052AE5D741C100F042C101F0120005
:1004C600AE0E01014F6F190E506F516BEADDAE0E85
:1004D60001014125006E190E4221016E00C041F155
:1004E60001C042F1060E526F00C053F101C054F133
:1004F600B0DD1F0E01014F6F800E506F29DE1F0EFB
:1005060001014F6F800E506FEDDD5350050A04E078
:100516005350070A01E006D01C0E01014F6F0A0E68
:10052600506FE0DD1F0E01014F6F080E506F10DE99
:100536005350050A04E05350070A01E080D0010138
:10054600466B476B1C0E4F6F20DE0A0E00160052DC
:100556000AE10101464B472B030E475D02E1E80E17
:10056600465D01E2EFD701011C0E4F6F0EDE00B2B1
:1005760008D0030E0101475D02E1E80E465D01E287
:100586005DD001011F0E4F6F080E506FABDD040EDC
:10059600010141254F6F000E4221506F0EDE00C053
:1005A60045F10101436B100E435D48E21C0E4F6F8F
:1005B600ECDD00A23FD0010145AB3CD01F0E4F6FD2
:1005C600800E506FC5DD1F0E01014F6F800E506FFC
:1005D60089DD1C0E01014F6F0A0E506F83DD1F0E61
:1005E60001014F6F080E506FB3DD0101466B476B7B
:1005F6001C0E4F6FCADD0A0E001600520AE10101F9
:10060600464B472B030E475D02E1E80E465D01E2CD
:10061600EFD701011F0E4F6F080E506F63DD040EFA
:10062600010141254F6F000E4221506FC6DD00C00B
:1006360045F101D003D00101432BB5D707D0010105
:100646001F0E4F6FA2DD00A601D0F9D71D0E0101C6
:100656004F6F9BDD060E0016005203E00101446B4E
:0E06660003D00101010E446F44C100F01200E8
:10067400AF0E0101416F190E426F33C143F134C112
:1006840044F1060E456F000E466F3EDE4D0E416F7F
:10069400000E426F060E436F000E446F99DE000E8B
:1006A400416F080E426FC1DE1C0E01013B253E6FF7
:1006B400000E3C213F6F000E416F450E426FB5DEC8
:1006C4003EC141F13FC142F1B0DE7CC041F17DC089
:1006D40042F1ABDE00017C4B7D2B0101416B426B8F
:1006E400A4DE110E0101416F800E426F9EDE0101F6
:1006F400416B426B9ADE5C0E0101416F000E426F4A
:10070400040E436F000E446F63DE35C141F136C100
:1007140042F1040E436F000E446F5ADE080E3B256F
:100724003E6F000E3C213F6F37C141F138C142F1A9
:100734007CDE39C141F13AC142F177DE3EC141F17B
:100744003FC142F172DE0101416B426B6EDEBD0EB0
:100754000101416F190E426F140E436F000E446F76
:1007640004DE160E01014F6F11DD00C040F1170EBB
:1007740001014F6F0BDD00C043F1C70E0101416F52
:10078400190E426F40C144F118DE010E01013E15FD
:100794003D6FD90E3B254F6F190E3C21506F516BA5
:1007A40081DCC90E0101416F190E426FD10E436FF6
:1007B400190E446FD90E3B25456F190E3C21466F27
:1007C4003D514527000E4623476B17DDD90E3B25C7
:1007D400416F190E3C21426F3D514127000E4223C7
:1007E400080E4127000E4223436B110E446FE5DDD2
:1007F4003FC14FF195DC3EC14FF192DCD10E0101B6
:10080400416F190E426F0C0E3E25436F000E3F21BF
:10081400446F3D514327000E4423A7DD160E01010A
:100824004F6FB4DC00C040F1170E01014F6FAEDC16
:1008340000C043F1D70E0101416F190E426F40C150
:1008440044F1BBDD2A0E01013B25416F000E3C2122
:06085400426F37DE1200C6
:10085A0033C141F134C142F15C0E0101436F000E14
:10086A00446F040E456F000E466F00DE356B35513E
:10087A00030821E335513325026E000E3421036E3D
:10088A0002C0E9FF03C0EAFFEECF01F0680EE96E8D
:10089A00000EEA6E3551E926D8B0EA2AFF0EEE18A4
:1008AA00006E0150001202C0E1FF03C0E2FF00C067
:0808BA00E6FF352BDCD712002C
:1008C20082925AC0E1FF5BC0E2FF7A0EE66E58C028
:1008D20000F059C001F020EC00F036C100F037C141
:1008E20001F0010E0101365F000E375B005001106E
:1008F2001CE05AC0E1FF5BC0E2FF33C1F6FF34C126
:10090200F7FF35C1F8FF0900F5CF00F000C0E6FFA0
:1009120058C000F059C001F020EC00F0010E0101B6
:0E0922003327000E34233523D8D782821200EB
:1009300082925AC0E1FF5BC0E2FF3A0EE66E58C0F9
:1009400000F059C001F020EC00F05AC0E1FF5BC09C
:10095000E2FFE66A58C000F059C001F020EC00F058
:04096000828212007D
:1009640001013651FF0A02E1FF0E351907E0526B0F
:1009740035C153F136C154F12CEC00F082925AC0C7
:10098400E1FF5BC0E2FF3A0EE66E58C000F059C0CA
:1009940001F020EC00F037C100F038C101F0010E85
:1009A4000101375F000E385B0050011015E05AC09A
:1009B400E1FF5BC0E2FFE66A58C000F059C001F0F5
:1009C40020EC00F033C1E1FF34C1E2FF00C0E6FFD8
:0C09D4000101334B342BDFD7828212006C
:1009E00037C101F038C102F0010E0101375F000E7E
:1009F000385B000E021802E1000E01181FE033C13F
:100A0000E9FF34C1EAFF35C1D9FF36C1DAFFEE5044
:100A1000DE180FE033C1E9FF34C1EAFF35C1D9FF69
:100A200036C1DAFFDE50EE5C006E016A000E015A3C
:100A300007D0334B342B354B362BD2D7006A016AA3
:020A40001200A2
:100A4200680E0101416F000E426F2BC143F12CC1B0
:100A520044F1040E456F000E466F0CDD6C0E416FC3
:100A6200000E426F2DC143F12EC144F1040E456FB9
:100A7200000E466FFFDC600E416F000E426F2FC109
:100A820043F130C144F1040E456F000E466FF2DCB3
:0C0A9200640E336F000E346FDFDE1200C4
:100A9E00020E0C6E490E0D6E0D2EFED70C2EFCD7CF
:060AAE0000000000120030
:100AB40001012D6B3C0E546E000E556E566E576E32
:100AC40035DF00C02BF10050020AD8A418D101016F
:100AD4002C6B0F0E2C5D04E229DF01012C2BF9D7BE
:100AE400490E336F000E346FFF0E356FFF0E366FF5
:100AF400040E376F000E386F33DF2C6B080E2C5D3D
:100B040004E214DF01012C2BF9D72C6B060E2C5DAB
:100B140012E20CDF00C02BF14D0ED96E000EDA6E1E
:100B240001012C51D926D8B0DA2A0050DE1801E090
:100B340011D12C2BEBD72C6BCE0E2C5D04E2F6DE00
:100B440001012C2BF9D72E6BF1DE00C02BF1B8D0AC
:100B5400EDDE00C02BF10050010A04E1E7DE00C025
:100B64002DF101D0F7D0C7D0E1DE00C02BF1005049
:100B7400040A0FE1700E0101336F000E346FFF0E93
:100B8400356FFF0E366F040E376F000E386FE8DED8
:100B940001D0E0D0B0D0CADE00C02BF1040E005C5E
:100BA4000FE3880E0101336F000E346FFF0E356FB3
:100BB400FF0E366F040E376F000E386FD1DE01D092
:100BC400C9D00101040E2B5F01012BC100F02B07DA
:100BD400005202E0ABDEF8D78ED0A8DE00C02BF1C5
:100BE400040E005C0FE38C0E0101336F000E346FB2
:100BF400FF0E356FFF0E366F040E376F000E386F21
:100C0400AFDE01D0A7D00101040E2B5F01012BC17F
:100C140000F02B07005202E089DEF8D76CD086DEA4
:100C240000C02BF10050040A0FE12F0E0101336FB5
:100C3400010E346FFF0E356FFF0E366F040E376FE3
:100C4400000E386F8DDE01D085D055D00101010E24
:100C54002E6F51D06BDE00C02BF10050040A22E14C
:100C6400540E0101336F000E346FFF0E356FFF0E0B
:100C7400366F040E376F000E386F72DE575000085F
:100C840008E15650000805E15550070802E15450A8
:100C9400080807E2080E545E070E555A000E565A0D
:100CA400575A01D057D027D041DE00C02BF12BC1B9
:100CB40000F001012B07005202E038DEF8D71BD008
:100CC40001012B51350AD8B443D72B51010AD8B4AA
:100CD4004BD72B51030AD8B45ED72B51060AD8B48C
:100CE4007CD72B51360A9BE02B51FF0AAFE02B51E6
:100CF400330AB0E0D9D701012E53D8B425D7010166
:100D04002D51020A0FE1820E416F000E426F2F0E29
:100D1400436F010E446F040E456F000E466F3BECAB
:100D240002F015D0820E336F000E346F2F0E356F24
:100D3400010E366F040E376F000E386F4FDE000E53
:100D4400011802E1000E001802E001012D6B2DC113
:080D540000F001D0006A12005A
:100D5C00F90E01012E6F000E2F6F020E526FD90E7D
:100D6C00536F190E546F2CEC00F0D90E0101336F38
:100D7C002B0E346F000E356F0C0E366F000E376F66
:100D8C009ADD2B51030A0DE12C530BE0490E416FF8
:100D9C00000E426F040E436F000E446FEAEC01F03C
:100DAC000AD02D6B040E2D5D06E24F6B92EC00F019
:100DBC0001012D2BF7D72D6B0C0E2D5D06E24F6B21
:100DCC0092EC00F001012D2BF7D74D0E416F000E68
:100DDC00426F060E436F000E446FEAEC01F02D6B70
:100DEC00CA0E2D5D06E24F6B92EC00F001012D2B2B
:100DFC00F7D7F10E336F2B0E346F000E356F060ED6
:100E0C00366F000E376F57DD2BC14FF192EC00F0AF
:100E1C0001012B51030A1AE12C5318E1360E4F6FC6
:100E2C0092EC00F0040E01014F6F92EC00F0820E78
:100E3C000101416F000E426F040E436F000E446FB0
:100E4C00EAEC01F0060E2E27000E2F23FD0E336F59
:100E5C002B0E346F000E356F050E366F000E376F8C
:100E6C002ADD2B51030A23E12C5321E1320E4F6F63
:100E7C0092EC00F0040E01014F6F92EC00F00101B6
:100E8C002D6B040E2D5D0FE2490EE96E000EEA6E1D
:100E9C002D51E926D8B0EA2AEECF4FF192EC00F0B2
:100EAC0001012D2BEED7060E2E27000E2F23FF0E41
:100EBC004F6F92EC00F0220E0101336F000E346F75
:100ECC00220E356F000E366F440E376F000E386FE2
:100EDC00430E396F000E3A6F2EC13BF12FC13CF11E
:060EEC003AEC03F01200D5
:100EF2002BC102F02CC103F02EC100F02FC101F072
:100F0200010E01012E5F000E2F5B0050011009E05F
:100F120002C0E1FF03C0E2FF2DC1E6FF024A032A3D
:0C0F2200EBD72BC100F02CC101F0120035
:100F2E0001012F6B306B82925AC0E1FF5BC0E2FF72
:100F3E007A0EE66E58C000F059C001F020EC00F0B9
:100F4E002BC100F02CC101F02DC102F0010E0101E8
:100F5E002B27000E2C232D2300C0F6FF01C0F7FF18
:100F6E0002C0F8FF0900F5CF00F000C02EF10052CC
:100F7E0010E05AC0E1FF5BC0E2FF2EC1E6FF58C091
:100F8E0000F059C001F020EC00F001012F4B302B86
:0E0F9E00D7D782822FC100F030C101F01200BF
:100FAC0001010651190802E10551AD0804E2AE0E2B
:100FBC00055F190E065B526B05C153F106C154F166
:060FCC002CEC00F0120005
:100FD2000B6A0A6A096A00500402F4CF09F0F3CFDF
:100FE20008F001500502F4CF0BF0F3CF0AF00050E5
:100FF2000502F3500926F4500A22E86A0B22015036
:101002000402F3500926F4500A22E86A0B2208C0AF
:1010120000F009C001F00AC002F00BC003F0120098
:10102200B50E0101416F190E426FBB0E436F190ECF
:10103200446FAF0E456F190E466F476BFFEC00F021
:10104200B50E416F190E426F4D0E436F000E446F85
:0E105200060E456F000E466F86EC01F0120090
:1010600001014F6BC8EC00F000C00AF1010E010154
:101070004F6FC8EC00F000C00BF10101526B05C1CD
:1010800053F106C154F12CEC00F082925AC0E1FFFA
:101090005BC0E2FF3A0EE66E58C000F059C001F0A6
:1010A00020EC00F00101095318E05AC0E1FF5BC0D9
:1010B000E2FFE66A58C000F059C001F020EC00F0F1
:1010C00007C1D9FF08C1DAFF0050DE1801E005D0E2
:1010D0000101074B082B0907E5D701018282526BFA
:1010E0000AC153F10BC154F12CEC00F009C100F01E
:0210F0001200EC
:1010F2008292400E01010511006E5AC0E1FF5BC0F1
:10110200E2FF00C0E6FF58C000F059C001F020EC39
:1011120000F05AC0E1FF5BC0E2FF06C1E6FF58C023
:0E11220000F059C001F020EC00F082821200B3
:101130000101056BC80E055D04E2B1DCB0DC052BD6
:04114000F9D71200C9
:101144000101276B286B000E285D02E10A0E275D62
:1011540012E2BD0E2725296F000E28212A6F98EC74
:1011640004F029C1E1FF2AC1E2FF00C0E6FF01014A
:10117400274B282BE8D7BD0E2725E16E000E28212A
:10118400E26EE66ABD0E336F000E346F470E0F6FCA
:10119400450E106F540E116F200E126F2F0E136F29
:1011A400146B0F0E356F010E366F050E376F000E80
:1011B400386F14DC0050011003E0006A016A35D175
:1011C400000E01010A1902E1500E091903E0006A38
:1011D400016A2BD1A30E2B6F2B0E2C6F000E2D6FDB
:1011E400A4DE00C027F101C028F1E50E2B6F2B0E01
:1011F4002C6F000E2D6F99DE0050272701502823F5
:10120400C20E336F000E346F4F0E156F460E166FFD
:10121400460E176F186B150E356F010E366F030EE1
:10122400376F000E386FF0EC04F00050011013E13A
:101234003A6A3B6A020E01012B6F2C0E2C6F000ED2
:101244002D6F73DE275100262851012200C027F19B
:1012540001C028F1EAD00101C20E336F000E346FD1
:10126400530E196F540E1A6F1B6B190E356F010E46
:10127400366F020E376F000E386FF0EC04F000503A
:10128400011003E1386A396A2DD0C20E0101336FAF
:10129400000E346F410E1C6F430E1D6F1E6B1C0E2F
:1012A400356F010E366F020E376F000E386FF0EC9B
:1012B40004F00050011005E1010E386E000E396E85
:1012C40011D0F70E01012B6F2B0E2C6F000E2D6F1A
:1012D4002CDE275100262851012200C027F101C02D
:1012E40028F1A3D00101C40E336F000E346F2C0E0D
:1012F4001F6F206B1F0E356F010E366F010E376F97
:10130400000E386FF0EC04F00050011011E0F70EFD
:1013140001012B6F2B0E2C6F000E2D6F06DE275153
:1013240000262851012200C027F101C028F17DD0F8
:101334000101C50E336F000E346F520E216F226B04
:10134400210E356F010E366F010E376F000E386FA8
:10135400F0EC04F00050011005E1010E3C6E000EAB
:101364003D6E29D0C50E0101336F000E346F4C0E53
:10137400236F246B230E356F010E366F010E376F0A
:10138400000E386FF0EC04F00050011003E13C6AE9
:101394003D6A11D0F70E01012B6F2B0E2C6F000E3E
:1013A4002D6FC3DD275100262851012200C027F1EB
:1013B40001C028F13AD00101C60E336F000E346F1C
:1013C4003B0E256F266B250E356F010E366F010E11
:1013D400376F000E386FF0EC04F00050011011E08C
:1013E400F70E01012B6F2B0E2C6F000E2D6F9DDD60
:1013F400275100262851012200C027F101C028F1FD
:1014040014D00101010E3A6E000E3B6E020E2B6FDA
:101414002C0E2C6F000E2D6F88DD275100262851CD
:0C142400012200C027F101C028F11200D5
:10143000C90E0101416F190E426FCD0E436F190E97
:10144000446FCD0E456F190E466F476BFFEC00F0F1
:10145000C90E416F190E426F5C0E436F000E446F50
:0E146000040E456F000E466F86EC01F0120080
:06146E00006A016A120091
:1014740098EC04F098EC04F098EC04F000C006F149
:1014840098EC04F000C005F198EC04F000C008F1F9
:1014940098EC04F000C007F198EC04F000C00AF1E5
:1014A40098EC04F000C009F198EC04F098EC04F016
:1014B40098EC04F098EC04F007C100F008C101F0C6
:1014C400010E0101075F000E085B005001100EE0E1
:1014D40098EC04F0005201E0FBD798EC04F098EC8F
:1014E40004F098EC04F098EC04F0E6D709C100F09D
:1014F4000AC101F0010E0101095F000E0A5B0050F0
:10150400011048E098EC04F098EC04F098EC04F036
:1015140000C00EF198EC04F000C00DF198EC04F05A
:1015240098EC04F098EC04F098EC04F098EC04F0D7
:1015340098EC04F098EC04F000C00CF198EC04F082
:1015440000C00BF1000E01010E1902E1010E0D198C
:1015540011E198EC04F000C078F098EC04F000C0BD
:1015640079F098EC04F000C07AF098EC04F000C034
:101574007BF010D00BC100F00CC101F0010E010191
:101584000B5F000E0C5B0050011003E098EC04F0BC
:06159400F1D7ACD71200F4
:10159A00B0D05C0E01012B6F000E2C6F2D6B040E68
:1015AA002E6F000E2F6FA0DC010E2B6F2C6BAEEC92
:1015BA0006F02BC074F02CC075F02DC076F02EC04A
:1015CA0077F0030E216EA6D0050E00017425016E78
:1015DA00000E7521026E000E7621036E000E772131
:1015EA00046E2E50045C08E12D50035C05E12C507A
:1015FA00025C02E12B50015C02E2020E216E5AECFF
:10160A0005F00050020A03E1040E216E01D082D0D7
:10161A00030E01012B6F2AC02CF1AEEC06F02BC091
:10162A0074F02CC075F02DC076F02EC077F0050E40
:10163A00216E70D05AEC05F000C005F10050060A80
:10164A0003E1040E216E2CD001010551050A28E19F
:10165A002BC074F02CC075F02DC076F02EC077F038
:10166A00060E216E5C0E416F000E426F490E436FEB
:10167A00000E446F040E456F000E466F3BEC02F0FD
:10168A00700E2B6F000E2C6F880E2D6F000E2E6FB2
:10169A008C0E2F6F000E306F21EC05F02A6A3AD0BB
:1016AA0039D0010E00017425016E000E7521026EFB
:1016BA00000E7621036E000E7721046E04502E5C14
:1016CA0008E103502D5C05E102502C5C02E1015057
:1016DA002B5C0EE3010E545E000E555A565A575AA9
:1016EA002BC074F02CC075F02DC076F02EC077F0A8
:1016FA0011D02150020AD8B44CD72150030AD8B4C9
:10170A0063D72150040A84E02150050A93E021504E
:06171A00060AC7E0120000
:10172000DBC04FF1DCC050F1E0EC00F000C0E6F0AF
:1017300098EC04F000C0E5F098EC04F000C0E4F090
:1017400098EC04F000C0E3F0000E0001E41902E19F
:10175000000EE31901E194D098EC04F000C0E8F029
:1017600098EC04F000C0E7F0E90E0101336F000EC1
:10177000346FC90E356F190E366F040E376F000EB9
:10178000386FB2EC04F0020E526F080E0001DB2538
:101790000101536F000E0001DC210101546F2CEC9C
:1017A00000F00E0E0001D8250101056F000E0001AA
:1017B000D9210101066F0001DA5101010527000E50
:1017C0000623080E0527000E0623D6EC07F0000EB0
:1017D0000001E61902E1350EE51902E14BDE50D0B9
:1017E000000E0001E41902E1440EE31902E1D5DE26
:1017F00047D0E90E0101056F000E066FE5C007F145
:10180000E6C008F1E3C009F1E4C00AF1080E0001E6
:10181000E75D01010B6F000E0001E85901010C6F3B
:10182000460E0D6F000E0E6F22DE00C0E7F001C005
:10183000E8F00050011024E0DD0E336F000E346F2D
:10184000B50E356F190E366F060E376F000E386FF6
:10185000B2EC04F0DD0E336F000E346FE90E356F1D
:10186000000E366FE3C037F1E4C038F1E5C039F15E
:10187000E6C03AF1E7C03BF1E8C03CF13AEC03F0D6
:02188000120054
:10188200DCC04FF1DDC050F1E0EC00F000C0ECF044
:1018920098EC04F000C0EBF098EC04F000C0EAF021
:1018A20098EC04F000C0E9F00001F16BF66B010E58
:1018B200F76FF46BF56B0C0EDC2501014F6F000E18
:1018C2000001DD210101506FE0EC00F000C0EFF0FB
:1018D200000E0001F06FEF33EF9FEF33EF9F000E2A
:1018E200F06FFC0EEF17FF0EF017000E0101336FC1
:1018F200010E346FC90E356F190E366F040E376F35
:10190200000E386FB2EC04F00D0E0001DC2501016F
:101912004F6F000E0001DD210101506FE0EC00F07D
:101922003F0E00140001ED6FEE6B000EEE17000E7D
:10193200EE6F0E0E475CF26F000E4858F36FDA51ED
:10194200F25FDB51F35BEF51F25FF051F35B020E9A
:10195200DC2501014F6F000E0001DD210101506FF6
:10196200E0EC00F000C051F1DCC04FF1DDC050F1FD
:1019720054EC00F0030E0001DC2501014F6F000E54
:101982000001DD210101506FE0EC00F000C04FF1D9
:1019920092EC00F0EBC041F1ECC042F117EC02F026
:1019A200040E0001DC2501014F6F000E0001DD2154
:1019B2000101506FE0EC00F000C0FBF098EC04F085
:1019C20000C0FAF098EC04F000C0F9F098EC04F0D2
:1019D20000C0F8F098EC04F000C0FFF098EC04F0BE
:1019E20000C0FEF098EC04F000C0FDF098EC04F0AA
:1019F20000C0FCF0000E0001EE1902E1020EED192A
:101A02003DE1010EF825006E000EF921016E000E77
:101A1200FA21026E000EFB21036E00C0FCF001C031
:101A2200FDF002C0FEF003C0FFF0120EED6F000EDB
:101A3200EE6F0C0E01014F6FC8EC00F000C0F8F021
:101A42000D0E01014F6FC8EC00F000C0F9F001016A
:101A52004F6BC8EC00F000C0FAF0010E01014F6FAD
:101A6200C8EC00F000C0FBF00001F12B180EEF6F84
:101A7200000EF06FF46BF56B166A6ED0000EEE1965
:101A820002E1180EED192FE1F8C0DEF0F9C0DFF027
:101A9200FAC0E0F0FBC0E1F0FCC0F8F0FDC0F9F0E4
:101AA200FEC0FAF0FFC0FBF0F251DE25006EF351EA
:101AB200DF21016E000EE021026E000EE121036EB5
:101AC20000C0FCF001C0FDF002C0FEF003C0FFF058
:101AD200100EED6F000EEE6FF12B140EEF6F000E75
:101AE200F06FF62B39D0000EEE1902E1110EED194E
:101AF20033E1F8C0E2F0F9C0E3F0FAC0E4F0FBC071
:101B0200E5F0FCC0F8F0FDC0F9F0FEC0FAF0FFC04D
:101B1200FBF0010EE225006E000EE321016E000EC5
:101B2200E421026E000EE521036E00C0FCF001C04C
:101B3200FDF002C0FEF003C0FFF0100EED6F000ECC
:101B4200EE6FF12B140EEF6F000EF06FF46BF56B6E
:101B5200155202E1162A156AF153D8B41BD20001BC
:101B6200040EDC250101416F000E0001DD2101019F
:101B7200426FFBC043F1FAC044F1DFEC01F0F9C05F
:101B82004FF192EC00F0F8C04FF192EC00F0FFC080
:101B92004FF192EC00F0FEC04FF192EC00F0FDC06C
:101BA2004FF192EC00F0FCC04FF192EC00F00C0E01
:101BB2000001DC2501014F6F000E0001DD21010152
:101BC200506FE0EC00F00F0E00140101516FEFC0F6
:101BD20000F00036009000360090005051130C0EB9
:101BE2000001DC2501014F6F000E0001DD21010122
:101BF200506F54EC00F00D0E0001DC2501014F6F17
:101C0200000E0001DD210101506FE0EC00F0C00E7A
:101C120000140101516F0001ED51010151130D0E2C
:101C22000001DC2501014F6F000E0001DD210101E1
:101C3200506F54EC00F0000E0001EE1902E1120E9A
:101C4200ED1929E10E0EDC250101416F000E0001A4
:101C5200DD210101426F050E436FEE0E446FDFEC92
:101C620001F0140E0001DC250101416F000E00019C
:101C7200DD210101426F020E436F040E446FDFEC5F
:101C820001F0050E01014F6F92EC00F0780E010198
:101C92004F6F92EC00F00001DA51F425F26FDB5144
:101CA200F521F36FEF51F227F051F323F75304E0DC
:101CB20011EC08F018EC0AF00101BF0E416F190E89
:101CC200426FF3C043F1F2C044F1DFEC01F0C70E02
:101CD2000101416F190E426F436B446BDFEC01F05F
:101CE200BD0E0101416F190E426FDAC043F1DBC034
:101CF20044F1B7EC01F0160E01014F6FC8EC00F091
:101D020000C004F1170E01014F6FC8EC00F000C0D3
:101D120043F1C70E0101416F190E426F04C144F134
:101D2200DFEC01F0BD0E0001F225E76F190EF32181
:101D3200E86F100EDC250101416F000E0001DD216C
:101D42000101426F436B446BDFEC01F0010E0001B5
:101D5200F215E66FE7C04FF1E8C050F10101516B97
:101D620054EC00F0C90E0101416F190E426FD10E01
:101D7200436F190E446F0001E651E7250101456FDB
:101D8200000E0001E8210101466F476BFFEC00F0F5
:101D9200080E0001E7250101416F000E0001E82154
:101DA2000101426F0001E65101014127000E422369
:101DB200436B060E446FDFEC01F00A0E0001E725CB
:101DC2000101416F000E0001E8210101426F000193
:101DD200E65101014127000E42230001F451EF2593
:101DE200036EF551F021046E04C000F0016A00C0D8
:101DF20043F103C044F1DFEC01F0DCC041F1DDC08E
:101E020042F10001F451EF250101436F0001F55148
:101E1200F0210101446F0C0E4327000E4423000100
:101E2200E65101014327000E4423B7EC01F0160EE0
:101E320001014F6FC8EC00F000C004F1170E010160
:101E42004F6FC8EC00F000C043F1100E0001DC251A
:101E52000101416F000E0001DD210101426F04C149
:101E620044F1DFEC01F00E0E0001F2250101416F99
:101E7200000E0001F3210101426F63EC02F0000148
:101E8200F65362E0100EED6F000EEE6FF66BF76B1D
:101E9200020E0101526F0001EF51DC250101536F67
:101EA2000001F051DD210101546F2CEC00F00E0E07
:101EB2000001D8250101056F000E0001D9210101A1
:101EC200066F0001DA51010105270001DB51010112
:101ED20006230001EF51010105270001F051010124
:101EE2000623D6EC07F0162A000E0101056F010E3B
:101EF200066FEBC007F1ECC008F1E9C009F1EAC0D6
:101F02000AF10E0E475C0B6F000E48580C6F000171
:101F1200DA5101010B5F0001DB5101010C5B000191
:101F2200EF5101010B5F0001F05101010C5B460E04
:101F32000D6F000E0E6FA2EC08F000C0F4F001C0AD
:101F4200F5F046A0166A0BD6165224E00001F451B1
:101F5200F825006EF551F921016E000EFA21026E8C
:101F6200000EFB21036E00C0F8F001C0F9F002C0C0
:101F7200FAF003C0FBF0110EED6F000EEE6F166A61
:101F8200F76B140EEF6F000EF06FF46BF56B010E32
:061F9200156EE5D51200FA
:101F98001F0E01014F6F010E506F75EC00F01F0E00
:101FA80001014F6F020E506FABEC00F0140E0101EF
:101FB800056FD8C006F179EC08F0120E01014F6FD9
:101FC800010E506FABEC00F098EC08F0120E4F6F5A
:101FD800010E506F75EC00F0180E01014F6FC8EC40
:101FE80000F0DBC0E1FFDCC0E2FF00C0E6FF190E35
:101FF80001014F6FC8EC00F0D9C0E1FFDAC0E2FF81
:0620080000C0E6FF12001B
:10200E001F0E01014F6F010E506F75EC00F01F0E89
:10201E0001014F6F020E506FABEC00F0140E010178
:10202E00056FD8C006F179EC08F098EC08F0160EA2
:10203E00056FDAC006F179EC08F098EC08F0170E8F
:10204E00056FD9C006F179EC08F098EC08F0120093
:10205E00C40E01014F6F190E506FE0EC00F000C07E
:10206E00D8F0E8D0D50E0101056F190E066F5C0E83
:10207E00076F000E086F040E096F30EC08F0005069
:10208E00000A4BE1C40E01014F6F190E506F020E84
:10209E00516F54EC00F011EC08F0CB0E416F190E9D
:1020AE00426FCF0E436F190E446FD50E456F190E4A
:1020BE00466F476BFFEC00F0CB0E416F190E426F6F
:1020CE005C0E436F000E446F040E456F000E466F9C
:1020DE0086EC01F0C50E416F190E426FCB0E436FA9
:1020EE00190E446FCF0E456F190E466F476BFFECFE
:1020FE0000F0C50E416F190E426F4D0E436F000E6C
:10210E00446F060E456F000E466F86EC01F03C0ED6
:10211E00416F000E426F63EC02F095D00101AF0EDD
:10212E00056F190E066F4D0E076F000E086F060E27
:10213E00096F30EC08F00050000A7BE1CB0E010174
:10214E00056F190E066F86C007F187C008F1040EE1
:10215E00096F30EC08F00050000A6BE10F0E006EB4
:10216E00000E016E37C004F0000E056EE9EC07F0AC
:10217E00900E00240101336F000E0120346F090E02
:10218E003327000E3423C50E356F190E366F060E2B
:10219E00376F000E386FB2EC04F00F0E006E000EAB
:1021AE00016E37C004F0000E056EE9EC07F0900EDC
:1021BE000024416F000E0120426F050E4127000ED4
:1021CE00422386C043F187C044F1040E456F000ED2
:1021DE00466F3BEC02F00F0E006E000E016E37C024
:1021EE0004F0000E056EE9EC07F0900E0024E16E8F
:1021FE00000E0120E26E010EE66E0F0E006E000E56
:10220E00016E37C004F0000E056EE9EC07F0900E7B
:10221E000026000E0122010E0024E16E000E0120A8
:10222E00E26E2BC0E6FF2CC0E6FF2DC0E6FF2EC0EF
:10223E00E6FF09D00001D851010AD8B413D7D851FE
:08224E00020AD8B46BD712009C
:102256000101056B0001CC5303E00D0ECD6F02D0DA
:10226600050ECD6FCDC006F179EC08F0020E010126
:10227600056F0001CC5303E0310ECE6F02D0300E55
:10228600CE6FCEC006F179EC08F00A0E0101526F4E
:10229600EE0E536F050E546F2CEC00F0040E010188
:1022A600056F0001CC5303E0150ECF6F02D0120E5E
:1022B600CF6FCFC006F179EC08F0060E0101056F6D
:1022C600120E066F79EC08F00001CC5307E1070EF9
:1022D6000101056F0C0E066F79EC08F00001CC5376
:1022E60007E1090E0101056F3F0E066F79EC08F054
:1022F6001F0E01014F6F010E506FABEC00F01F0E69
:1023060001014F6F020E506FABEC00F0040E01019D
:10231600056F4DC006F179EC08F0050E0101056F59
:102326004EC006F179EC08F0020E0101056F4FC0B0
:1023360006F179EC08F0030E0101056F50C006F1B5
:1023460079EC08F00101056B51C006F179EC08F053
:10235600010E0101056F52C006F179EC08F0150E69
:102366000101056F066B79EC08F0120E01014F6F43
:10237600C8EC00F000C053F00001D86BD10ED96F45
:10238600000EDA6FD20EDB6F000EDC6F02DE00018C
:10239600D86BFE0ED115D96FCC5303E0010ED06F6A
:1023A60001D0D06BD051D913D2C0DAF02DDE100E89
:1023B6000001D86F010ED96FDA6B26DE1F0E4F6F44
:1023C600040E506FABEC00F098EC08F0900E2B6FFB
:1023D600000E2C6F2D6B2D0E2E6F000E2F6F79ECCD
:1023E60007F01F0E4F6F010E506F75EC00F01F0EB9
:0E23F60001014F6F020E506F75EC00F01200E7
:102404000001D56B468046921F0E01014F6F010EED
:10241400506F75EC00F01F0E01014F6F020E506FEC
:1024240075EC00F00101526B28C053F129C054F13E
:102434002CEC00F082925AC0E1FF5BC0E2FF3A0E3E
:10244400E66E58C000F059C001F020EC00F05AC00C
:10245400E1FF5BC0E2FFE66A58C000F059C001F03A
:1024640020EC00F000C028F05AC0E1FF5BC0E2FF9E
:10247400E66A58C000F059C001F020EC00F000C03A
:1024840029F05AC0E1FF5BC0E2FFE66A58C000F0E1
:1024940059C001F020EC00F000C047F05AC0E1FF41
:1024A4005BC0E2FFE66A58C000F059C001F020ECBE
:1024B40000F000C048F05AC0E1FF5BC0E2FFE66AEA
:1024C40058C000F059C001F020EC00F000C0D3F077
:1024D4005AC0E1FF5BC0E2FFE66A58C000F059C091
:1024E40001F020EC00F000C0D4F08282040E475EBC
:1024F400000E485A2950190802E12850AD080FE38C
:1025040028B00DD00001D4BF0AD04850050802E11C
:102514004750EE0804E30001D3AF01D003D0010E0D
:10252400006EDAD101014F6BC8EC00F000C0D1F0AD
:10253400010E01014F6FC8EC00F000C0D2F0D1C011
:1025440041F1D2C042F147500001D1250101436F4E
:1025540048500001D2210101446FAF0E456F190E9E
:10256400466F010E476FFFEC00F0BB0E4F6F190E64
:10257400506FE0EC00F000C0D4F098EC04F000C020
:10258400D3F00001D451080A02E1060ED31912E176
:10259400BD0E0101056F190E066F2F0E076F000E99
:1025A400086F070E096F30EC08F00050000A01E1D3
:1025B40054DD68D10001D451080A02E1000ED31998
:1025C400D8A45DD1CD0E0101056F190E066F640EFE
:1025D400076F000E086F040E096F30EC08F000520C
:1025E400D8B44682CD0E0101056F190E066F220E76
:1025F400076F000E086F040E096F30EC08F00052EC
:10260400D8B44682CD0E0101056F190E066F5C0E1B
:10261400076F000E086F040E096F30EC08F00052CB
:1026240006E046B204D0020E0001D56F27D1BD0EDC
:1026340001014F6F190E506FE0EC00F0F00E001422
:10264400016E0150400A04E0030E0001D56F16D15B
:10265400BD0E01014F6F190E506FE0EC00F000C089
:10266400CFF0000E0001D06F0F0ECF17000ED01761
:10267400CF37CF91D037CF37CF91D037C30E0101A9
:102684004F6F190E506FE0EC00F0BF0E0014016E96
:102694000150000AD8A4F2D0C40E01014F6F190EE4
:1026A400506FE0EC00F00050000AD8A4E7D0BD0E53
:1026B4000001CF25CD6F190ED021CE6FC60E0101BA
:1026C4004F6F190E506FE0EC00F000C0CCF00050DA
:1026D400010AD8A494D0CDC04FF1CEC050F1E0ECA3
:1026E40000F00050080AD8A489D0010E0001CD25BD
:1026F40001014F6F000E0001CE210101506FE0EC8B
:1027040000F00050000A7AE1CDC04FF1CEC050F184
:102714000101516B54EC00F011EC08F018EC0AF0D4
:10272400C70E416F190E426F436B446BDFEC01F02F
:10273400BD0E0101416F190E426FCFC043F1D0C0ED
:1027440044F1B7EC01F0160E01014F6FC8EC00F034
:1027540000C0D6F0170E01014F6FC8EC00F000C0A6
:1027640043F1C70E0101416F190E426FD6C044F107
:10277400DFEC01F0020E0001CD250101416F000ED6
:102784000001CE210101426F436B446BDFEC01F089
:10279400CDC041F1CEC042F10001CF51475C0101EF
:1027A400436F0001D05148580101446F0E0E435F3E
:1027B400000E445BB7EC01F0160E01014F6FC8EC3C
:1027C40000F000C0D6F0170E01014F6FC8EC00F006
:1027D40000C043F1020E0001CD250101416F000E3E
:1027E4000001CE210101426FD6C044F1DFEC01F0BB
:1027F40047C041F148C042F163EC02F03FD0000110
:10280400CC51110A0DE1D1C0D8F0D2C0D9F0CFC05B
:10281400DAF0CDC0DBF0CEC0DCF090EC0BF02ED0C3
:102824000001CC51060A2AE1100ED12501014F6F97
:10283400000E0001D2210101506FE0EC00F000C055
:10284400D7F00001D66B98EC04F000500001D625B7
:10285400476E000ED721486E0E0E4726000E482202
:10286400D1C0D8F0D2C0D9F0CFC0DAF0D0C0DBF0FC
:10287400CDC0DCF0CEC0DDF041EC0CF003D0040E92
:102884000001D56F1E0E01014F6F400E506FABEC6F
:1028940000F0010E285C016E000E2958026E0250F1
:1028A400190802E10150AD080AE20C0E0101526F51
:1028B400AD0E536F190E546F2CEC00F00BD00C0EB0
:1028C4000101526F010E285C536F000E2958546F9A
:0A28D4002CEC00F0D5C000F012005B
:1028DE00C69A1C0E586E000E596E550E5A6E010E8B
:1028EE005B6EFF0E00017E6FFF0E7F6FFF0E806F1F
:1028FE00FF0E816F949A94969488C66A400EC76EA6
:04290E00C68A120063
:102912000900F5CFE6FF0006FBE10106F9E112002E
:10292200949082809492828298EC08F0828098EC53
:1029320008F0829098EC08F0828098EC08F082927D
:102942005AC0E1FF5BC0E2FFFF0EE66E58C000F026
:1029520059C001F020EC00F0828298EC08F04D0E94
:10296200416F000E426FC7C043F1C8C044F1060E6A
:10297200456F000E466F3BEC02F05C0E416F000E9D
:10298200426FC9C043F1CAC044F1040E456F000E44
:10299200466F3BEC02F01F0E4F6F010E506F75EC4D
:1029A20000F01F0E01014F6F020E506F75EC00F028
:1029B200080E0101526F536B546B2CEC00F00A0E9F
:1029C2000101526FAD0E536F190E546F2CEC00F0D3
:1029D2000C0E0101526FAD0E536F190E546F2CEC99
:1029E20000F00101526B536B546B2CEC00F0040E9F
:1029F2000101526FAE0E536F190E546F2CEC00F0A2
:102A02001F0E01014F6F010E506F75EC00F01F0E8B
:102A120001014F6F020E506FABEC00F0CBC0CCF057
:042A220019DC1200A9
:102A26000001C76BC86B3A503B1005E1C7C044F0C4
:102A3600C8C045F01CD0030EC76F000EC86F07D084
:102A4600C78511D00B0EC717000EC8170CD0000E85
:102A56003D1802E1000E3C18F3E0000E3D1802E1BD
:102A6600010E3C18EFE0C7C044F0C8C045F01200A4
:102A76000001C76B1F0E01014F6F010E506FABECCB
:102A860000F01F0E01014F6F020E506F75EC00F043
:102A9600190E01014F6FC8EC00F00050000803E268
:102AA600AEDC00C0C7F01F0E01014F6F010E506F64
:102AB60075EC00F01F0E01014F6F020E506F75ECA2
:082AC60000F0C7C000F012008F
:102ACE0003EC16F0380ED36E936A926A816A806AAE
:102ADE000F013A6B3B6B956A836AFADE170EC76F6E
:102AEE00000EC86F1D0EC96F000ECA6F010ECB6FA0
:102AFE0011DFBADF000E3B1802E1000E3A1801E1B9
:102B0E00F8D722D089DF010E4024006E000E41203E
:102B1E00016E00C040F001C041F041503F1802E18B
:102B2E003E5040180DE1080E4418006E45C001F0ED
:102B3E00000E011A00C044F001C045F0406A416A1F
:102B4E0044C081FF0DD00CD0000E391802E1000EEA
:102B5E003818D8E0000E391802E1010E3818F3E0EB
:042B6E00C8D7FFD7EE
:102C060010EE15F0310E006E010E016E720EF66EAC
:0E2C16002B0EF76E000EF86E89EC14F0120013
:012B72000062
:012B73000061
:062B74000014A576193FD4
:042B7A000AD337053E
:012B7E000056
:062B7F00FFFFFFFFFFFF56
:022B850000004E
:012B8700004D
:042B88000000000049
:082B8C0000010800060400002E
:012B94000040
:0E2B950000000000000028000000000000000A
:102BA300485454502F312E3120323030204F4B0AAD
:0E2BB300436F6E74656E742D747970653A0010
:062BC100474554202F00DF
:042BC7004F4646002F
:032BCB0053540060
:032BCE0041430080
:022BD1002C00D6
:022BD3005200AE
:022BD5004C00B2
:022BD7003B00C1
:0C2BD900010106001223344500008000BA
:0C2BE500746578742F68746D6C0A0A0027
:062BF1006382536335010D
:062BF7004552524F52004E
:052BFD0037030103068F
:032C02004F4B0035
:00000001FF
