:10000000EFEF14F00000000000EF00F0000000002F
:0A0010000000000000000000F3D71C
:10001C0007C5C9FFC7B002D00000FCD7C9CF00F09C
:02002C001200C0
:10002E0007C56FFF6DB002D00000FCD76FCF00F098
:02003E001200AE
:10004000F250026EF29E0500FF6A0150FE6E0050F3
:08005000FD6E02BEF28E1200EB
:100058008292400E05010411006E2DC4E1FF2EC4EA
:10006800E2FF00C0E6FF2BC400F02CC401F0E4DF7F
:100078002DC4E1FF2EC4E2FF05C5E6FF2BC400F046
:100088002CC401F0D9DF2DC4E1FF2EC4E2FF06C560
:10009800E6FF2BC400F02CC401F0CEDF82821200F0
:1000A800020E0501046F01C505F502C506F5D0DF8E
:1000B80082922DC4E1FF2EC4E2FF7A0EE66E2BC4B5
:1000C80000F02CC401F0B8DF2DC4E1FF2EC4E2FF1C
:1000D80003C5E6FF2BC400F02CC401F0ADDF82821B
:0200E800120004
:1000EA000501046B01C505F502C506F5B0DF82926C
:1000FA002DC4E1FF2EC4E2FF3A0EE66E2BC400F0D7
:10010A002CC401F098DF2DC4E1FF2EC4E2FFE66A99
:0E011A002BC400F02CC401F08EDF8282120094
:1001280082922DC4E1FF2EC4E2FF7A0EE66E2BC444
:1001380000F02CC401F080DF2DC4E1FF2EC4E2FFE3
:1001480000C5E6FF2BC400F02CC401F075DF8282E5
:02015800120093
:10015A008292800E05010111006E2DC4E1FF2EC4AA
:10016A00E2FF00C0E6FF2BC400F02CC401F063DFFD
:10017A002DC4E1FF2EC4E2FF02C5E6FF2BC400F046
:0A018A002CC401F058DF828212003D
:1001940082922DC4E1FF2EC4E2FF00C5E6FF2BC40A
:1001A40000F02CC401F04ADF2DC4E1FF2EC4E2FFAD
:1001B400E66A2BC400F02CC401F040DF82821200F6
:1001C4008292A00E05010111006E2DC4E1FF2EC420
:1001D400E2FF00C0E6FF2BC400F02CC401F02EDFC8
:1001E4002DC4E1FF2EC4E2FF02C5E6FF2BC400F0DC
:0A01F4002CC401F023DF8282120008
:1001FE000401FF6B010EF45F000EF55BF8530DE08A
:10020E00F551190802E1F451AD0807E2FF2BAD0ECE
:10021E00F45DFD6F190EF559FE6FFF5305E0AD0E3F
:10022E00F96F190EFA6F04D0F4C4F9F4F5C4FAF4A8
:10023E00F351FA1902E1F951F2190DE1F2C401F587
:10024E00F3C402F54BDF00C003F5F6C401F5F7C4A5
:10025E0002F523DF37D0100E0501046FF2C405F549
:10026E00F3C406F5F2DE120E0501046F0401FF530E
:10027E0005E0AD0EFB6F190EFC6F04D0F4C4FBF459
:10028E00F5C4FCF4FBC405F5FCC406F5DEDE140E65
:10029E000501046FF6C405F5F7C406F5D6DE1F0E8C
:1002AE000501016F100E026F86DF1F0E0501016F33
:1002BE00200E026F4BDF1F0E0501006F64DF00AAD8
:1002CE0001D0F9D70401FF531AE0F251F45D006E2C
:1002DE00F351F559016EFD51005EFE51015A004A6F
:1002EE00012A0050F6270150F723010EFD5DF46F31
:1002FE00000EFE59F56FF26BF36BFF6B8ED712008B
:10030E00020E0501046FF2C405F5F3C406F59DDE79
:10031E0082922DC4E1FF2EC4E2FF7A0EE66E2BC44C
:10032E0000F02CC401F085DE0401F651F71117E040
:10033E002DC4E1FF2EC4E2FFF4C4E9FFF5C4EAFFC9
:10034E00EECFE6FF2BC400F02CC401F072DE0401E8
:10035E00F44BF52B010EF65F000EF75BE5D78282AC
:02036E0012007B
:100370000401F451F225F66FF551F321F76F010EE8
:10038000F65F000EF75B100E0501046FF2C405F571
:10039000F3C406F561DE120E0501046FF6C405F51F
:1003A000F7C406F559DE1F0E0501016F300E026F0E
:1003B000D4DE1F0E0501006FEDDE00AA01D0F9D7D3
:0203C000120029
:1003C200F2C401F5F3C402F5F4C403F56CDEF5C41E
:0603D20000F5A9DE120097
:1003D80082922DC4E1FF2EC4E2FF7A0EE66E2BC492
:1003E80000F02CC401F028DEF4C400F0F5C401F0DC
:1003F800010E0401F45F000EF55B0050011013E0DC
:100408002DC4E1FF2EC4E2FFF2C4E9FFF3C4EAFF02
:10041800EECFE6FF2BC400F02CC401F00DDE040182
:0A042800F24BF32BE1D782821200A1
:1004320082922DC4E1FF2EC4E2FF7A0EE66E2BC437
:1004420000F02CC401F0FBDD2DC4E1FF2EC4E2FF5D
:10045200F3C4E6FF2BC400F02CC401F0F0DD2DC480
:10046200E1FF2EC4E2FFF2C4E6FF2BC400F02CC46D
:0804720001F0E5DD82821200B9
:10047A00F4C404F0F5C405F0F2C402F0F3C403F0C6
:10048A00F6C400F0F7C401F0010E0401F65F000E95
:10049A00F75B005001100FE004C0E9FF05C0EAFF56
:1004AA0002C0E1FF03C0E2FFEECFE6FF024A032AE1
:1004BA00044A052AE5D7F2C400F0F3C401F0120099
:1004CA00AE0E0501016F190E026F036BE8DDAE0E69
:1004DA000401F225006E190EF321016E00C0F2F438
:1004EA0001C0F3F4060E0501046F00C005F501C052
:1004FA0006F5ADDD1F0E0501016F800E026F28DEC5
:10050A001F0E0501016F800E026F57DE040187512D
:10051A00050A04E08751070A01E006D01C0E05010E
:10052A00016F0A0E026F49DE1F0E0501016F080EE8
:10053A00026F0EDE04018751050A04E08751070A9B
:10054A0001E089D0F76BF86B1C0E0501006F1DDE08
:10055A000A0E001600520AE10401F74BF82B030EAB
:10056A00F85D02E1E80EF75D01E2EED71C0E050127
:10057A00006F0BDE00B208D0030E0401F85D02E141
:10058A00E80EF75D01E266D01F0E0501016F080E45
:10059A00026F13DE040E0401F2250501016F000E3D
:1005AA000401F3210501026F9BDD00C0F6F404018A
:1005BA00F46B100EF45D4EE21C0E0501006FE5DDD2
:1005CA0000A244D00401F6AB41D01F0E0501016F11
:1005DA00800E026FBDDD1F0E0501016F800E026FD6
:1005EA00ECDD1C0E0501016F0A0E026FE6DD1F0E1F
:1005FA000501016F080E026FABDD0401F76BF86BA2
:10060A001C0E0501006FC1DD0A0E001600520AE138
:10061A000401F74BF82B030EF85D02E1E80EF75DD3
:10062A0001E2EED71F0E0501016F080E026FC5DD4C
:10063A00040E0401F2250501016F000E0401F321E5
:10064A000501026F4DDD00C0F6F401D003D00401AC
:10065A00F42BAFD707D01F0E0501006F96DD00A659
:10066A0001D0F9D71D0E0501006F8FDD060E0016A9
:10067A00005203E00401F56B03D00401010EF56F8B
:06068A00F5C400F01200AF
:10069000E4C4F2F4E5C4F3F43E0E0401F46F040E76
:1006A000F56F040EF66F000EF76FE7DEE66BE651AE
:1006B000030821E3E651E425026E000EE521036EF6
:1006C00002C0E9FF03C0EAFFEECF01F0420EE96E7F
:1006D000040EEA6EE651E926D8B0EA2AFF0EEE18BB
:1006E000006E0150001202C0E1FF03C0E2FF00C033
:0806F000E6FFE62BDCD7120047
:1006F800AF0E0401F26F190EF36FE4C4F4F4E5C40D
:10070800F5F4060EF66F000EF76FFDDD370EF26F8B
:10071800040EF36F060EF46F000EF56F59DE000E2F
:10072800F26F080EF36F81DE1C0E0401EC25EF6FEB
:10073800000EED21F06F000EF26F450EF36F75DEBF
:10074800EFC4F2F4F0C4F3F470DE7DC4F2F47EC4B6
:10075800F3F46BDE04017D4B7E2BF26BF36B65DEED
:10076800110E0401F26F800EF36F5FDE0401F26B6D
:10077800F36B5BDE3E0E0401F26F040EF36F040EA2
:10078800F46F000EF56F24DEE6C4F2F4E7C4F3F468
:10079800040EF46F000EF56F1BDE080EEC25EF6FEC
:1007A800000EED21F06FE8C4F2F4E9C4F3F43DDE85
:1007B800EAC4F2F4EBC4F3F438DEEFC4F2F4F0C4A4
:1007C800F3F433DE0401F26BF36B2FDEBD0E04018C
:1007D800F26F190EF36F140EF46F000EF56FC4DD8F
:1007E800160E0501006FD2DC00C0F1F4170E0501EA
:1007F800006FCCDC00C0F4F4C70E0401F26F190ED0
:10080800F36FF1C4F5F4D9DD010E0401EF15EE6FB5
:10081800D90EEC250501016F190E0401ED21050122
:10082800026F036B3DDCC90E0401F26F190EF36F02
:10083800D10EF46F190EF56FD90EEC25F66F190E5F
:10084800ED21F76FEE51F627000EF723F86BD3DC96
:10085800D90EEC25F26F190EED21F36FEE51F22748
:10086800000EF323080EF227000EF323F46B110E8B
:10087800F56FA3DDF0C400F553DCEFC400F550DCE0
:10088800D10E0401F26F190EF36F0C0EEF25F46F01
:10089800000EF021F56FEE51F427000EF52364DD0C
:1008A800160E0501006F72DC00C0F1F4170E050189
:1008B800006F6CDC00C0F4F4D70E0401F26F190E5F
:1008C800F36FF1C4F5F479DD2A0E0401EC25F26F1B
:0A08D800000EED21F36FF5DD1200B4
:1008E20082922DC4E1FF2EC4E2FF7A0EE66E2BC483
:1008F20000F02CC401F020EC00F0E7C400F0E8C4E2
:1009020001F0010E0401E75F000EE85B00500110E8
:100912001CE02DC4E1FF2EC4E2FFE4C4F6FFE5C4EF
:10092200F7FFE6C4F8FF0900F5CF00F000C0E6FFCC
:100932002BC400F02CC401F020EC00F0010E0401E5
:0E094200E427000EE523E623D8D782821200B8
:100950000401E751FF0A02E1FF0EE61908E0050174
:10096000046BE6C405F5E7C406F52CEC00F08292B2
:100970002DC4E1FF2EC4E2FF3A0EE66E2BC400F058
:100980002CC401F020EC00F0E8C400F0E9C401F050
:10099000010E0401E85F000EE95B0050011015E054
:1009A0002DC4E1FF2EC4E2FFE66A2BC400F02CC484
:1009B00001F020EC00F0E4C4E1FFE5C4E2FF00C078
:0E09C000E6FF0401E44BE52BDFD78282120034
:1009CE0082922DC4E1FF2EC4E2FF3A0EE66E2BC4D6
:1009DE0000F02CC401F020EC00F02DC4E1FF2EC479
:1009EE00E2FFE66A2BC400F02CC401F020EC00F00C
:0409FE0082821200DF
:100A0200E8C401F0E9C402F0010E0401E85F000E3F
:100A1200E95B000E021802E1000E01181FE0E4C4B7
:100A2200E9FFE5C4EAFFE6C4D9FFE7C4DAFFEE5006
:100A3200DE180FE0E4C4E9FFE5C4EAFFE6C4D9FF2B
:100A4200E7C4DAFFDE50EE5C006E016A000E015A66
:100A520007D0E44BE52BE64BE72BD2D7006A016ABD
:020A6200120080
:100A6400420E0401F26F040EF36FDCC4F4F4DDC42F
:100A7400F5F4040EF66F000EF76FFDDC880EF26FCE
:100A8400040EF36FDEC4F4F4DFC4F5F4040EF66F61
:100A9400000EF76FF0DC7F0EF26F040EF36FE0C40C
:100AA400F4F4E1C4F5F4040EF66F000EF76FE3DC22
:0C0AB4008C0EE46F040EE56FE9DD12000B
:100AC000020E0C6E490E0D6E0D2EFED70C2EFCD7AD
:060AD0000000000012000E
:100AD6000401DE6B3C0E2F6F000E306F316F326FEC
:100AE60073DF00C0DCF40050020AD8A418D1040158
:100AF600DD6B0F0EDD5D04E267DF0401DD2BF9D748
:100B0600330EE46F040EE56FFF0EE66FFF0EE76F20
:100B1600040EE86F000EE96F18DFDD6B080EDD5D71
:100B260004E252DF0401DD2BF9D7DD6B060EDD5D35
:100B360012E24ADF00C0DCF4370ED96E040EDA6E1C
:100B46000401DD51D926D8B0DA2A0050DE1801E0BA
:100B560011D1DD2BEBD7DD6BCE0EDD5D04E234DF8C
:100B66000401DD2BF9D7DF6B2FDF00C0DCF4B8D032
:100B76002BDF00C0DCF40050010A04E125DF00C0D1
:100B8600DEF401D0F7D0C7D01FDF00C0DCF4005080
:100B9600040A0FE1250E0401E46F040EE56FFF0E53
:100BA600E66FFF0EE76F040EE86F000EE96FCDDE0D
:100BB60001D0E0D0B0D008DF00C0DCF4040E005C49
:100BC6000FE30F0E0401E46F040EE56FFF0EE66FF0
:100BD600FF0EE76F040EE86F000EE96FB6DE01D078
:100BE600C9D00401040EDC5F0401DCC400F0DC079C
:100BF600005202E0E9DEF8D78ED0E6DE00C0DCF473
:100C0600040E005C0FE3130E0401E46F040EE56F9F
:100C1600FF0EE66FFF0EE76F040EE86F000EE96F3A
:100C260094DE01D0A7D00401040EDC5F0401DCC40D
:100C360000F0DC07005202E0C7DEF8D76CD0C4DE55
:100C460000C0DCF40050040A0FE1E00E0401E46F7A
:100C5600040EE56FFF0EE66FFF0EE76F040EE86FFA
:100C6600000EE96F72DE01D085D055D00401010E69
:100C7600DF6F51D0A9DE00C0DCF40050040A22E187
:100C86002F0E0401E46F040EE56FFF0EE66FFF0EF4
:100C9600E76F040EE86F000EE96F57DE3251000869
:100CA60008E13151000805E13051070802E12F51F2
:100CB600080807E2080E2F5F070E305B000E315B57
:100CC600325B01D057D027D07FDE00C0DCF4DCC415
:100CD60000F00401DC07005202E076DEF8D71BD0F4
:100CE6000401DC51350AD8B443D7DC51010AD8B423
:100CF6004BD7DC51030AD8B45ED7DC51060AD8B408
:100D06007CD7DC51360A9BE0DC51FF0AAFE0DC51B0
:100D1600330AB0E0D9D70401DF53D8B425D704018C
:100D2600DE51020A0FE1210EF26F040EF36FE00EA0
:100D3600F46F040EF56F040EF66F000EF76F3DECC0
:100D460002F015D0210EE46F040EE56FE00EE66F9B
:100D5600040EE76F040EE86F000EE96F4FDE000E1B
:100D6600011802E1000E001802E00401DE6BDEC489
:080D760000F001D0006A120038
:100D7E00DCC402F0DDC403F0DFC400F0E0C401F017
:100D8E00010E0401DF5F000EE05B0050011009E070
:100D9E0002C0E1FF03C0E2FFDEC4E6FF024A032AFF
:0C0DAE00EBD7DCC400F0DDC401F0120043
:100DBA00F90E0401DF6F000EE06F020E0501046FE9
:100DCA00D90E056F190E066F2CEC00F06E0E040199
:100DDA00E46F2E0EE56F000EE66F0C0EE76F000E45
:100DEA00E86F7ADDDC51030A0DE1DD530BE0330EC7
:100DFA00F26F040EF36F040EF46F000EF56FECEC55
:100E0A0001F00BD0DE6B040EDE5D07E20501006B1C
:100E1A0094EC00F00401DE2BF6D7DE6B0C0EDE5DDF
:100E2A0007E20501006B94EC00F00401DE2BF6D713
:100E3A00370EF26F040EF36F060EF46F000EF56FA5
:100E4A00ECEC01F0DE6BCA0EDE5D07E20501006B19
:100E5A0094EC00F00401DE2BF6D7860EE46F2E0E1A
:100E6A00E56F000EE66F060EE76F000EE86F34DDE1
:100E7A00DCC400F594EC00F00401DC51030A1BE128
:100E8A00DD5319E1360E0501006F94EC00F0040EF3
:100E9A000501006F94EC00F0210E0401F26F040EBC
:100EAA00F36F040EF46F000EF56FECEC01F0060E12
:100EBA00DF27000EE0238C0EE46F2E0EE56F000E86
:100ECA00E66F050EE76F000EE86F06DDDC51030AD8
:100EDA0024E1DD5322E1320E0501006F94EC00F0AB
:100EEA00040E0501006F94EC00F00401DE6B040EA1
:100EFA00DE5D0FE2330EE96E040EEA6EDE51E9267C
:100F0A00D8B0EA2AEECF00F594EC00F00401DE2B0B
:100F1A00EED7060EDF27000EE023FF0E0501006F55
:100F2A0094EC00F0040E0401E46F040EE56F040E65
:100F3A00E66F040EE76F440EE86F000EE96F430E8A
:100F4A00EA6F000EEB6FDFC4ECF4E0C4EDF47CEC66
:040F5A0003F012008E
:100F5E000401E06BE16B82922DC4E1FF2EC4E2FF2F
:100F6E007A0EE66E2BC400F02CC401F020EC00F0DB
:100F7E00DCC400F0DDC401F0DEC402F0010E040199
:100F8E00DC27000EDD23DE2300C0F6FF01C0F7FFD5
:100F9E0002C0F8FF0900F5CF00F000C0DFF40052E8
:100FAE0010E02DC4E1FF2EC4E2FFDFC4E6FF2BC428
:100FBE0000F02CC401F020EC00F00401E04BE12B1A
:0E0FCE00D7D78282E0C400F0E1C401F0120027
:100FDC000401DF6BE06B82922DC4E1FF2EC4E2FFB3
:100FEC007A0EE66E2BC400F02CC401F020EC00F05D
:100FFC00DCC400F0DDC401F00401DC4BDD2B00C0CF
:10100C00E9FF01C0EAFFEECF00F000C0DEF40052B1
:10101C0010E02DC4E1FF2EC4E2FFDEC4E6FF2BC4BA
:10102C0000F02CC401F020EC00F00401DF4BE02BAD
:0E103C00DFD78282DFC400F0E0C401F01200B2
:10104A000401CF51190802E1CE51AD0804E2AE0EF7
:10105A00CE5F190ECF5B0501046BCEC405F5CFC474
:08106A0006F52CEC00F0120069
:101072000B6A0A6A096A00500402F4CF09F0F3CF3E
:1010820008F001500502F4CF0BF0F3CF0AF0005044
:101092000502F3500926F4500A22E86A0B22015095
:1010A2000402F3500926F4500A22E86A0B2208C00F
:1010B20000F009C001F00AC002F00BC003F01200F8
:1010C200B50E0401F26F190EF36FBB0EF46F190E19
:1010D200F56FAF0EF66F190EF76FF86BFFEC00F0BD
:1010E200B50EF26F190EF36F370EF46F040EF56F33
:0E10F200060EF66F000EF76F87EC01F012008D
:101100000501006BCAEC00F000C0D3F4010E05012C
:10111000006FCAEC00F000C0D4F40501046BCEC42B
:1011200005F5CFC406F52CEC00F082922DC4E1FF4A
:101130002EC4E2FF3A0EE66E2BC400F02CC401F080
:1011400020EC00F00401D25318E02DC4E1FF2EC4BE
:10115000E2FFE66A2BC400F02CC401F020EC00F0A2
:10116000D0C4D9FFD1C4DAFF0050DE1801E005D0A9
:101170000401D04BD12BD207E5D782820501046B45
:10118000D3C405F5D4C406F52CEC00F0D2C400F0AD
:0211900012004B
:101192008292400E0401CE11006E2DC4E1FF2EC4D6
:1011A200E2FF00C0E6FF2BC400F02CC401F020ECEB
:1011B20000F02DC4E1FF2EC4E2FFCFC4E6FF2BC432
:0E11C20000F02CC401F020EC00F0828212003C
:1011D0000401CE6BC80ECE5D04E272DC71DCCE2B56
:0411E000F9D7120029
:1011E4000401D86BD96B000ED95D02E10A0ED85DFB
:1011F40012E2170ED825DA6F040ED921DB6FE7EC63
:1012040004F0DAC4E1FFDBC4E2FF00C0E6FF04013E
:10121400D84BD92BE8D7170ED825E16E040ED92167
:10122400E26EE66A170EE46F040EE56FD60EE66F03
:10123400030EE76F050EE86F000EE96F01EC05F091
:101244000050011003E0006A016ABDD01D0E0401C4
:10125400E46F040EE56FE90EE66F030EE76F020E0E
:10126400E86F000EE96F01EC05F00050011008E191
:101274000301E16BE26B010EDF6F000EE06F76D0CD
:101284001D0E0401E46F040EE56FDC0EE66F030E21
:10129400E76F020EE86F000EE96F01EC05F00050F5
:1012A40001100AE1010E0301E16F000EE26F010E6D
:1012B400DF6F000EE06F5AD01D0E0401E46F040EC0
:1012C400E56F1F0EE66F000EE76F040EE86F000E69
:1012D400E96F01EC05F00050011004E10301DF6B3C
:1012E400E06B44D01D0E0401E46F040EE56F1A0E8A
:1012F400E66F000EE76F040EE86F000EE96F01EC75
:1013040005F00050011015E1800E006E800E0301FF
:10131400E419005C02E1E35102080BE2010EE35D13
:10132400006E000EE459016E00C0E3F301C0E4F363
:101334001DD01D0E0401E46F040EE56F150EE66F5B
:10134400000EE76F040EE86F000EE96F01EC05F084
:10135400005001100BE1010E0301E325006E000EA5
:10136400E421016E00C0E3F301C0E4F3000E0401C4
:10137400D31902E1500ED21903E0006A016A23D0A6
:10138400500EDC6F2E0EDD6F000EDE6FE6DD00C04A
:10139400D8F401C0D9F47A0EDC6F2E0EDD6F000E86
:1013A400DE6FDBDD0050D8270150D923240EDC6F1B
:1013B400000EDD6F11DED8510026D951012200C084
:0813C400D8F401C0D9F41200B5
:1013CC00C90E0401F26F190EF36FCD0EF46F190EE6
:1013DC00F56FCD0EF66F190EF76FF86BFFEC00F092
:1013EC00C90EF26F190EF36F3E0EF46F040EF56F0B
:0E13FC00040EF66F000EF76F87EC01F0120082
:06140A00006A016A1200F5
:10141000E7EC04F0E7EC04F0E7EC04F000C0CFF4F4
:10142000E7EC04F000C0CEF4E7EC04F000C0D1F427
:10143000E7EC04F000C0D0F4E7EC04F000C0D3F413
:10144000E7EC04F000C0D2F4E7EC04F0E7EC04F0C1
:10145000E7EC04F0E7EC04F0D0C400F0D1C401F0F4
:10146000010E0401D05F000ED15B005001100EE0B0
:10147000E7EC04F0005201E0FBD7E7EC04F0E7EC06
:1014800004F0E7EC04F0E7EC04F0E6D7D2C400F097
:10149000D3C401F0010E0401D25F000ED35B0050F3
:1014A000011048E0E7EC04F0E7EC04F0E7EC04F0AE
:1014B00000C0D7F4E7EC04F000C0D6F4E7EC04F089
:1014C000E7EC04F0E7EC04F0E7EC04F0E7EC04F000
:1014D000E7EC04F0E7EC04F000C0D5F4E7EC04F02E
:1014E00000C0D4F4000E0401D71902E1010ED61990
:1014F00011E1E7EC04F000C079F4E7EC04F000C07F
:101500007AF4E7EC04F000C07BF4E7EC04F000C0F0
:101510007CF410D0D4C400F0D5C401F0010E040155
:10152000D45F000ED55B0050011003E0E7EC04F03F
:06153000F1D7ACD7120058
:10153600B3D03E0E0401DC6F040EDD6FDE6B040ECD
:10154600DF6F000EE06F18DC010EDC6FDD6B32DC46
:10155600F8C375F4F9C376F4FAC377F4FBC378F4E9
:10156600030E0B6FABD0050E7525016E000E7621AE
:10157600026E000E7721036E000E7821046E0301C1
:10158600FB51045C08E1FA51035C05E1F951025C88
:1015960002E1F851015C03E2020E04010B6F6BECF1
:1015A60005F00050020A04E1040E04010B6F01D09D
:1015B60085D00401030EDC6F0CC4DDF4DDEC06F00F
:1015C600F8C375F4F9C376F4FAC377F4FBC378F479
:1015D600050E0B6F73D06BEC05F000C0CEF4005017
:1015E600060A04E1040E04010B6F2CD00401CE514F
:1015F600050A28E1F8C375F4F9C376F4FAC377F45B
:10160600FBC378F4060E0B6F3E0EF26F040EF36FFB
:10161600330EF46F040EF56F040EF66F000EF76FBF
:101626003DEC02F0250EDC6F040EDD6F0F0EDE6F53
:10163600040EDF6F130EE06F040EE16F32EC05F05F
:101646000C6B3CD03BD0010E7525016E000E762149
:10165600026E000E7721036E000E7821046E045090
:101666000301FB5D08E10350FA5D05E10250F95DF7
:1016760002E10150F85D0FE3010E04012F5F000E39
:10168600305B315B325BF8C375F4F9C376F4FAC3A9
:1016960077F4FBC378F412D004010B51020AD8B4D4
:1016A60048D70B51030AD8B45ED70B51040A81E020
:0E16B6000B51050A90E00B51060AC5E0120028
:1016C400A4C401F5A5C402F575EC00F000C0AFF4A4
:1016D400E7EC04F000C0AEF4E7EC04F000C0ADF4B5
:1016E400E7EC04F000C0ACF4000E0401AD1902E113
:1016F400000EAC1901E18BD0E7EC04F000C0B1F4AA
:10170400E7EC04F000C0B0F4B20E0401E46F040E80
:10171400E56FC90EE66F190EE76F040EE86F000E51
:10172400E96FA8EC04F0020E0501046F080E040131
:10173400A4250501056F000E0401A5210501066F0E
:101744002CEC00F00E0E0401A125CE6F000EA22198
:10175400CF6FA351CE27000ECF23080ECE27000E45
:10176400CF2371DC000E0401AF1902E1350EAE196E
:1017740002E14CDE4CD0000E0401AD1902E1440E2E
:10178400AC1902E1D6DE43D0B20E0401CE6F040ED2
:10179400CF6FAEC4D0F4AFC4D1F4ACC4D2F4ADC4F2
:1017A400D3F4080EB05DD46F000EB159D56F3D0E61
:1017B400D66F040ED76F27DE00C0B0F401C0B1F4B9
:1017C4000050011024E0A60EE46F040EE56FB50E80
:1017D400E66F190EE76F060EE86F000EE96FA8ECCE
:1017E40004F0A60EE46F040EE56FB20EE66F040E6D
:1017F400E76FACC4E8F4ADC4E9F4AEC4EAF4AFC432
:10180400EBF4B0C4ECF4B1C4EDF47CEC03F01200DE
:10181400A5C401F5A6C402F575EC00F000C0B5F44A
:10182400E7EC04F000C0B4F4E7EC04F000C0B3F457
:10183400E7EC04F000C0B2F40401BA6BBF6B010E14
:10184400C06FBD6BBE6B0C0EA5250501016F000EAC
:101854000401A6210501026F75EC00F000C0B8F484
:10186400000E0401B96FB833B89FB833B89F000EA7
:10187400B96FFC0EB817FF0EB917C90EE46F040E4A
:10188400E56FC90EE66F190EE76F040EE86F000EE0
:10189400E96FA8EC04F00D0EA5250501016F000EFB
:1018A4000401A6210501026F75EC00F03F0E00143F
:1018B4000401B66FB76B000EB717000EB76F0E0EAC
:1018C400295DBB6F000E2A59BC6FA351BB5FA451A5
:1018D400BC5BB851BB5FB951BC5B020EA5250501C9
:1018E400016F000E0401A6210501026F75EC00F0E2
:1018F40000C003F5A5C401F5A6C402F554EC00F03C
:10190400030E0401A5250501016F000E0401A621A3
:101914000501026F75EC00F000C000F594EC00F0D6
:10192400B4C4F2F4B5C4F3F419EC02F0040E0401E7
:10193400A5250501016F000E0401A6210501026F12
:1019440075EC00F000C0C4F4E7EC04F000C0C3F48C
:10195400E7EC04F000C0C2F4E7EC04F000C0C1F40A
:10196400E7EC04F000C0C8F4E7EC04F000C0C7F4EE
:10197400E7EC04F000C0C6F4E7EC04F000C0C5F4E2
:10198400000E0401B71902E1020EB6193EE1010E80
:10199400C125006E000EC221016E000EC321026E2D
:1019A400000EC421036E00C0C5F401C0C6F402C019
:1019B400C7F403C0C8F4120EB66F000EB76F0C0E56
:1019C4000501006FCAEC00F000C0C1F40D0E050162
:1019D400006FCAEC00F000C0C2F40501006BCAEC51
:1019E40000F000C0C3F4010E0501006FCAEC00F062
:1019F40000C0C4F40401BA2B180EB86F000EB96FFE
:101A0400BD6BBE6B0301F76B70D0000E0401B719F8
:101A140002E1180EB6192FE1C1C4A7F4C2C4A8F498
:101A2400C3C4A9F4C4C4AAF4C5C4C1F4C6C4C2F4EA
:101A3400C7C4C3F4C8C4C4F4BB51A725006EBC51C9
:101A4400A821016E000EA921026E000EAA21036EC8
:101A540000C0C5F401C0C6F402C0C7F403C0C8F492
:101A6400100EB66F000EB76FBA2B140EB86F000EBF
:101A7400B96FBF2B3AD0000EB71902E1110EB61997
:101A840034E1C1C4ABF4C2C4ACF4C3C4ADF4C4C443
:101A9400AEF4C5C4C1F4C6C4C2F4C7C4C3F4C8C454
:101AA400C4F4010EAB25006E000EAC21016E000ED5
:101AB400AD21026E000EAE21036E00C0C5F401C05C
:101AC400C6F402C0C7F403C0C8F4100EB66F000E0B
:101AD400B76FBA2B140EB86F000EB96FBD6BBE6B27
:101AE4000301EC5302E1F72BEC6B0401BA53D8B4B5
:101AF400E7D10401040EA525F26F000EA621F36FB1
:101B0400C4C4F4F4C3C4F5F4E1EC01F0C2C400F5B8
:101B140094EC00F0C1C400F594EC00F0C8C400F5E6
:101B240094EC00F0C7C400F594EC00F0C6C400F5D2
:101B340094EC00F0C5C400F594EC00F00C0E040124
:101B4400A5250501016F000E0401A6210501026F00
:101B540075EC00F00F0E00140501036FB8C400F01B
:101B64000036009000360090005003130C0E040160
:101B7400A5250501016F000E0401A6210501026FD0
:101B840054EC00F00D0E0401A5250501016F000EB3
:101B94000401A6210501026F75EC00F0C00E0014CB
:101BA4000501036F0401B651050103130D0E040171
:101BB400A5250501016F000E0401A6210501026F90
:101BC40054EC00F0000E0401B71902E1120EB6192C
:101BD40023E10E0EA525F26F000EA621F36F050E6C
:101BE400F46FEE0EF56FE1EC01F0140E0401A5257F
:101BF400F26F000EA621F36F020EF46F040EF56F60
:101C0400E1EC01F0050E0501006F94EC00F0780E94
:101C14000501006F94EC00F00401A351BD25BB6FD6
:101C2400A451BE21BC6FB851BB27B951BC23C053CA
:101C340004E061EC08F0E6EC09F0BF0EF26F190E57
:101C4400F36FBCC4F4F4BBC4F5F4E1EC01F0C70ECB
:101C54000401F26F190EF36FF46BF56BE1EC01F014
:101C6400BD0E0401F26F190EF36FA3C4F4F4A4C4FF
:101C7400F5F4B8EC01F0160E0501006FCAEC00F0A3
:101C840000C0CDF4170E0501006FCAEC00F000C0CF
:101C9400F4F4C70E0401F26F190EF36FCDC4F5F41A
:101CA400E1EC01F0BD0E0401BB25B06F190EBC219F
:101CB400B16F100EA525F26F000EA621F36FF46B21
:101CC400F56BE1EC01F0010E0401BB15AF6FB0C47C
:101CD40001F5B1C402F50501036B54EC00F0C90E23
:101CE4000401F26F190EF36FD10EF46F190EF56F34
:101CF400AF51B025F66F000EB121F76FF86BFFEC12
:101D040000F0080EB025F26F000EB121F36FAF5151
:101D1400F227000EF323F46B060EF56FE1EC01F0ED
:101D24000A0E0401B025F26F000EB121F36FAF511A
:101D3400F227000EF323BD51B825036EBE51B9211D
:101D4400046E04C000F0016A00C0F4F403C0F5F4AA
:101D5400E1EC01F0A5C4F2F4A6C4F3F40401BD510E
:101D6400B825F46FBE51B921F56F0C0EF427000E9F
:101D7400F523AF51F427000EF523B8EC01F0160E4D
:101D84000501006FCAEC00F000C0CDF4170E050188
:101D9400006FCAEC00F000C0F4F4100E0401A52595
:101DA400F26F000EA621F36FCDC4F5F4E1EC01F05F
:101DB4000E0E0401BB25F26F000EBC21F36F65EC1F
:101DC40002F0BF5353E0100EB66F000EB76FBF6B37
:101DD400C06B020E0501046F0401B851A52505016D
:101DE400056F0401B951A6210501066F2CEC00F022
:101DF4000E0E0401A125CE6F000EA221CF6FA351B8
:101E0400CE27A451CF23B851CE27B951CF2325ECE7
:101E140008F00301F72BC90E0401CE6F040ECF6F37
:101E2400B4C4D0F4B5C4D1F4B2C4D2F4B3C4D3F4BA
:101E34000E0E295DD46F000E2A59D56FA351D45FBD
:101E4400A451D55BB851D45FB951D55B3D0ED66F63
:101E5400040ED76FF2EC08F000C0BDF401C0BEF46C
:101E640004013DB102D00301F76B43D60301F753DC
:101E740027E00401BD51C125006EBE51C221016E8F
:101E8400000EC321026E000EC421036E00C0C1F413
:101E940001C0C2F402C0C3F403C0C4F4110EB66F8F
:101EA400000EB76F0301F76B0401C06B140EB86F1B
:101EB400000EB96FBD6BBE6B010E0301EC6F19D63A
:021EC40012000A
:101EC6001F0E0501016F010E026FE2EC00F01F0EFE
:101ED6000501016F020E026FADEC00F0140E040155
:101EE600CE6FA1C4CFF4C9EC08F0120E0501016F44
:101EF600010E026FADEC00F0E8EC08F0120E0501E1
:101F0600016F010E026FE2EC00F0180E0501006F82
:101F1600CAEC00F0A4C4E1FFA5C4E2FF00C0E6FFDE
:101F2600190E0501006FCAEC00F0A2C4E1FFA3C4BC
:081F3600E2FF00C0E6FF12000B
:101F3E001F0E0501016F010E026FE2EC00F01F0E85
:101F4E000501016F020E026FADEC00F0140E0401DC
:101F5E00CE6FA1C4CFF4C9EC08F0E8EC08F0160E71
:101F6E00CE6FA3C4CFF4C9EC08F0E8EC08F0170E5E
:101F7E00CE6FA2C4CFF4C9EC08F0E8EC08F0120062
:101F8E00C40E0501016F190E026F75EC00F000C052
:101F9E00A1F4E8D0D50E0401CE6F190ECF6F3E0E10
:101FAE00D06F040ED16F040ED26F80EC08F000508B
:101FBE00000A4BE1C40E0501016F190E026F020EED
:101FCE00036F54EC00F061EC08F0CB0EF26F190EBB
:101FDE00F36FCF0EF46F190EF56FD50EF66F190E57
:101FEE00F76FF86BFFEC00F0CB0EF26F190EF36F7C
:101FFE003E0EF46F040EF56F040EF66F000EF76FC3
:10200E0087EC01F0C50EF26F190EF36FCB0EF46F65
:10201E00190EF56FCF0EF66F190EF76FF86BFFEC0A
:10202E0000F0C50EF26F190EF36F370EF46F040E3B
:10203E00F56F060EF66F000EF76F87EC01F03C0E93
:10204E00F26F000EF36F65EC02F095D00401AF0E47
:10205E00CE6F190ECF6F370ED06F040ED16F060EE6
:10206E00D26F80EC08F00050000A7BE1CB0E040129
:10207E00CE6F190ECF6F46C4D0F447C4D1F4040E00
:10208E00D26F80EC08F00050000A6BE10F0E006E6C
:10209E00000E016E0AC404F0000E056E39EC08F055
:1020AE00480E00240401E46F040E0120E56F090EB2
:1020BE00E427000EE523C50EE66F190EE76F060E38
:1020CE00E86F000EE96FA8EC04F00F0E006E000E24
:1020DE00016E0AC404F0000E056E39EC08F0480ECD
:1020EE000024F26F040E0120F36F050EF227000E8E
:1020FE00F32346C4F4F447C4F5F4040EF66F000E51
:10210E00F76F3DEC02F00F0E006E000E016E0AC46A
:10211E0004F0000E056E39EC08F0480E0024E16E56
:10212E00040E0120E26E010EE66E0F0E006E000E22
:10213E00016E0AC404F0000E056E39EC08F0480E6C
:10214E000026040E0122010E0024E16E000E012075
:10215E00E26EF8C3E6FFF9C3E6FFFAC3E6FFFBC380
:10216E00E6FF09D00401A151010AD8B413D7A15139
:08217E00020AD8B46BD712006D
:102186000401CE6B955303E00D0E966F02D0050E3B
:10219600966F96C4CFF4C9EC08F0020E0401CE6F18
:1021A600955303E0310E976F02D0300E976F97C4A8
:1021B600CFF4C9EC08F00A0E0501046FEE0E056FA8
:1021C600050E066F2CEC00F0040E0401CE6F95533D
:1021D60003E0150E986F02D0120E986F98C4CFF4D4
:1021E600C9EC08F0060E0401CE6F120ECF6FC9ECD3
:1021F60008F00401955306E1070ECE6F0C0ECF6F63
:10220600C9EC08F00401955306E1090ECE6F3F0EA6
:10221600CF6FC9EC08F01F0E0501016F010E026FAA
:10222600ADEC00F01F0E0501016F020E026FADEC62
:1022360000F0040E0401CE6F37C4CFF4C9EC08F0E9
:10224600050E0401CE6F38C4CFF4C9EC08F0020EB7
:102256000401CE6F39C4CFF4C9EC08F0030E0401B3
:10226600CE6F3AC4CFF4C9EC08F00401CE6B3BC480
:10227600CFF4C9EC08F0010E0401CE6F3CC4CFF4D4
:10228600C9EC08F0150E0401CE6FCF6BC9EC08F04F
:10229600120E0501006FCAEC00F000C087F40401BD
:1022A600A16B9A0EA26F040EA36F9B0EA46F040E71
:1022B600A56F06DE0401A16BFE0E9A15A26F95535B
:1022C60003E0010E996F01D0996B9951A2139BC43B
:1022D600A3F432DE100EA16F010EA26FA36B2CDEEB
:1022E6001F0E0501016F040E026FADEC00F0E8EC65
:1022F60008F0480EDC6F040EDD6FDE6B2D0EDF6F0F
:10230600000EE06FBFEC06F01F0E0501016F010E17
:10231600026FE2EC00F01F0E0501016F020E026F64
:06232600E2EC00F01200E1
:10232C0004019E6B3D813D931F0E0501016F010E53
:10233C00026FE2EC00F01F0E0501016F020E026F3E
:10234C00E2EC00F00501046B0DC405F50EC406F5B6
:10235C002CEC00F082922DC4E1FF2EC4E2FF3A0E69
:10236C00E66E2BC400F02CC401F020EC00F02DC460
:10237C00E1FF2EC4E2FFE66A2BC400F02CC401F08E
:10238C0020EC00F000C00DF42DC4E1FF2EC4E2FFE0
:10239C00E66A2BC400F02CC401F020EC00F000C065
:1023AC000EF42DC4E1FF2EC4E2FFE66A2BC400F04C
:1023BC002CC401F020EC00F000C029F42DC4E1FF86
:1023CC002EC4E2FFE66A2BC400F02CC401F020EC12
:1023DC0000F000C02AF42DC4E1FF2EC4E2FFE66A2F
:1023EC002BC400F02CC401F020EC00F000C09CF4D5
:1023FC002DC4E1FF2EC4E2FFE66A2BC400F02CC40E
:10240C0001F020EC00F000C09DF48282040E040167
:10241C00295F000E2A5B0E51190802E10D51AD081F
:10242C000DE30DB10BD09DBF09D02A51050802E177
:10243C002951EE0803E39CAF01D003D0010E006ECE
:10244C00D4D10501006BCAEC00F000C09AF4010E67
:10245C000501006FCAEC00F000C09BF49AC4F2F4C2
:10246C009BC4F3F4040129519A25F46F2A519B2142
:10247C00F56FAF0EF66F190EF76F010EF86FFFECDC
:10248C0000F0BB0E0501016F190E026F75EC00F028
:10249C0000C09DF4E7EC04F000C09CF404019D51D5
:1024AC00080A02E1060E9C1911E1BD0ECE6F190E41
:1024BC00CF6FFC0ED06F030ED16F070ED26F80EC76
:1024CC0008F00050000A01E15CDD60D104019D516F
:1024DC00080A02E1000E9C19D8A455D1CD0ECE6F7E
:1024EC00190ECF6F8C0ED06F040ED16F040ED26FFD
:1024FC0080EC08F0005202E104013D830401CD0E92
:10250C00CE6F190ECF6F040ED06F040ED16F040E68
:10251C00D26F80EC08F0005202E104013D8304010B
:10252C00CD0ECE6F190ECF6F3E0ED06F040ED16F45
:10253C00040ED26F80EC08F0005206E004013DB3AB
:10254C0003D0020E9E6F1ED1BD0E0501016F190E38
:10255C00026F75EC00F0F00E0014016E0150400A91
:10256C0004E0030E04019E6F0DD1BD0E0501016F39
:10257C00190E026F75EC00F000C098F4000E040107
:10258C00996F0F0E9817000E9917983798919937E5
:10259C00983798919937C30E0501016F190E026F88
:1025AC0075EC00F0BF0E0014016E0150000AD8A4A7
:1025BC00E9D0C40E0501016F190E026F75EC00F025
:1025CC000050000AD8A4DED0BD0E04019825966FE9
:1025DC00190E9921976FC60E0501016F190E026F26
:1025EC0075EC00F000C095F40050010AD8A48BD013
:1025FC0096C401F597C402F575EC00F00050080A7A
:10260C00D8A480D0010E040196250501016F000E9F
:10261C00040197210501026F75EC00F00050000ACF
:10262C0071E196C401F597C402F50501036B54ECF6
:10263C0000F061EC08F0E6EC09F0C70EF26F190E31
:10264C00F36FF46BF56BE1EC01F0BD0E0401F26F6E
:10265C00190EF36F98C4F4F499C4F5F4B8EC01F0C6
:10266C00160E0501006FCAEC00F000C09FF4170EA7
:10267C000501006FCAEC00F000C0F4F4C70E0401B1
:10268C00F26F190EF36F9FC4F5F4E1EC01F0020E3A
:10269C0004019625F26F000E9721F36FF46BF56B26
:1026AC00E1EC01F096C4F2F497C4F3F404019851F0
:1026BC00295DF46F99512A59F56F0E0EF45F000ED7
:1026CC00F55BB8EC01F0160E0501006FCAEC00F0DA
:1026DC0000C09FF4170E0501006FCAEC00F000C09B
:1026EC00F4F4020E04019625F26F000E9721F36F9D
:1026FC009FC4F5F4E1EC01F029C4F2F42AC4F3F41C
:10270C0065EC02F03FD004019551110A0DE19AC419
:10271C00A1F49BC4A2F498C4A3F496C4A4F497C4E3
:10272C00A5F462EC0BF02ED004019551060A2AE1B7
:10273C00100E9A250501016F000E04019B21050165
:10274C00026F75EC00F000C0A0F404019F6BE7EC85
:10275C0004F0005004019F25296F000EA0212A6F60
:10276C000E0E2927000E2A239AC4A1F49BC4A2F4AE
:10277C0098C4A3F499C4A4F496C4A5F497C4A6F47D
:10278C000AEC0CF003D0040E04019E6F1E0E050122
:10279C00016F400E026FADEC00F0010E04010D5DF7
:1027AC00016E000E0E59026E0250190802E1015022
:1027BC00AD080AE20C0E0501046FAD0E056F190E83
:1027CC00066F2CEC00F00FD00C0E0501046F010EFF
:1027DC0004010D5D0501056F000E04010E59050184
:0C27EC00066F2CEC00F09EC400F0120000
:1027F800C69A1C0E04012B6F000E2C6F070E2D6F4E
:10280800050E2E6FFF0E836FFF0E846FFF0E856F10
:10281800FF0E866F949A94969488C66A400EC76E87
:04282800C68A12004A
:10282C000900F5CFE6FF0006FBE10106F9E1120015
:10283C009490828094928282E8EC08F08280E8EC9A
:10284C0008F08290E8EC08F08280E8EC08F08292C4
:10285C002DC4E1FF2EC4E2FFFF0EE66E2BC400F088
:10286C002CC401F020EC00F08282E8EC08F0370E6A
:10287C00F26F040EF36F90C4F4F491C4F5F4060EE9
:10288C00F66F000EF76F3DEC02F03E0EF26F040E89
:10289C00F36F92C4F4F493C4F5F4040EF66F000EC7
:1028AC00F76F3DEC02F01F0E0501016F010E026F78
:1028BC00E2EC00F01F0E0501016F020E026FE2EC5C
:1028CC0000F0080E0501046F056B066B2CEC00F094
:1028DC000A0E0501046FAD0E056F190E066F2CEC78
:1028EC0000F00C0E0501046FAD0E056F190E066F8E
:1028FC002CEC00F00501046B056B066B2CEC00F066
:10290C00040E0501046FAE0E056F190E066F2CEC4C
:10291C0000F01F0E0501016F010E026FE2EC00F0DA
:10292C001F0E0501016F020E026FADEC00F094C496
:06293C0095F423DC1200FB
:10294200000E0301E01902E1000EDF1903E1E76B5B
:10295200E86B17D00AD0050EE76F000EE86F11D0B2
:10296200010EE76F000EE86F0CD0000EE21902E1D3
:10297200000EE119F0E0000EE21902E1010EE11988
:04298200EFE0120070
:102986000401906B1F0E0501016F010E026FADEC85
:1029960000F01F0E0501016F020E026FE2EC00F05F
:1029A600190E0501006FCAEC00F00050000803E2A2
:1029B600BADC00C090F41F0E0501016F010E026F14
:1029C600E2EC00F01F0E0501016F020E026FE2EC51
:0829D60000F090C400F01200B3
:1029DE0049EC17F0380ED36E936A926A816A806A58
:1029EE000F013A6B3B6B956A836AFFDEF10E906FB7
:1029FE00030E916FED0E926F030E936F010E946F97
:102A0E0016DFBADF97DF010EE525006E000EE62118
:102A1E00016E00C0E5F301C0E6F3E651E41902E1F0
:102A2E00E351E5190DE1080EE719006EE8C301F058
:102A3E00000E011A00C0E7F301C0E8F3E56BE66B88
:082A4E00E7C381FFDED7FFD7CB
:102E920010EE15F0FA0E006E040E016E560EF66E6E
:0E2EA2002A0EF76E000EF86E16EC14F01200F9
:052A5600494E4352004F
:052A5B00444543520058
:052A600053544F50002B
:102A65003C68746D6C3E3C626F64793E3C666F7287
:102A75006D206E616D653D22696E70757422206DE5
:102A85006574686F643D22676574223E3C746162BB
:102A95006C6520616C69676E3D63656E7465722057
:102AA50077696474683D353030206267636F6C6F99
:102AB500723D236163666666666620626F72646551
:102AC500723D343E3C74723E3C746420616C6967AF
:102AD5006E3D63656E74657220636F6C7370616EB5
:102AE5003D323E3C666F6E742073697A653D3720D2
:102AF500636F6C6F723D426C61636B2066616365E9
:102B05003D2276657264616E61223E3C623E4D4FA8
:102B1500544F5220434F4E54524F4C3C2F623E3C33
:102B25002F666F6E743E3C2F74643E3C2F74723E6C
:102B35003C74723E3C746420616C69676E3D6365EC
:102B45006E746572206267636F6C6F723D2361639B
:102B550066666666662077696474683D2235302549
:102B6500223E3C696E707574206E616D653D225420
:102B75004C2220747970653D227375626D697422EB
:102B85002076616C75653D224C65667422207374F0
:102B9500796C653D2277696474683A203930253B44
:102BA500206261636B67726F756E643A20303B22F9
:102BB5003E3C2F74643E3C746420616C69676E3DD5
:102BC50063656E746572206267636F6C6F723D2317
:102BD500616366666666662077696474683D22355A
:102BE5003025223E3C696E707574206E616D653DC1
:102BF5002254522220747970653D227375626D6985
:102C050074222076616C75653D225269676874226D
:102C1500207374796C653D2277696474683A20394C
:102C250030253B206261636B67726F756E643A2075
:102C3500303B223E3C2F74643E3C2F74723E3C7404
:102C4500723E3C746420616C69676E3D63656E74A9
:102C55006572206267636F6C6F723D2361636666A0
:102C650066666620636F6C7370616E3D313E3C69CC
:102C75006E707574206E616D653D22494E4352221A
:102C850020747970653D227375626D6974222076B2
:102C9500616C75653D222B22207374796C653D222C
:102CA50077696474683A203930253B206261636B2B
:102CB50067726F756E643A20303B223E3C2F746418
:102CC5003E3C746420616C69676E3D63656E746536
:102CD50072206267636F6C6F723D2361636666661F
:102CE500666620636F6C7370616E3D313E3C696E44
:102CF500707574206E616D653D22444543522220F6
:102D0500747970653D227375626D697422207661F0
:102D15006C75653D222D22207374796C653D227793
:102D2500696474683A203930253B206261636B67BA
:102D3500726F756E643A20303B223E3C2F74643EC0
:102D45003C2F74723E3C74723E3C746420616C6925
:102D5500676E3D63656E746572206267636F6C6F45
:102D6500723D236163666666666620636F6C737089
:102D7500616E3D323E3C696E707574206E616D65A5
:102D85003D2253544F502220747970653D2273754E
:102D9500626D6974222076616C75653D2253746F8E
:102DA5007022207374796C653D2277696474683A82
:102DB500203930253B206261636B67726F756E64E5
:102DC5003A20303B223E3C2F74643E3C2F74723EC9
:102DD5003C2F7461626C653E3C2F666F726D3E3CA4
:102DE500736372697074207372633D22222061736C
:102DF500796E632064656665723E3C2F7363726904
:102E050070743E3C2F626F64793E3C2F68746D6C24
:022E15003E007D
:062E1700474554202F0086
:032E1D005452000C
:0A2E200000000000020000000000A6
:032E2A00544C0005
:012E2D0000A4
:042E2E000AD3370587
:062E32000014A576193F13
:012E38000099
:042E39000000000095
:082E3D0000010800060400007A
:062E4500FFFFFFFFFFFF8D
:012E4B000086
:012E4C000085
:012E4D000084
:022E4E00000082
:102E5000485454502F312E3120323030204F4B0AFD
:0E2E6000436F6E74656E742D747970653A0060
:0C2E6E0001010600122334450000800022
:0C2E7A00746578742F68746D6C0A0A008F
:062E860063825363350175
:052E8C003703010306FD
:020000040030CA
:0D000100231F3CFFBF81FF0FC00FE00F4029
:00000001FF
