:10000000DFEF1EF00000000000EF00F00000000035
:0A0010000000000000000000F3D71C
:10001C006FC16FFF6DB002D00000FCD76FCF00F046
:02002C001200C0
:10002E006FC1C9FFC7B002D00000FCD7C9CF00F026
:02003E001200AE
:10004000F250026EF29E0500FF6A0150FE6E0050F3
:08005000FD6E02BEF28E1200EB
:100058008292400E01016C11006E72C0E1FF73C004
:10006800E2FF00C0E6FF70C000F071C001F0E4DFFD
:1000780072C0E1FF73C0E2FF6DC1E6FF70C000F01F
:1000880071C001F0D9DF72C0E1FF73C0E2FF6EC139
:10009800E6FF70C000F071C001F0CEDF828212006E
:1000A8000B840BAE5FEF00F0010E036E026A016A6B
:0A00B800006A0A360232FF0E120041
:0800C2000AAE029E000E1200BE
:1000CA00829272C0E1FF73C0E2FF7A0EE66E70C0E0
:1000DA0000F071C001F0AFDF72C0E1FF73C0E2FF50
:1000EA0069C1E6FF70C000F071C001F0A4DF82822E
:0200FA001200F2
:1000FC0001016C6B69C16DF16AC16EF1A7DF82926F
:10010C0072C0E1FF73C0E2FF3A0EE66E70C000F001
:10011C0071C001F08FDF72C0E1FF73C0E2FFE66ACD
:0E012C0070C000F071C001F085DF8282120009
:10013A008292A00E01016911006E72C0E1FF73C0C4
:10014A00E2FF00C0E6FF70C000F071C001F073DF8B
:10015A0072C0E1FF73C0E2FF6AC1E6FF70C000F03F
:0A016A0071C001F068DF828212000C
:100174000B820BAEC4EF00F00368026801680068EC
:080184000A360232FF0E1200E0
:10018C00829272C0E1FF73C0E2FF69C1E6FF70C0EA
:10019C0000F071C001F04EDF72C0E1FF73C0E2FFEE
:1001AC00E66A70C000F071C001F044DF8282120078
:1001BC008292800E01016911006E72C0E1FF73C062
:1001CC00E2FF00C0E6FF70C000F071C001F032DF4A
:1001DC0072C0E1FF73C0E2FF6AC1E6FF70C000F0BD
:0A01EC0071C001F027DF82821200CB
:0E01F600026A016A006A086A036A000E1200BB
:10020400020E01016C6F69C16DF16AC16EF122DFEA
:10021400829272C0E1FF73C0E2FF7A0EE66E70C094
:1002240000F071C001F00ADF72C0E1FF73C0E2FFA9
:100234006BC1E6FF70C000F071C001F0FFDE828286
:020244001200A6
:10024600020E01016C6F5BC16DF15CC16EF101DFE5
:10025600829272C0E1FF73C0E2FF7A0EE66E70C052
:1002660000F071C001F0E9DE01015F51601117E095
:1002760072C0E1FF73C0E2FF5DC1E9FF5EC1EAFF44
:10028600EECFE6FF70C000F071C001F0D6DE0101CE
:100296005D4B5E2B010E5F5F000E605BE5D78282D1
:0202A600120044
:1002A800829272C0E1FF73C0E2FF7A0EE66E70C000
:1002B80000F071C001F0C0DE5DC100F05EC101F068
:1002C800010E01015D5F000E5E5B0050011013E03E
:1002D80072C0E1FF73C0E2FF5BC1E9FF5CC1EAFFE6
:1002E800EECFE6FF70C000F071C001F0A5DE01019D
:0A02F8005B4B5C2BE1D78282120001
:100302005DC104F05EC105F05BC102F05CC103F0A7
:100312005FC100F060C101F0010E01015F5F000EDC
:10032200605B005001100FE004C0E9FF05C0EAFF66
:1003320002C0E1FF03C0E2FFEECFE6FF024A032A5A
:10034200044A052AE5D75BC100F05CC101F0120046
:10035200AE0E0101696F190E6A6F6B6B52DFAE0E42
:1003620001015B25006E190E5C21016E00C05BF17C
:1003720001C05CF1060E6C6F00C06DF101C06EF140
:100382006ADE1F0E0101696F800E6A6F16DF1F0E93
:100392000101696F800E6A6FCFDE5250050A04E0D8
:1003A2005250070A01E006D01C0E0101696F0A0EC5
:1003B2006A6FC2DE1F0E0101696F080E6A6FFDDEF1
:1003C2005250050A04E05250070A01E080D00101B0
:1003D200606B616B1C0E696FD8DE0A0E001600524C
:1003E2000AE10101604B612B030E615D02E1E80E3F
:1003F200605D01E2EFD701011C0E696FC6DE00B23B
:1004020008D0030E0101615D02E1E80E605D01E2C8
:100412005DD001011F0E696F080E6A6F8DDE040E3A
:1004220001015B25696F000E5C216A6F66DE00C008
:100432005FF101015D6B100E5D5D48E21C0E696F9C
:10044200A4DE00A23FD001015FAB3CD01F0E696F5A
:10045200800E6A6FB2DE1F0E0101696F800E6A6F35
:100462006BDE1C0E0101696F0A0E6A6F65DE1F0EDC
:100472000101696F080E6A6FA0DE0101606B616B9A
:100482001C0E696F82DE0A0E001600520AE101019B
:10049200604B612B030E615D02E1E80E605D01E2DB
:1004A200EFD701011F0E696F080E6A6F45DE040E59
:1004B20001015B25696F000E5C216A6F1EDE00C0C0
:1004C2005FF101D003D001015D2BB5D707D0010147
:1004D2001F0E696F5ADE00A601D0F9D71D0E010169
:1004E200696F53DE060E0016005203E001015E6BD7
:0E04F20003D00101010E5E6F5EC100F012002A
:1005000001015D515B255F6F5E515C21606F010EE3
:100510005F5F000E605B100E6C6F5BC16DF15CC1C4
:100520006EF19ADD120E01016C6F5FC16DF160C159
:100530006EF192DD1F0E0101696F300E6A6F3EDEB3
:100540001F0E0101696F22DE00AA01D0F9D7120047
:100550005BC169F15CC16AF15DC16BF153DE5EC1E3
:0605600069F1B3DD120099
:100566000101686B010E5D5F000E5E5B61530DE07D
:100576005E51190802E15D51AD0807E2682BAD0E28
:100586005D5D666F190E5E59676F685305E0AD0EC7
:10059600626F190E636F04D05DC162F15EC163F1D3
:1005A6005C51631902E162515B190DE15BC169F1AE
:1005B6005CC16AF1A0DD00C06BF15FC169F160C189
:1005C6006AF11DDE36D0100E01016C6F5BC16DF154
:1005D6005CC16EF13EDD120E01016C6F685305E0E1
:1005E600AD0E646F190E656F04D05DC164F15EC116
:1005F60065F164C16DF165C16EF12BDD140E01016B
:100606006C6F5FC16DF160C16EF123DD1F0E0101DC
:10061600696F100E6A6F8EDD1F0E0101696F200E65
:100626006A6FC9DD1F0E0101696FADDD00AA01D039
:10063600F9D7010168531AE05B515D5D006E5C51AC
:100646005E59016E6651005E6751015A004A012AE1
:1006560000505F2701506023010E665D5D6F000E3E
:0E06660067595E6F5B6B5C6B686B8FD7120021
:10067400829272C0E1FF73C0E2FF7A0EE66E70C030
:1006840000F071C001F0DADC72C0E1FF73C0E2FF78
:100694005CC1E6FF70C000F071C001F0CFDC72C035
:1006A400E1FF73C0E2FF5BC1E6FF70C000F071C000
:0806B40001F0C4DC8282120097
:1006BC00040E016E5BC100F0015004E000360090A6
:1006CC00FF0FFBD7300E00160C0E0010BD6E5BC179
:1006DC0000F05CC101F001320032019E01320032A7
:0806EC00019E00C0BEFF1200D8
:1006F4000CB0BCEF03F00CA263EF04F00E6A000E22
:100704000264D3EF03F0F00E0214D8A49EEF03F0BA
:10071400023A01380F0B02260138F00B016E003843
:100724000F0B01260038F00B006E08380F0B002663
:100734000838F00B086E0E84D89002BEB7EF03F0B1
:1007440008360036013602360E2A02BEB7EF03F031
:1007540008360036013602360E2A02BEB7EF03F021
:1007640008360036013602360E2A0E50036458EF5E
:1007740004F0035E0BBC08AE5EEF04F0D880800E7C
:1007840008640030000E002201220222D8A05EEF8D
:1007940004F0023201320032034A63EF04F05EEFE8
:1007A40004F001C002F000C001F008C000F0086AC3
:1007B400000E0E8602640AEF04F0F00E0214D8A4B0
:1007C400F2EF03F0023A01380F0B02260138F00B66
:1007D400016E00380F0B01260038F00B006E0E84FA
:1007E400D89002BEB7EF03F00036013602360E2A67
:1007F40002BEB7EF03F00036013602360E2A02BEFF
:10080400B7EF03F00036013602360E2AB7EF03F0D5
:1008140001C002F000C001F0006A000E0E960E88BE
:10082400026437EF04F0F00E0214D8A422EF04F0AF
:10083400023A01380F0B02260138F00B016E0E84C8
:10084400D89002BEB7EF03F0013602360E2A02BE7C
:10085400B7EF03F0013602360E2A02BEB7EF03F0FB
:10086400013602360E2AB7EF03F001C002F0016A26
:10087400000E0E86026468EF04F0F00E0214D8A491
:1008840046EF04F0023A0E84D89002BEB7EF03F0AC
:1008940002360E2A02BEB7EF03F002360E2A02BE5B
:1008A400B7EF03F002360E2AB7EF03F0010E0C6E19
:1008B40054EC00F06BEF04F0020E0C6E00DC6BEFF6
:1008C40004F0040E0C6E54DC6BEF04F0080E0C6E96
:0408D40090DC1200A2
:1008D8002DD0BD6A080E836E080EB96E0C0EBD6E63
:1008E800A20E796E47D0040E836EA10E796E42D0A7
:1008F800BD6A040E836E040EB96E0C0EBD6EA00E9A
:10090800796E38D0100E836EA20E796E33D0BD6A20
:10091800100E836E020EB96E0C0EBD6EA10E796EAE
:1009280029D0080E836EA00E796E24D0000E3918D7
:1009380002E1000E3818CDE0000E391802E1010E70
:100948003818D1E0000E391802E1020E3818D0E04C
:10095800000E391802E1030E3818D4E0000E3918D9
:1009680002E1040E3818D3E0000E391802E1050E32
:100978003818D7E0384A392A000E395C02E1060EE9
:0A098800385C02E3386A396A120095
:100992000B800BAED5EF04F0026A0AAEFF0E026EB8
:0C09A200016E006E0A360232FF0E1200D9
:1009AE0001014D6B4E6B3C503D10D8A44D81010E94
:1009BE004D6F000E4E6F000E491802E1010E4818E1
:1009CE00D8B44D8307D04D8511D00B0E4D17000EA8
:1009DE004E170CD0000E3F1802E1000E3E18F3E049
:1009EE00000E3F1802E1010E3E18EFE04DC14CF033
:0609FE004EC14DF0120095
:100A04000B6A0A6A096A00500402F4CF09F0F3CFB2
:100A140008F001500502F4CF0BF0F3CF0AF00050B8
:100A24000502F3500926F4500A22E86A0B22015009
:100A34000402F3500926F4500A22E86A0B2208C083
:100A440000F009C001F00AC002F00BC003F012006C
:080A54000B6A0B86FF0E120075
:100A5C00AF0E01015B6F190E5C6F4DC15DF14EC1A4
:100A6C005EF1060E5F6F000E606F23EC01F06A0EF4
:100A7C005B6F000E5C6F060E5D6F000E5E6F0EDC22
:100A8C00000E5B6F080E5C6FEFDD1C0E010155252F
:100A9C00586F000E5621596F000E5B6F450E5C6F40
:100AAC00E3DD58C15BF159C15CF1DEDDAFC05BF138
:100ABC00B0C05CF1D9DD0001AF4BB02B01015B6B19
:100ACC005C6BD2DD110E01015B6F800E5C6FCCDDB7
:100ADC0001015B6B5C6BC8DD780E01015B6F000E76
:100AEC005C6F040E5D6F000E5E6F54EC01F04FC135
:100AFC005BF150C15CF1040E5D6F000E5E6F54EC47
:100B0C0001F0080E5525586F000E5621596F51C132
:100B1C005BF152C15CF1A8DD53C15BF154C15CF1D6
:100B2C00A3DD58C15BF159C15CF19EDD01015B6B2A
:100B3C005C6B9ADDBD0E01015B6F190E5C6F140EC0
:100B4C005D6F000E5E6FD6DC160E0101696FC6EC90
:100B5C0000F000C05AF1170E0101696FC6EC00F0ED
:100B6C0000C05DF1C70E01015B6F190E5C6F5AC1BD
:100B7C005EF1E8DC010E01015815576FD90E5525B1
:100B8C00696F190E56216A6F6B6B02EC01F0C90E7E
:100B9C0001015B6F190E5C6FD10E5D6F190E5E6FEC
:100BAC00D90E55255F6F190E5621606F57515F276F
:100BBC00000E6023616BD1DCD90E55255B6F190ECD
:100BCC0056215C6F57515B27000E5C23080E5B2788
:100BDC00000E5C235D6B110E5E6FB4DC59C169F1C4
:100BEC0065EC00F058C169F165EC00F0D10E010123
:100BFC005B6F190E5C6F0C0E58255D6F000E592142
:100C0C005E6F57515D27000E5E2374DC160E0101DA
:100C1C00696FC6EC00F000C05AF1170E0101696F44
:100C2C00C6EC00F000C05DF1D70E01015B6F190E30
:100C3C005C6F5AC15EF186DC2A0E010155255B6F93
:0C0C4C00000E56215C6FA9EC01F01200B4
:100C5800829272C0E1FF73C0E2FF3A0EE66E70C086
:100C680000F071C001F020EC00F072C0E1FF73C029
:100C7800E2FFE66A70C000F071C001F020EC00F0FD
:040C88008282120052
:100C8C00025006180E6E086A096A0B6A0350076454
:100C9C0039EF07F006500A6E068E028E03500B6E6B
:100CAC000750036E000E0B6489EF06F00B50075EC5
:100CBC00D8B42AEF07F0070E0764F8EF06F0075ECA
:100CCC0000C008F001C000F002C001F0026A074E3B
:100CDC002AEF07F00764CDEF06F0075E00C008F0BE
:100CEC0001C000F0016A074E2AEF07F00764ABEF72
:100CFC0006F0075E00C008F0006A074E2AEF07F006
:100D0C00076492EF06F00AC002F005C001F004C0BF
:100D1C0000F0086A56EF08F0030E07649DEF06F02A
:100D2C00075E08380F0B086E074E2AEF07F0D890B5
:100D3C000832074E2AEF07F0D8900832074E2AEFF8
:100D4C0007F0D89008322AEF07F0030E0764BCEFC7
:100D5C0006F0075E08380F0B086E0038F00B0826FB
:100D6C0000380F0B006E074E2AEF07F0D8900032B8
:100D7C000832074E2AEF07F0D89000320832074E9F
:100D8C002AEF07F0D890003208322AEF07F0030E52
:100D9C000764E4EF06F0075E08380F0B086E0038A6
:100DAC00F00B082600380F0B006E0138F00B0026F4
:100DBC0001380F0B016E074E2AEF07F0D890013265
:100DCC0000320832074E2AEF07F0D8900132003279
:100DDC000832074E2AEF07F0D89001320032083261
:100DEC002AEF07F0030E076415EF07F0075E0838CB
:100DFC000F0B086E0038F00B082600380F0B006E36
:100E0C000138F00B002601380F0B016E0238F00B85
:100E1C00012602380F0B026E074E2AEF07F0D8900E
:100E2C000232013200320832074E2AEF07F0D89016
:100E3C000232013200320832074E2AEF07F0D89006
:100E4C000232013200320832096A000E0EAE1EEF79
:100E5C0008F0081E001E011E021E082A0022012294
:100E6C0002221EEF08F00750D8A43FEF07F056EF10
:100E7C0008F0096A02C00AF0028E068E0750035C65
:100E8C00076ED8B411EF08F0070E0764DFEF07F018
:100E9C00075E0450096E0550046E0650056E066A16
:100EAC00074E11EF08F0070E0764B4EF07F0075E6A
:100EBC000450096E0550046E056A074E11EF08F0D8
:100ECC00070E076492EF07F0075E0450096E046A80
:100EDC00074E11EF08F0070E076479EF07F00AC010
:100EEC0002F056EF08F0030E076484EF07F0075E7C
:100EFC0009380F0B096E074E11EF08F0D890093224
:100F0C00074E11EF08F0D8900932074E11EF08F098
:100F1C00D890093211EF08F0030E0764A3EF07F025
:100F2C00075E09380F0B096E0438F00B09260438DC
:100F3C000F0B046E074E11EF08F0D89004320932F3
:100F4C00074E11EF08F0D89004320932074E11EF1A
:100F5C0008F0D8900432093211EF08F0030E076440
:100F6C00CBEF07F0075E09380F0B096E0438F00B56
:100F7C00092604380F0B046E0538F00B04260538CF
:100F8C000F0B056E074E11EF08F0D89005320432A6
:100F9C000932074E11EF08F0D890053204320932AD
:100FAC00074E11EF08F0D89005320432093211EFD8
:100FBC0008F0030E0764FCEF07F0075E09380F0B0F
:100FCC00096E0438F00B092604380F0B046E053833
:100FDC00F00B042605380F0B056E0638F00B0526B2
:100FEC0006380F0B066E074E11EF08F0D89006323C
:100FFC00053204320932074E11EF08F0D890063250
:10100C00053204320932074E11EF08F0D89006323F
:10101C00053204320932086A000E0EAE1EEF08F0DB
:10102C00091E041E051E061E092A0422052206227C
:10103C0009500826045000220550012206500222B5
:10104C000EBE35EF08F0D8A044EF08F002320132A2
:10105C0000320832033E44EF08F050EF08F0D8B0ED
:10106C004AEF08F0000E081E001E011E021E082A80
:10107C000022012202220A7E4AEF08F0010E0C6EB9
:10108C007AEC03F058EF08F0020E0C6E7AEC03F0D9
:10109C0058EF08F0040E0C6EBAEC00F058EF08F0A4
:0610AC00000E0C6E1200A4
:1010B2003A6A3B6A3C6A3D6A3E6A3F6A406A416AF2
:1010C200426A436A446A456A466A476A486A496AA2
:0A10D2004A6A4B6A4C6A4D6A12002C
:1010DC004DC15BF14EC15CF1780E01015D6F000EEC
:1010EC005E6F040E5F6F000E606F81EC01F04F6B52
:1010FC004F51030821E34F514D25026E000E4E2136
:10110C00036E02C0E9FF03C0EAFFEECF01F0BD0E93
:10111C00E96E000EEA6E4F51E926D8B0EA2AFF0EAE
:10112C00EE18006E0150001202C0E1FF03C0E2FF96
:0A113C0000C0E6FF4F2BDCD71200C5
:1011460001015051FF0A02E1FF0E4F1907E06C6BD7
:101156004FC16DF150C16EF12CEC00F0829272C05D
:10116600E1FF73C0E2FF3A0EE66E70C000F071C098
:1011760001F020EC00F051C100F052C101F0010E67
:101186000101515F000E525B0050011015E072C064
:10119600E1FF73C0E2FFE66A70C000F071C001F0C3
:1011A60020EC00F04DC1E1FF4EC1E2FF00C0E6FFBA
:0C11B60001014D4B4E2BDFD7828212004E
:1011C200100E0F01386F956A836AD00EC26EC09EF0
:1011D200C00EF26EA19C0C0EBD6EBE6A9E92040EF3
:1011E200BA6EFF0EBB6E40C05BF141C05CF15EECBB
:0411F20003F01200F4
:1011F6000134083609360450085E0550D8A0053C6F
:10120600095E003601360F0E0C6E013408360936BB
:10121600045000A006D0085E0550D8A0053C095E23
:1012260005D008260550D8B0053C092600360136FB
:101236000C2EEBD700B006D0045008260550D8B0C7
:08124600053C0926000012001E
:10124E0051C101F052C102F0010E0101515F000EB9
:10125E00525B000E021802E1000E01181FE04DC194
:10126E00E9FF4EC1EAFF4FC1D9FF50C1DAFFEE5080
:10127E00DE180FE04DC1E9FF4EC1EAFF4FC1D9FFA5
:10128E0050C1DAFFDE50EE5C006E016A000E015AAC
:10129E0007D04D4B4E2B4F4B502BD2D7006A016AC5
:0212AE0012002C
:1012B00001014D51390806E3300E4D5D03E3010E87
:0812C000006E01D0006A12006B
:1012C800829272C0E1FF73C0E2FF7A0EE66E70C0D0
:1012D80000F071C001F020EC00F050C100F051C1E5
:1012E80001F0010E0101505F000E515B005001102A
:1012F8001CE072C0E1FF73C0E2FF4DC1F6FF4EC1B2
:10130800F7FF4FC1F8FF0900F5CF00F000C0E6FF76
:1013180070C000F071C001F020EC00F0010E010176
:0E1328004D27000E4E234F23D8D7828212008D
:10133600880E0001626F130E636F62C064F063C0B3
:1013460065F064C000F065C001F0010E645F000E38
:10135600655B0050011001E0F4D76CEC04F0320E2E
:0C1366000001625F000E635BE8D712001C
:101372000C6A0E6A0250D8A4D2EF09F001C002F042
:1013820000C001F0006A0E860250D8A4D2EF09F024
:1013920001C002F0016A0E960E880250D8B4E4EF42
:1013A20009F00E50035ED8A4D8A0EAEF09F0D89055
:1013B20002BEF0EF09F0003601360236032ED9EFF5
:1013C20009F0EAEF09F0010E0C6EFBEC00F0F4EF0D
:1013D20009F0020E0C6E54EC00F0F4EF09F0040E6A
:0813E2000C6E61EC00F012003A
:1013EA003C503D10D8B467D0000E3B1802E1000E05
:1013FA003A1858E1D7EC04F0010E4224006E000EB0
:10140A004320016E00C042F001C043F0800E431831
:10141A00006E800E4118005C02E14050425C17E306
:10142A00080E4C18006E4DC001F0000E011A00C0E3
:10143A004CF001C04DF0426A436A010E4A24006E24
:10144A00000E4B20016E00C04AF001C04BF04CC0A8
:10145A0081FF000E491802E1000E481815E14B50B1
:10146A00451802E144504A180FE1000E471802E1FC
:10147A00000E461802E118DEB3D7010E486E000EC0
:10148A00496E4A6A4B6A0DD0000E491802E1010EF4
:10149A00481807E14B50471802E146504A1801E143
:1014AA0003DE08D0000E3B1802E1010E3A1802E1F1
:0814BA0083DE3CDF95D7120030
:1014C20045C1E9FF46C1EAFFEECF47F1000E010137
:1014D200486F000E486F000E481902E1200E4719AE
:1014E20007E0000E481902E1090E471901E003D096
:1014F200454B462BE5D7496B4A6B4B6B4C6B000E49
:10150200481902E12D0E471905E14B4B4C2B454B77
:10151200462B08D0000E481902E12B0E471902E1B2
:10152200454B462B45C1E9FF46C1EAFFEECF47F1E5
:10153200000E486F000E486F47C14DF1B8DE0052F1
:1015420019E049C100F04AC101F00A0E046E000E12
:10155200056E02EC05F0300E475D026E000E485932
:10156200036E02500024496F035001204A6F454B1D
:10157200462BD8D74B514C1108E049510008006E58
:101582004AC101F0000E015604D049C100F04AC11F
:0415920001F0120052
:101596000101496B4A6B829272C0E1FF73C0E2FFA0
:1015A6007A0EE66E70C000F071C001F020EC00F01B
:1015B60045C100F046C101F047C102F0010E01012C
:1015C6004527000E4623472300C0F6FF01C0F7FF5C
:1015D60002C0F8FF0900F5CF00F000C048F1005244
:1015E60010E072C0E1FF73C0E2FF48C1E6FF70C0C1
:1015F60000F071C001F020EC00F00101494B4A2BCC
:0E160600D7D7828249C100F04AC101F012001C
:1016140045C102F046C103F048C100F049C101F0E0
:10162400010E0101485F000E495B0050011009E002
:1016340002C0E1FF03C0E2FF47C1E6FF024A032AFA
:0C164400EBD745C100F046C101F01200D8
:10165000020E0C6E490E0D6E0D2EFED70C2EFCD711
:0616600000000000120072
:101666000450000A08E10550000A05E1FF0E006E6D
:101676007F0E016E57D00D6A096A086A0150001084
:10168600D8B4000C015005180A6E0ABE0D1E0B6A6E
:1016960005AE05D0041E051E042AD8B4052A01AEDF
:1016A60005D0001E011E002AD8B4012A01500510DB
:1016B6000A6E0ABE10D09CDD0BB020D00DAE000C19
:1016C600001E011E002AD8B4012A081E091E082A77
:1016D600D8B4092A000C05AE0DD001BE07D00150C2
:1016E600096E0050086E016A006AE8D7016A006A4E
:1016F600002A000C011E001E0B2ADDD7082AD8B4CA
:10170600092A0450085CD8A4D9D70550095CD8A486
:10171600D5D7096A086A002AD8B4012A01AECED7FD
:061726000000FF0C1200A0
:10172C00F90E0101486F000E496F020E6C6FD90E55
:10173C006D6F190E6E6F2CEC00F0180E01014D6FD1
:10174C003F0E4E6F000E4F6F0C0E506F000E516F10
:10175C00B5DD4551030A0DE146530BE0660E5B6F98
:10176C00000E5C6F040E5D6F000E5E6F54EC01F0AA
:10177C000AD0476B040E475D06E2696B65EC00F01E
:10178C000101472BF7D7476B0C0E475D06E2696BDF
:10179C0065EC00F00101472BF7D76A0E5B6F000E6A
:1017AC005C6F060E5D6F000E5E6F54EC01F0476BC4
:1017BC00CA0E475D06E2696B65EC00F00101472B30
:1017CC00F7D7240E4D6F3F0E4E6F000E4F6F060E67
:1017DC00506F000E516F72DD45C169F165EC00F080
:1017EC0001014551030A1AE1465318E1360E696F9F
:1017FC0065EC00F0040E0101696F65EC00F04E0E13
:10180C0001015B6F000E5C6F040E5D6F000E5E6F6E
:10181C0054EC01F0060E4827000E49232A0E4D6F9A
:10182C003F0E4E6F000E4F6F050E506F000E516F36
:10183C0045DD4551030A23E1465321E1320E696F20
:10184C0065EC00F0040E0101696F65EC00F001011C
:10185C00476B040E475D0FE2660EE96E000EEA6EF2
:10186C004751E926D8B0EA2AEECF69F165EC00F0D1
:10187C000101472BEED7060E4827000E4923FF0E19
:10188C00696F65EC00F0310E01014D6F000E4E6F6B
:10189C00310E4F6F000E506F440E516F000E526F91
:1018AC00430E536F000E546F48C155F149C156F1A8
:0618BC002EEC05F0120005
:1018C2000B6A0350D8B4A7EF0CF002500A6E028ED6
:1018D2008E0E035E03AEABEF0CF0036C080E035CDE
:1018E200D8A086EF0CF0036E013602C001F0026A46
:1018F200080E035CD8A086EF0CF0036E0136016A75
:101902000350D8A4D89090EF0CF00350D8B490EFC5
:101912000CF0D89002320132032E8AEF0CF00BBC8D
:1019220001A09DEF0CF0D8A09DEF0CF0012AD8B4D5
:10193200022A02BEBAEF0CF00AAEC0EF0CF0021E91
:10194200011E012AD8B4022AC0EF0CF0026A016A11
:10195200C0EF0CF00B800BAEC4EF0CF0026A0AAEC3
:10196200C4EF0CF0FF0E026E016E0A360232C4EFB3
:101972000CF0010E0C6EC9EC04F0C6EF0CF0000E78
:101982000C6EC6EF0CF0FF0E0C6E0150006E025092
:04199200016E1200D0
:1019960045C1E9FF46C1EAFFEE500101471905E1DD
:1019A60045C100F046C101F010D045C100F046C166
:1019B60001F0454B462B00C0E9FF01C0EAFFEECF20
:0C19C60000F00052E5E1006A016A120026
:1019D2000450000A12E10550000A0FE10650000A05
:1019E2000CE10750000A09E1FF0E006EFF0E016EC6
:1019F2007F0E026EFF0E036EA8D0086A096A0750B6
:101A0200D8B494EF0DF00350D8B499EF0DF0025012
:101A120006180A6E028E068E0E6A02C008F001C017
:101A22000CF000C00DF004500D5E0550D8A0053C2E
:101A32000C5E0650D8A0063C085E086A0C6A0D6A65
:101A4200D8A02BEF0DF0D8900232013200320832CA
:101A5200010E0E6E0750035ED8A038EF0DF07E0E19
:101A62000E240326D8B09EEF0DF03EEF0DF07E0E51
:101A72000E240326D8A0A3EF0DF0180E0B6E0D3620
:101A82000C3608360036013602360E360450005E39
:101A92000550D8A0053C015E0650D8A0063C025E67
:101AA20006340E120EA059EF0DF00D8064EF0DF00A
:101AB200045000260550D8B0053C01260650D8B087
:101AC200062802260D900B2E40EF0DF08AEF0DF046
:101AD200D8900036013602360E360450005E0550AC
:101AE200D8A0053C015E0650D8A0063C025E063432
:101AF2000E10010B0D26D8B00C2AD8B4082AD8A48F
:101B02008AEF0DF008320C320D32032AD8B49EEF60
:101B12000DF00AAE089E0850026E0C50016E0D5078
:101B2200006EA6EF0DF0010E2AEC05F0A6EF0DF007
:101B3200020EFBEC00F0A6EF0DF0040EBAEC00F082
:0C1B4200A6EF0DF0080E54EC00F01200AD
:101B4E0000C008F00150006E016A026A036A0B6A57
:101B5E000C6A016A026A036A960E036E0A6A00AE86
:101B6E00BFEF0DF0081E001E082AD8B4002A0A8EF8
:101B7E0000C001F008C000F0086A026AB9EC09F072
:021B8E00120043
:101B9000BD0E01015B6F000E5C6F45C15DF146C17A
:101BA0005EF1040E5F6F000E606F81EC01F0C10EFC
:101BB0005B6F000E5C6F47C15DF148C15EF1040EC2
:101BC0005F6F000E606F81EC01F0B50E5B6F000E71
:101BD0005C6F49C15DF14AC15EF1040E5F6F000E9A
:101BE000606F81EC01F0B90E4D6F000E4E6F6EEC20
:041BF00008F01200E7
:081BF400067E46EC06F012002B
:101BFC000101476B3C0E0001746F000E756F766F20
:101C0C00776F2CEC06F000C045F10050020AD8A406
:101C1C002FD10101466B0F0E465D05E22CEC06F050
:101C2C000101462BF8D7660E4D6F000E4E6FFF0E5E
:101C3C004F6FFF0E506F040E516F000E526FA3ECDE
:101C4C0008F0466B080E465D05E22CEC06F001012F
:101C5C00462BF8D7466B060E465D13E22CEC06F0CD
:101C6C0000C045F16A0ED96E000EDA6E01014651C4
:101C7C00D926D8B0DA2A0050DE1801E025D1462B3F
:101C8C00EAD7466BCE0E465D05E22CEC06F0010160
:101C9C00462BF8D7486B2CEC06F000C045F1C9D0A8
:101CAC002CEC06F000C045F10050010A05E12CECCB
:101CBC0006F000C047F101D007D1D6D02CEC06F0CD
:101CCC0000C045F10050040A10E15E0E01014D6F99
:101CDC00000E4E6FFF0E4F6FFF0E506F040E516FC4
:101CEC00000E526FA3EC08F001D0EED0BDD02CEC5E
:101CFC0006F000C045F1040E005C10E3530E010128
:101D0C004D6F000E4E6FFF0E4F6FFF0E506F040E97
:101D1C00516F000E526FA3EC08F001D0D5D0010129
:101D2C00040E455F010145C100F04507005203E078
:101D3C002CEC06F0F7D798D02CEC06F000C045F14F
:101D4C00040E005C10E3570E01014D6F000E4E6F38
:101D5C00FF0E4F6FFF0E506F040E516F000E526F3F
:101D6C00A3EC08F001D0B0D00101040E455F0101D5
:101D7C0045C100F04507005203E02CEC06F0F7D704
:101D8C0073D02CEC06F000C045F10050040A10E1B1
:101D9C00490E01014D6F010E4E6FFF0E4F6FFF0E7E
:101DAC00506F040E516F000E526FA3EC08F001D06F
:101DBC008BD05AD00101010E486F56D02CEC06F096
:101DCC0000C045F10050040A24E1740E01014D6F6E
:101DDC00000E4E6FFF0E4F6FFF0E506F040E516FC3
:101DEC00000E526FA3EC08F000017751000808E1D7
:101DFC007651000805E17551070802E17451080895
:101E0C0007E2080E745F070E755B000E765B775B5E
:101E1C0001D05AD029D02CEC06F000C045F145C1B8
:101E2C0000F001014507005203E02CEC06F0F7D757
:101E3C001BD001014551350AD8B432D74551010A9E
:101E4C00D8B43CD74551030AD8B451D74551060AEA
:101E5C00D8B472D74551360A94E04551FF0AAAE02E
:101E6C004551330AABE0D7D701014853D8B413D747
:101E7C0001014751020A0FE14E0E5B6F000E5C6FC1
:101E8C00490E5D6F010E5E6F040E5F6F000E606F8A
:101E9C0081EC01F016D04E0E4D6F000E4E6F490EB8
:101EAC004F6F010E506F040E516F000E526F27ECE6
:101EBC0009F0000E011802E1000E001802E0010109
:0C1ECC00476B47C100F001D0006A120013
:101ED8000A6A0350D8A40A800750D8A40A820A5074
:101EE800D8B4CFEF0FF0030AD8B488EF0FF00AB0D8
:101EF80083EF0FF006AECDEF0FF0CBEF0FF002AE91
:101F0800CBEF0FF0CDEF0FF00250800B0A6E029E60
:101F18000650800B069E0A18D8B499EF0FF00A50A5
:101F2800D8B4CBEF0FF0CDEF0FF00750035CD8B467
:101F3800A3EF0FF0D8A0BFEF0FF0C5EF0FF00650DA
:101F4800025CD8B4ADEF0FF0D8A0BFEF0FF0C5EF2B
:101F58000FF00550015CD8B4B7EF0FF0D8A0BFEF71
:101F68000FF0C5EF0FF00450005CD8B4CFEF0FF0BE
:101F7800D8B0C5EF0FF00A52D8B4CDEF0FF0CBEFC1
:101F88000FF00A52D8B4CBEF0FF0CDEF0FF0D88096
:0E1F98001200D8901200D880D88412001200D7
:101FA600B50E01015B6F190E5C6FBB0E5D6F190EEE
:101FB6005E6FAF0E5F6F190E606F616BB3EC02F070
:101FC600B50E5B6F190E5C6F6A0E5D6F000E5E6F6D
:0E1FD600060E5F6F000E606F23EC01F012002C
:101FE40001011C51190802E11B51AD0804E2AE0EB7
:101FF4001B5F190E1C5B6C6B1BC16DF11CC16EF178
:062004002CEC00F01200BC
:10200A000101696BC6EC00F000C020F1010E01016C
:10201A00696FC6EC00F000C021F101016C6B1BC1B5
:10202A006DF11CC16EF12CEC00F0829272C0E1FFDE
:10203A0073C0E2FF3A0EE66E70C000F071C001F0A4
:10204A0020EC00F001011F5318E072C0E1FF73C0D9
:10205A00E2FFE66A70C000F071C001F020EC00F007
:10206A001DC1D9FF1EC1DAFF0050DE1801E005D0FC
:10207A0001011D4B1E2B1F07E5D7010182826C6BE4
:10208A0020C16DF121C16EF12CEC00F01FC100F0EE
:02209A00120032
:10209C0001011B6BC80E1B5D06E228EC0BF028EC53
:0820AC000BF01B2BF7D712000B
:1020B4008292400E01011B11006E72C0E1FF73C0D9
:1020C400E2FF00C0E6FF70C000F071C001F020EC38
:1020D40000F072C0E1FF73C0E2FF1CC1E6FF70C0F4
:0E20E40000F071C001F020EC00F082821200CA
:0620F200006A016A120001
:1020F800C90E01015B6F190E5C6FCD0E5D6F190E75
:102108005E6FCD0E5F6F190E606F616BB3EC02F0FE
:10211800C90E5B6F190E5C6F780E5D6F000E5E6FF7
:0E212800040E5F6F000E606F23EC01F01200DA
:1021360001013D6B3E6B000E3E5D02E1140E3D5DFE
:1021460012E2C90E3D253F6F000E3E21406F2CEC7A
:1021560006F03FC1E1FF40C1E2FF00C0E6FF01011A
:102166003D4B3E2BE8D7C90E3D25E16E000E3E21C4
:10217600E26EE66AC90E4D6F000E4E6F470E256F72
:10218600450E266F540E276F200E286F2F0E296FCF
:102196002A6B250E4F6F010E506F050E516F000E04
:1021A600526F27EC09F00050011003E0006A016A43
:1021B600F3D2000E0101201902E1500E1F1903E0AF
:1021C600006A016AE9D2CE0E4D6F000E4E6F4F0EB9
:1021D6002B6F460E2C6F460E2D6F2E6B2B0E4F6FF0
:1021E600010E506F030E516F000E526F27EC09F06F
:1021F600005001102CE159EC08F0310E0101456F39
:102206003E0E466F000E476FCBEC0AF000C03DF164
:1022160001C03EF10C0E456F3F0E466F000E476F34
:10222600CBEC0AF000503D2701503E232F0E456FA0
:102236003F0E466F000E476FCBEC0AF03D5100266D
:102246003E51012200C03DF101C03EF1A5D201017F
:10225600CE0E4D6F000E4E6F530E2F6F540E306F15
:10226600316B2F0E4F6F010E506F020E516F000E25
:10227600526F27EC09F00050011003E13A6A3B6AFD
:1022860046D0CE0E01014D6F000E4E6F410E326FDD
:10229600430E336F346B320E4F6F010E506F020ECA
:1022A600516F000E526F27EC09F00050011005E146
:1022B600010E3A6E000E3B6E2AD0EC0E0101456F00
:1022C6003D0E466F000E476FCBEC0AF000C03DF1A5
:1022D60001C03EF10C0E456F3F0E466F000E476F74
:1022E600CBEC0AF000503D2701503E23FF0E456F10
:1022F6003E0E466F000E476FCBEC0AF03D510026AE
:102306003E51012200C03DF101C03EF145D201011E
:10231600D00E4D6F000E4E6F2C0E356F366B350E90
:102326004F6F010E506F010E516F000E526F27EC6A
:1023360009F0005001102AE0EC0E0101456F3D0E38
:10234600466F000E476FCBEC0AF000C03DF101C0AE
:102356003EF10C0E456F3F0E466F000E476FCBECFD
:102366000AF000503D2701503E23EA0E456F3E0E0F
:10237600466F000E476FCBEC0AF03D5100263E51EA
:10238600012200C03DF101C03EF106D20101D10E8D
:102396004D6F000E4E6F520E376F386B370E4F6F04
:1023A600010E506F010E516F000E526F27EC09F0AF
:1023B6000050011005E1010E3E6E000E3F6E42D048
:1023C600D10E01014D6F000E4E6F4C0E396F3A6BF8
:1023D600390E4F6F010E506F010E516F000E526F86
:1023E60027EC09F00050011003E13E6A3F6A2AD04B
:1023F600EC0E0101456F3D0E466F000E476FCBECAC
:102406000AF000C03DF101C03EF10C0E456F3F0ED3
:10241600466F000E476FCBEC0AF000503D27015087
:102426003E23FF0E456F3E0E466F000E476FCBEC08
:102436000AF03D5100263E51012200C03DF101C087
:102446003EF1AAD10101D20E4D6F000E4E6F2C0E39
:102456003B6F3C6B3B0E4F6F010E506F010E516F81
:10246600000E526F27EC09F0005001102AE0EC0E26
:102476000101456F3D0E466F000E476FCBEC0AF02B
:1024860000C03DF101C03EF10C0E456F3F0E466F98
:10249600000E476FCBEC0AF000503D2701503E235B
:1024A600EA0E456F3E0E466F000E476FCBEC0AF004
:1024B6003D5100263E51012200C03DF101C03EF1D2
:1024C6006BD10101D30E456F000E466F61EC0AF029
:1024D60000C040F001C041F0000E011802E1000EFC
:1024E600001829E1EC0E456F3D0E466F000E476F52
:1024F600CBEC0AF000C03DF101C03EF10C0E456F79
:102506003F0E466F000E476FCBEC0AF000503D279A
:1025160001503E23BE0E456F3E0E466F000E476FBE
:10252600CBEC0AF03D5100263E51012200C03DF1A0
:1025360001C03EF131D13A503B100EE140C004F0EB
:1025460041C005F0500E006E480E016E33EC0BF0E4
:1025560000C040F001C041F0D30E0101456F000EEE
:10256600466F2C0E476FCBEC0CF0C90E005E000ECA
:10257600015A004A012AC90E0024456F000E0120A7
:10258600466F61EC0AF000C044F001C045F0000E51
:10259600011802E1000E001829E1EC0E456F3D0E10
:1025A600466F000E476FCBEC0AF000C03DF101C04C
:1025B6003EF10C0E456F3F0E466F000E476FCBEC9B
:1025C6000AF000503D2701503E23D40E456F3E0EC3
:1025D600466F000E476FCBEC0AF03D5100263E5188
:1025E600012200C03DF101C03EF1D6D099D0010EC6
:1025F6004424006E000E4520016E00C044F001C068
:1026060045F044C000F045C001F0A7EC0DF000C055
:102616003FF101C040F102C041F103C042F1660E34
:10262600046E660E056E660E066E7F0E076E3FC161
:1026360000F040C101F041C102F042C103F0E9ECF3
:102646000CF061EC0CF000C043F101C044F143C151
:1026560046F044C147F0660E046E660E056E660EC1
:10266600066E7F0E076E3FC100F040C101F041C10A
:1026760002F042C103F0E9EC0CF000C03FF101C0EA
:1026860040F102C041F103C042F143C100F044C130
:1026960001F0A7EC0DF000C004F001C005F002C087
:1026A60006F003C007F03FC100F040C101F041C190
:1026B60002F042C103F0FAEC0DF000C004F001C0D4
:1026C60005F002C006F003C007F0006A016A026A5C
:1026D600036A6CEC0FF0010ED8B0000E006E0052CB
:1026E60005E0010E466E000E476E02D0466A476A46
:1026F60044C000F045C001F0A7EC0DF0660E046E74
:10270600660E056E660E066E7F0E076EE9EC0CF021
:1027160061EC0CF000C044F001C045F00ED00DD0C5
:10272600000E3B1802E1000E3A18D8B460D7000E2E
:102736003B1802E1010E3A18F2E0010E3C6E000E63
:102746003D6EF5EC09F0310E0101456F3E0E466F08
:10275600000E476FCBEC0AF000C03DF101C03EF120
:102766000C0E456F3F0E466F000E476FCBEC0AF01E
:1027760000503D2701503E232F0E456F3F0E466FFA
:10278600000E476FCBEC0AF03D5100263E51012268
:0A27960000C03DF101C03EF1120049
:1027A0002CEC06F02CEC06F02CEC06F000C01CF132
:1027B0002CEC06F000C01BF12CEC06F000C01EF162
:1027C0002CEC06F000C01DF12CEC06F000C020F14E
:1027D0002CEC06F000C01FF12CEC06F02CEC06F0FF
:1027E0002CEC06F02CEC06F01DC100F01EC101F02F
:1027F000010E01011D5F000E1E5B005001100EE076
:102800002CEC06F0005201E0FBD72CEC06F02CEC8F
:1028100006F02CEC06F02CEC06F0E6D71FC100F019
:1028200020C101F0010E01011F5F000E205B00506E
:10283000011048E02CEC06F02CEC06F02CEC06F035
:1028400000C024F12CEC06F000C023F12CEC06F0C3
:102850002CEC06F02CEC06F02CEC06F02CEC06F040
:102860002CEC06F02CEC06F000C022F12CEC06F06B
:1028700000C021F1000E0101241902E1010E23190B
:1028800011E12CEC06F000C0A9F02CEC06F000C021
:10289000AAF02CEC06F000C0ABF02CEC06F000C067
:1028A000ACF010D021C100F022C101F0010E0101F5
:1028B000215F000E225B0050011003E02CEC06F0BB
:0628C000F1D7ACD71200B5
:1028C600B2D0780E0101456F000E466F476B040EBD
:1028D600486F000E496F0AEC0BF0010E456F466B10
:1028E60096EC0BF02DC0C5F02EC0C6F02FC0C7F079
:1028F60030C0C8F0030E376EA7D0050E0001C525FF
:10290600016E000EC621026E000EC721036E000E78
:10291600C821046E3050045C08E12F50035C05E1C9
:102926002E50025C02E12D50015C02E2020E376E6F
:10293600FEEC0DF00050020A03E1040E376E01D0E2
:1029460083D0030E0101456F2CC046F196EC0BF0C7
:102956002DC0C5F02EC0C6F02FC0C7F030C0C8F0DD
:10296600050E376E71D0FEEC0DF000C01BF1005065
:10297600060A03E1040E376E2CD001011B51050A2D
:1029860028E12DC0C5F02EC0C6F02FC0C7F030C05C
:10299600C8F0060E376E780E5B6F000E5C6F660E23
:1029A6005D6F000E5E6F040E5F6F000E606F81EC50
:1029B60001F05E0E456F000E466F530E476F000E18
:1029C600486F570E496F000E4A6FC8EC0DF02C6A1F
:1029D6003BD03AD0010E0001C525016E000EC6217E
:1029E600026E000EC721036E000EC821046E04504D
:1029F600305C08E103502F5C05E102502E5C02E1D9
:102A060001502D5C0FE30001010E745F000E755B33
:102A1600765B775B2DC0C5F02EC0C6F02FC0C7F021
:102A260030C0C8F011D03750020AD8B44AD7375050
:102A3600030AD8B462D73750040A83E03750050A30
:0A2A460092E03750060AC6E01200C5
:102A5000F2C069F1F3C06AF17EEC00F000C004F14D
:102A60002CEC06F000C003F12CEC06F000C002F1E3
:102A70002CEC06F000C001F10001FF6B0101006BBE
:102A8000010E0D6F0B6B0C6B0C0E0001F22501019A
:102A9000696F000E0001F32101016A6F7EEC00F006
:102AA00000C007F1000E0101086F0733079F0733CD
:102AB000079F000E086FFC0E0717FF0E0817160E73
:102AC0004D6F010E4E6FC90E4F6F190E506F040EF1
:102AD000516F000E526FA3EC08F00D0E0001F225AD
:102AE0000101696F000E0001F32101016A6F7EECA4
:102AF00000F03F0E00140101056F066B000E061773
:102B0000000E066F0E0E5C5C096F000E5D580A6FBA
:102B10000001F0510101095F0001F15101010A5B5F
:102B20000751095F08510A5B020E0001F2250101FD
:102B3000696F000E0001F32101016A6F7EEC00F065
:102B400000C06BF1F2C069F1F3C06AF102EC01F070
:102B5000030E0001F2250101696F000E0001F3214F
:102B600001016A6F7EEC00F000C069F165EC00F0D5
:102B700003C15BF104C15CF13AEC03F0040E000107
:102B8000F2250101696F000E0001F32101016A6F56
:102B90007EEC00F000C011F12CEC06F000C010F14A
:102BA0002CEC06F000C00FF12CEC06F000C00EF18A
:102BB0002CEC06F000C015F12CEC06F000C014F16E
:102BC0002CEC06F000C013F12CEC06F000C012F162
:102BD000000E0101061902E1020E05193DE1010E88
:102BE0000E25006E000E0F21016E000E1021026EE8
:102BF000000E1121036E00C012F101C013F102C0DA
:102C000014F103C015F1120E056F000E066F0C0EC5
:102C1000696FC6EC00F000C00EF10D0E0101696F86
:102C2000C6EC00F000C00FF10101696BC6EC00F0CA
:102C300000C010F1010E0101696FC6EC00F000C088
:102C400011F10001FF2B180E0101076F000E086F34
:102C50000B6B0C6B166A78D0000E061902E1180E89
:102C6000051935E10EC1F4F00FC1F5F010C1F6F011
:102C700011C1F7F012C10EF113C10FF114C110F11F
:102C800015C111F109510001F425006E01010A512D
:102C90000001F521016E000EF621026E000EF721F3
:102CA000036E00C012F101C013F102C014F103C0A1
:102CB00015F1100E0101056F000E066F0001FF2BCC
:102CC000140E0101076F000E086F002B3DD0000E9F
:102CD000061902E1110E051937E10EC1F8F00FC116
:102CE000F9F010C1FAF011C1FBF012C10EF113C1DD
:102CF0000FF114C110F115C111F1010E0001F825F9
:102D0000006E000EF921016E000EFA21026E000E17
:102D1000FB21036E00C012F101C013F102C014F1D7
:102D200003C015F1100E0101056F000E066F0001C2
:102D3000FF2B140E0101076F000E086F0B6B0C6B5D
:102D4000155202E1162A156A0001FF53D8B40FD2BA
:102D50000001040EF22501015B6F000E0001F3215A
:102D600001015C6F11C15DF110C15EF1A8EC02F0D0
:102D70000FC169F165EC00F00EC169F165EC00F07E
:102D800015C169F165EC00F014C169F165EC00F062
:102D900013C169F165EC00F012C169F165EC00F056
:102DA0000C0E0001F2250101696F000E0001F321F4
:102DB00001016A6F7EEC00F00F0E001401016B6FD1
:102DC00007C100F0003600900036009000506B13F1
:102DD0000C0E0001F2250101696F000E0001F321C4
:102DE00001016A6F02EC01F00D0E0001F2250101F4
:102DF000696F000E0001F32101016A6F7EEC00F0A3
:102E0000C00E001401016B6F05516B130D0E000114
:102E1000F2250101696F000E0001F32101016A6FC3
:102E200002EC01F0000E0101061902E1120E051973
:102E30002AE10E0E0001F22501015B6F000E000178
:102E4000F32101015C6F050E5D6FEE0E5E6FA8EC65
:102E500002F0140E0001F22501015B6F000E00016B
:102E6000F32101015C6F020E5D6F040E5E6FA8EC32
:102E700002F0050E0101696F65EC00F0780E0101AA
:102E8000696F65EC00F00001F05101010B25096F3D
:102E90000001F15101010C210A6F07510927085166
:102EA0000A230D5304E0D3EC0FF07CEC10F0BF0EBE
:102EB0005B6F190E5C6F0AC15DF109C15EF1A8EC90
:102EC00002F0C70E01015B6F190E5C6F5D6B5E6BEC
:102ED000A8EC02F0BD0E01015B6F190E5C6FF0C033
:102EE0005DF1F1C05EF180EC02F0160E0101696F38
:102EF000C6EC00F000C01AF1170E0101696FC6ECB4
:102F000000F000C05DF1C70E01015B6F190E5C6F30
:102F10001AC15EF1A8EC02F0BD0E01010925000105
:102F2000FD6F190E01010A210001FE6F100EF2253E
:102F300001015B6F000E0001F32101015C6F5D6B0D
:102F40005E6BA8EC02F0010E010109150001FC6F97
:102F5000FDC069F1FEC06AF101016B6B02EC01F08A
:102F6000C90E01015B6F190E5C6FD10E5D6F190EFA
:102F70005E6F0001FC51FD2501015F6F000E000135
:102F8000FE210101606F616BB3EC02F0080E0001DD
:102F9000FD2501015B6F000E0001FE2101015C6F48
:102FA0000001FC5101015B27000E5C235D6B060EE6
:102FB0005E6FA8EC02F00A0E0001FD2501015B6FB7
:102FC000000E0001FE2101015C6F0001FC510101B6
:102FD0005B27000E5C230B510725036E0C51082163
:102FE000046E04C000F0016A00C05DF103C05EF130
:102FF000A8EC02F0F2C05BF1F3C05CF101010B51EF
:1030000007255D6F0C5108215E6F0C0E5D27000EC9
:103010005E230001FC5101015D27000E5E2380EC60
:1030200002F0160E0101696FC6EC00F000C01AF143
:10303000170E0101696FC6EC00F000C05DF1100EC3
:103040000001F22501015B6F000E0001F321010177
:103050005C6F1AC15EF1A8EC02F00E0E01010925A9
:103060005B6F000E0A215C6FA9EC01F0005359E080
:10307000100E056F000E066F006B0D6B020E6C6F6D
:1030800007510001F22501016D6F08510001F32184
:1030900001016E6F2CEC00F00E0E0001EE25010117
:1030A0001B6F000E0001EF2101011C6F0001F051A8
:1030B00001011B270001F15101011C2307511B27AE
:1030C00008511C23F2EC0FF0162A160E01011B6F9B
:1030D000010E1C6F03C11DF104C11EF101C11FF1DE
:1030E00002C120F10E0E5C5C216F000E5D58226F54
:1030F0000001F0510101215F0001F1510101225B4A
:103100000751215F0851225B5B0E236F000E246F75
:103110009BEC10F000C00BF101C00CF15BA0166A33
:1031200017D6165224E001010B510E25006E0C51EA
:103130000F21016E000E1021026E000E1121036E90
:1031400000C00EF101C00FF102C010F103C011F177
:10315000110E056F000E066F166A0D6B140E076FC9
:10316000000E086F0B6B0C6B010E156EF1D5120083
:103170001F0E0101696F010E6A6F9DEC00F01F0EBA
:103180000101696F020E6A6FDEEC00F0140E01019E
:103190001B6FEEC01CF15AEC10F0120E0101696FAA
:1031A000010E6A6FDEEC00F04EEC10F0120E696F4B
:1031B000010E6A6F9DEC00F0180E0101696FC6ECFC
:1031C00000F0F1C0E1FFF2C0E2FF00C0E6FF190E1F
:1031D0000101696FC6EC00F0EFC0E1FFF0C0E2FF53
:0631E00000C0E6FF120032
:1031E6001F0E0101696F010E6A6F9DEC00F01F0E44
:1031F6000101696F020E6A6FDEEC00F0140E010128
:103206001B6FEEC01CF15AEC10F04EEC10F0160ECF
:103216001B6FF0C01CF15AEC10F04EEC10F0170EBC
:103226001B6FEFC01CF15AEC10F04EEC10F01200C0
:10323600C40E0101696F190E6A6F7EEC00F000C0C2
:10324600EEF0E8D0D50E01011B6F190E1C6F780E3B
:103256001D6F000E1E6F040E1F6F05EC10F0005060
:10326600000A4BE1C40E0101696F190E6A6F020E66
:103276006B6F02EC01F0D3EC0FF0CB0E5B6F190E07
:103286005C6FCF0E5D6F190E5E6FD50E5F6F190EF8
:10329600606F616BB3EC02F0CB0E5B6F190E5C6F67
:1032A600780E5D6F000E5E6F040E5F6F000E606F2E
:1032B60023EC01F0C50E5B6F190E5C6FCB0E5D6FD4
:1032C600190E5E6FCF0E5F6F190E606F616BB3ECF8
:1032D60002F0C50E5B6F190E5C6F6A0E5D6F000E15
:1032E6005E6F060E5F6F000E606F23EC01F03C0E02
:1032F6005B6F000E5C6FA9EC01F095D00101AF0E7B
:103306001B6F190E1C6F6A0E1D6F000E1E6F060EC8
:103316001F6F05EC10F00050000A7BE1CB0E010197
:103326001B6F190E1C6FADC01DF1AEC01EF1040E51
:103336001F6F05EC10F00050000A6BE10F0E006ED7
:10334600000E016E21C004F0000E056E02EC05F0C1
:103356007C0E002401014D6F000E01204E6F090EF8
:103366004D27000E4E23C50E4F6F190E506F060ED9
:10337600516F000E526FA3EC08F00F0E006E000E98
:10338600016E21C004F0000E056E02EC05F07C0E05
:1033960000245B6F000E01205C6F050E5B27000E9C
:1033A6005C23ADC05DF1AEC05EF1040E5F6F000E32
:1033B600606F81EC01F00F0E006E000E016E21C0F1
:1033C60004F0000E056E02EC05F07C0E0024E16EA2
:1033D600000E0120E26E010EE66E0F0E006E000E6C
:1033E600016E21C004F0000E056E02EC05F07C0EA5
:1033F6000026000E0122010E0024E16E000E0120BF
:10340600E26E2DC0E6FF2EC0E6FF2FC0E6FF30C0FD
:10341600E6FF09D00001EE51010AD8B413D7EE51E8
:08342600020AD8B46BD71200B2
:10342E00F1C069F1F2C06AF17EEC00F000C0FCF070
:10343E002CEC06F000C0FBF02CEC06F000C0FAF00D
:10344E002CEC06F000C0F9F0000E0001FA1902E1B2
:10345E00000EF91901E197D02CEC06F000C0FEF039
:10346E002CEC06F000C0FDF0FF0E01014D6F000EBA
:10347E004E6FC90E4F6F190E506F040E516F000E26
:10348E00526FA3EC08F0020E6C6F080E0001F125CE
:10349E0001016D6F000E0001F22101016E6F2CEC27
:1034AE0000F00E0E0001EE2501011B6F000E000153
:1034BE00EF2101011C6F0001F05101011B27000ECD
:1034CE001C23080E1B27000E1C23F2EC0FF0000E1F
:1034DE000001FC1902E1350EFB1903E1D0EC13F0EB
:1034EE0052D0000E0001FA1902E1440EF91903E15F
:1034FE0063EC14F048D0FF0E01011B6F000E1C6F21
:10350E00FBC01DF1FCC01EF1F9C01FF1FAC020F185
:10351E00080E0001FD5D0101216F000E0001FE5934
:10352E000101226F5B0E236F000E246F79EC10F0F9
:10353E0000C0FDF001C0FEF00050011024E0F30EBB
:10354E004D6F000E4E6FB50E4F6F190E506F060E6B
:10355E00516F000E526FA3EC08F0F30E4D6F000E7C
:10356E004E6FFF0E4F6F000E506FF9C051F1FAC043
:10357E0052F1FBC053F1FCC054F1FDC055F1FEC039
:08358E0056F12EEC05F01200CD
:1035960001011B6B0001E25303E00D0EE36F02D045
:1035A600050EE36FE3C01CF15AEC10F0020E0101A8
:1035B6001B6F0001E25303E0310EE46F02D0300EC0
:1035C600E46FE4C01CF15AEC10F00A0E01016C6FB6
:1035D600EE0E6D6F050E6E6F2CEC00F0040E010101
:1035E6001B6F0001E25303E0150EE56F02D0120EC9
:1035F600E56FE5C01CF15AEC10F0060E01011B6FD9
:10360600120E1C6F5AEC10F00001E25307E1070E90
:1036160001011B6F0C0E1C6F5AEC10F00001E253F7
:1036260007E1090E01011B6F3F0E1C6F5AEC10F0EB
:103636001F0E0101696F010E6A6FDEEC00F01F0EAE
:103646000101696F020E6A6FDEEC00F0040E0101E3
:103656001B6F6AC01CF15AEC10F0050E01011B6FBE
:103666006BC01CF15AEC10F0020E01011B6F6CC00E
:103676001CF15AEC10F0030E01011B6F6DC01CF11A
:103686005AEC10F001011B6B6EC01CF15AEC10F0E5
:10369600010E01011B6F6FC01CF15AEC10F0150EE4
:1036A60001011B6F1C6B5AEC10F0120E0101696FC1
:1036B600C6EC00F000C052F00001EE6BE70EEF6FB3
:1036C600000EF06FE80EF16F000EF26F4EDD000196
:1036D600EE6BFE0EE715EF6FE25303E0010EE66FA9
:1036E60001D0E66BE651EF13E8C0F0F079DD100E7D
:1036F6000001EE6F010EEF6FF06B72DD1F0E696F4A
:10370600040E6A6FDEEC00F04EEC10F07C0E456F96
:10371600000E466F476B2D0E486F000E496F0AEC80
:103726000BF01F0E696F010E6A6F9DEC00F01F0E05
:0E3736000101696F020E6A6F9DEC00F0120037
:103744000001EB6B5B805B921F0E0101696F010E40
:103754006A6F9DEC00F01F0E0101696F020E6A6F23
:103764009DEC00F001016C6B22C06DF123C06EF181
:103774002CEC00F0829272C0E1FF73C0E2FF3A0EBB
:10378400E66E70C000F071C001F020EC00F072C071
:10379400E1FF73C0E2FFE66A70C000F071C001F09F
:1037A40020EC00F000C022F072C0E1FF73C0E2FF21
:1037B400E66A70C000F071C001F020EC00F000C0B7
:1037C40023F072C0E1FF73C0E2FFE66A70C000F04C
:1037D40071C001F020EC00F000C05CF072C0E1FFA9
:1037E40073C0E2FFE66A70C000F071C001F020EC23
:1037F40000F000C05DF072C0E1FF73C0E2FFE66A52
:1038040070C000F071C001F020EC00F000C0E9F0DD
:1038140072C0E1FF73C0E2FFE66A70C000F071C0DD
:1038240001F020EC00F000C0EAF08282040E5C5E3D
:10383400000E5D5A2350190802E12250AD080FE32F
:1038440022B00DD00001EABF0AD05D50050802E1A4
:103854005C50EE0804E30001E9AF01D003D0010E8F
:10386400006ED9D10101696BC6EC00F000C0E7F02D
:10387400010E0101696FC6EC00F000C0E8F0E7C07A
:103884005BF1E8C05CF15C500001E72501015D6F6C
:103894005D500001E82101015E6FAF0E5F6F190EEC
:1038A400606F010E616FB3EC02F0BB0E696F190E0D
:1038B4006A6F7EEC00F000C0EAF02CEC06F000C069
:1038C400E9F00001EA51080A02E1060EE91912E1E1
:1038D400BD0E01011B6F190E1C6F240E1D6F000E0F
:1038E4001E6F070E1F6F05EC10F00050000A01E177
:1038F400A0DC67D10001EA51080A02E1000EE919CF
:10390400D8A45CD1CD0E01011B6F190E1C6FB90E2A
:103914001D6F000E1E6F040E1F6F05EC10F0005299
:10392400D8B45B82CD0E01011B6F190E1C6F310ED2
:103934001D6F000E1E6F040E1F6F05EC10F0005279
:10394400D8B45B82CD0E01011B6F190E1C6F780E6B
:103954001D6F000E1E6F040E1F6F05EC10F0005259
:1039640006E05BB204D0020E0001EB6F26D1BD0E5F
:103974000101696F190E6A6F7EEC00F0F00E0014FD
:10398400016E0150400A04E0030E0001EB6F15D1F3
:10399400BD0E0101696F190E6A6F7EEC00F000C064
:1039A400E5F0000E0001E66F0F0EE517000EE617B6
:1039B400E537E591E637E537E591E637C30E0101D2
:1039C400696F190E6A6F7EEC00F0BF0E0014016E71
:1039D4000150000AD8A4F1D0C40E0101696F190E78
:1039E4006A6F7EEC00F00050000AD8A4E6D0BD0E49
:1039F4000001E525E36F190EE621E46FC60E01010F
:103A0400696F190E6A6F7EEC00F000C0E2F000509E
:103A1400010AD8A494D0E3C069F1E4C06AF17EEC51
:103A240000F00050080AD8A489D0010E0001E32553
:103A34000101696F000E0001E42101016A6F7EEC4F
:103A440000F00050000A7AE1E3C069F1E4C06AF1D1
:103A540001016B6B02EC01F0D3EC0FF07CEC10F085
:103A6400C70E5B6F190E5C6F5D6B5E6BA8EC02F0AA
:103A7400BD0E01015B6F190E5C6FE5C05DF1E6C020
:103A84005EF180EC02F0160E0101696FC6EC00F0E5
:103A940000C0ECF0170E0101696FC6EC00F000C025
:103AA4005DF1C70E01015B6F190E5C6FECC05EF136
:103AB400A8EC02F0020E0001E32501015B6F000E89
:103AC4000001E42101015C6F5D6B5E6BA8EC02F008
:103AD400E3C05BF1E4C05CF10001E5515C5C010111
:103AE4005D6F0001E6515D5801015E6F0E0E5D5F72
:103AF400000E5E5B80EC02F0160E0101696FC6ECED
:103B040000F000C0ECF0170E0101696FC6EC00F084
:103B140000C05DF1020E0001E32501015B6F000EA0
:103B24000001E42101015C6FECC05EF1A8EC02F03D
:103B34005CC05BF15DC05CF1A9EC01F03ED000011A
:103B4400E251110A0CE1E7C0EEF0E8C0EFF0E5C085
:103B5400F0F0E3C0F1F0E4C0F2F067DC2ED0000135
:103B6400E251060A2AE1100EE7250101696F000EF1
:103B74000001E82101016A6F7EEC00F000C0EDF065
:103B84000001EC6B2CEC06F000500001EC255C6E9F
:103B9400000EED215D6E0E0E5C26000E5D22E7C068
:103BA400EEF0E8C0EFF0E5C0F0F0E6C0F1F0E3C0FD
:103BB400F2F0E4C0F3F028EC15F003D0040E000199
:103BC400EB6F1E0E0101696F400E6A6FDEEC00F0B0
:103BD400010E225C016E000E2358026E0250190879
:103BE40002E10150AD080AE20C0E01016C6FAD0E4A
:103BF4006D6F190E6E6F2CEC00F00BD00C0E0101E2
:103C04006C6F010E225C6D6F000E23586E6F2CECEE
:083C140000F0EBC000F012000B
:103C1C00C69A2E0E0001706F000E716F6F0E726FD0
:103C2C00010E736FFF0EB16FFF0EB26FFF0EB36F0D
:103C3C00FF0EB46F949A94969488C66A400EC76E21
:043C4C00C68A120012
:103C50000900F5CFE6FF0006FBE10106F9E11200DD
:103C60000001DD6B1F0E0101696F010E6A6FDEEC52
:103C700000F01F0E0101696F020E6A6F9DEC00F0EB
:103C8000190E0101696FC6EC00F00050000803E254
:103C900059DD00C0DDF01F0E0101696F010E6A6F72
:103CA0009DEC00F01F0E0101696F020E6A6F9DEC22
:083CB00000F0DDC000F012007D
:103CB80094908280949282824EEC10F082804EEC36
:103CC80010F082904EEC10F082804EEC10F0829250
:103CD80072C0E1FF73C0E2FFFF0EE66E70C000F035
:103CE80071C001F020EC00F082824EEC10F06A0EF8
:103CF8005B6F000E5C6FDDC05DF1DEC05EF1060E2D
:103D08005F6F000E606F81EC01F0780E5B6F000E44
:103D18005C6FDFC05DF1E0C05EF1040E5F6F000E06
:103D2800606F81EC01F01F0E696F010E6A6F9DECE8
:103D380000F01F0E0101696F020E6A6F9DEC00F022
:103D4800080E01016C6F6D6B6E6B2CEC00F00A0EA7
:103D580001016C6FAD0E6D6F190E6E6F2CEC00F0DB
:103D68000C0E01016C6FAD0E6D6F190E6E6F2CECA1
:103D780000F001016C6B6D6B6E6B2CEC00F0040EA7
:103D880001016C6FAE0E6D6F190E6E6F2CEC00F0AA
:103D98001F0E0101696F010E6A6F9DEC00F01F0E86
:103DA8000101696F020E6A6FDEEC00F0E1C0E2F01B
:063DB800CBEC1AF0120032
:103DBE0099EC1FF0380ED36E936A816A0F013A6B3D
:103DCE0026DF170EDD6F000EDE6F1D0EDF6F000E8D
:0E3DDE00E06F010EE16F69DF3CDFFED7FFD71B
:103F320010EE15F0390E006E010E016E6D0EF66E6A
:0E3F42003E0EF76E000EF86E28EC1EF0120018
:103DEC00485454502F312E312034303020426164ED
:103DFC0020526571756573740A4163636573732D25
:103E0C00436F6E74726F6C2D416C6C6F772D4F72AB
:103E1C006967696E3A2A0A436F6E74656E742D7405
:053E2C007970653A0009
:103E3100485454502F312E3120323030204F4B0A0C
:103E41004163636573732D436F6E74726F6C2D41A3
:103E51006C6C6F772D4F726967696E3A2A0A436FEE
:0C3E61006E74656E742D747970653A0003
:013E6D000054
:013E6E000053
:063E6F000014A576193FC6
:043E75000AD3370530
:013E79000048
:023E7A00000046
:083E7C0000010800060400002B
:013E8400003D
:043E85000000000039
:063E8900FFFFFFFFFFFF39
:013E8F000032
:023E9000000030
:103E92000000000000000000000000000000000020
:043EA200000000001C
:063EA600474554202F00E7
:043EAC004F46460037
:033EB00053540068
:033EB30041430088
:023EB6002C00DE
:023EB8005200B6
:023EBA004C00BA
:023EBC002C00D8
:103EBE004661696C656420746F2070617273652051
:063ECE00737065656400DD
:103ED4004661696C656420746F207061727365203B
:063EE400616E676C6500D1
:103EEA0057726F6E6720636F6D6D616E6420666FC7
:053EFA00726D6174000F
:0D3EFF0057726F6E67206F7074696F6E00F0
:0C3F0C00746578742F68746D6C0A0A00EC
:0C3F180001010600122334450000800067
:063F2400638253633501C6
:053F2A0037030103064E
:033F2F004F4B00F5
:020000040030CA
:0D000100231F3CFFBF81FF0FC00FE00F4029
:00000001FF
