:1000000021EF17F00000000000EF00F000000000FA
:0A0010000000000000000000F3D71C
:10001C0093C1C9FFC7B002D00000FCD7C9CF00F014
:02002C001200C0
:10002E0093C16FFF6DB002D00000FCD76FCF00F010
:02003E001200AE
:10004000F250026EF29E0500FF6A0150FE6E0050F3
:08005000FD6E02BEF28E1200EB
:100058008292400E01019011006E5BC0E1FF5CC00E
:10006800E2FF00C0E6FF59C000F05AC001F0E4DF2B
:100078005BC0E1FF5CC0E2FF91C1E6FF59C000F040
:100088005AC001F0D9DF5BC0E1FF5CC0E2FF92C15A
:10009800E6FF59C000F05AC001F0CEDF828212009C
:1000A8008292A00E01018D11006E5BC0E1FF5CC061
:1000B800E2FF00C0E6FF59C000F05AC001F0BCDF03
:1000C8005BC0E1FF5CC0E2FF8EC1E6FF59C000F0F3
:0A00D8005AC001F0B1DF828212006D
:1000E2000101906B8DC191F18EC192F1B4DF8292C8
:1000F2005BC0E1FF5CC0E2FF3A0EE66E59C000F061
:100102005AC001F09CDF5BC0E1FF5CC0E2FFE66A1F
:0E01120059C000F05AC001F092DF8282120044
:1001200082925BC0E1FF5CC0E2FF7A0EE66E59C0CE
:1001300000F05AC001F084DF5BC0E1FF5CC0E2FF69
:100140008DC1E6FF59C000F05AC001F079DF82820C
:0201500012009B
:10015200020E0101906F8DC191F18EC192F17BDF90
:1001620082925BC0E1FF5CC0E2FF7A0EE66E59C08C
:1001720000F05AC001F063DF5BC0E1FF5CC0E2FF48
:100182008FC1E6FF59C000F05AC001F058DF8282E9
:02019200120059
:1001940082925BC0E1FF5CC0E2FF8DC1E6FF59C003
:1001A40000F05AC001F04ADF5BC0E1FF5CC0E2FF2F
:1001B400E66A59C000F05AC001F040DF82821200A2
:1001C4008292800E01018D11006E5BC0E1FF5CC064
:1001D400E2FF00C0E6FF59C000F05AC001F02EDF74
:1001E4005BC0E1FF5CC0E2FF8EC1E6FF59C000F0D6
:0A01F4005AC001F023DF82821200DE
:1001FE0001018C6B010E815F000E825B85530DE059
:10020E008251190802E18151AD0807E28C2BAD0E27
:10021E00815D8A6F190E82598B6F8C5305E0AD0E7E
:10022E00866F190E876F04D081C186F182C187F166
:10023E008051871902E186517F190DE17FC18DF141
:10024E0080C18EF147DF00C08FF183C18DF184C173
:10025E008EF178DF36D0100E0101906F7FC191F1D3
:10026E0080C192F1F2DE120E0101906F8C5305E007
:10027E00AD0E886F190E896F04D081C188F182C1CD
:10028E0089F188C191F189C192F1DFDE140E01016D
:10029E00906F83C191F184C192F1D7DE1F0E0101DF
:1002AE008D6F100E8E6FF9DE1F0E01018D6F200EF9
:1002BE008E6F81DF1F0E01018D6F65DF00AA01D0E9
:1002CE00F9D701018C531AE07F51815D006E805188
:1002DE008259016E8A51005E8B51015A004A012AE1
:1002EE000050832701508423010E8A5D816F000E1A
:0E02FE008B59826F7F6B806B8C6B8FD71200D9
:10030C00AE0E01018D6F190E8E6F8F6B1CDFAE0E52
:10031C0001017F25006E190E8021016E00C07FF156
:10032C0001C080F1060E906F00C091F101C092F1F6
:10033C008DDE1F0E01018D6F800E8E6F3DDF1F0E47
:10034C0001018D6F800E8E6FA9DE5D50050A04E0F1
:10035C005D50070A01E006D01C0E01018D6F0A0EDC
:10036C008E6F9CDE1F0E01018D6F080E8E6F24DFC9
:10037C005D50050A04E05D50070A01E080D00101E0
:10038C00846B856B1C0E8D6FFFDE0A0E00160052FF
:10039C000AE10101844B852B030E855D02E1E80E19
:1003AC00845D01E2EFD701011C0E8D6FEDDE00B212
:1003BC0008D0030E0101855D02E1E80E845D01E2C7
:1003CC005DD001011F0E8D6F080E8E6F67DE040E5F
:1003DC0001017F258D6F000E80218E6F7CDE00C0A9
:1003EC0083F10101816B100E815D48E21C0E8D6F53
:1003FC00CBDE00A23FD0010183AB3CD01F0E8D6F32
:10040C00800E8E6FD9DE1F0E01018D6F800E8E6FE8
:10041C0045DE1C0E01018D6F0A0E8E6F3FDE1F0E26
:10042C0001018D6F080E8E6FC7DE0101846B856B29
:10043C001C0E8D6FA9DE0A0E001600520AE1010196
:10044C00844B852B030E855D02E1E80E845D01E291
:10045C00EFD701011F0E8D6F080E8E6F1FDE040E7D
:10046C0001017F258D6F000E80218E6F34DE00C060
:10047C0083F101D003D00101812BB5D707D0010145
:10048C001F0E8D6F81DE00A601D0F9D71D0E010164
:10049C008D6F7ADE060E0016005203E00101826BAE
:0E04AC0003D00101010E826F82C100F0120028
:1004BA00010181517F25836F82518021846F010E52
:1004CA00835F000E845B100E906F7FC191F180C133
:1004DA0092F1BDDD120E0101906F83C191F184C1C9
:1004EA0092F1B5DD1F0E01018D6F300E8E6F65DE44
:1004FA001F0E01018D6F49DE00AA01D0F9D7120043
:10050A007FC18DF180C18EF181C18FF11DDE82C163
:06051A008DF101DE12006C
:1005200082925BC0E1FF5CC0E2FF7A0EE66E59C0CA
:1005300000F05AC001F084DD5BC0E1FF5CC0E2FF67
:1005400080C1E6FF59C000F05AC001F079DD5BC000
:10055000E1FF5CC0E2FF7FC1E6FF59C000F05AC076
:0805600001F06EDD8282120041
:10056800020E0101906F7FC191F180C192F170DD9F
:1005780082925BC0E1FF5CC0E2FF7A0EE66E59C072
:1005880000F05AC001F058DD01018351841117E0D1
:100598005BC0E1FF5CC0E2FF81C1E9FF82C1EAFF05
:1005A800EECFE6FF59C000F05AC001F045DD010169
:1005B800814B822B010E835F000E845BE5D782821C
:0205C80012001F
:1005CA0082925BC0E1FF5CC0E2FF7A0EE66E59C020
:1005DA0000F05AC001F02FDD81C100F082C101F0A4
:1005EA00010E0101815F000E825B0050011013E0D1
:1005FA005BC0E1FF5CC0E2FF7FC1E9FF80C1EAFFA7
:10060A00EECFE6FF59C000F05AC001F014DD010137
:0A061A007F4B802BE1D78282120093
:10062400086A096A100E0C6E013408360936045043
:10063400085E0550D8A0053C095ED8B007D0045028
:1006440008260550D8B0053C0926D8900036013656
:060654000C2EEAD7120093
:10065A0081C104F082C105F07FC102F080C103F0BC
:10066A0083C100F084C101F0010E0101835F000E15
:10067A00845B005001100FE004C0E9FF05C0EAFFE7
:10068A0002C0E1FF03C0E2FFEECFE6FF024A032AFF
:10069A00044A052AE5D77FC100F080C101F01200A3
:1006AA000B6A0A6A096A00500402F4CF09F0F3CF10
:1006BA0008F001500502F4CF0BF0F3CF0AF0005016
:1006CA000502F3500926F4500A22E86A0B22015067
:1006DA000402F3500926F4500A22E86A0B2208C0E1
:1006EA0000F009C001F00AC002F00BC003F01200CA
:1006FA0001017151390806E3300E715D03E3010E01
:08070A00006E01D0006A12002C
:1007120082925BC0E1FF5CC0E2FF7A0EE66E59C0D6
:1007220000F05AC001F08BDC74C100F075C101F019
:10073200010E0101745F000E755B005001101BE099
:100742005BC0E1FF5CC0E2FF71C1F6FF72C1F7FF5F
:1007520073C1F8FF0900F5CF00F000C0E6FF59C0F1
:1007620000F05AC001F06BDC010E01017127000E8E
:0A07720072237323D9D7828212008C
:10077C00AF0E01017F6F190E806F71C181F172C1D3
:10078C0082F1060E836F000E846FE8DE5E0E7F6FC3
:10079C00000E806F060E816F000E826F10DF000E50
:1007AC007F6F080E806FB6DE1C0E010179257C6F01
:1007BC00000E7A217D6F000E7F6F450E806FAADED2
:1007CC007CC17FF17DC180F1A5DE7CC07FF17DC055
:1007DC0080F1A0DE00017C4B7D2B01017F6B806BD7
:1007EC0099DE110E01017F6F800E806F93DE010187
:1007FC007F6B806B8FDE4A0E01017F6F000E806F66
:10080C00040E816F000E826FDADE73C17FF174C14A
:10081C0080F1040E816F000E826FD1DE080E7925F7
:10082C007C6F000E7A217D6F75C17FF176C180F1EE
:10083C0071DE77C17FF178C180F16CDE7CC17FF114
:10084C007DC180F167DE01017F6B806B63DEBD0EC5
:10085C0001017F6F190E806F140E816F000E826F75
:10086C0026DE160E01018D6F8FDC00C07EF1170E97
:10087C0001018D6F89DC00C081F1C70E01017F6F12
:10088C00190E806F7EC182F13ADE010E01017C15DA
:10089C007B6FD90E79258D6F190E7A218E6F8F6B28
:1008AC0052DCC90E01017F6F190E806FD10E816F62
:1008BC00190E826FD90E7925836F190E7A21846FE8
:1008CC007B518327000E8423856B93DCD90E79250D
:1008DC007F6F190E7A21806F7B517F27000E80234A
:1008EC00080E7F27000E8023816B110E826F07DEAE
:1008FC007DC18DF10FDC7CC18DF10CDCD10E0101C1
:10090C007F6F190E806F0C0E7C25816F000E7D2180
:10091C00826F7B518127000E8223C9DD160E0101E7
:10092C008D6F32DC00C07EF1170E01018D6F2CDC57
:10093C0000C081F1D70E01017F6F190E806F7EC14F
:10094C0082F1DDDD2A0E010179257F6F000E7A21FF
:06095C00806FD6DC1200E2
:100962000101756B050E755D0AE275517325E16E25
:10097200000E7421E26E200EE66E752BF3D77551D0
:100982007325E16E000E7421E26EE66A75077551F9
:100992007325766F000E7421776F0A0E046E000EB7
:1009A200056E71C100F072C101F03BDE08C000F0BB
:1009B20009C001F0300E002676C1E1FF77C1E2FFE7
:1009C20000C0E6FF0A0E046E000E056E71C100F053
:1009D20072C101F026DE00C071F101C072F1000E99
:1009E200011802E1000E001801E102D07507CFD70D
:0209F2001200F1
:1009F40075C101F076C102F0010E0101755F000EB0
:100A0400765B000E021802E1000E01181FE071C1AE
:100A1400E9FF72C1EAFF73C1D9FF74C1DAFFEE5076
:100A2400DE180FE071C1E9FF72C1EAFF73C1D9FF9B
:100A340074C1DAFFDE50EE5C006E016A000E015AEA
:100A440007D0714B722B734B742BD2D7006A016A97
:020A540012008E
:100A560071C17FF172C180F14A0E0101816F000EF2
:100A6600826F040E836F000E846FF4DD736B735117
:100A7600030821E373517125026E000E7221036E85
:100A860002C0E9FF03C0EAFFEECF01F0700EE96E87
:100A9600000EEA6E7351E926D8B0EA2AFF0EEE1868
:100AA600006E0150001202C0E1FF03C0E2FF00C069
:080AB600E6FF732BDCD71200F0
:100ABE0001017451FF0A02E1FF0E731907E0906BFA
:100ACE0073C191F174C192F12CEC00F082925BC073
:100ADE00E1FF5CC0E2FF3A0EE66E59C000F05AC06C
:100AEE0001F020EC00F075C100F076C101F0010EAE
:100AFE000101755F000E765B0050011015E05BC0C2
:100B0E00E1FF5CC0E2FFE66A59C000F05AC001F096
:100B1E0020EC00F071C1E1FF72C1E2FF00C0E6FF00
:0C0B2E000101714B722BDFD78282120094
:100B3A0082925BC0E1FF5CC0E2FF3A0EE66E59C0EA
:100B4A0000F05AC001F020EC00F05BC0E1FF5CC08D
:100B5A00E2FFE66A59C000F05AC001F020EC00F04A
:040B6A008282120071
:100B6E0067C1E9FF68C1EAFFEECF69F1000E01012E
:100B7E006A6F000E6A6F000E6A1902E1200E691983
:100B8E0007E0000E6A1902E1090E691901E003D0AF
:100B9E00674B682BE5D76B6B6C6B6D6B6E6B000EDA
:100BAE006A1902E12D0E691905E16D4B6E2B674B2B
:100BBE00682B08D0000E6A1902E12B0E691902E1AA
:100BCE00674B682B67C1E9FF68C1EAFFEECF69F199
:100BDE00000E6A6F000E6A6F69C171F187DD0052F7
:100BEE0018E06BC100F06CC101F00A0E046E000E2D
:100BFE00056E54DD300E695D026E000E6A59036E8D
:100C0E00025000246B6F035001206C6F674B682BF2
:100C1E00D9D76D516E1108E06B510008006E6CC192
:100C2E0001F0000E015604D06BC100F06CC101F052
:020C3E001200A2
:100C400001016B6B6C6B82925BC0E1FF5CC0E2FFE9
:100C50007A0EE66E59C000F05AC001F020EC00F0A8
:100C600067C100F068C101F069C102F0010E010125
:100C70006727000E6823692300C0F6FF01C0F7FF55
:100C800002C0F8FF0900F5CF00F000C06AF1005281
:100C900010E05BC0E1FF5CC0E2FF6AC1E6FF59C043
:100CA00000F05AC001F020EC00F001016B4B6C2BFE
:0E0CB000D7D782826BC100F06CC101F0120038
:100CBE000101696B3C0E0001686F000E696F6A6F6F
:100CCE006B6F34DF00C067F10050020AD8A419D14F
:100CDE000101686B0F0E685D04E228DF0101682BCD
:100CEE00F9D76C0E716F000E726FFF0E736FFF0EE1
:100CFE00746F040E756F000E766FDADE686B080E79
:100D0E00685D04E213DF0101682BF9D7686B060EEC
:100D1E00685D12E20BDF00C067F15E0ED96E000E49
:100D2E00DA6E01016851D926D8B0DA2A0050DE18E1
:100D3E0001E012D1682BEBD7686BCE0E685D04E232
:100D4E00F5DE0101682BF9D76A6BF0DE00C067F1A2
:100D5E00B9D0ECDE00C067F10050010A04E1E6DE16
:100D6E0000C069F101D0F8D0C8D0E0DE00C067F154
:100D7E000050040A0FE1640E0101716F000E726FD4
:100D8E00FF0E736FFF0E746F040E756F000E766F8D
:100D9E008FDE01D0E1D0B1D0C9DE00C067F1040E04
:100DAE00005C0FE34E0E0101716F000E726FFF0EAD
:100DBE00736FFF0E746F040E756F000E766F78DE14
:100DCE0001D0CAD00101040E675F010167C100F0B6
:100DDE006707005202E0AADEF8D78FD0A7DE00C068
:100DEE0067F1040E005C0FE3520E0101716F000EED
:100DFE00726FFF0E736FFF0E746F040E756F000E21
:100E0E00766F56DE01D0A8D00101040E675F010196
:100E1E0067C100F06707005202E088DEF8D76DD098
:100E2E0085DE00C067F10050040A0FE16B0E010170
:100E3E00716F010E726FFF0E736FFF0E746F040EE3
:100E4E00756F000E766F34DE01D086D056D001015C
:100E5E00010E6A6F52D06ADE00C067F10050040ABC
:100E6E0023E1680E0101716F000E726FFF0E736F3A
:100E7E00FF0E746F040E756F000E766F19DE000193
:100E8E006B51000808E16A51000805E16951070835
:100E9E0002E16851080807E2080E685F070E695BF9
:100EAE00000E6A5B6B5B01D057D027D03FDE00C0CF
:100EBE0067F167C100F001016707005202E036DEFC
:100ECE00F8D71BD001016751350AD8B442D7675104
:100EDE00010AD8B44AD76751030AD8B45DD767510F
:100EEE00060AD8B47BD76751360A9AE06751FF0AD3
:100EFE00AEE06751330AAFE0D9D701016A53D8B4D7
:100F0E0024D701016951020A0FE1460E7F6F000ED0
:100F1E00806F6B0E816F010E826F040E836F000E59
:100F2E00846F2DEC03F015D0460E716F000E726FAC
:100F3E006B0E736F010E746F040E756F000E766F6D
:100F4E0052DD000E011802E1000E001802E0010150
:0C0F5E00696B69C100F001D0006A12004C
:100F6A0067C102F068C103F06AC100F06BC101F009
:100F7A00010E01016A5F000E6B5B0050011009E06F
:100F8A0002C0E1FF03C0E2FF69C1E6FF024A032A89
:0C0F9A00EBD767C100F068C101F0120045
:100FA60001016A6B6B6B82925BC0E1FF5CC0E2FF82
:100FB6007A0EE66E59C000F05AC001F020EC00F03F
:100FC60067C100F068C101F00101674B682B00C0E2
:100FD600E9FF01C0EAFFEECF00F000C069F1005260
:100FE60010E05BC0E1FF5CC0E2FF69C1E6FF59C0EB
:100FF60000F05AC001F020EC00F001016A4B6B2BA7
:0E100600DFD782826AC100F06BC101F01200D8
:10101400020E0C6E490E0D6E0D2EFED70C2EFCD753
:06102400000000001200B4
:10102A00700E01017F6F000E806F67C181F168C188
:10103A0082F1040E836F000E846F2DEC03F0880E8C
:10104A007F6F000E806F69C181F16AC182F1040E5F
:10105A00836F000E846F2DEC03F08C0E7F6F000EF1
:10106A00806F6BC181F16CC182F1040E836F000E37
:10107A00846F2DEC03F0820E716F000E726FE6DC46
:02108A00120052
:10108C0001016D6B6E6B67C16FF168C170F1800E01
:10109C006819006E800E005C02E1000E675D0BE2C9
:1010AC00010E6D6F000E6E6F675100086F6F68C197
:1010BC0070F1000E70576FC171F170C172F169C19E
:1010CC0073F16AC174F147DC060E6B6F000E6C6F26
:1010DC00000E006E6C51005C02E16B51000819E2CD
:1010EC006B516925E16E6C516A21E26E010E6B5DEC
:1010FC00006E000E6C59016E00506925E96E0150AE
:10110C006A21EA6EEECFE6FF010E6B5F000E6C5BA0
:10111C00DFD769C1E1FF6AC1E2FF200EE66E6D51B7
:10112C006E111AE06B6B6C6B6B516925E96E6C512F
:10113C006A21EA6EEE50200A03E16B4B6C2BF4D75C
:10114C00010E6B5F000E6C5B6B516925E16E6C518F
:0A115C006A21E26E2D0EE66E12000D
:10116600F90E01016A6F000E6B6F020E906FD90EB9
:10117600916F190E926F2CEC00F06B0E0101716FDE
:101186002F0E726F000E736F0C0E746F000E756F5C
:1011960089EC03F06751030A0DE168530BE06C0E0E
:1011A6007F6F000E806F040E816F000E826FE5EC7C
:1011B60002F00AD0696B040E695D06E28D6B90EC55
:1011C60000F00101692BF7D7696B0C0E695D06E229
:1011D6008D6B90EC00F00101692BF7D75E0E7F6FE7
:1011E600000E806F060E816F000E826FE5EC02F036
:1011F600696BCA0E695D06E28D6B90EC00F0010129
:10120600692BF7D7830E716F2F0E726F000E736FF7
:10121600060E746F000E756F89EC03F067C18DF1D1
:1012260090EC00F001016751030A1AE1685318E1D6
:10123600360E8D6F90EC00F0040E01018D6F90EC70
:1012460000F0460E01017F6F000E806F040E816F65
:10125600000E826FE5EC02F0060E6A27000E6B2385
:101266008F0E716F2F0E726F000E736F050E746FF7
:10127600000E756F89EC03F06751030A23E168538A
:1012860021E1320E8D6F90EC00F0040E01018D6F9E
:1012960090EC00F00101696B040E695D0FE26C0EC3
:1012A600E96E000EEA6E6951E926D8B0EA2AEECF59
:1012B6008DF190EC00F00101692BEED7060E6A273E
:1012C600000E6B23FF0E8D6F90EC00F0220E0101D5
:1012D600716F000E726F220E736F000E746F440EE4
:1012E600756F000E766F430E776F000E786F6AC1CA
:0C12F60079F16BC17AF1BEEC03F012003C
:1013020001011051190802E10F51AD0804E2AE0EBD
:101312000F5F190E105B906B0FC191F110C192F12A
:061322002CEC00F01200AB
:101328008292400E01010F11006E5BC0E1FF5CC0AC
:10133800E2FF00C0E6FF59C000F05AC001F020ECFF
:1013480000F05BC0E1FF5CC0E2FF10C1E6FF59C0DE
:0E13580000F05AC001F020EC00F0828212007A
:1013660001018D6BCAEC00F000C014F1010E010101
:101376008D6FCAEC00F000C015F10101906B0FC132
:1013860091F110C192F12CEC00F082925BC0E1FF6A
:101396005CC0E2FF3A0EE66E59C000F05AC001F09A
:1013A60020EC00F00101135318E05BC0E1FF5CC0C4
:1013B600E2FFE66A59C000F05AC001F020EC00F0E6
:1013C60011C1D9FF12C1DAFF0050DE1801E005D0C5
:1013D6000101114B122B1307E5D701018282906B95
:1013E60014C191F115C192F12CEC00F013C100F07B
:0213F6001200E3
:1013F800B50E01017F6F190E806FBB0E816F190E3C
:10140800826FAF0E836F190E846F856BFFEC00F04F
:10141800B50E7F6F190E806F5E0E816F000E826FA2
:0E142800060E836F000E846FB4EC02F012000B
:1014360001010F6BC80E0F5D04E2E9DDE8DD0F2B3D
:04144600F9D71200C0
:10144A009DEC05F09DEC05F09DEC05F000C010F157
:10145A009DEC05F000C00FF19DEC05F000C012F103
:10146A009DEC05F000C011F19DEC05F000C014F1EF
:10147A009DEC05F000C013F19DEC05F09DEC05F024
:10148A009DEC05F09DEC05F011C100F012C101F0D0
:10149A00010E0101115F000E125B005001100EE0F7
:1014AA009DEC05F0005201E0FBD79DEC05F09DECA8
:1014BA0005F09DEC05F09DEC05F0E6D713C100F0B0
:1014CA0014C101F0010E0101135F000E145B0050FC
:1014DA00011048E09DEC05F09DEC05F09DEC05F04F
:1014EA0000C018F19DEC05F000C017F19DEC05F065
:1014FA009DEC05F09DEC05F09DEC05F09DEC05F0EA
:10150A009DEC05F09DEC05F000C016F19DEC05F090
:10151A0000C015F1000E0101181902E1010E171998
:10152A0011E19DEC05F000C078F09DEC05F000C0DB
:10153A0079F09DEC05F000C07AF09DEC05F000C052
:10154A007BF010D015C100F016C101F0010E0101A7
:10155A00155F000E165B0050011003E09DEC05F0CC
:06156A00F1D7ACD712001E
:101570000101316B326B000E325D02E1140E315D00
:1015800012E2BD0E3125656F000E3221666F9DECB3
:1015900005F065C1E1FF66C1E2FF00C0E6FF0101A1
:1015A000314B322BE8D7BD0E3125E16E000E3221D2
:1015B000E26EE66ABD0E716F000E726F470E196F14
:1015C000450E1A6F540E1B6F200E1C6F2F0E1D6FD1
:1015D0001E6B190E736F010E746F050E756F000E82
:1015E000766FFAEC04F00050011003E0006A016A23
:1015F0005AD1000E0101141902E1500E131903E033
:10160000006A016A50D1E60E676F2E0E686F000EF9
:10161000696F20EC06F000C031F101C032F1770EA5
:10162000676F2F0E686F000E696F20EC06F0005098
:10163000312701503223C20E716F000E726F4F0EB0
:101640001F6F460E206F460E216F226B1F0E736FA9
:10165000010E746F030E756F000E766FFAEC04F0D6
:101660000050011014E13A6A3B6A940E0101676F61
:101670002F0E686F000E696F20EC06F031510026C6
:101680003251012200C031F101C032F10CD101010F
:10169000C20E716F000E726F530E236F540E246FC3
:1016A000256B230E736F010E746F020E756F000EA3
:1016B000766FFAEC04F00050011003E1386A396AE1
:1016C0002ED0C20E0101716F000E726F410E266F97
:1016D000430E276F286B260E736F010E746F020E78
:1016E000756F000E766FFAEC04F00050011005E102
:1016F000010E386E000E396E12D0890E0101676F2F
:101700002F0E686F000E696F20EC06F03151002635
:101710003251012200C031F101C032F1C4D00101C7
:10172000C40E716F000E726F2C0E296F2A6B290E7A
:10173000736F010E746F010E756F000E766FFAEC09
:1017400004F00050011012E0890E0101676F2F0EA6
:10175000686F000E696F20EC06F03151002632519F
:10176000012200C031F101C032F19DD00101C50E4E
:10177000716F000E726F520E2B6F2C6B2B0E736FEE
:10178000010E746F010E756F000E766FFAEC04F0A7
:101790000050011005E1010E3C6E000E3D6E2AD096
:1017A000C50E0101716F000E726F4C0E2D6F2E6B06
:1017B0002D0E736F010E746F010E756F000E766F34
:1017C000FAEC04F00050011003E13C6A3D6A12D0CB
:1017D000890E0101676F2F0E686F000E696F20EC94
:1017E00006F0315100263251012200C031F101C012
:1017F00032F159D00101C60E716F000E726F2C0EBE
:101800002F6F306B2F0E736F010E746F010E756F9B
:10181000000E766FFAEC04F00050011012E0890E11
:101820000101676F2F0E686F000E696F20EC06F0E4
:10183000315100263251012200C031F101C032F194
:1018400032D00101C70E676F000E686FB7EC05F06C
:1018500000C03EF001C03FF0010E3A6E000E3B6E3C
:101860003EC067F13FC068F1330E696F010E6A6FC9
:101870000DDC330E676F010E686FD3EC07F000507C
:10188000312701503223940E676F2F0E686F000EC0
:10189000696F20EC06F0315100263251012200C060
:0818A00031F101C032F1120028
:1018A800C90E01017F6F190E806FCD0E816F190E61
:1018B800826FCD0E836F190E846F856BFFEC00F07D
:1018C800C90E7F6F190E806F4A0E816F000E826FEE
:0E18D800040E836F000E846FB4EC02F0120059
:0618E600006A016A120015
:1018EC00B1D04A0E0101676F000E686F696B040E70
:1018FC006A6F000E6B6FB5EC07F0010E676F686BCB
:10190C002CDC2BC074F02CC075F02DC076F02EC0E2
:10191C0077F0030E216EA7D0050E00017425016E21
:10192C00000E7521026E000E7621036E000E7721DB
:10193C00046E2E50045C08E12D50035C05E12C5024
:10194C00025C02E12B50015C02E2020E216E5FECA4
:10195C0006F00050020A03E1040E216E01D083D080
:10196C00030E0101676F2AC068F1B3EC08F02BC0BD
:10197C0074F02CC075F02DC076F02EC077F0050EEB
:10198C00216E71D05FEC06F000C00FF10050060A1A
:10199C0003E1040E216E2CD001010F51050A28E140
:1019AC002BC074F02CC075F02DC076F02EC077F0E3
:1019BC00060E216E4A0E7F6F000E806F6C0E816FCB
:1019CC00000E826F040E836F000E846F2DEC03F0FB
:1019DC00640E676F000E686F4E0E696F000E6A6FB3
:1019EC00520E6B6F000E6C6F15EC08F02A6A3BD030
:1019FC003AD0010E00017425016E000E7521026EA5
:101A0C00000E7621036E000E7721046E04502E5CBE
:101A1C0008E103502D5C05E102502C5C02E1015001
:101A2C002B5C0FE30001010E685F000E695B6A5BC3
:101A3C006B5B2BC074F02CC075F02DC076F02EC0F3
:101A4C0077F011D02150020AD8B44BD72150030A99
:101A5C00D8B462D72150040A83E02150050A92E0E1
:081A6C002150060AC6E0120039
:101A7400E5C08DF1E6C08EF171EC00F000C0F0F02D
:101A84009DEC05F000C0EFF09DEC05F000C0EEF019
:101A94009DEC05F000C0EDF0000E0001EE1902E12E
:101AA400000EED1901E194D09DEC05F000C0F2F0B8
:101AB4009DEC05F000C0F1F0F30E0101716F000E12
:101AC400726FC90E736F190E746F040E756F000E6A
:101AD400766F5FEC05F0020E906F080E0001E525AD
:101AE4000101916F000E0001E6210101926F2CECBF
:101AF40000F00E0E0001E22501010F6F000E00013F
:101B0400E3210101106F0001E45101010F27000ED0
:101B14001023080E0F27000E102381EC09F0000E8D
:101B24000001F01902E1350EEF1902E18CDC50D00E
:101B3400000E0001EE1902E1440EED1902E1D4DEBB
:101B440047D0F30E01010F6F000E106FEFC011F1BB
:101B5400F0C012F1EDC013F1EEC014F1080E000153
:101B6400F15D0101156F000E0001F2590101166FBC
:101B7400560E176F000E186FB4DE00C0F1F001C0EE
:101B8400F2F00050011024E0E70E716F000E726F46
:101B9400B50E736F190E746F060E756F000E766FA7
:101BA4005FEC05F0E70E716F000E726FF30E736F4A
:101BB400000E746FEDC075F1EEC076F1EFC077F1F1
:101BC400F0C078F1F1C079F1F2C07AF1BEEC03F023
:021BD4001200FD
:101BD600E6C08DF1E7C08EF171EC00F000C0F6F0C2
:101BE6009DEC05F000C0F5F09DEC05F000C0F4F0AA
:101BF6009DEC05F000C0F3F00001FB6B0101006BEA
:101C0600010E016F0001FE6BFF6B0C0EE625010154
:101C16008D6F000E0001E72101018E6F71EC00F05F
:101C260000C0F9F0000E0001FA6FF933F99FF9339D
:101C3600F99F000EFA6FFC0EF917FF0EFA170A0E3F
:101C46000101716F010E726FC90E736F190E746FF9
:101C5600040E756F000E766F5FEC05F00D0E000139
:101C6600E62501018D6F000E0001E72101018E6F4F
:101C760071EC00F03F0E00140001F76FF86B000ED8
:101C8600F817000EF86F0E0E575CFC6F000E5858D2
:101C9600FD6FE451FC5FE551FD5BF951FC5FFA51C4
:101CA600FD5B020EE62501018D6F000E0001E721A6
:101CB60001018E6F71EC00F000C08FF1E6C08DF16E
:101CC600E7C08EF1A9EC00F0030E0001E625010144
:101CD6008D6F000E0001E72101018E6F71EC00F09F
:101CE60000C08DF190EC00F0F5C07FF1F6C080F1F8
:101CF60090EC02F0040E0001E62501018D6F000E46
:101D06000001E72101018E6F71EC00F000C005F1C2
:101D16009DEC05F000C004F19DEC05F000C003F158
:101D26009DEC05F000C002F19DEC05F000C009F144
:101D36009DEC05F000C008F19DEC05F000C007F130
:101D46009DEC05F000C006F1000E0001F81902E155
:101D5600020EF7193FE1010E01010225006E000E89
:101D66000321016E000E0421026E000E0521036E92
:101D760000C006F101C007F102C008F103C009F175
:101D8600120E0001F76F000EF86F0C0E01018D6F39
:101D9600CAEC00F000C002F10D0E01018D6FCAEC15
:101DA60000F000C003F101018D6BCAEC00F000C029
:101DB60004F1010E01018D6FCAEC00F000C005F1BF
:101DC6000001FB2B180EF96F000EFA6FFE6BFF6B0E
:101DD600166A70D0000EF81902E1180EF71930E1F4
:101DE60002C1E8F003C1E9F004C1EAF005C1EBF075
:101DF60006C102F107C103F108C104F109C105F1E9
:101E0600FC51E825006EFD51E921016E000EEA2124
:101E1600026E000EEB21036E00C006F101C007F151
:101E260002C008F103C009F1100EF76F000EF86F3B
:101E3600FB2B140EF96F000EFA6F0101002B3AD03E
:101E4600000E0001F81902E1110EF71933E102C183
:101E5600ECF003C1EDF004C1EEF005C1EFF006C1F0
:101E660002F107C103F108C104F109C105F1010E30
:101E7600EC25006E000EED21016E000EEE21026EC5
:101E8600000EEF21036E00C006F101C007F102C08B
:101E960008F103C009F1100EF76F000EF86FFB2B67
:101EA600140EF96F000EFA6FFE6BFF6B155202E10E
:101EB600162A156A0001FB53D8B420D20001040E7D
:101EC600E62501017F6F000E0001E7210101806F09
:101ED60005C181F104C182F185EC02F003C18DF1E7
:101EE60090EC00F002C18DF190EC00F009C18DF18B
:101EF60090EC00F008C18DF190EC00F007C18DF177
:101F060090EC00F006C18DF190EC00F00C0E000193
:101F1600E62501018D6F000E0001E72101018E6F9C
:101F260071EC00F00F0E001401018F6FF9C000F084
:101F3600003600900036009000508F130C0E000102
:101F4600E62501018D6F000E0001E72101018E6F6C
:101F5600A9EC00F00D0E0001E62501018D6F000EC3
:101F66000001E72101018E6F71EC00F0C00E001434
:101F760001018F6F0001F75101018F130D0E000152
:101F8600E62501018D6F000E0001E72101018E6F2C
:101F9600A9EC00F0000E0001F81902E1120EF71983
:101FA60029E10E0EE62501017F6F000E0001E721F3
:101FB6000101806F050E816FEE0E826F85EC02F0D7
:101FC600140E0001E62501017F6F000E0001E721D6
:101FD6000101806F020E816F040E826F85EC02F0A4
:101FE600050E01018D6F90EC00F0780E01018D6FEA
:101FF60090EC00F00001E451FE25FC6FE551FF2155
:10200600FD6FF951FC27FA51FD230101015303E04D
:10201600FCEC09F046DCBF0E7F6F190E806FFDC029
:1020260081F1FCC082F185EC02F0C70E01017F6FE1
:10203600190E806F816B826B85EC02F0BD0E01017B
:102046007F6F190E806FE4C081F1E5C082F15DEC0F
:1020560002F0160E01018D6FCAEC00F000C00EF101
:10206600170E01018D6FCAEC00F000C081F1C70E9A
:1020760001017F6F190E806F0EC182F185EC02F0AF
:10208600BD0E0001FC25F16F190EFD21F26F100E39
:10209600E62501017F6F000E0001E7210101806F37
:1020A600816B826B85EC02F0010E0001FC15F06F6E
:1020B600F1C08DF1F2C08EF101018F6BA9EC00F039
:1020C600C90E01017F6F190E806FD10E816F190E37
:1020D600826F0001F051F1250101836F000E0001AE
:1020E600F2210101846F856BFFEC00F0080E000100
:1020F600F12501017F6F000E0001F2210101806FC1
:102106000001F05101017F27000E8023816B060E2E
:10211600826F85EC02F00A0E0001F12501017F6F46
:10212600000E0001F2210101806F0001F051010152
:102136007F27000E80230001FE51F925036EFF5113
:10214600FA21046E04C000F0016A00C081F103C0E8
:1021560082F185EC02F0E6C07FF1E7C080F1000174
:10216600FE51F9250101816F0001FF51FA2101019C
:10217600826F0C0E8127000E82230001F0510101AF
:102186008127000E82235DEC02F0160E01018D6F91
:10219600CAEC00F000C00EF1170E01018D6FCAECFB
:1021A60000F000C081F1100E0001E62501017F6FED
:1021B600000E0001E7210101806F0EC182F185EC5E
:1021C60002F00E0E0001FC2501017F6F000E0001DA
:1021D600FD210101806F86EC01F0005363E0100ED3
:1021E6000001F76F000EF86F0101006B016B020E24
:1021F600906F0001F951E6250101916F0001FA5136
:10220600E7210101926F2CEC00F00E0E0001E22591
:1022160001010F6F000E0001E3210101106F0001A3
:10222600E45101010F270001E551010110230001CE
:10223600F95101010F270001FA510101102381EC28
:1022460009F0162A0A0E01010F6F010E106FF5C074
:1022560011F1F6C012F1F3C013F1F4C014F10E0E31
:10226600575C156F000E5858166F0001E4510101B6
:10227600155F0001E5510101165B0001F9510101ED
:10228600155F0001FA510101165B560E176F000E1D
:10229600186FB8EC0AF000C0FEF001C0FFF056A0BF
:1022A600166A0CD616522AE00001FE5101010225DB
:1022B600006E0001FF5101010321016E000E042191
:1022C600026E000E0521036E00C002F101C003F18B
:1022D60002C004F103C005F1110E0001F76F000EF4
:1022E600F86F166A0101016B140E0001F96F000EFA
:0E22F600FA6FFE6BFF6B010E156EE0D5120045
:102304001F0E01018D6F010E8E6F54EC00F01F0E35
:1023140001018D6F020E8E6FE2EC00F0140E0101CC
:102324000F6FE2C010F194EC09F0120E01018D6FF1
:10233400010E8E6FE2EC00F01BEC0AF0120E8D6FB2
:10234400010E8E6F54EC00F0180E01018D6FCAEC73
:1023540000F0E5C0E1FFE6C0E2FF00C0E6FF190EB1
:1023640001018D6FCAEC00F0E3C0E1FFE4C0E2FFBD
:0623740000C0E6FF1200AC
:10237A001F0E01018D6F010E8E6F54EC00F01F0EBF
:10238A0001018D6F020E8E6FE2EC00F0140E010156
:10239A000F6FE2C010F194EC09F01BEC0AF0160E74
:1023AA000F6FE4C010F194EC09F01BEC0AF0170E61
:1023BA000F6FE3C010F194EC09F01BEC0AF0120065
:1023CA00C40E01018D6F190E8E6F71EC00F000C002
:1023DA00E2F0E8D0D50E01010F6F190E106F4A0E08
:1023EA00116F000E126F040E136FB3EC09F0005058
:1023FA00000A4BE1C40E01018D6F190E8E6F020E99
:10240A008F6FA9EC00F0FCEC09F0CB0E7F6F190E70
:10241A00806FCF0E816F190E826FD50E836F190EE2
:10242A00846F856BFFEC00F0CB0E7F6F190E806F07
:10243A004A0E816F000E826F040E836F000E846F46
:10244A00B4EC02F0C50E7F6F190E806FCB0E816F50
:10245A00190E826FCF0E836F190E846F856BFFEC96
:10246A0000F0C50E7F6F190E806F5E0E816F000E31
:10247A00826F060E836F000E846FB4EC02F03C0E7E
:10248A007F6F000E806F86EC01F095D00101AF0ED0
:10249A000F6F190E106F5E0E116F000E126F060E7F
:1024AA00136FB3EC09F00050000A7BE1CB0E010177
:1024BA000F6F190E106F86C011F187C012F1040E4A
:1024CA00136FB3EC09F00050000A6BE10F0E006EB7
:1024DA00000E016E37C004F0000E056E55EC03F0D5
:1024EA00900E00240101716F000E0120726F090E17
:1024FA007127000E7223C50E736F190E746F060EC4
:10250A00756F000E766F5FEC05F00F0E006E000E11
:10251A00016E37C004F0000E056E55EC03F0900E04
:10252A0000247F6F000E0120806F050E7F27000EAA
:10253A00802386C081F187C082F1040E836F000E6A
:10254A00846F2DEC03F00F0E006E000E016E37C083
:10255A0004F0000E056E55EC03F0900E0024E16EB7
:10256A00000E0120E26E010EE66E0F0E006E000EE6
:10257A00016E37C004F0000E056E55EC03F0900EA4
:10258A000026000E0122010E0024E16E000E012039
:10259A00E26E2BC0E6FF2CC0E6FF2DC0E6FF2EC080
:1025AA00E6FF09D00001E251010AD8B413D7E2517B
:0825BA00020AD8B46BD712002D
:1025C2000001DF6B568056921F0E01018D6F010EC6
:1025D2008E6F54EC00F01F0E01018D6F020E8E6F94
:1025E20054EC00F00101906B28C091F129C092F1E6
:1025F2002CEC00F082925BC0E1FF5CC0E2FF3A0E7D
:10260200E66E59C000F05AC001F020EC00F05BC049
:10261200E1FF5CC0E2FFE66A59C000F05AC001F077
:1026220020EC00F000C028F05BC0E1FF5CC0E2FFDC
:10263200E66A59C000F05AC001F020EC00F000C078
:1026420029F05BC0E1FF5CC0E2FFE66A59C000F01E
:102652005AC001F020EC00F000C057F05BC0E1FF6F
:102662005CC0E2FFE66A59C000F05AC001F020ECFB
:1026720000F000C058F05BC0E1FF5CC0E2FFE66A18
:1026820059C000F05AC001F020EC00F000C0DDF0AB
:102692005BC0E1FF5CC0E2FFE66A59C000F05AC0CD
:1026A20001F020EC00F000C0DEF08282040E575EE2
:1026B200000E585A2950190802E12850AD080FE3BC
:1026C20028B00DD00001DEBF0AD05850050802E143
:1026D2005750EE0804E30001DDAF01D003D0010E34
:1026E200006EDAD101018D6BCAEC00F000C0DBF0A4
:1026F200010E01018D6FCAEC00F000C0DCF0DBC0FE
:102702007FF1DCC080F157500001DB250101816FB0
:1027120058500001DC210101826FAF0E836F190E48
:10272200846F010E856FFFEC00F0BB0E8D6F190EEA
:102732008E6F71EC00F000C0DEF09DEC05F000C081
:10274200DDF00001DE51080A02E1060EDD1912E198
:10275200BD0E01010F6F190E106F2F0E116F000EBB
:10276200126F070E136FB3EC09F00050000A01E17B
:102772002BDE68D10001DE51080A02E1000EDD19EC
:10278200D8A45DD1CD0E01010F6F190E106F820E0C
:10279200116F000E126F040E136FB3EC09F00052AA
:1027A200D8B45682CD0E01010F6F190E106F220E92
:1027B200116F000E126F040E136FB3EC09F000528A
:1027C200D8B45682CD0E01010F6F190E106F4A0E4A
:1027D200116F000E126F040E136FB3EC09F000526A
:1027E20006E056B204D0020E0001DF6F27D1BD0E03
:1027F20001018D6F190E8E6F71EC00F0F00E001456
:10280200016E0150400A04E0030E0001DF6F16D191
:10281200BD0E01018D6F190E8E6F71EC00F000C0BC
:10282200D9F0000E0001DA6F0F0ED917000EDA1779
:10283200D937D991DA37D937D991DA37C30E0101AD
:102842008D6F190E8E6F71EC00F0BF0E0014016EC9
:102852000150000AD8A4F2D0C40E01018D6F190EE6
:102862008E6F71EC00F00050000AD8A4E7D0BD0EC4
:102872000001D925D76F190EDA21D86FC60E0101D2
:102882008D6F190E8E6F71EC00F000C0D6F0005003
:10289200010AD8A494D0D7C08DF1D8C08EF171ECC2
:1028A20000F00050080AD8A489D0010E0001D725F3
:1028B20001018D6F000E0001D82101018E6F71ECB4
:1028C20000F00050000A7AE1D7C08DF1D8C08EF135
:1028D20001018F6BA9EC00F0FCEC09F054EC0CF058
:1028E200C70E7F6F190E806F816B826B85EC02F0D1
:1028F200BD0E01017F6F190E806FD9C081F1DAC060
:1029020082F15DEC02F0160E01018D6FCAEC00F04F
:1029120000C0E0F0170E01018D6FCAEC00F000C09C
:1029220081F1C70E01017F6F190E806FE0C082F145
:1029320085EC02F0020E0001D72501017F6F000E27
:102942000001D8210101806F816B826B85EC02F05E
:10295200D7C07FF1D8C080F10001D951575C010185
:10296200816F0001DA5158580101826F0E0E815FAA
:10297200000E825B5DEC02F0160E01018D6FCAEC57
:1029820000F000C0E0F0170E01018D6FCAEC00F0FC
:1029920000C081F1020E0001D72501017F6F000EF8
:1029A2000001D8210101806FE0C082F185EC02F0C4
:1029B20057C07FF158C080F186EC01F03FD0000192
:1029C200D651110A0DE1DBC0E2F0DCC0E3F0D9C060
:1029D200E4F0D7C0E5F0D8C0E6F03AEC0DF02ED026
:1029E2000001D651060A2AE1100EDB2501018D6F86
:1029F200000E0001DC2101018E6F71EC00F000C0BD
:102A0200E1F00001E06B9DEC05F000500001E025D3
:102A1200576E000EE121586E0E0E5726000E5822F8
:102A2200DBC0E2F0DCC0E3F0D9C0E4F0DAC0E5F0EC
:102A3200D7C0E6F0D8C0E7F0EBEC0DF003D0040EFF
:102A42000001DF6F1E0E01018D6F400E8E6FE2ECF2
:102A520000F0010E285C016E000E2958026E025031
:102A6200190802E10150AD080AE20C0E0101906F53
:102A7200AD0E916F190E926F2CEC00F00BD00C0E74
:102A82000101906F010E285C916F000E2958926F20
:0A2A92002CEC00F0DFC000F0120091
:102A9C0001010F6B0001D65303E00D0ED76F02D06E
:102AAC00050ED76FD7C010F194EC09F0020E01019E
:102ABC000F6F0001D65303E0310ED86F02D0300EE9
:102ACC00D86FD8C010F194EC09F00A0E0101906F88
:102ADC00EE0E916F050E926F2CEC00F0040E0101BE
:102AEC000F6F0001D65303E0150ED96F02D0120EF2
:102AFC00D96FD9C010F194EC09F0060E01010F6FDB
:102B0C00120E106F94EC09F00001D65307E1070E7A
:102B1C0001010F6F0C0E106F94EC09F00001D653ED
:102B2C0007E1090E01010F6F3F0E106F94EC09F0D5
:102B3C001F0E01018D6F010E8E6FE2EC00F01F0E67
:102B4C0001018D6F020E8E6FE2EC00F0040E01019C
:102B5C000F6F5EC010F194EC09F0050E01010F6FC0
:102B6C005FC010F194EC09F0020E01010F6F60C010
:102B7C0010F194EC09F0030E01010F6F61C010F11C
:102B8C0094EC09F001010F6B62C010F194EC09F0A8
:102B9C00010E01010F6F63C010F194EC09F0150EDA
:102BAC0001010F6F106B94EC09F0120E01018D6F87
:102BBC00CAEC00F000C05DF00001E26BDB0EE36FCD
:102BCC00000EE46FDC0EE56F000EE66F82EC11F088
:102BDC000001E26BFE0EDB15E36FD65303E0010E32
:102BEC00DA6F01D0DA6BDA51E313DCC0E4F0BDEC40
:102BFC0011F0100E0001E26F010EE36FE46BBDECFF
:102C0C0011F01F0E8D6F040E8E6FE2EC00F01BECBA
:102C1C000AF0900E676F000E686F696B2D0E6A6F6D
:102C2C00000E6B6FB5EC07F01F0E8D6F010E8E6FE3
:102C3C0054EC00F01F0E01018D6F020E8E6F54ECE0
:042C4C0000F0120082
:102C50000900F5CFE6FF0006FBE10106F9E11200ED
:102C6000C69A1C0E596E000E5A6E930E5B6E010EC4
:102C70005C6EFF0E00017E6FFF0E7F6FFF0E806F98
:102C8000FF0E816F949A94969488C66A400EC76E20
:042C9000C68A1200DE
:102C940094908280949282821BEC0AF082801BECD6
:102CA4000AF082901BEC0AF082801BEC0AF08292FC
:102CB4005BC0E1FF5CC0E2FFFF0EE66E59C000F0AE
:102CC4005AC001F020EC00F082821BEC0AF05E0E88
:102CD4007F6F000E806FD1C081F1D2C082F1060EE9
:102CE400836F000E846F2DEC03F04A0E7F6F000E8D
:102CF400806FD3C081F1D4C082F1040E836F000EC3
:102D0400846F2DEC03F01F0E8D6F010E8E6F54EC4B
:102D140000F01F0E01018D6F020E8E6F54EC00F057
:102D2400080E0101906F916B926B2CEC00F00A0E6F
:102D34000101906FAD0E916F190E926F2CEC00F0A3
:102D44000C0E0101906FAD0E916F190E926F2CEC69
:102D540000F00101906B916B926B2CEC00F0040E6F
:102D64000101906FAE0E916F190E926F2CEC00F072
:102D74001F0E01018D6F010E8E6F54EC00F01F0EBB
:102D840001018D6F020E8E6FE2EC00F0D5C0D6F01B
:042D940083DE1200C8
:102D98000001D16B1F0E01018D6F010E8E6FE2ECE9
:102DA80000F01F0E01018D6F020E8E6F54EC00F0C3
:102DB800190E01018D6FCAEC00F00050000804E202
:102DC800E1EC12F000C0D1F01F0E01018D6F010E71
:102DD8008E6F54EC00F01F0E01018D6F020E8E6F86
:0A2DE80054EC00F0D1C000F012001E
:102DF2000001D16BD26B3A503B1005E1D1C044F0D7
:102E0200D2C045F01CD0030ED16F000ED26F07D096
:102E1200D18511D00B0ED117000ED2170CD0000E97
:102E22003D1802E1000E3C18F3E0000E3D1802E1ED
:102E3200010E3C18EFE0D1C044F0D2C045F01200C0
:102E4200CCEC17F0380ED36E936A926A816A806A6C
:102E52000F013A6B3B6B956A836A01DF170ED16FE4
:102E6200000ED26F1D0ED36F000ED46F010ED56F00
:102E720010DF91DF000E3B1802E1000E3A1801E16B
:102E8200F8D722D0B5DF010E4024006E000E41209B
:102E9200016E00C040F001C041F041503F1802E114
:102EA2003E5040180DE1080E4418006E45C001F076
:102EB200000E011A00C044F001C045F0406A416AA8
:102EC20044C081FF0DD00CD0000E391802E1000E73
:102ED2003818D8E0000E391802E1010E3818F3E074
:042EE200C8D7FFD777
:102F980010EE15F0310E006E010E016E220EF66E67
:0E2FA8002F0EF76E000EF86E28EC16F01200D9
:102EE600485454502F312E3120323030204F4B0A67
:102EF6004163636573732D436F6E74726F6C2D41FE
:102F06006C6C6F772D4F726967696E3A2A0A436F48
:0C2F16006E74656E742D747970653A005D
:012F220000AE
:012F230000AD
:062F24000014A576193F20
:042F2A000AD337058A
:012F2E0000A2
:062F2F00FFFFFFFFFFFFA2
:022F350000009A
:012F37000099
:042F38000000000095
:082F3C0000010800060400007A
:012F4400008C
:0E2F4500000000000000280000000000000056
:062F5300474554202F0049
:042F59004F46460099
:032F5D00535400CA
:032F6000414300EA
:022F63002C0040
:022F6500520018
:022F67004C001C
:022F69002C003A
:0C2F6B0001010600122334450000800024
:0C2F7700746578742F68746D6C0A0A0091
:062F830063825363350177
:062F89004552524F5200B8
:052F8F003703010306F9
:032F94004F4B00A0
:020000040030CA
:0D000100231F3CFFBF81FF0FC00FE00F4029
:00000001FF
