:100000002AEF15F00000000000EF00F000000000F3
:0A0010000000000000000000F3D71C
:10001C003FC4C9FFC7B002D00000FCD7C9CF00F065
:02002C001200C0
:10002E003FC46FFF6DB002D00000FCD76FCF00F061
:02003E001200AE
:10004000F250026EF29E0500FF6A0150FE6E0050F3
:08005000FD6E02BEF28E1200EB
:100058008292400E04013C11006E66C3E1FF67C343
:10006800E2FF00C0E6FF64C300F065C301F0E4DF0F
:1000780066C3E1FF67C3E2FF3DC4E6FF64C300F067
:1000880065C301F0D9DF66C3E1FF67C3E2FF3EC481
:10009800E6FF64C300F065C301F0CEDF8282120080
:1000A800020E04013C6F39C43DF43AC43EF4D0DF7B
:1000B800829266C3E1FF67C3E2FF7A0EE66E64C30D
:1000C80000F065C301F0B8DF66C3E1FF67C3E2FF74
:1000D8003BC4E6FF64C300F065C301F0ADDF828274
:0200E800120004
:1000EA0004013C6B39C43DF43AC43EF4B0DF829259
:1000FA0066C3E1FF67C3E2FF3A0EE66E64C300F02F
:10010A0065C301F098DF66C3E1FF67C3E2FFE66AF1
:0E011A0064C300F065C301F08EDF8282120024
:10012800829266C3E1FF67C3E2FF7A0EE66E64C39C
:1001380000F065C301F080DF66C3E1FF67C3E2FF3B
:1001480039C4E6FF64C300F065C301F075DF82823D
:02015800120093
:10015A008292800E04013911006E66C3E1FF67C303
:10016A00E2FF00C0E6FF64C300F065C301F063DF8D
:10017A0066C3E1FF67C3E2FF3AC4E6FF64C300F067
:0A018A0065C301F058DF8282120005
:10019400829266C3E1FF67C3E2FF39C4E6FF64C32A
:1001A40000F065C301F04ADF66C3E1FF67C3E2FF05
:1001B400E66A64C300F065C301F040DF8282120086
:1001C4008292A00E04013911006E66C3E1FF67C379
:1001D400E2FF00C0E6FF64C300F065C301F02EDF58
:1001E40066C3E1FF67C3E2FF3AC4E6FF64C300F0FD
:0A01F40065C301F023DF82821200D0
:1001FE000401386B010E2D5F000E2E5B31530DE0A6
:10020E002E51190802E12D51AD0807E2382BAD0E23
:10021E002D5D366F190E2E59376F385305E0AD0E22
:10022E00326F190E336F04D02DC432F42EC433F452
:10023E002C51331902E132512B190DE12BC439F433
:10024E002CC43AF44BDF00C03BF42FC439F430C455
:10025E003AF423DF36D0100E04013C6F2BC43DF46C
:10026E002CC43EF4F2DE120E04013C6F385305E04E
:10027E00AD0E346F190E356F04D02DC434F42EC468
:10028E0035F434C43DF435C43EF4DFDE140E0401FF
:10029E003C6F2FC43DF430C43EF4D7DE1F0E040174
:1002AE00396F100E3A6F87DF1F0E0401396F200E63
:1002BE003A6F4CDF1F0E0401396F65DF00AA01D0C3
:1002CE00F9D7040138531AE02B512D5D006E2C51D5
:1002DE002E59016E3651005E3751015A004A012ADD
:1002EE0000502F2701503023010E365D2D6F000E6A
:0E02FE0037592E6F2B6B2C6B386B8FD712007D
:10030C00020E04013C6F2BC43DF42CC43EF49EDE63
:10031C00829266C3E1FF67C3E2FF7A0EE66E64C3A6
:10032C0000F065C301F086DE04012F51301117E097
:10033C0066C3E1FF67C3E2FF2DC4E9FF2EC4EAFFE9
:10034C00EECFE6FF64C300F065C301F073DE040179
:10035C002D4B2E2B010E2F5F000E305BE5D78282CA
:02036C0012007D
:10036E0004012D512B252F6F2E512C21306F010E94
:10037E002F5F000E305B100E3C6F2BC43DF42CC46F
:10038E003EF463DE120E04013C6F2FC43DF430C404
:10039E003EF45BDE1F0E0401396F300E3A6FD6DE6F
:1003AE001F0E0401396FEFDE00AA01D0F9D712003B
:1003BE002BC439F42CC43AF42DC43BF46EDE2EC497
:0603CE0039F4ABDE120061
:1003D400829266C3E1FF67C3E2FF7A0EE66E64C3EE
:1003E40000F065C301F02ADE2DC400F02EC401F034
:1003F400010E04012D5F000E2E5B0050011013E06E
:1004040066C3E1FF67C3E2FF2BC4E9FF2CC4EAFF24
:10041400EECFE6FF64C300F065C301F00FDE040114
:0A0424002B4B2C2BE1D78282120033
:10042E00829266C3E1FF67C3E2FF7A0EE66E64C393
:10043E0000F065C301F0FDDD66C3E1FF67C3E2FFB7
:10044E002CC4E6FF64C300F065C301F0F2DD66C3A1
:10045E00E1FF67C3E2FF2BC4E6FF64C300F065C390
:08046E0001F0E7DD82821200BB
:100476002DC404F02EC405F02BC402F02CC403F0E6
:100486002FC400F030C401F0010E04012F5F000EEE
:10049600305B005001100FE004C0E9FF05C0EAFF21
:1004A60002C0E1FF03C0E2FFEECFE6FF024A032AE5
:1004B600044A052AE5D72BC400F02CC401F012002B
:1004C600AE0E0401396F190E3A6F3B6BEADDAE0EC4
:1004D60004012B25006E190E2C21016E00C02BF491
:1004E60001C02CF4060E3C6F00C03DF401C03EF482
:1004F600B0DD1F0E0401396F800E3A6F2BDE1F0E22
:100506000401396F800E3A6F5ADE0301C051050AA5
:1005160004E0C051070A01E006D01C0E0401396F41
:100526000A0E3A6F4CDE1F0E0401396F080E3A6F41
:1005360011DE0301C051050A04E0C051070A01E0BB
:1005460080D00401306B316B1C0E396F20DE0A0E31
:10055600001600520AE10401304B312B030E315DC7
:1005660002E1E80E305D01E2EFD704011C0E396F9F
:100576000EDE00B208D0030E0401315D02E1E80E82
:10058600305D01E25DD004011F0E396F080E3A6F2F
:1005960016DE040E04012B25396F000E2C213A6F4E
:1005A600A1DD00C02FF404012D6B100E2D5D48E275
:1005B6001C0E396FECDD00A23FD004012FAB3CD0FE
:1005C6001F0E396F800E3A6FC5DD1F0E0401396F9D
:1005D600800E3A6FF4DD1C0E0401396F0A0E3A6F75
:1005E600EEDD1F0E0401396F080E3A6FB3DD04010C
:1005F600306B316B1C0E396FCADD0A0E00160052C5
:100606000AE10401304B312B030E315D02E1E80EA5
:10061600305D01E2EFD704011F0E396F080E3A6F05
:10062600CEDD040E04012B25396F000E2C213A6F06
:1006360059DD00C02FF401D003D004012D2BB5D70E
:1006460007D004011F0E396FA2DD00A601D0F9D72D
:100656001D0E0401396F9BDD060E0016005203E0E5
:1006660004012E6B03D00401010E2E6F2EC400F080
:02067600120070
:100678001DC42BF41EC42CF4770E04012D6F030E39
:100688002E6F040E2F6F000E306FF1DE1F6B1F519F
:10069800030821E31F511D25026E000E1E21036E63
:1006A80002C0E9FF03C0EAFFEECF01F07B0EE96E5E
:1006B800030EEA6E1F51E926D8B0EA2AFF0EEE189B
:1006C800006E0150001202C0E1FF03C0E2FF00C04B
:0806D800E6FF1F2BDCD7120026
:1006E000AF0E04012B6F190E2C6F1DC42DF41EC408
:1006F0002EF4060E2F6F000E306F08DE700E2B6F7B
:10070000030E2C6F060E2D6F000E2E6F63DE000E93
:100710002B6F080E2C6F8BDE1C0E04012525286F15
:10072000000E2621296F000E2B6F450E2C6F7FDEE9
:1007300028C42BF429C42CF47ADEB6C32BF4B7C337
:100740002CF475DE0301B64BB72B04012B6B2C6B1D
:100750006EDE110E04012B6F800E2C6F68DE04011B
:100760002B6B2C6B64DE770E04012B6F030E2C6F4A
:10077000040E2D6F000E2E6F2DDE1FC42BF420C42F
:100780002CF4040E2D6F000E2E6F24DE080E25258E
:10079000286F000E2621296F21C42BF422C42CF4CB
:1007A00046DE23C42BF424C42CF441DE28C42BF4ED
:1007B00029C42CF43CDE04012B6B2C6B38DEBD0EFF
:1007C00004012B6F190E2C6F140E2D6F000E2E6F5F
:1007D000CEDD160E0401396FDDDC00C02AF4170EE1
:1007E0000401396FD7DC00C02DF4C70E04012B6F54
:1007F000190E2C6F2AC42EF4E2DD010E0401281517
:10080000276FD90E2525396F190E26213A6F3B6BBC
:100810004BDCC90E04012B6F190E2C6FD10E2D6FFE
:10082000190E2E6FD90E25252F6F190E2621306F28
:1008300027512F27000E3023316BE1DCD90E2525FF
:100840002B6F190E26212C6F27512B27000E2C23DE
:10085000080E2B27000E2C232D6B110E2E6FAFDDF3
:1008600029C439F461DC28C439F45EDCD10E0401FA
:100870002B6F190E2C6F0C0E28252D6F000E2921C1
:100880002E6F27512D27000E2E2371DD160E040129
:10089000396F80DC00C02AF4170E0401396F7ADC4E
:1008A00000C02DF4D70E04012B6F190E2C6F2AC433
:1008B0002EF485DD2A0E040125252B6F000E26213E
:0608C0002C6F01DE1200A6
:1008C600829266C3E1FF67C3E2FF7A0EE66E64C3F7
:1008D60000F065C301F020EC00F020C400F021C454
:1008E60001F0010E0401205F000E215B0050011093
:1008F6001CE066C3E1FF67C3E2FF1DC4F6FF1EC42A
:10090600F7FF1FC4F8FF0900F5CF00F000C0E6FFAF
:1009160064C300F065C301F020EC00F0010E040191
:0E0926001D27000E1E231F23D8D78282120029
:1009340004012051FF0A02E1FF0E1F1907E03C6B7E
:100944001FC43DF420C43EF42CEC00F0829266C334
:10095400E1FF67C3E2FF3A0EE66E64C300F065C3CD
:1009640001F020EC00F021C400F022C401F0010EDB
:100974000401215F000E225B0050011015E066C3E4
:10098400E1FF67C3E2FFE66A64C300F065C301F0F8
:1009940020EC00F01DC4E1FF1EC4E2FF00C0E6FF2E
:0C09A40004011D4B1E2BDFD782821200C5
:1009B000829266C3E1FF67C3E2FF3A0EE66E64C34C
:1009C00000F065C301F020EC00F066C3E1FF67C3EF
:1009D000E2FFE66A64C300F065C301F020EC00F0BA
:0409E00082821200FD
:1009E40021C401F022C402F0010E0401215F000EB3
:1009F400225B000E021802E1000E01181FE01DC464
:100A0400E9FF1EC4EAFF1FC4D9FF20C4DAFFEE5079
:100A1400DE180FE01DC4E9FF1EC4EAFF1FC4D9FF9E
:100A240020C4DAFFDE50EE5C006E016A000E015A4B
:100A340007D01D4B1E2B1F4B202BD2D7006A016AF7
:020A440012009E
:100A46007B0E04012B6F030E2C6F15C42DF416C4F8
:100A56002EF4040E2F6F000E306F0ADDC10E2B6FC1
:100A6600030E2C6F17C42DF418C42EF4040E2F6F2A
:100A7600000E306FFDDCB80E2B6F030E2C6F19C401
:100A86002DF41AC42EF4040E2F6F000E306FF0DC16
:0C0A9600C50E1D6F030E1E6FECDD12007C
:100AA200020E0C6E490E0D6E0D2EFED70C2EFCD7CB
:060AB2000000000012002C
:100AB8000401176B3C0E0301686F000E696F6A6FC3
:100AC8006B6F72DF00C015F40050020AD8A419D168
:100AD8000401166B0F0E165D04E266DF0401162B87
:100AE800F9D76C0E1D6F030E1E6FFF0E1F6FFF0EE2
:100AF800206F040E216F000E226F18DF166B080E90
:100B0800165D04E251DF0401162BF9D7166B060EA9
:100B1800165D12E249DF00C015F4700ED96E030E9F
:100B2800DA6E04011651D926D8B0DA2A0050DE1838
:100B380001E012D1162BEBD7166BCE0E165D04E230
:100B480033DF0401162BF9D7186B2EDF00C015F41C
:100B5800B9D02ADF00C015F40050010A04E124DFEF
:100B680000C017F401D0F8D0C8D01EDF00C015F4BB
:100B78000050040A0FE15E0E04011D6F030E1E6F84
:100B8800FF0E1F6FFF0E206F040E216F000E226FE5
:100B9800CDDE01D0E1D0B1D007DF00C015F4040EDE
:100BA800005C0FE3480E04011D6F030E1E6FFF0E5D
:100BB8001F6FFF0E206F040E216F000E226FB6DE2E
:100BC80001D0CAD00401040E155F040115C400F059
:100BD8001507005202E0E8DEF8D78FD0E5DE00C046
:100BE80015F4040E005C0FE34C0E04011D6F030E98
:100BF8001E6FFF0E1F6FFF0E206F040E216F000E79
:100C0800226F94DE01D0A8D00401040E155F040100
:100C180015C400F01507005202E0C6DEF8D76DD003
:100C2800C3DE00C015F40050040A0FE1190E0401D8
:100C38001D6F040E1E6FFF0E1F6FFF0E206F040E38
:100C4800216F000E226F72DE01D086D056D00401CB
:100C5800010E186F52D0A8DE00C015F40050040A27
:100C680023E1680E04011D6F030E1E6FFF0E1F6F38
:100C7800FF0E206F040E216F000E226F57DE030156
:100C88006B51000808E16A51000805E1695107083D
:100C980002E16851080807E2080E685F070E695B01
:100CA800000E6A5B6B5B01D057D027D07DDE00C099
:100CB80015F415C400F004011507005202E074DEB3
:100CC800F8D71BD004011551350AD8B442D71551AD
:100CD800010AD8B44AD71551030AD8B45DD71551BB
:100CE800060AD8B47BD71551360A9AE01551FF0A7F
:100CF800AEE01551330AAFE0D9D704011853D8B480
:100D080024D704011751020A0FE15A0E2B6F030E64
:100D18002C6F190E2D6F040E2E6F040E2F6F000E00
:100D2800306F3BEC02F015D05A0E1D6F030E1E6F8C
:100D3800190E1F6F040E206F040E216F000E226F14
:100D48004DDE000E011802E1000E001802E0040159
:0C0D5800176B17C400F001D0006A1200F5
:100D640015C402F016C403F018C400F019C401F04D
:100D7400010E0401185F000E195B0050011009E018
:100D840002C0E1FF03C0E2FF17C4E6FF024A032AE0
:0C0D9400EBD715C400F016C401F01200EB
:100DA000F90E0401186F000E196F020E3C6FD90E78
:100DB0003D6F190E3E6F2CEC00F01D0E04011D6FEF
:100DC0002E0E1E6F000E1F6F0C0E206F000E216F77
:100DD0007ADD1551030A0DE116530BE06C0E2B6FF3
:100DE000030E2C6F040E2D6F000E2E6FEAEC01F037
:100DF0000AD0176B040E175D06E2396B94EC00F015
:100E00000401172BF7D7176B0C0E175D06E2396B31
:100E100094EC00F00401172BF7D7700E2B6F030E24
:100E20002C6F060E2D6F000E2E6FEAEC01F0176B83
:100E3000CA0E175D06E2396B94EC00F00401172B23
:100E4000F7D7350E1D6F2E0E1E6F000E1F6F060E8C
:100E5000206F000E216F37DD15C439F494EC00F0DB
:100E600004011551030A1AE1165318E1360E396FC1
:100E700094EC00F0040E0401396F94EC00F05A0E6B
:100E800004012B6F030E2C6F040E2D6F000E2E6FBE
:100E9000EAEC01F0060E1827000E19233B0E1D6F19
:100EA0002E0E1E6F000E1F6F050E206F000E216F9D
:100EB0000ADD1551030A23E1165321E1320E396F81
:100EC00094EC00F0040E0401396F94EC00F004017E
:100ED000176B040E175D0FE26C0EE96E030EEA6EDF
:100EE0001751E926D8B0EA2AEECF39F494EC00F095
:100EF0000401172BEED7060E1827000E1923FF0E3C
:100F0000396F94EC00F03D0E04011D6F030E1E6F4F
:100F10003D0E1F6F030E206F440E216F000E226FD7
:100F2000430E236F000E246F18C425F419C426F451
:060F300070EC03F012005A
:100F36000401196B1A6B829266C3E1FF67C3E2FF75
:100F46007A0EE66E64C300F065C301F020EC00F093
:100F560015C400F016C401F017C402F0010E040116
:100F66001527000E1623172300C0F6FF01C0F7FF52
:100F760002C0F8FF0900F5CF00F000C018F40052D7
:100F860010E066C3E1FF67C3E2FF18C4E6FF64C36F
:100F960000F065C301F020EC00F00401194B1A2B98
:0E0FA600D7D7828219C400F01AC401F01200DD
:100FB4000401186B196B829266C3E1FF67C3E2FFF9
:100FC4007A0EE66E64C300F065C301F020EC00F015
:100FD40015C400F016C401F00401154B162B00C013
:100FE400E9FF01C0EAFFEECF00F000C017F40052A1
:100FF40010E066C3E1FF67C3E2FF17C4E6FF64C302
:1010040000F065C301F020EC00F00401184B192B2B
:0E101400DFD7828218C400F019C401F0120068
:1010220004010851190802E10751AD0804E2AE0EAD
:10103200075F190E085B3C6B07C43DF408C43EF41D
:061042002CEC00F012008E
:101048000B6A0A6A096A00500402F4CF09F0F3CF68
:1010580008F001500502F4CF0BF0F3CF0AF000506E
:101068000502F3500926F4500A22E86A0B220150BF
:101078000402F3500926F4500A22E86A0B2208C039
:1010880000F009C001F00AC002F00BC003F0120022
:10109800B50E04012B6F190E2C6FBB0E2D6F190E98
:1010A8002E6FAF0E2F6F190E306F316BFFEC00F003
:1010B800B50E2B6F190E2C6F700E2D6F030E2E6F41
:0E10C800060E2F6F000E306F86EC01F0120046
:1010D6000401396BCAEC00F000C00CF4010E0401E7
:1010E600396FCAEC00F000C00DF404013C6B07C474
:1010F6003DF408C43EF42CEC00F0829266C3E1FF96
:1011060067C3E2FF3A0EE66E64C300F065C301F002
:1011160020EC00F004010B5318E066C3E1FF67C33F
:10112600E2FFE66A64C300F065C301F020EC00F05C
:1011360009C4D9FF0AC4DAFF0050DE1801E005D061
:101146000401094B0A2B0B07E5D7040182823C6B8D
:101156000CC43DF40DC43EF42CEC00F00BC400F0BE
:02116600120075
:101168008292400E04010711006E66C3E1FF67C357
:10117800E2FF00C0E6FF64C300F065C301F020ECA5
:1011880000F066C3E1FF67C3E2FF08C4E6FF64C37B
:0E11980000F065C301F020EC00F0828212002E
:1011A6000401076BC80E075D04E278DC77DC072BC9
:0411B600F9D7120053
:1011BA000401116B126B000E125D02E10A0E115D41
:1011CA0012E2500E1125136F030E1221146FD8EC80
:1011DA0004F013C4E1FF14C4E2FF00C0E6FF0401F7
:1011EA00114B122BE8D7500E1125E16E030E122176
:1011FA00E26EE66A500E1D6F030E1E6F0F0E1F6F12
:10120A00030E206F050E216F000E226FF2EC04F020
:10121A000050011003E0006A016ABDD0560E0401B5
:10122A001D6F030E1E6F220E1F6F030E206F020E1C
:10123A00216F000E226FF2EC04F00050011008E159
:10124A0003011A6B1B6B010E186F000E196F76D013
:10125A00560E04011D6F030E1E6F150E1F6F030E2F
:10126A00206F020E216F000E226FF2EC04F0005084
:10127A0001100AE1010E03011A6F000E1B6F010E25
:10128A00186F000E196F5AD0560E04011D6F030E07
:10129A001E6F1F0E1F6F000E206F040E216F000EAF
:1012AA00226FF2EC04F00050011004E10301186B04
:1012BA00196B44D0560E04011D6F030E1E6F1A0ED1
:1012CA001F6F000E206F040E216F000E226FF2ECCA
:1012DA0004F00050011015E1800E006E800E03012B
:1012EA001D19005C02E11C5102080BE2010E1C5D93
:1012FA00006E000E1D59016E00C01CF301C01DF3E3
:10130A001DD0560E04011D6F030E1E6F150E1F6FA2
:10131A00000E206F040E216F000E226FF2EC04F013
:10132A00005001100BE1010E03011C25006E000E96
:10133A001D21016E00C01CF301C01DF3000E040143
:10134A000C1902E1500E0B1903E0006A016A23D05E
:10135A00FF0E156F2D0E166F000E176FE7DD00C01A
:10136A0011F401C012F4290E156F2E0E166F000E1D
:10137A00176FDCDD0050112701501223240E156F60
:10138A00000E166F12DE115100261251012200C002
:08139A0011F401C012F412006D
:1013A200C90E04012B6F190E2C6FCD0E2D6F190E65
:1013B2002E6FCD0E2F6F190E306F316BFFEC00F0D8
:1013C200C90E2B6F190E2C6F770E2D6F030E2E6F19
:0E13D200040E2F6F000E306F86EC01F012003B
:0613E000006A016A120020
:1013E600D8EC04F0D8EC04F0D8EC04F000C008F413
:1013F600D8EC04F000C007F4D8EC04F000C00AF4FE
:10140600D8EC04F000C009F4D8EC04F000C00CF4E9
:10141600D8EC04F000C00BF4D8EC04F0D8EC04F0DF
:10142600D8EC04F0D8EC04F009C400F00AC401F0CA
:10143600010E0401095F000E0A5B005001100EE068
:10144600D8EC04F0005201E0FBD7D8EC04F0D8EC5D
:1014560004F0D8EC04F0D8EC04F0E6D70BC400F0A6
:101466000CC401F0010E04010B5F000E0C5B005072
:10147600011048E0D8EC04F0D8EC04F0D8EC04F005
:1014860000C010F4D8EC04F000C00FF4D8EC04F05F
:10149600D8EC04F0D8EC04F0D8EC04F0D8EC04F066
:1014A600D8EC04F0D8EC04F000C00EF4D8EC04F04C
:1014B60000C00DF4000E0401101902E1010E0F190F
:1014C60011E1D8EC04F000C0B2F3D8EC04F000C08F
:1014D600B3F3D8EC04F000C0B4F3D8EC04F000C0C9
:1014E600B5F310D00DC400F00EC401F0010E0401D6
:1014F6000D5F000E0E5B0050011003E0D8EC04F007
:06150600F1D7ACD7120082
:10150C00B4D0770E0401156F030E166F176B040E13
:10151C00186F000E196F20DC010E156F166B3ADC7C
:10152C0031C3AEF332C3AFF333C3B0F334C3B1F34F
:10153C00030E0301446FACD0050EAE25016E000EF8
:10154C00AF21026E000EB021036E000EB121046EAD
:10155C003451045C08E13351035C05E13251025C07
:10156C0002E13151015C02E2020E446F5CEC05F0C9
:10157C000050020A04E1040E0301446F01D088D02C
:10158C00030E0401156F45C316F404DC31C3AEF32E
:10159C0032C3AFF333C3B0F334C3B1F3050E03015D
:1015AC00446F76D05CEC05F000C007F40050060ADE
:1015BC0004E1040E0301446F2FD004010751050A06
:1015CC002BE131C3AEF332C3AFF333C3B0F334C347
:1015DC00B1F3060E0301446F770E04012B6F030E5B
:1015EC002C6F6C0E2D6F030E2E6F040E2F6F000ED2
:1015FC00306F3BEC02F05E0E156F030E166F480E4B
:10160C00176F030E186F4C0E196F030E1A6F23EC25
:10161C0005F00301456B3CD03BD00301010EAE2518
:10162C00016E000EAF21026E000EB021036E000E93
:10163C00B121046E0450345D08E10350335D05E1C3
:10164C000250325D02E10150315D0EE3010E685F24
:10165C00000E695B6A5B6B5B31C3AEF332C3AFF3F5
:10166C0033C3B0F334C3B1F313D003014451020AB2
:10167C00D8B447D74451030AD8B45ED74451040AAE
:10168C00D8B47ED74451050A8DE04451060AC5E012
:02169C0012003A
:10169E00DDC339F4DEC33AF475EC00F000C0E8F3B4
:1016AE00D8EC04F000C0E7F3D8EC04F000C0E6F389
:1016BE00D8EC04F000C0E5F3000E0301E61902E1D8
:1016CE00000EE51901E193D0D8EC04F000C0EAF366
:1016DE00D8EC04F000C0E9F3EB0E04011D6F030E0D
:1016EE001E6FC90E1F6F190E206F040E216F000E94
:1016FE00226F9AEC04F0020E3C6F080E0301DD25FA
:10170E0004013D6F000E0301DE2104013E6F2CEC3F
:10171E0000F00E0E0301DA250401076F000E03011F
:10172E00DB210401086F0301DC5104010727000EC1
:10173E000823080E0727000E08236CDC000E030199
:10174E00E81902E1350EE71902E146DE50D0000E2F
:10175E000301E61902E1440EE51902E1D0DE47D09D
:10176E00EB0E0401076F030E086FE7C309F4E8C31D
:10177E000AF4E5C30BF4E6C30CF4080E0301E95DAD
:10178E0004010D6F000E0301EA5904010E6F760E6F
:10179E000F6F030E106F1DDE00C0E9F301C0EAF3F8
:1017AE000050011024E0DF0E1D6F030E1E6FB50EEC
:1017BE001F6F190E206F060E216F000E226F9AEC0E
:1017CE0004F0DF0E1D6F030E1E6FEB0E1F6F030E68
:1017DE00206FE5C321F4E6C322F4E7C323F4E8C384
:1017EE0024F4E9C325F4EAC326F470EC03F01200E6
:1017FE00DEC339F4DFC33AF475EC00F000C0EEF34B
:10180E00D8EC04F000C0EDF3D8EC04F000C0ECF31B
:10181E00D8EC04F000C0EBF30301F36BF86B010E90
:10182E00F96FF66BF76B0C0EDE250401396F000EA7
:10183E000301DF2104013A6F75EC00F000C0F1F3F3
:10184E00000E0301F26FF133F19FF133F19F000EA1
:10185E00F26FFC0EF117FF0EF217020E04011D6F50
:10186E00040E1E6FC90E1F6F190E206F040E216F0E
:10187E00000E226F9AEC04F00D0E0301DE2504011A
:10188E00396F000E0301DF2104013A6F75EC00F091
:10189E003F0E00140301EF6FF06B000EF017000EF9
:1018AE00F06F0E0E625DF46F000E6359F56FDC5132
:1018BE00F45FDD51F55BF151F45FF251F55B020E11
:1018CE00DE250401396F000E0301DF2104013A6F9A
:1018DE0075EC00F000C03BF4DEC339F4DFC33AF41C
:1018EE0054EC00F0030E0301DE250401396F000EE7
:1018FE000301DF2104013A6F75EC00F000C039F4EA
:10190E0094EC00F0EDC32BF4EEC32CF417EC02F0C4
:10191E00040E0301DE250401396F000E0301DF21E1
:10192E0004013A6F75EC00F000C0FDF3D8EC04F042
:10193E0000C0FCF3D8EC04F000C0FBF3D8EC04F0CC
:10194E0000C0FAF3D8EC04F000C001F4D8EC04F0B7
:10195E0000C000F4D8EC04F000C0FFF3D8EC04F0A3
:10196E0000C0FEF3000E0301F01902E1020EEF19A2
:10197E003DE1010EFA25006E000EFB21016E000EF8
:10198E00FC21026E000EFD21036E00C0FEF301C0AD
:10199E00FFF302C000F403C001F4120EEF6F000E4D
:1019AE00F06F0C0E0401396FCAEC00F000C0FAF3B0
:1019BE000D0E0401396FCAEC00F000C0FBF30401F8
:1019CE00396BCAEC00F000C0FCF3010E0401396F54
:1019DE00CAEC00F000C0FDF30301F32B180EF16FFB
:1019EE00000EF26FF66BF76B306B6ED0000EF019C7
:1019FE0002E1180EEF192FE1FAC3E0F3FBC3E1F396
:101A0E00FCC3E2F3FDC3E3F3FEC3FAF3FFC3FBF340
:101A1E0000C4FCF301C4FDF3F451E025006EF55152
:101A2E00E121016E000EE221026E000EE321036E33
:101A3E0000C0FEF301C0FFF302C000F403C001F4C6
:101A4E00100EEF6F000EF06FF32B140EF16F000EF1
:101A5E00F26FF82B39D0000EF01902E1110EEF19CA
:101A6E0033E1FAC3E4F3FBC3E5F3FCC3E6F3FDC3D2
:101A7E00E7F3FEC3FAF3FFC3FBF300C4FCF301C4A8
:101A8E00FDF3010EE425006E000EE521016E000E41
:101A9E00E621026E000EE721036E00C0FEF301C0C8
:101AAE00FFF302C000F403C001F4100EEF6F000E3E
:101ABE00F06FF32B140EF16F000EF26FF66BF76BE7
:101ACE00255302E1302B256BF353D8B420D2040EEC
:101ADE00DE2504012B6F000E0301DF2104012C6FA4
:101AEE00FDC32DF4FCC32EF4DFEC01F0FBC339F47F
:101AFE0094EC00F0FAC339F494EC00F001C439F41C
:101B0E0094EC00F000C439F494EC00F0FFC339F407
:101B1E0094EC00F0FEC339F494EC00F00C0E0301CB
:101B2E00DE250401396F000E0301DF2104013A6F37
:101B3E0075EC00F00F0E001404013B6FF1C300F0C2
:101B4E00003600900036009000503B130C0E03013F
:101B5E00DE250401396F000E0301DF2104013A6F07
:101B6E0054EC00F00D0E0301DE250401396F000E5A
:101B7E000301DF2104013A6F75EC00F0C00E001472
:101B8E0004013B6F0301EF5104013B130D0E0301E2
:101B9E00DE250401396F000E0301DF2104013A6FC7
:101BAE0054EC00F0000E0301F01902E1120EEF19D1
:101BBE0029E10E0EDE2504012B6F000E0301DF213D
:101BCE0004012C6F050E2D6FEE0E2E6FDFEC01F063
:101BDE00140E0301DE2504012B6F000E0301DF211D
:101BEE0004012C6F020E2D6F040E2E6FDFEC01F030
:101BFE00050E0401396F94EC00F0780E0401396F74
:101C0E0094EC00F00301DC51F625F46FDD51F72161
:101C1E00F56FF151F427F251F523F95304E04CEC32
:101C2E0008F0D1EC09F00401BF0E2B6F190E2C6FCA
:101C3E00F5C32DF4F4C32EF4DFEC01F0C70E04014E
:101C4E002B6F190E2C6F2D6B2E6BDFEC01F0BD0E72
:101C5E0004012B6F190E2C6FDCC32DF4DDC32EF493
:101C6E00B7EC01F0160E0401396FCAEC00F000C09B
:101C7E0006F4170E0401396FCAEC00F000C02DF403
:101C8E00C70E04012B6F190E2C6F06C42EF4DFEC59
:101C9E0001F0BD0E0301F425E96F190EF521EA6F6F
:101CAE00100EDE2504012B6F000E0301DF2104014F
:101CBE002C6F2D6B2E6BDFEC01F0010E0301F41572
:101CCE00E86FE9C339F4EAC33AF404013B6B54EC10
:101CDE0000F0C90E04012B6F190E2C6FD10E2D6F53
:101CEE00190E2E6F0301E851E92504012F6F000E26
:101CFE000301EA210401306F316BFFEC00F0080E96
:101D0E000301E92504012B6F000E0301EA210401F2
:101D1E002C6F0301E85104012B27000E2C232D6B91
:101D2E00060E2E6FDFEC01F00A0E0301E925040109
:101D3E002B6F000E0301EA2104012C6F0301E85101
:101D4E0004012B27000E2C230301F651F125036EFF
:101D5E00F751F221046E04C000F0016A00C02DF4A8
:101D6E0003C02EF4DFEC01F0DEC32BF4DFC32CF442
:101D7E000301F651F12504012D6F0301F751F221F4
:101D8E0004012E6F0C0E2D27000E2E230301E85199
:101D9E0004012D27000E2E23B7EC01F0160E0401C0
:101DAE00396FCAEC00F000C006F4170E0401396F4B
:101DBE00CAEC00F000C02DF4100E0301DE25040164
:101DCE002B6F000E0301DF2104012C6F06C42EF4CD
:101DDE00DFEC01F00E0E0301F42504012B6F000E53
:101DEE000301F52104012C6F63EC02F00301F8539B
:101DFE0069E0100EEF6F000EF06FF86BF96B020ECC
:101E0E0004013C6F0301F151DE2504013D6F030116
:101E1E00F251DF2104013E6F2CEC00F00E0E030197
:101E2E00DA250401076F000E0301DB210401086FA0
:101E3E000301DC51040107270301DD5104010823CE
:101E4E000301F151040107270301F2510401082394
:101E5E0011EC08F00301302B020E0401076F040E83
:101E6E00086FEDC309F4EEC30AF4EBC30BF4ECC335
:101E7E000CF40E0E0301625D04010D6F000E0301E2
:101E8E00635904010E6F0301DC5104010D5F030160
:101E9E00DD5104010E5B0301F15104010D5F0301DD
:101EAE00F25104010E5B760E0F6F030E106FDDEC18
:101EBE0008F000C0F6F301C0F7F3030176B101D0CC
:101ECE00306B05D6305323E0F651FA25006EF751EC
:101EDE00FB21016E000EFC21026E000EFD21036E31
:101EEE0000C0FAF301C0FBF302C0FCF303C0FDF324
:101EFE00110EEF6F000EF06F306BF96B140EF16F69
:101F0E00000EF26FF66BF76B010E256FE0D5120027
:101F1E001F0E0401396F010E3A6FE2EC00F01F0E36
:101F2E000401396F020E3A6FADEC00F0140E04018D
:101F3E00076FDAC308F4B4EC08F0120E0401396F1F
:101F4E00010E3A6FADEC00F0D3EC08F0120E396FC3
:101F5E00010E3A6FE2EC00F0180E0401396FCAEC74
:101F6E0000F0DDC3E1FFDEC3E2FF00C0E6FF190EA5
:101F7E000401396FCAEC00F0DBC3E1FFDCC3E2FF02
:061F8E0000C0E6FF120096
:101F94001F0E0401396F010E3A6FE2EC00F01F0EC0
:101FA4000401396F020E3A6FADEC00F0140E040117
:101FB400076FDAC308F4B4EC08F0D3EC08F0160E9B
:101FC400076FDCC308F4B4EC08F0D3EC08F0170E88
:101FD400076FDBC308F4B4EC08F0D3EC08F012008C
:101FE400C40E0401396F190E3A6F75EC00F000C08D
:101FF400DAF3E8D0D50E0401076F190E086F770ED7
:10200400096F030E0A6F040E0B6F6BEC08F000509F
:10201400000A4BE1C40E0401396F190E3A6F020E27
:102024003B6F54EC00F04CEC08F0CB0E2B6F190E08
:102034002C6FCF0E2D6F190E2E6FD50E2F6F190E1C
:10204400306F316BFFEC00F0CB0E2B6F190E2C6F41
:10205400770E2D6F030E2E6F040E2F6F000E306F50
:1020640086EC01F0C50E2B6F190E2C6FCB0E2D6F65
:10207400190E2E6FCF0E2F6F190E306F316BFFECD0
:1020840000F0C50E2B6F190E2C6F700E2D6F030E02
:102094002E6F060E2F6F000E306F86EC01F03C0E93
:1020A4002B6F000E2C6F63EC02F095D00401AF0E81
:1020B400076F190E086F700E096F030E0A6F060E74
:1020C4000B6F6BEC08F00050000A7BE1CB0E0401AF
:1020D400076F190E086F7FC309F480C30AF4040E56
:1020E4000B6F6BEC08F00050000A6BE10F0E006EF2
:1020F400000E016E43C304F0000E056E24EC08F0DC
:10210400810E002404011D6F030E01201E6F090EB1
:102114001D27000E1E23C50E1F6F190E206F060EFD
:10212400216F000E226F9AEC04F00F0E006E000E69
:10213400016E43C304F0000E056E24EC08F0810E1A
:1021440000242B6F030E01202C6F050E2B27000E8D
:102154002C237FC32DF480C32EF4040E2F6F000EA6
:10216400306F3BEC02F00F0E006E000E016E43C3A5
:1021740004F0000E056E24EC08F0810E0024E16EDC
:10218400030E0120E26E010EE66E0F0E006E000ECD
:10219400016E43C304F0000E056E24EC08F0810EBA
:1021A4000026030E0122010E0024E16E000E012020
:1021B400E26E31C3E6FF32C3E6FF33C3E6FF34C346
:1021C400E6FF09D00301DA51010AD8B413D7DA5172
:0821D400020AD8B46BD7120017
:1021DC000401076B0301CE5303E00D0ECF6F02D049
:1021EC00050ECF6FCFC308F4B4EC08F0020E040157
:1021FC00076F0301CE5303E0310ED06F02D0300EC7
:10220C00D06FD0C308F4B4EC08F00A0E04013C6F94
:10221C00EE0E3D6F050E3E6F2CEC00F0040E04012B
:10222C00076F0301CE5303E0150ED16F02D0120ECF
:10223C00D16FD1C308F4B4EC08F0060E0401076F9B
:10224C00120E086FB4EC08F00301CE5307E1070E31
:10225C000401076F0C0E086FB4EC08F00301CE53A9
:10226C0007E1090E0401076F3F0E086FB4EC08F08C
:10227C001F0E0401396F010E3A6FADEC00F01F0E0A
:10228C000401396F020E3A6FADEC00F0040E04013C
:10229C00076F70C308F4B4EC08F0050E0401076F67
:1022AC0071C308F4B4EC08F0020E0401076F72C39A
:1022BC0008F4B4EC08F0030E0401076F73C308F4C0
:1022CC00B4EC08F00401076B74C308F4B4EC08F028
:1022DC00010E0401076F75C308F4B4EC08F0150E79
:1022EC000401076F086BB4EC08F0120E0401396F8F
:1022FC00CAEC00F000C0C0F30301DA6BD30EDB6F45
:10230C00030EDC6FD40EDD6F030EDE6F02DE0301F5
:10231C00DA6BFE0ED315DB6FCE5303E0010ED26FDA
:10232C0001D0D26BD251DB13D4C3DCF32DDE100EF3
:10233C000301DA6F010EDB6FDC6B26DE1F0E396FCB
:10234C00040E3A6FADEC00F0D3EC08F0810E156F73
:10235C00030E166F176B2D0E186F000E196FB2EC63
:10236C0006F01F0E396F010E3A6FE2EC00F01F0EF3
:0E237C000401396F020E3A6FE2EC00F012001D
:10238A000301D76B768176931F0E0401396F010E14
:10239A003A6FE2EC00F01F0E0401396F020E3A6F39
:1023AA00E2EC00F004013C6B46C33DF447C33EF443
:1023BA002CEC00F0829266C3E1FF67C3E2FF3A0E9B
:1023CA00E66E64C300F065C301F020EC00F066C35A
:1023DA00E1FF67C3E2FFE66A64C300F065C301F088
:1023EA0020EC00F000C046F366C3E1FF67C3E2FFDA
:1023FA00E66A64C300F065C301F020EC00F000C097
:10240A0047F366C3E1FF67C3E2FFE66A64C300F00D
:10241A0065C301F020EC00F000C062F366C3E1FF7F
:10242A0067C3E2FFE66A64C300F065C301F020EC0B
:10243A0000F000C063F366C3E1FF67C3E2FFE66A28
:10244A0064C300F065C301F020EC00F000C0D5F3CE
:10245A0066C3E1FF67C3E2FFE66A64C300F065C3CF
:10246A0001F020EC00F000C0D6F38282040E0301D2
:10247A00625F000E635B4751190802E14651AD08DD
:10248A000DE346B10BD0D6BF09D06351050802E16E
:10249A006251EE0803E3D5AF01D003D0010E006EFE
:1024AA00E1D10401396BCAEC00F000C0D3F3010E8C
:1024BA000401396FCAEC00F000C0D4F3D3C32BF483
:1024CA00D4C32CF403016251D32504012D6F0301F7
:1024DA006351D42104012E6FAF0E2F6F190E306F86
:1024EA00010E316FFFEC00F0BB0E396F190E3A6F17
:1024FA0075EC00F000C0D6F3D8EC04F000C0D5F3B8
:10250A000301D651080A02E1060ED51912E1BD0EE1
:10251A000401076F190E086F350E096F030E0A6F53
:10252A00070E0B6F6BEC08F00050000A01E155DD55
:10253A006AD10301D651080A02E1000ED519D8A4BE
:10254A005FD1CD0E0401076F190E086FC50E096F12
:10255A00030E0A6F040E0B6F6BEC08F0005202E1D7
:10256A0003017683CD0E0401076F190E086F3D0E25
:10257A00096F030E0A6F040E0B6F6BEC08F0005222
:10258A0002E103017683CD0E0401076F190E086F6D
:10259A00770E096F030E0A6F040E0B6F6BEC08F0CF
:1025AA00005206E0030176B303D0020ED76F27D19B
:1025BA00BD0E0401396F190E3A6F75EC00F0F00E7A
:1025CA000014016E0150400A04E0030E0301D76FA4
:1025DA0016D1BD0E0401396F190E3A6F75EC00F071
:1025EA0000C0D1F3000E0301D26F0F0ED117000EF7
:1025FA00D217D137D191D237D137D191D237C30E31
:10260A000401396F190E3A6F75EC00F0BF0E001411
:10261A00016E0150000AD8A4F2D0C40E0401396F29
:10262A00190E3A6F75EC00F00050000AD8A4E7D0F2
:10263A00BD0E0301D125CF6F190ED221D06FC60E60
:10264A000401396F190E3A6F75EC00F000C0CEF331
:10265A000050010AD8A494D0CFC339F4D0C33AF4B5
:10266A0075EC00F00050080AD8A489D0010E0301C5
:10267A00CF250401396F000E0301D02104013A6FFE
:10268A0075EC00F00050000A7AE1CFC339F4D0C3E8
:10269A003AF404013B6B54EC00F04CEC08F0D1EC3A
:1026AA0009F0C70E2B6F190E2C6F2D6B2E6BDFECFA
:1026BA0001F0BD0E04012B6F190E2C6FD1C32DF43E
:1026CA00D2C32EF4B7EC01F0160E0401396FCAEC2E
:1026DA0000F000C0D8F3170E0401396FCAEC00F0FD
:1026EA0000C02DF4C70E04012B6F190E2C6FD8C32E
:1026FA002EF4DFEC01F0020E0301CF2504012B6F4B
:10270A00000E0301D02104012C6F2D6B2E6BDFEC20
:10271A0001F0CFC32BF4D0C32CF40301D151625D75
:10272A0004012D6F0301D251635904012E6F0E0E5D
:10273A002D5F000E2E5BB7EC01F0160E0401396F07
:10274A00CAEC00F000C0D8F3170E0401396FCAECC6
:10275A0000F000C02DF4020E0301CF2504012B6FF7
:10276A00000E0301D02104012C6FD8C32EF4DFEC34
:10277A0001F062C32BF463C32CF463EC02F03FD084
:10278A000301CE51110A0DE1D3C3DAF3D4C3DBF34B
:10279A00D1C3DCF3CFC3DDF3D0C3DEF34FEC0BF0D0
:1027AA002ED00301CE51060A2AE1100ED3250401C8
:1027BA00396F000E0301D42104013A6F75EC00F061
:1027CA0000C0D9F30301D86BD8EC04F00050030120
:1027DA00D825626F000ED921636F0E0E6227000E94
:1027EA006323D3C3DAF3D4C3DBF3D1C3DCF3D2C399
:1027FA00DDF3CFC3DEF3D0C3DFF3FFEC0BF003D07E
:10280A000301040ED76F1E0E0401396F400E3A6F92
:10281A00ADEC00F0010E0301465D016E000E475952
:10282A00026E0250190802E10150AD080AE20C0ECC
:10283A0004013C6FAD0E3D6F190E3E6F2CEC00F09B
:10284A000FD00C0E04013C6F010E0301465D04011A
:10285A003D6F000E0301475904013E6F2CEC00F056
:06286A00D7C300F01200CC
:10287000C69A1C0E0301646F000E656F3F0E666FF3
:10288000040E676FFF0EBC6FFF0EBD6FFF0EBE6FB5
:10289000FF0EBF6F949A94969488C66A400EC76ED6
:0428A000C68A1200D2
:1028A4000900F5CFE6FF0006FBE10106F9E112009D
:1028B4009490828094928282D3EC08F08280D3EC4C
:1028C40008F08290D3EC08F08280D3EC08F0829276
:1028D40066C3E1FF67C3E2FFFF0EE66E64C300F068
:1028E40065C301F020EC00F08282D3EC08F0700E96
:1028F4002B6F030E2C6FC9C32DF4CAC32EF4060E1E
:102904002F6F000E306F3BEC02F0770E2B6F030E2F
:102914002C6FCBC32DF4CCC32EF4040E2F6F000EFA
:10292400306F3BEC02F01F0E396F010E3A6FE2EC90
:1029340000F01F0E0401396F020E3A6FE2EC00F052
:10294400080E04013C6F3D6B3E6B2CEC00F00A0E4C
:1029540004013C6FAD0E3D6F190E3E6F2CEC00F080
:102964000C0E04013C6FAD0E3D6F190E3E6F2CEC46
:1029740000F004013C6B3D6B3E6B2CEC00F0040E4C
:1029840004013C6FAE0E3D6F190E3E6F2CEC00F04F
:102994001F0E0401396F010E3A6FE2EC00F01F0EB6
:1029A4000401396F020E3A6FADEC00F0CDC3CEF3E3
:0429B40013DC12001E
:1029B800000E0301191902E1000E181903E1206B3A
:1029C800216B17D00AD0050E206F000E216F11D091
:1029D800010E206F000E216F0CD0000E1B1902E1B2
:1029E800000E1A19F0E0000E1B1902E1010E1A1967
:0429F800EFE01200FA
:1029FC000301C96B1F0E0401396F010E3A6FADEC68
:102A0C0000F01F0E0401396F020E3A6FE2EC00F079
:102A1C00190E0401396FCAEC00F00050000803E2F3
:102A2C00AEDC00C0C9F31F0E0401396F010E3A6F02
:102A3C00E2EC00F01F0E0401396F020E3A6FE2EC6B
:082A4C0000F0C9C300F0120004
:102A540020EC17F0380ED36E936A926A816A806A0A
:102A64000F013A6B3B6B956A836A00DF2A0EC96FCC
:102A7400030ECA6F260ECB6F030ECC6F010ECD6F03
:102A840017DFBADF97DF010E1E25006E000E1F212F
:102A9400016E00C01EF301C01FF31F511D1902E196
:102AA4001C511E190DE1080E2019006E21C301F0FE
:102AB400000E011A00C020F301C021F31E6B1F6B2E
:082AC40020C381FFDED7FFD71C
:102E400010EE15F0330E006E040E016ECC0EF66E11
:0E2E50002A0EF76E000EF86E52EC14F012000F
:052ACC00494E435200D9
:052AD1004445435200E2
:052AD60053544F5000B5
:102ADB003C68746D6C3E3C626F64793E3C666F7211
:102AEB006D206E616D653D22696E70757422206D6F
:102AFB006574686F643D22676574223E3C74616245
:102B0B006C6520616C69676E3D63656E74657220E0
:102B1B0077696474683D353030206267636F6C6F22
:102B2B00723D236163666666666620626F726465DA
:102B3B00723D343E3C74723E3C746420616C696738
:102B4B006E3D63656E74657220636F6C7370616E3E
:102B5B003D323E3C666F6E742073697A653D37205B
:102B6B00636F6C6F723D426C61636B206661636572
:102B7B003D2276657264616E61223E3C623E4D4F32
:102B8B00544F5220434F4E54524F4C3C2F623E3CBD
:102B9B002F666F6E743E3C2F74643E3C2F74723EF6
:102BAB003C74723E3C746420616C69676E3D636576
:102BBB006E746572206267636F6C6F723D23616325
:102BCB0066666666663E3C696E707574206E616DF6
:102BDB00653D22544C2220747970653D22737562D9
:102BEB006D6974222076616C75653D224C65667447
:102BFB00223E3C2F74643E3C746420616C69676EAA
:102C0B003D63656E746572206267636F6C6F723DB6
:102C1B0023616366666666663E3C696E70757420FA
:102C2B006E616D653D2254522220747970653D2290
:102C3B007375626D6974222076616C75653D2252E5
:102C4B0069676874223E3C2F74643E3C2F74723E5D
:102C5B003C74723E3C746420616C69676E3D6365C5
:102C6B006E746572206267636F6C6F723D23616374
:102C7B00666666666620636F6C7370616E3D313E8F
:102C8B003C696E707574206E616D653D22494E43D3
:102C9B00522220747970653D227375626D697422BE
:102CAB002076616C75653D222B223E3C2F74643E71
:102CBB003C746420616C69676E3D63656E7465720C
:102CCB00206267636F6C6F723D2361636666666635
:102CDB006620636F6C7370616E3D313E3C696E7044
:102CEB007574206E616D653D2244454352222074FC
:102CFB007970653D227375626D6974222076616C03
:102D0B0075653D222D223E3C2F74643E3C2F747220
:102D1B003E3C74723E3C746420616C69676E3D632B
:102D2B00656E746572206267636F6C6F723D2361B1
:102D3B0063666666666620636F6C7370616E3D32A8
:102D4B003E3C696E707574206E616D653D22535407
:102D5B004F502220747970653D227375626D6974D2
:102D6B00222076616C75653D2253746F70223E3C58
:102D7B002F74643E3C2F74723E3C2F7461626C6501
:102D8B003E3C2F666F726D3E3C73637269707420AC
:102D9B007372633D2222206173796E6320646566D2
:102DAB0065723E3C2F7363726970743E3C2F626F89
:0B2DBB0064793E3C2F68746D6C3E0094
:062DC600474554202F00D8
:032DCC005452005E
:0A2DCF0000000000020000000000F8
:032DD900544C0057
:012DDC0000F6
:042DDD000AD33705D9
:062DE1000014A576193F65
:012DE70000EB
:042DE80000000000E7
:082DEC000001080006040000CC
:062DF400FFFFFFFFFFFFDF
:012DFA0000D8
:012DFB0000D7
:012DFC0000D6
:022DFD000000D4
:102DFF00485454502F312E3120323030204F4B0A4F
:0E2E0F00436F6E74656E742D747970653A00B1
:0C2E1D0001010600122334450000800073
:0C2E2900746578742F68746D6C0A0A00E0
:062E3500638253633501C6
:052E3B0037030103064E
:020000040030CA
:0D000100231F3CFFBF81FF0FC00FE00F4029
:00000001FF
