:10000000B8EF14F00000000000EF00F00000000066
:0A0010000000000000000000F3D71C
:10001C00F9C5C9FFC7B002D00000FCD7C9CF00F0AA
:02002C001200C0
:10002E00F9C56FFF6DB002D00000FCD76FCF00F0A6
:02003E001200AE
:10004000F250026EF29E0500FF6A0150FE6E0050F3
:08005000FD6E02BEF28E1200EB
:100058008292400E0501F611006E0BC5E1FF0CC53A
:10006800E2FF00C0E6FF09C500F00AC501F0E4DFC1
:100078000BC5E1FF0CC5E2FFF7C5E6FF09C500F0B7
:100088000AC501F0D9DF0BC5E1FF0CC5E2FFF8C5D1
:10009800E6FF09C500F00AC501F0CEDF8282120032
:1000A800020E0501F66FF3C5F7F5F4C5F8F5D0DFD4
:1000B80082920BC5E1FF0CC5E2FF7A0EE66E09C518
:1000C80000F00AC501F0B8DF0BC5E1FF0CC5E2FF7F
:1000D800F5C5E6FF09C500F00AC501F0ADDF82826B
:0200E800120004
:1000EA000501F66BF3C5F7F5F4C5F8F5B0DF8292B2
:1000FA000BC5E1FF0CC5E2FF3A0EE66E09C500F03A
:10010A000AC501F098DF0BC5E1FF0CC5E2FFE66AFC
:0E011A0009C500F00AC501F08EDF82821200D6
:1001280082920BC5E1FF0CC5E2FF7A0EE66E09C5A7
:1001380000F00AC501F080DF0BC5E1FF0CC5E2FF46
:10014800F3C5E6FF09C500F00AC501F075DF828234
:02015800120093
:10015A008292800E0501F311006E0BC5E1FF0CC5FA
:10016A00E2FF00C0E6FF09C500F00AC501F063DF3F
:10017A000BC5E1FF0CC5E2FFF4C5E6FF09C500F0B7
:0A018A000AC501F058DF828212005E
:1001940082920BC5E1FF0CC5E2FFF3C5E6FF09C57A
:1001A40000F00AC501F04ADF0BC5E1FF0CC5E2FF10
:1001B400E66A09C500F00AC501F040DF8282120038
:1001C4008292A00E0501F311006E0BC5E1FF0CC570
:1001D400E2FF00C0E6FF09C500F00AC501F02EDF0A
:1001E4000BC5E1FF0CC5E2FFF4C5E6FF09C500F04D
:0A01F4000AC501F023DF8282120029
:1001FE000501F26B010EE75F000EE85BEB530DE0BD
:10020E00E851190802E1E751AD0807E2F22BAD0EF5
:10021E00E75DF06F190EE859F16FF25305E0AD0E80
:10022E00EC6F190EED6F04D0E7C5ECF5E8C5EDF5F2
:10023E00E651ED1902E1EC51E5190DE1E5C5F3F5D5
:10024E00E6C5F4F54BDF00C0F5F5E9C5F3F5EAC5F3
:10025E00F4F523DF36D0100E0501F66FE5C5F7F580
:10026E00E6C5F8F5F2DE120E0501F66FF25305E063
:10027E00AD0EEE6F190EEF6F04D0E7C5EEF5E8C5C3
:10028E00EFF5EEC5F7F5EFC5F8F5DFDE140E050157
:10029E00F66FE9C5F7F5EAC5F8F5D7DE1F0E0501CD
:1002AE00F36F100EF46F87DF1F0E0501F36F200E34
:1002BE00F46F4CDF1F0E0501F36F65DF00AA01D04E
:1002CE00F9D70501F2531AE0E551E75D006EE651EC
:1002DE00E859016EF051005EF151015A004A012AAF
:1002EE000050E9270150EA23010EF05DE76F000E82
:0E02FE00F159E86FE56BE66BF26B8FD71200DB
:10030C00020E0501F66FE5C5F7F5E6C5F8F59EDEBC
:10031C0082920BC5E1FF0CC5E2FF7A0EE66E09C5B1
:10032C0000F00AC501F086DE0501E951EA1117E07B
:10033C000BC5E1FF0CC5E2FFE7C5E9FFE8C5EAFF25
:10034C00EECFE6FF09C500F00AC501F073DE05012A
:10035C00E74BE82B010EE95F000EEA5BE5D78282E2
:02036C0012007D
:10036E000501E751E525E96FE851E621EA6F010E37
:10037E00E95F000EEA5B100EF66FE5C5F7F5E6C510
:10038E00F8F563DE120E0501F66FE9C5F7F5EAC55D
:10039E00F8F55BDE1F0E0501F36F300EF46FD6DE3F
:1003AE001F0E0501F36FEFDE00AA01D0F9D7120080
:1003BE00E5C5F3F5E6C5F4F5E7C5F5F56EDEE8C57A
:0603CE00F3F5ABDE1200A6
:1003D40082920BC5E1FF0CC5E2FF7A0EE66E09C5F9
:1003E40000F00AC501F02ADEE7C500F0E8C501F017
:1003F400010E0501E75F000EE85B0050011013E0F9
:100404000BC5E1FF0CC5E2FFE5C5E9FFE6C5EAFF60
:10041400EECFE6FF09C500F00AC501F00FDE0501C5
:0A042400E54BE62BE1D782821200BF
:10042E0082920BC5E1FF0CC5E2FF7A0EE66E09C59E
:10043E0000F00AC501F0FDDD0BC5E1FF0CC5E2FFC2
:10044E00E6C5E6FF09C500F00AC501F0F2DD0BC5F1
:10045E00E1FF0CC5E2FFE5C5E6FF09C500F00AC5E0
:08046E0001F0E7DD82821200BB
:10047600E7C504F0E8C505F0E5C502F0E6C503F0FA
:10048600E9C500F0EAC501F0010E0501E95F000EBD
:10049600EA5B005001100FE004C0E9FF05C0EAFF67
:1004A60002C0E1FF03C0E2FFEECFE6FF024A032AE5
:1004B600044A052AE5D7E5C500F0E6C501F01200B5
:1004C600AE0E0501F36F190EF46FF56BEADDAE0E95
:1004D6000501E525006E190EE621016E00C0E5F561
:1004E60001C0E6F5060EF66F00C0F7F501C0F8F597
:1004F600B0DD1F0E0501F36F800EF46F2BDE1F0EAD
:100506000501F36F800EF46F5ADE05011451050ADA
:1005160004E01451070A01E005D01C0EF36F0A0E21
:10052600F46F4DDE1F0E0501F36F080EF46F12DE39
:1005360005011451050A04E01451070A01E07FD0B1
:10054600EA6BEB6B1C0EF36F22DE0A0E00160052EE
:100556000AE10501EA4BEB2B030EEB5D02E1E80E27
:10056600EA5D01E2EFD705011C0EF36F10DE00B263
:1005760008D0030E0501EB5D02E1E80EEA5D01E23B
:100586005DD005011F0EF36F080EF46F18DE040E22
:100596000501E525F36F000EE621F46FA3DD00C02B
:1005A600E9F50501E76B100EE75D48E21C0EF36FF7
:1005B600EEDD00A23FD00501E9AB3CD01F0EF36F84
:1005C600800EF46FC7DD1F0E0501F36F800EF46F0A
:1005D600F6DD1C0E0501F36F0A0EF46FF0DD1F0E3B
:1005E6000501F36F080EF46FB5DD0501EA6BEB6BE1
:1005F6001C0EF36FCCDD0A0E001600520AE105014F
:10060600EA4BEB2B030EEB5D02E1E80EEA5D01E23D
:10061600EFD705011F0EF36F080EF46FD0DD040E41
:100626000501E525F36F000EE621F46F5BDD00C0E2
:10063600E9F501D003D00501E72BB5D707D00501B1
:100646001F0EF36FA4DD00A601D0F9D71D0E05011C
:10065600F36F9DDD060E0016005203E00501E86B00
:0E06660003D00501010EE86FE8C500F0120098
:10067400D7C5E5F5D8C5E6F5100E0501E76F050EFB
:10068400E86F040EE96F000EEA6FF3DED96BD951FF
:10069400030821E3D951D725026E000ED821036E39
:1006A40002C0E9FF03C0EAFFEECF01F0F10EE96EEC
:1006B400040EEA6ED951E926D8B0EA2AFF0EEE18E4
:1006C400006E0150001202C0E1FF03C0E2FF00C04F
:0806D400E6FFD92BDCD7120070
:1006DC00AF0E0501E56F190EE66FD7C5E7F5D8C566
:1006EC00E8F5060EE96F000EEA6F0ADEEB0EE56F19
:1006FC00040EE66F060EE76F000EE86F65DE000E67
:10070C00E56F080EE66F8DDE1C0E0501DF25E26F2E
:10071C00000EE021E36F000EE56F450EE66F81DE03
:10072C00E2C5E5F5E3C5E6F57CDE1DC5E5F51EC5C0
:10073C00E6F577DE05011D4B1E2BE56BE66B71DED6
:10074C00110E0501E56F800EE66F6BDE0501E56BA2
:10075C00E66B67DE100E0501E56F050EE66F040E05
:10076C00E76F000EE86F30DED9C5E5F5DAC5E6F5C2
:10077C00040EE76F000EE86F27DE080EDF25E26F30
:10078C00000EE021E36FDBC5E5F5DCC5E6F549DEDF
:10079C00DDC5E5F5DEC5E6F544DEE2C5E5F5E3C508
:1007AC00E6F53FDE0501E56BE66B3BDEBD0E0501B4
:1007BC00E56F190EE66F140EE76F000EE86FD1DDD2
:1007CC00160E0501F36FE0DC00C0E4F5170E050111
:1007DC00F36FDADC00C0E7F5C70E0501E56F190E03
:1007EC00E66FE4C5E8F5E5DD010E0501E215E16F04
:1007FC00D90EDF25F36F190EE021F46FF56B4EDC8B
:10080C00C90E0501E56F190EE66FD10EE76F190ED3
:10081C00E86FD90EDF25E96F190EE021EA6FE1517F
:10082C00E927000EEA23EB6BE4DCD90EDF25E56F3C
:10083C00190EE021E66FE151E527000EE623080EC4
:10084C00E527000EE623E76B110EE86FB2DDE3C57A
:10085C00F3F564DCE2C5F3F561DCD10E0501E56F5F
:10086C00190EE66F0C0EE225E76F000EE321E86F20
:10087C00E151E727000EE82374DD160E0501F36F36
:10088C0083DC00C0E4F5170E0501F36F7DDC00C0BE
:10089C00E7F5D70E0501E56F190EE66FE4C5E8F52F
:1008AC0088DD2A0E0501DF25E56F000EE021E66FDD
:0408BC0004DE120044
:1008C00082920BC5E1FF0CC5E2FF7A0EE66E09C508
:1008D00000F00AC501F020EC00F0DAC500F0DBC53D
:1008E00001F0010E0501DA5F000EDB5B0050011024
:1008F0001CE00BC5E1FF0CC5E2FFD7C5F6FFD8C56C
:10090000F7FFD9C5F8FF0900F5CF00F000C0E6FFFA
:1009100009C500F00AC501F020EC00F0010E050148
:0E092000D727000ED823D923D8D78282120001
:10092E000501DA51FF0A02E1FF0ED91907E0F66B55
:10093E00D9C5F7F5DAC5F8F52CEC00F082920BC5A7
:10094E00E1FF0CC5E2FF3A0EE66E09C500F00AC5DE
:10095E0001F020EC00F0DBC500F0DCC501F0010E6B
:10096E000501DB5F000EDC5B0050011015E00BC5CE
:10097E00E1FF0CC5E2FFE66A09C500F00AC501F009
:10098E0020EC00F0D7C5E1FFD8C5E2FF00C0E6FFBE
:0C099E000501D74BD82BDFD78282120056
:1009AA0082920BC5E1FF0CC5E2FF3A0EE66E09C55D
:1009BA0000F00AC501F020EC00F00BC5E1FF0CC500
:1009CA00E2FFE66A09C500F00AC501F020EC00F072
:0409DA008282120003
:1009DE00DBC501F0DCC502F0010E0501DB5F000E88
:1009EE00DC5B000E021802E1000E01181FE0D7C5F5
:1009FE00E9FFD8C5EAFFD9C5D9FFDAC5DAFFEE504F
:100A0E00DE180FE0D7C5E9FFD8C5EAFFD9C5D9FF73
:100A1E00DAC5DAFFDE50EE5C006E016A000E015A96
:100A2E0007D0D74BD82BD94BDA2BD2D7006A016A15
:020A3E001200A4
:100A4000F10E0501E56F040EE66FCFC5E7F5D0C5E1
:100A5000E8F5040EE96F000EEA6F0DDD290EE56F73
:100A6000050EE66FD1C5E7F5D2C5E8F5040EE96FCE
:100A7000000EEA6F00DD2D0EE56F050EE66FD3C5A3
:100A8000E7F5D4C5E8F5040EE96F000EEA6FF3DC74
:0C0A9000230ED76F050ED86FEDDD1200AD
:100A9C00020E0C6E490E0D6E0D2EFED70C2EFCD7D1
:060AAC0000000000120032
:100AB2000501D16B3C0E0401F56F000EF66FF76F66
:100AC200F86F72DF00C0CFF50050020AD8A419D126
:100AD2000501D06B0F0ED05D04E266DF0501D02B5D
:100AE200F9D7E70ED76F040ED86FFF0ED96FFF0E3E
:100AF200DA6F040EDB6F000EDC6F18DFD06B080EAE
:100B0200D05D04E251DF0501D02BF9D7D06B060E80
:100B1200D05D12E249DF00C0CFF5EB0ED96E040EB4
:100B2200DA6E0501D051D926D8B0DA2A0050DE1883
:100B320001E012D1D02BEBD7D06BCE0ED05D04E208
:100B420033DF0501D02BF9D7D26B2EDF00C0CFF5F2
:100B5200B9D02ADF00C0CFF50050010A04E124DF3A
:100B620000C0D1F501D0F8D0C8D01EDF00C0CFF54B
:100B72000050040A0FE1010E0501D76F050ED86F70
:100B8200FF0ED96FFF0EDA6F040EDB6F000EDC6F03
:100B9200CDDE01D0E1D0B1D007DF00C0CFF5040E29
:100BA200005C0FE3050E0501D76F050ED86FFF0E2F
:100BB200D96FFF0EDA6F040EDB6F000EDC6FB6DE4C
:100BC20001D0CAD00501040ECF5F0501CFC500F0E8
:100BD200CF07005202E0E8DEF8D78FD0E5DE00C092
:100BE200CFF5040E005C0FE3F90E0501D76F040E7A
:100BF200D86FFF0ED96FFF0EDA6F040EDB6F000E97
:100C0200DC6F94DE01D0A8D00501040ECF5F050190
:100C1200CFC500F0CF07005202E0C6DEF8D76DD094
:100C2200C3DE00C0CFF50050040A0FE1D30E050168
:100C3200D76F050ED86FFF0ED96FFF0EDA6F040E55
:100C4200DB6F000EDC6F72DE01D086D056D005015C
:100C5200010ED26F52D0A8DE00C0CFF50050040AB8
:100C620023E1F50E0501D76F040ED86FFF0ED96F81
:100C7200FF0EDA6F040EDB6F000EDC6F57DE04012D
:100C8200F851000808E1F751000805E1F65107089C
:100C920002E1F551080807E2080EF55F070EF65B60
:100CA200000EF75BF85B01D057D027D07DDE00C085
:100CB200CFF5CFC500F00501CF07005202E074DE88
:100CC200F8D71BD00501CF51350AD8B442D7CF513E
:100CD200010AD8B44AD7CF51030AD8B45DD7CF514D
:100CE200060AD8B47BD7CF51360A9AE0CF51FF0A11
:100CF200AEE0CF51330AAFE0D9D70501D253D8B411
:100D020024D70501D151020A0FE1FD0EE56F040E51
:100D1200E66FD30EE76F050EE86F040EE96F000E63
:100D2200EA6F3BEC02F015D0FD0ED76F040ED86FC0
:100D3200D30ED96F050EDA6F040EDB6F000EDC6F77
:100D42004DDE000E011802E1000E001802E005015E
:0C0D5200D16BD1C500F001D0006A120086
:100D5E00CFC502F0D0C503F0D2C500F0D3C501F067
:100D6E00010E0501D25F000ED35B0050011009E0A9
:100D7E0002C0E1FF03C0E2FFD1C5E6FF024A032A2B
:0C0D8E00EBD7CFC500F0D0C501F012007B
:100D9A00F90E0501D26F000ED36F020EF66FD90E4F
:100DAA00F76F190EF86F2CEC00F0FF0E0501D76FE4
:100DBA002E0ED86F000ED96F0C0EDA6F000EDB6F95
:100DCA007ADDCF51030A0DE1D0530BE0E70EE56F50
:100DDA00040EE66F040EE76F000EE86FEAEC01F00E
:100DEA000AD0D16B040ED15D06E2F36B94EC00F0ED
:100DFA000501D12BF7D7D16B0C0ED15D06E2F36B4F
:100E0A0094EC00F00501D12BF7D7EB0EE56F040E39
:100E1A00E66F060EE76F000EE86FEAEC01F0D16BA1
:100E2A00CA0ED15D06E2F36B94EC00F00501D12BFA
:100E3A00F7D70B0ED76F2F0ED86F000ED96F060E8D
:100E4A00DA6F000EDB6F37DDCFC5F3F594EC00F0F7
:100E5A000501CF51030A1AE1D05318E1360EF36F98
:100E6A0094EC00F0040E0501F36F94EC00F0FD0E13
:100E7A000501E56F040EE66F040EE76F000EE86FDA
:100E8A00EAEC01F0060ED227000ED323110ED76F1B
:100E9A002F0ED86F000ED96F050EDA6F000EDB6FBA
:100EAA000ADDCF51030A23E1D05321E1320EF36F59
:100EBA0094EC00F0040E0501F36F94EC00F00501C8
:100ECA00D16B040ED15D0FE2E70EE96E040EEA6EF5
:100EDA00D151E926D8B0EA2AEECFF3F594EC00F026
:100EEA000501D12BEED7060ED227000ED323FF0E13
:100EFA00F36F94EC00F0220E0501D76F000ED86F45
:100F0A00220ED96F000EDA6F440EDB6F000EDC6F13
:100F1A00430EDD6F000EDE6FD2C5DFF5D3C5E0F5F7
:060F2A006EEC03F0120062
:100F30000501D36BD46B82920BC5E1FF0CC5E2FFB8
:100F40007A0EE66E09C500F00AC501F020EC00F04B
:100F5000CFC500F0D0C501F0D1C502F0010E0501EA
:100F6000CF27000ED023D12300C0F6FF01C0F7FF2A
:100F700002C0F8FF0900F5CF00F000C0D2F5005222
:100F800010E00BC5E1FF0CC5E2FFD2C5E6FF09C5C5
:100F900000F00AC501F020EC00F00501D34BD42B82
:0E0FA000D7D78282D3C500F0D4C501F012006D
:100FAE000501D26BD36B82920BC5E1FF0CC5E2FF3C
:100FBE007A0EE66E09C500F00AC501F020EC00F0CD
:100FCE00CFC500F0D0C501F00501CF4BD02B00C02E
:100FDE00E9FF01C0EAFFEECF00F000C0D1F50052EC
:100FEE0010E00BC5E1FF0CC5E2FFD1C5E6FF09C558
:100FFE0000F00AC501F020EC00F00501D24BD32B16
:0E100E00DFD78282D2C500F0D3C501F01200F8
:10101C000501A751190802E1A651AD0804E2AE0E74
:10102C00A65F190EA75BF66BA6C5F7F5A7C5F8F575
:06103C002CEC00F0120094
:101042000B6A0A6A096A00500402F4CF09F0F3CF6E
:1010520008F001500502F4CF0BF0F3CF0AF0005074
:101062000502F3500926F4500A22E86A0B220150C5
:101072000402F3500926F4500A22E86A0B2208C03F
:1010820000F009C001F00AC002F00BC003F0120028
:10109200B50E0501E56F190EE66FBB0EE76F190E6F
:1010A200E86FAF0EE96F190EEA6FEB6BFFEC00F021
:1010B200B50EE56F190EE66FEB0EE76F040EE86FE3
:0E10C200060EE96F000EEA6F86EC01F01200D8
:1010D0000501F36BCAEC00F000C0ABF5010E050191
:1010E000F36FCAEC00F000C0ACF50501F66BA6C5C5
:1010F000F7F5A7C5F8F52CEC00F082920BC5E1FFDF
:101100000CC5E2FF3A0EE66E09C500F00AC501F013
:1011100020EC00F00501AA5318E00BC5E1FF0CC557
:10112000E2FFE66A09C500F00AC501F020EC00F014
:10113000A8C5D9FFA9C5DAFF0050DE1801E005D027
:101140000501A84BA92BAA07E5D705018282F66BFA
:10115000ABC5F7F5ACC5F8F52CEC00F0AAC500F06E
:0211600012007B
:101162008292400E0501A611006E0BC5E1FF0CC56F
:10117200E2FF00C0E6FF09C500F00AC501F020EC5D
:1011820000F00BC5E1FF0CC5E2FFA7C5E6FF09C5EC
:0E11920000F00AC501F020EC00F0828212008D
:1011A0000501A66BC80EA65D04E278DC77DCA62BF1
:0411B000F9D7120059
:1011B4000501CB6BCC6B000ECC5D02E10A0ECB5D5E
:1011C40012E25E0ECB25CD6F050ECC21CE6FD5EC91
:1011D40004F0CDC5E1FFCEC5E2FF00C0E6FF050186
:1011E400CB4BCC2BE8D75E0ECB25E16E050ECC2184
:1011F400E26EE66A5E0ED76F050ED86F470EB06FCB
:10120400450EB16F540EB26F200EB36F2F0EB46F34
:10121400B56BB00ED96F050EDA6F050EDB6F000EDD
:10122400DC6FEFEC04F00050011003E0006A016A87
:10123400E2D0640E0501D76F050ED86F540EB66F59
:101244004C0EB76FB86BB60ED96F050EDA6F020E7F
:10125400DB6F000EDC6FEFEC04F00050011008E1CE
:101264000401DD6BDE6B010EDB6F000EDC6F96D0CC
:10127400640E0501D76F050ED86F540EB96F520E68
:10128400BA6FBB6BB90ED96F050EDA6F020EDB6F46
:10129400000EDC6FEFEC04F0005001100AE1010EC7
:1012A4000401DD6F000EDE6F010EDB6F000EDC6FDC
:1012B40075D0640E0501D76F050ED86F530EBC6F41
:1012C400540EBD6F4F0EBE6F500EBF6FC06BBC0E81
:1012D400D96F050EDA6F040EDB6F000EDC6FEFECD6
:1012E40004F00050011004E10401DB6BDC6B56D008
:1012F400640E0501D76F050ED86F440EC16F450EFD
:10130400C26F430EC36F520EC46FC56BC10ED96F4B
:10131400050EDA6F040EDB6F000EDC6FEFEC04F0E9
:10132400005001100CE10A0E0401DF25006E000ECE
:10133400E021016E00C0DFF401C0E0F42FD0640EA0
:101344000501D76F050ED86F490EC66F4E0EC76FD5
:10135400430EC86F520EC96FCA6BC60ED96F050E05
:10136400DA6F040EDB6F000EDC6FEFEC04F000505C
:10137400011014E1800E006E800E0401E019005C7F
:1013840002E1DF5128080AE20A0EDF5D006E000E5A
:10139400E059016E00C0DFF401C0E0F4000E050165
:1013A400AB1902E1500EAA1903E0006A016A23D0C6
:1013B400BA0ECF6F2E0ED06F000ED16FB7DD00C006
:1013C400CBF501C0CCF5F30ECF6F2E0ED06F000E0F
:1013D400D16FACDD0050CB270150CC23380ECF6F3A
:1013E400000ED06FE2DDCB510026CC51012200C0AB
:0813F400CBF501C0CCF512009D
:1013FC00C90E0501E56F190EE66FCD0EE76F190EDC
:10140C00E86FCD0EE96F190EEA6FEB6BFFEC00F095
:10141C00C90EE56F190EE66F100EE76F050EE86F3B
:0E142C00040EE96F000EEA6F86EC01F012006C
:06143A00006A016A1200C5
:10144000D5EC04F0D5EC04F0D5EC04F000C0A7F521
:10145000D5EC04F000C0A6F5D5EC04F000C0A9F569
:10146000D5EC04F000C0A8F5D5EC04F000C0ABF555
:10147000D5EC04F000C0AAF5D5EC04F0D5EC04F0EE
:10148000D5EC04F0D5EC04F0A8C500F0A9C501F036
:10149000010E0501A85F000EA95B005001100EE0CF
:1014A000D5EC04F0005201E0FBD7D5EC04F0D5EC0C
:1014B00004F0D5EC04F0D5EC04F0E6D7AAC500F0B2
:1014C000ABC501F0010E0501AA5F000EAB5B005039
:1014D000011048E0D5EC04F0D5EC04F0D5EC04F0B4
:1014E00000C0AFF5D5EC04F000C0AEF5D5EC04F0CB
:1014F000D5EC04F0D5EC04F0D5EC04F0D5EC04F018
:10150000D5EC04F0D5EC04F000C0ADF5D5EC04F05A
:1015100000C0ACF5000E0501AF1902E1010EAE19D5
:1015200011E1D5EC04F000C019F5D5EC04F000C0D1
:101530001AF5D5EC04F000C01BF5D5EC04F000C0A2
:101540001CF510D0ACC500F0ADC501F0010E0501D1
:10155000AC5F000EAD5B0050011003E0D5EC04F071
:06156000F1D7ACD7120028
:10156600B1D0100E0501CF6F050ED06FD16B040EF2
:10157600D26F000ED36FAFEC06F0010ECF6FD06BBB
:1015860009DC2BC015F52CC016F52DC017F52EC09D
:1015960018F5030E216EA7D00501050E1525016E5F
:1015A600000E1621026E000E1721036E000E182182
:1015B600046E2E50045C08E12D50035C05E12C50AE
:1015C600025C02E12B50015C02E2020E216E59EC34
:1015D60005F00050020A03E1040E216E01D083D00B
:1015E600030E0501CF6F2AC0D0F5CDEC06F02BC057
:1015F60015F52CC016F52DC017F52EC018F5050EDD
:10160600216E71D059EC05F000C0A6F50050060A0F
:1016160003E1040E216E2CD00501A651050A28E12E
:101626002BC015F52CC016F52DC017F52EC018F5D4
:10163600060E216E100EE56F050EE66FE70EE76FDC
:10164600040EE86F040EE96F000EEA6F3BEC02F041
:10165600010ECF6F050ED06F050ED16F050ED26F3E
:10166600F90ED36F040ED46F20EC05F02A6A3BD036
:101676003AD00501010E1525016E000E1621026EE7
:10168600000E1721036E000E1821046E04502E5C06
:1016960008E103502D5C05E102502C5C02E101508B
:1016A6002B5C0FE3010E0401F55F000EF65BF75BA2
:1016B600F85B2BC015F52CC016F52DC017F52EC0FE
:1016C60018F511D02150020AD8B44BD72150030A7D
:1016D600D8B462D72150040A83E02150050A92E06B
:0816E6002150060AC6E01200C3
:1016EE007CC5F3F57DC5F4F575EC00F000C087F50B
:1016FE00D5EC04F000C086F5D5EC04F000C085F5FD
:10170E00D5EC04F000C084F5000E0501851902E148
:10171E00000E841901E186D0D5EC04F000C089F5E5
:10172E00D5EC04F000C088F58A0E0501D76F050EC2
:10173E00D86FC90ED96F190EDA6F040EDB6F000E5B
:10174E00DC6F97EC04F0020EF66F080E7C25F76F37
:10175E00000E7D21F86F2CEC00F00E0E05017925A0
:10176E00A66F000E7A21A76F7B51A627000EA72326
:10177E00080EA627000EA7234ADC000E05018719C6
:10178E0002E1350E861902E154DE4CD0000E050141
:10179E00851902E1440E841902E1DEDE43D08A0E81
:1017AE000501A66F050EA76F86C5A8F587C5A9F515
:1017BE0084C5AAF585C5ABF5080E885DAC6F000E25
:1017CE008959AD6F0F0EAE6F050EAF6F2FDE00C0D5
:1017DE0088F501C089F50050011024E07E0ED76F08
:1017EE00050ED86FB50ED96F190EDA6F060EDB6FB8
:1017FE00000EDC6F97EC04F07E0ED76F050ED86FDF
:10180E008A0ED96F050EDA6F84C5DBF585C5DCF55A
:10181E0086C5DDF587C5DEF588C5DFF589C5E0F53A
:06182E006EEC03F0120055
:101834007DC5F3F57EC5F4F575EC00F000C08DF5BB
:10184400D5EC04F000C08CF5D5EC04F000C08BF5A9
:10185400D5EC04F000C08AF50501926B976B010E7C
:10186400986F956B966B0C0E7D25F36F000E7E21A1
:10187400F46F75EC00F000C090F5000E0501916F57
:101884009033909F9033909F000E916FFC0E9017B1
:10189400FF0E9117A10ED76F050ED86FC90ED96F21
:1018A400190EDA6F040EDB6F000EDC6F97EC04F098
:1018B4000D0E7D25F36F000E7E21F46F75EC00F0A4
:1018C4003F0E001405018E6F8F6B000E8F17000EF4
:1018D4008F6F0E0E0D5D936F000E0E59946F7B513A
:1018E400935F7C51945B9051935F9151945B020E92
:1018F4007D25F36F000E7E21F46F75EC00F000C0BF
:10190400F5F57DC5F3F57EC5F4F554EC00F0030E52
:1019140005017D25F36F000E7E21F46F75EC00F058
:1019240000C0F3F594EC00F08CC5E5F58DC5E6F543
:1019340017EC02F0040E05017D25F36F000E7E21E5
:10194400F46F75EC00F000C09CF5D5EC04F000C019
:101954009BF5D5EC04F000C09AF5D5EC04F000C07A
:1019640099F5D5EC04F000C0A0F5D5EC04F000C066
:101974009FF5D5EC04F000C09EF5D5EC04F000C052
:101984009DF5000E05018F1902E1020E8E193CE14E
:10199400010E9925006E000E9A21016E000E9B2106
:1019A400026E000E9C21036E00C09DF501C09EF5E1
:1019B40002C09FF503C0A0F5120E8E6F000E8F6F4C
:1019C4000C0EF36FCAEC00F000C099F50D0E050182
:1019D400F36FCAEC00F000C09AF50501F36BCAEC92
:1019E40000F000C09BF5010E0501F36FCAEC00F096
:1019F40000C09CF50501922B180E906F000E916F9C
:101A0400956B966B1F6A6ED0000E8F1902E1180E4B
:101A14008E192FE199C57FF59AC580F59BC581F58F
:101A24009CC582F59DC599F59EC59AF59FC59BF504
:101A3400A0C59CF593517F25006E94518021016EC1
:101A4400000E8121026E000E8221036E00C09DF5FE
:101A540001C09EF502C09FF503C0A0F5100E8E6F65
:101A6400000E8F6F922B140E906F000E916F972BB8
:101A740039D0000E8F1902E1110E8E1933E199C588
:101A840083F59AC584F59BC585F59CC586F59DC5EA
:101A940099F59EC59AF59FC59BF5A0C59CF5010EC9
:101AA4008325006E000E8421016E000E8521026ED6
:101AB400000E8621036E00C09DF501C09EF502C094
:101AC4009FF503C0A0F5100E8E6F000E8F6F922B42
:101AD400140E906F000E916F956B966B205202E17D
:101AE4001F2A206A9253D8B4C9D1040E7D25E56F0C
:101AF400000E7E21E66F9CC5E7F59BC5E8F5DFEC9B
:101B040001F09AC5F3F594EC00F099C5F3F594EC63
:101B140000F0A0C5F3F594EC00F09FC5F3F594EC48
:101B240000F09EC5F3F594EC00F09DC5F3F594EC3C
:101B340000F00C0E05017D25F36F000E7E21F46F7D
:101B440075EC00F00F0E00140501F56F90C500F060
:101B540000360090003600900050F5130C0E7D25E1
:101B6400F36F000E7E21F46F54EC00F00D0E0501AE
:101B74007D25F36F000E7E21F46F75EC00F0C00E2E
:101B840000140501F56F8E51F5130D0E7D25F36FCD
:101B9400000E7E21F46F54EC00F0000E05018F1945
:101BA40002E1120E8E1923E10E0E7D25E56F000E63
:101BB4007E21E66F050EE76FEE0EE86FDFEC01F0B5
:101BC400140E05017D25E56F000E7E21E66F020EE1
:101BD400E76F040EE86FDFEC01F0050E0501F36F0B
:101BE40094EC00F0780E0501F36F94EC00F005011D
:101BF4007B519525936F7C519621946F9051932737
:101C040091519423985304E049EC08F0FEEC09F058
:101C1400BF0EE56F190EE66F94C5E7F593C5E8F5B9
:101C2400DFEC01F0C70E0501E56F190EE66FE76BF7
:101C3400E86BDFEC01F0BD0E0501E56F190EE66FF0
:101C44007BC5E7F57CC5E8F5B7EC01F0160E050198
:101C5400F36FCAEC00F000C0A5F5170E0501F36F91
:101C6400CAEC00F000C0E7F5C70E0501E56F190ED8
:101C7400E66FA5C5E8F5DFEC01F0BD0E050193257F
:101C8400886F190E9421896F100E7D25E56F000E63
:101C94007E21E66FE76BE86BDFEC01F0010E0501D6
:101CA4009315876F88C5F3F589C5F4F5F56B54EC86
:101CB40000F0C90E0501E56F190EE66FD10EE76F4E
:101CC400190EE86F87518825E96F000E8921EA6FA4
:101CD400EB6BFFEC00F0080E8825E56F000E892100
:101CE400E66F8751E527000EE623E76B060EE86FE3
:101CF400DFEC01F00A0E05018825E56F000E89214D
:101D0400E66F8751E527000EE62395519025036E73
:101D140096519121046E04C000F0016A00C0E7F5F9
:101D240003C0E8F5DFEC01F07DC5E5F57EC5E6F519
:101D3400050195519025E76F96519121E86F0C0E9E
:101D4400E727000EE8238751E727000EE823B7ECC6
:101D540001F0160E0501F36FCAEC00F000C0A5F502
:101D6400170E0501F36FCAEC00F000C0E7F5100E82
:101D740005017D25E56F000E7E21E66FA5C5E8F51A
:101D8400DFEC01F00E0E05019325E56F000E9421A2
:101D9400E66F63EC02F097534CE0100E8E6F000E6A
:101DA4008F6F976B986B020EF66F90517D25F76FCE
:101DB40091517E21F86F2CEC00F00E0E050179256F
:101DC400A66F000E7A21A76F7B51A6277C51A7230B
:101DD4009051A6279151A7230EEC08F01F2AA10EBB
:101DE4000501A66F050EA76F8CC5A8F58DC5A9F5CD
:101DF4008AC5AAF58BC5ABF50E0E0D5DAC6F000E52
:101E04000E59AD6F7B51AC5F7C51AD5B9051AC5FB3
:101E14009151AD5B0F0EAE6F050EAF6FDAEC08F0AB
:101E240000C095F501C096F505010FB101D01F6AF8
:101E34005CD61F5223E095519925006E96519A2144
:101E4400016E000E9B21026E000E9C21036E00C0E9
:101E540099F501C09AF502C09BF503C09CF5110EDB
:101E64008E6F000E8F6F1F6A986B140E906F000EAA
:0E1E7400916F956B966B010E206E37D61200A3
:101E82001F0E0501F36F010EF46FE2EC00F01F0E5E
:101E92000501F36F020EF46FADEC00F0140E0501B4
:101EA200A66F79C5A7F5B1EC08F0120E0501F36F24
:101EB200010EF46FADEC00F0D0EC08F0120EF36FEF
:101EC200010EF46FE2EC00F0180E0501F36FCAEC9C
:101ED20000F07CC5E1FF7DC5E2FF00C0E6FF190E00
:101EE2000501F36FCAEC00F07AC5E1FF7BC5E2FFA2
:061EF20000C0E6FF120033
:101EF8001F0E0501F36F010EF46FE2EC00F01F0EE8
:101F08000501F36F020EF46FADEC00F0140E05013D
:101F1800A66F79C5A7F5B1EC08F0D0EC08F0160E5D
:101F2800A66F7BC5A7F5B1EC08F0D0EC08F0170E4A
:101F3800A66F7AC5A7F5B1EC08F0D0EC08F012004E
:101F4800C40E0501F36F190EF46F75EC00F000C0B4
:101F580079F5E8D0D50E0501A66F190EA76F100EFA
:101F6800A86F050EA96F040EAA6F68EC08F0005060
:101F7800000A4BE1C40E0501F36F190EF46F020E4F
:101F8800F56F54EC00F049EC08F0CB0EE56F190E34
:101F9800E66FCF0EE76F190EE86FD50EE96F190ED1
:101FA800EA6FEB6BFFEC00F0CB0EE56F190EE66FF6
:101FB800100EE76F050EE86F040EE96F000EEA6F6A
:101FC80086EC01F0C50EE56F190EE66FCB0EE76FD4
:101FD800190EE86FCF0EE96F190EEA6FEB6BFFEC85
:101FE80000F0C50EE56F190EE66FEB0EE76F040EF5
:101FF800E86F060EE96F000EEA6F86EC01F03C0E02
:10200800E56F000EE66F63EC02F095D00501AF0EA8
:10201800A66F190EA76FEB0EA86F040EA96F060E18
:10202800AA6F68EC08F00050000A7BE1CB0E0501AE
:10203800A66F190EA76F27C5A8F528C5A9F5040E20
:10204800AA6F68EC08F00050000A6BE10F0E006EF2
:10205800000E016E37C004F0000E056E21EC08F08A
:10206800310E00240501D76F050E0120D86F090E27
:10207800D727000ED823C50ED96F190EDA6F060EB2
:10208800DB6F000EDC6F97EC04F00F0E006E000E95
:10209800016E37C004F0000E056E21EC08F0310E19
:1020A8000024E56F050E0120E66F050EE527000EFA
:1020B800E62327C5E7F528C5E8F5040EE96F000E05
:1020C800EA6F3BEC02F00F0E006E000E016E37C097
:1020D80004F0000E056E21EC08F0310E0024E16ECC
:1020E800050E0120E26E010EE66E0F0E006E000E68
:1020F800016E37C004F0000E056E21EC08F0310EB9
:102108000026050E0122010E0024E16E000E0120BA
:10211800E26E2BC0E6FF2CC0E6FF2DC0E6FF2EC006
:10212800E6FF09D005017951010AD8B413D77951CE
:08213800020AD8B46BD71200B3
:102140000501A66B6D5303E00D0E6E6F02D0050EF8
:102150006E6F6EC5A7F5B1EC08F0020E0501A66F13
:102160006D5303E0310E6F6F02D0300E6F6F6FC58D
:10217000A7F5B1EC08F00A0E0501F66FEE0EF76F49
:10218000050EF86F2CEC00F0040E0501A66F6D53E0
:1021900003E0150E706F02D0120E706F70C5A7F5B8
:1021A000B1EC08F0060E0501A66F120EA76FB1EC98
:1021B00008F005016D5306E1070EA66F0C0EA76F20
:1021C000B1EC08F005016D5306E1090EA66F3F0E54
:1021D000A76FB1EC08F01F0E0501F36F010EF46F4D
:1021E000ADEC00F01F0E0501F36F020EF46FADECC5
:1021F00000F0040E0501A66FEBC4A7F5B1EC08F0E2
:10220000050E0501A66FECC4A7F5B1EC08F0020EAF
:102210000501A66FEDC4A7F5B1EC08F0030E0501AA
:10222000A66FEEC4A7F5B1EC08F00501A66BEFC4EC
:10223000A7F5B1EC08F0010E0501A66FF0C4A7F5F3
:10224000B1EC08F0150E0501A66FA76BB1EC08F014
:10225000120E0501F36FCAEC00F000C014F5050181
:10226000796B720E7A6F050E7B6F730E7C6F050EA5
:102270007D6F07DE0501796BFE0E72157A6F6D5367
:1022800003E0010E716F01D0716B71517A1373C548
:102290007BF532DE100E796F010E7A6F7B6B2CDED0
:1022A0001F0EF36F040EF46FADEC00F0D0EC08F0ED
:1022B000310ECF6F050ED06FD16B2D0ED26F000E89
:1022C000D36FAFEC06F01F0EF36F010EF46FE2EC6C
:1022D00000F01F0E0501F36F020EF46FE2EC00F048
:0222E0001200EA
:1022E2000501766B0F810F931F0EF36F010EF46FD2
:1022F200E2EC00F01F0E0501F36F020EF46FE2EC48
:1023020000F00501F66B28C0F7F529C0F8F52CECB2
:1023120000F082920BC5E1FF0CC5E2FF3A0EE66EB9
:1023220009C500F00AC501F020EC00F00BC5E1FF81
:102332000CC5E2FFE66A09C500F00AC501F020EC0F
:1023420000F000C028F00BC5E1FF0CC5E2FFE66A11
:1023520009C500F00AC501F020EC00F000C029F028
:102362000BC5E1FF0CC5E2FFE66A09C500F00AC52C
:1023720001F020EC00F000C00DF50BC5E1FF0CC52B
:10238200E2FFE66A09C500F00AC501F020EC00F0A0
:1023920000C00EF50BC5E1FF0CC5E2FFE66A09C5F8
:1023A20000F00AC501F020EC00F000C074F50BC586
:1023B200E1FF0CC5E2FFE66A09C500F00AC501F0BB
:1023C20020EC00F000C075F58282040E05010D5F5D
:1023D200000E0E5B2950190802E12850AD080DE3EA
:1023E20028B00BD075BF09D00E51050802E10D517E
:1023F200EE0803E374AF01D003D0010E006EC5D125
:10240200F36BCAEC00F000C072F5010E0501F36F28
:10241200CAEC00F000C073F572C5E5F573C5E6F5C8
:1024220005010D517225E76F0E517321E86FAF0E52
:10243200E96F190EEA6F010EEB6FFFEC00F0BB0EB5
:10244200F36F190EF46F75EC00F000C075F5D5EC62
:1024520004F000C074F505017551080A02E1060E88
:10246200741911E1BD0EA66F190EA76F2F0EA86F7A
:10247200000EA96F070EAA6F68EC08F00050000A60
:1024820001E161DD58D105017551080A02E1000E32
:102492007419D8A44DD1CD0EA66F190EA76F230EB5
:1024A200A86F050EA96F040EAA6F68EC08F000521F
:1024B20002E105010F830501CD0EA66F190EA76F6C
:1024C200220EA86F000EA96F040EAA6F68EC08F026
:1024D200005202E105010F830501CD0EA66F190E10
:1024E200A76F100EA86F050EA96F040EAA6F68ECF5
:1024F20008F0005206E005010FB303D0020E766F1A
:1025020016D10501BD0EF36F190EF46F75EC00F0D4
:10251200F00E0014016E0150400A04E0030E0501A2
:10252200766F05D10501BD0EF36F190EF46F75ECD0
:1025320000F000C070F5000E0501716F0F0E7017EC
:10254200000E711770377091713770377091713753
:10255200C30EF36F190EF46F75EC00F0BF0E00148A
:10256200016E0150000AD8A4E2D0C40E0501F36F37
:10257200190EF46F75EC00F00050000AD8A4D7D001
:10258200BD0E050170256E6F190E71216F6FC60E9B
:10259200F36F190EF46F75EC00F000C06DF500508A
:1025A200010AD8A488D06EC5F3F56FC5F4F575ECB1
:1025B20000F00050080AD8A47DD0010E05016E2556
:1025C200F36F000E6F21F46F75EC00F00050000AFB
:1025D20071E16EC5F3F56FC5F4F50501F56B54ECC9
:1025E20000F049EC08F0FEEC09F0C70EE56F190E99
:1025F200E66FE76BE86BDFEC01F0BD0E0501E56FFE
:10260200190EE66F70C5E7F571C5E8F5B7EC01F094
:10261200160E0501F36FCAEC00F000C077F5170E35
:102622000501F36FCAEC00F000C0E7F5C70E050123
:10263200E56F190EE66F77C5E8F5DFEC01F0020EE3
:1026420005016E25E56F000E6F21E66FE76BE86B03
:10265200DFEC01F06EC5E5F56FC5E6F505017051D9
:102662000D5DE76F71510E59E86F0E0EE75F000EB8
:10267200E85BB7EC01F0160E0501F36FCAEC00F04F
:1026820000C077F5170E0501F36FCAEC00F000C029
:10269200E7F5020E05016E25E56F000E6F21E66F6C
:1026A20077C5E8F5DFEC01F00DC5E5F50EC5E6F5F9
:1026B20063EC02F03CD005016D51110A0DE172C5C7
:1026C20079F573C57AF570C57BF56EC57CF56FC576
:1026D2007DF577EC0BF02BD005016D51060A27E151
:1026E200100E7225F36F000E7321F46F75EC00F07B
:1026F20000C078F50501776BD5EC04F000500501B8
:1027020077250D6F000E78210E6F0E0E0D27000E2D
:102712000E2372C579F573C57AF570C57BF571C55F
:102722007CF56EC57DF56FC57EF51AEC0CF003D015
:102732000501040E766F05011E0EF36F400EF46F55
:10274200ADEC00F0010E285C016E000E2958026EFD
:102752000250190802E10150AD080AE20C0E05010F
:10276200F66FAD0EF76F190EF86F2CEC00F00BD070
:102772000C0E0501F66F010E285CF76F000E29584A
:0C278200F86F2CEC00F076C500F012009F
:10278E00C69A1C0E0501096F000E0A6FF90E0B6F2B
:10279E00050E0C6FFF0E1F6FFF0E206FFF0E216FC9
:1027AE00FF0E226F949A94969488C66A400EC76E56
:0427BE00C68A1200B5
:1027C2000900F5CFE6FF0006FBE10106F9E1120080
:1027D2009490828094928282D0EC08F08280D0EC35
:1027E20008F08290D0EC08F08280D0EC08F082925F
:1027F2000BC5E1FF0CC5E2FFFF0EE66E09C500F056
:102802000AC501F020EC00F08282D0EC08F0EB0E59
:10281200E56F040EE66F68C5E7F569C5E8F5060ED3
:10282200E96F000EEA6F3BEC02F0100EE56F050E49
:10283200E66F6AC5E7F56BC5E8F5040EE96F000EB1
:10284200EA6F3BEC02F01F0EF36F010EF46FE2EC45
:1028520000F01F0E0501F36F020EF46FE2EC00F0C0
:10286200080E0501F66FF76BF86B2CEC00F00A0E00
:102872000501F66FAD0EF76F190EF86F2CEC00F034
:102882000C0E0501F66FAD0EF76F190EF86F2CECFA
:1028920000F00501F66BF76BF86B2CEC00F0040E00
:1028A2000501F66FAE0EF76F190EF86F2CEC00F003
:1028B2001F0E0501F36F010EF46FE2EC00F01F0E24
:1028C2000501F36F020EF46FADEC00F06CC56DF50F
:0428D20036DC1200DE
:1028D600000E0401DC1902E1000EDB1903E1E56BD1
:1028E600E66B17D00AD0070EE56F000EE66F11D023
:1028F600030EE56F000EE66F0CD0000EDE1902E146
:10290600000EDD19F0E0000EDE1902E1010EDD1900
:04291600EFE01200DC
:10291A000501686B1F0EF36F010EF46FADEC00F04A
:10292A001F0E0501F36F020EF46FE2EC00F0190EB0
:10293A000501F36FCAEC00F00050000803E2CCDC9A
:10294A0000C068F51F0E0501F36F010EF46FE2EC8B
:10295A0000F01F0E0501F36F020EF46FE2EC00F0B7
:06296A0068C500F0120038
:102970008BEC17F0380ED36E936A926A816A806A84
:102980000F013A6B3B6B956A836A01DF150E686F26
:10299000000E696F1B0E6A6F000E6B6F010E6C6F7D
:1029A00018DFBBDF98DF010EE125006E000EE2218B
:1029B000016E00C0E1F401C0E2F4E251E01902E16D
:1029C000DF51E1190DE1080EE519006EE6C401F0D2
:1029D000000E011A00C0E5F401C0E6F4E16BE26B01
:0829E000E5C481FFDED7FFD73B
:102F160010EE15F0D20E006E050E016EE80EF66E7E
:0E2F2600290EF76E000EF86EE1EC13F01200AB
:0629E8000014A576193F62
:0429EE000AD33705CC
:0129F20000E4
:0129F30000E3
:0129F40000E2
:0629F500FFFFFFFFFFFFE2
:0229FB000000DA
:0129FD0000D9
:0429FE0000000000D5
:082A02000001080006040000B9
:012A0A0000CB
:102A0B003C68746D6C3E3C626F64793E3C666F72E1
:102A1B006D206E616D653D22696E70757422206D3F
:102A2B006574686F643D22676574223E3C74616215
:102A3B006C6520616C69676E3D63656E74657220B1
:102A4B0077696474683D353030206267636F6C6FF3
:102A5B00723D236163666666666620626F726465AB
:102A6B00723D343E3C74723E3C746420616C696709
:102A7B006E3D63656E74657220636F6C7370616E0F
:102A8B003D323E3C666F6E742073697A653D37202C
:102A9B00636F6C6F723D426C61636B206661636543
:102AAB003D2276657264616E61223E3C623E4D4F03
:102ABB00544F5220434F4E54524F4C3C2F623E3C8E
:102ACB002F666F6E743E3C2F74643E3C2F74723EC7
:102ADB003C74723E3C746420616C69676E3D636547
:102AEB006E74657220636F6C7370616E3D323E3C29
:102AFB00666F6E742073697A653D3220636F6C6FFD
:102B0B00723D426C61636B20666163653D22766545
:102B1B007264616E61223E3C623E4469726563740D
:102B2B00696F6E3C2F623E3C2F666F6E743E3C2F7E
:102B3B0074643E3C2F74723E3C74723E3C74642051
:102B4B00616C69676E3D63656E7465722062676365
:102B5B006F6C6F723D23616366666666662077698C
:102B6B006474683D22353025223E3C696E70757465
:102B7B00206E616D653D22544C2220747970653D49
:102B8B00227375626D6974222076616C75653D22C6
:102B9B004C65667422207374796C653D2277696489
:102BAB0074683A203930253B206261636B67726F22
:102BBB00756E643A20303B223E3C2F74643E3C746D
:102BCB006420616C69676E3D63656E74657220622B
:102BDB0067636F6C6F723D23616366666666662022
:102BEB0077696474683D22353025223E3C696E70EE
:102BFB007574206E616D653D22545222207479707C
:102C0B00653D227375626D6974222076616C756502
:102C1B003D22526967687422207374796C653D227A
:102C2B0077696474683A203930253B206261636BA5
:102C3B0067726F756E643A20303B223E3C2F746492
:102C4B003E3C2F74723E3C74723E3C746420616C4B
:102C5B0069676E3D63656E74657220636F6C73702C
:102C6B00616E3D323E3C666F6E742073697A653DD2
:102C7B003220636F6C6F723D426C61636B206661D7
:102C8B0063653D2276657264616E61223E3C623EF5
:102C9B0053706565643C2F623E3C2F666F6E743ECD
:102CAB003C2F74643E3C2F74723E3C74723E3C74F9
:102CBB006420616C69676E3D63656E74657220623A
:102CCB0067636F6C6F723D23616366666666662031
:102CDB00636F6C7370616E3D313E3C696E707574E1
:102CEB00206E616D653D22494E43522220747970EE
:102CFB00653D227375626D6974222076616C756512
:102D0B003D222B22207374796C653D2277696474A4
:102D1B00683A203930253B6261636B67726F756E61
:102D2B00642D636F6C6F723A20726762283934209E
:102D3B0032343820313436293B223E3C2F74643EEA
:102D4B003C746420616C69676E3D63656E7465727B
:102D5B00206267636F6C6F723D23616366666666A4
:102D6B006620636F6C7370616E3D313E3C696E70B3
:102D7B007574206E616D653D22444543522220746B
:102D8B007970653D227375626D6974222076616C72
:102D9B0075653D222D22207374796C653D22776910
:102DAB006474683A203930253B6261636B67726FDC
:102DBB00756E642D636F6C6F723A20726762283286
:102DCB003438203934203934293B223E3C2F74646B
:102DDB003E3C2F74723E3C74723E3C746420616CBA
:102DEB0069676E3D63656E746572206267636F6CB5
:102DFB006F723D236163666666666620636F6C73F4
:102E0B0070616E3D323E3C696E707574206E616D03
:102E1B00653D2253544F502220747970653D2273C7
:102E2B0075626D6974222076616C75653D225374F1
:102E3B006F7022207374796C653D227769647468B6
:102E4B003A203930253B206261636B67726F756E78
:102E5B00643A20303B223E3C2F74643E3C2F74720C
:102E6B003E3C2F7461626C653E3C2F666F726D3E0B
:102E7B003C736372697074207372633D222220610C
:102E8B0073796E632064656665723E3C2F73637263
:102E9B006970743E3C2F626F64793E3C2F68746D91
:032EAB006C3E007A
:0C2EAE00000000002800000000000000F0
:102EBA00485454502F312E3120323030204F4B0A93
:0E2ECA00436F6E74656E742D747970653A00F6
:062ED800474554202F00C5
:032EDE00544C0051
:032EE10054520048
:052EE40053544F5000A3
:052EE9004445435200C6
:052EEE00494E435200B3
:0C2EF300746578742F68746D6C0A0A0016
:0C2EFF0001010600122334450000800091
:062F0B00638253633501EF
:052F1100370301030677
:020000040030CA
:0D000100231F3CFFBF81FF0FC00FE00F4029
:00000001FF
