:10000000A5EF14F00000000000EF00F00000000079
:0A0010000000000000000000F3D71C
:10001C0029C4C9FFC7B002D00000FCD7C9CF00F07B
:02002C001200C0
:10002E0029C46FFF6DB002D00000FCD76FCF00F077
:02003E001200AE
:10004000F250026EF29E0500FF6A0150FE6E0050F3
:08005000FD6E02BEF28E1200EB
:100058008292400E04012611006E52C3E1FF53C381
:10006800E2FF00C0E6FF50C300F051C301F0E4DF37
:1000780052C3E1FF53C3E2FF27C4E6FF50C300F0B9
:1000880051C301F0D9DF52C3E1FF53C3E2FF28C4D3
:10009800E6FF50C300F051C301F0CEDF82821200A8
:1000A800020E0401266F23C427F424C428F4D0DFE9
:1000B800829252C3E1FF53C3E2FF7A0EE66E50C349
:1000C80000F051C301F0B8DF52C3E1FF53C3E2FFB0
:1000D80025C4E6FF50C300F051C301F0ADDF8282B2
:0200E800120004
:1000EA008292A00E04012311006E52C3E1FF53C392
:1000FA00E2FF00C0E6FF50C300F051C301F09BDFEE
:10010A0052C3E1FF53C3E2FF24C4E6FF50C300F029
:0A011A0051C301F090DF8282120051
:10012400829252C3E1FF53C3E2FF7A0EE66E50C3DC
:1001340000F051C301F082DF52C3E1FF53C3E2FF79
:1001440023C4E6FF50C300F051C301F077DF82827D
:02015400120097
:100156008292800E04012311006E52C3E1FF53C345
:10016600E2FF00C0E6FF50C300F051C301F065DFB7
:1001760052C3E1FF53C3E2FF24C4E6FF50C300F0BD
:0A01860051C301F05ADF828212001B
:10019000829252C3E1FF53C3E2FF23C4E6FF50C380
:1001A00000F051C301F04CDF52C3E1FF53C3E2FF43
:1001B000E66A50C300F051C301F042DF82821200B0
:1001C0000401266B23C427F424C428F445DF82925B
:1001D00052C3E1FF53C3E2FF3A0EE66E50C300F094
:1001E00051C301F02DDF52C3E1FF53C3E2FFE66AC2
:0E01F00050C300F051C301F023DF82821200E1
:1001FE000401226B010E175F000E185B1B530DE0FE
:10020E001851190802E11751AD0807E2222BAD0E65
:10021E00175D206F190E1859216F225305E0AD0E90
:10022E001C6F190E1D6F04D017C41CF418C41DF4D6
:10023E0016511D1902E11C5115190DE115C423F4B7
:10024E0016C424F4B6DF00C025F419C423F41AC46E
:10025E0024F423DF36D0100E0401266F15C427F4C4
:10026E0016C428F4F2DE120E0401266F225305E0A6
:10027E00AD0E1E6F190E1F6F04D017C41EF418C4D6
:10028E001FF41EC427F41FC428F4DFDE140E04016D
:10029E00266F19C427F41AC428F4D7DE1F0E0401E2
:1002AE00236F100E246F1ADF1F0E0401236F200E12
:1002BE00246F4ADF1F0E0401236F63DF00AA01D0F3
:1002CE00F9D7040122531AE01551175D006E16512D
:1002DE001859016E2051005E2151015A004A012A1F
:1002EE000050192701501A23010E205D176F000EC2
:0E02FE002159186F156B166B226B8FD71200EB
:10030C00020E0401266F15C427F416C428F49EDED1
:10031C00829252C3E1FF53C3E2FF7A0EE66E50C3E2
:10032C0000F051C301F086DE040119511A1117E0D7
:10033C0052C3E1FF53C3E2FF17C4E9FF18C4EAFF3D
:10034C00EECFE6FF50C300F051C301F073DE0401A1
:10035C00174B182B010E195F000E1A5BE5D7828222
:02036C0012007D
:10036E00040117511525196F185116211A6F010E18
:10037E00195F000E1A5B100E266F15C427F416C4F3
:10038E0028F463DE120E0401266F19C427F41AC472
:10039E0028F45BDE1F0E0401236F300E246FD4DEB3
:1003AE001F0E0401236FEDDE00AA01D0F9D7120053
:1003BE0015C423F416C424F417C425F46EDE18C431
:0603CE0023F4A9DE120079
:1003D400829252C3E1FF53C3E2FF7A0EE66E50C32A
:1003E40000F051C301F02ADE17C400F018C401F074
:1003F400010E0401175F000E185B0050011013E09A
:1004040052C3E1FF53C3E2FF15C4E9FF16C4EAFF78
:10041400EECFE6FF50C300F051C301F00FDE04013C
:0A042400154B162BE1D7828212005F
:10042E00829252C3E1FF53C3E2FF7A0EE66E50C3CF
:10043E0000F051C301F0FDDD52C3E1FF53C3E2FFF3
:10044E0016C4E6FF50C300F051C301F0F2DD52C3F3
:10045E00E1FF53C3E2FF15C4E6FF50C300F051C3E2
:08046E0001F0E7DD82821200BB
:1004760017C404F018C405F015C402F016C403F03E
:1004860019C400F01AC401F0010E0401195F000E30
:100496001A5B005001100FE004C0E9FF05C0EAFF37
:1004A60002C0E1FF03C0E2FFEECFE6FF024A032AE5
:1004B600044A052AE5D715C400F016C401F0120057
:1004C600AE0E0401236F190E246F256BEADDAE0E06
:1004D60004011525006E190E1621016E00C015F4D3
:1004E60001C016F4060E266F00C027F401C028F4DA
:1004F600B0DD1F0E0401236F800E246F29DE1F0E50
:100506000401236F800E246FEDDD03015B51050AA4
:1005160004E05B51070A01E006D01C0E0401236FBC
:100526000A0E246FDFDD1F0E0401236F080E246FF1
:100536000FDE03015B51050A04E05B51070A01E087
:1005460080D004011A6B1B6B1C0E236F1EDE0A0E75
:10055600001600520AE104011A4B1B2B030E1B5D09
:1005660002E1E80E1A5D01E2EFD704011C0E236FCB
:100576000CDE00B208D0030E04011B5D02E1E80E9A
:100586001A5D01E25DD004011F0E236F080E246F71
:10059600A9DD040E04011525236F000E1621246F14
:1005A6000CDE00C019F40401176B100E175D48E24B
:1005B6001C0E236FEADD00A23FD0040119AB3CD02C
:1005C6001F0E236F800E246FC3DD1F0E0401236FE1
:1005D600800E246F87DD1C0E0401236F0A0E246F24
:1005E60081DD1F0E0401236F080E246FB1DD0401A7
:1005F6001A6B1B6B1C0E236FC8DD0A0E0016005209
:100606000AE104011A4B1B2B030E1B5D02E1E80EE7
:100616001A5D01E2EFD704011F0E236F080E246F47
:1006260061DD040E04011525236F000E1621246FCB
:10063600C4DD00C019F401D003D00401172BB5D7CF
:1006460007D004011F0E236FA0DD00A601D0F9D745
:100656001D0E0401236F99DD060E0016005203E0FD
:100666000401186B03D00401010E186F18C400F0C2
:02067600120070
:1006780007C415F408C416F4570E0401176F030EC7
:10068800186F040E196F000E1A6FF1DE096B09510D
:10069800030821E309510725026E000E0821036EA5
:1006A80002C0E9FF03C0EAFFEECF01F0380EE96EA1
:1006B800030EEA6E0951E926D8B0EA2AFF0EEE18B1
:1006C800006E0150001202C0E1FF03C0E2FF00C04B
:0806D800E6FF092BDCD712003C
:1006E000AF0E0401156F190E166F07C417F408C476
:1006F00018F4060E196F000E1A6F08DE320E156F11
:10070000030E166F060E176F000E186F63DE000ED5
:10071000156F080E166F8BDE1C0E04010F25126F6D
:10072000000E1021136F000E156F450E166F7FDE41
:1007300012C415F413C416F47ADE64C315F465C349
:1007400016F475DE0301644B652B0401156B166B03
:100750006EDE110E0401156F800E166F68DE040147
:10076000156B166B64DE570E0401156F030E166FC2
:10077000040E176F000E186F2DDE09C415F40AC49D
:1007800016F4040E176F000E186F24DE080E0F25E6
:10079000126F000E1021136F0BC415F40CC416F465
:1007A00046DE0DC415F40EC416F441DE12C415F471
:1007B00013C416F43CDE0401156B166B38DEBD0E57
:1007C0000401156F190E166F140E176F000E186FB7
:1007D000CEDD160E0401236FDBDC00C014F4170E0F
:1007E0000401236FD5DC00C017F4C70E0401156F98
:1007F000190E166F14C418F4E2DD010E040112156F
:10080000116FD90E0F25236F190E1021246F256B40
:100810004BDCC90E0401156F190E166FD10E176F40
:10082000190E186FD90E0F25196F190E10211A6F96
:1008300011511927000E1A231B6BE1DCD90E0F256D
:10084000156F190E1021166F11511527000E162362
:10085000080E1527000E1623176B110E186FAFDD4B
:1008600013C423F45FDC12C423F45CDCD10E040156
:10087000156F190E166F0C0E1225176F000E13212F
:10088000186F11511727000E182371DD160E040181
:10089000236F7EDC00C014F4170E0401236F78DC94
:1008A00000C017F4D70E0401156F190E166F14C48B
:1008B00018F485DD2A0E04010F25156F000E102196
:0608C000166F01DE1200BC
:1008C600829252C3E1FF53C3E2FF7A0EE66E50C333
:1008D60000F051C301F020EC00F00AC400F00BC494
:1008E60001F0010E04010A5F000E0B5B00500110BF
:1008F6001CE052C3E1FF53C3E2FF07C4F6FF08C47E
:10090600F7FF09C4F8FF0900F5CF00F000C0E6FFC5
:1009160050C300F051C301F020EC00F0010E0401B9
:0E0926000727000E08230923D8D7828212006B
:1009340004010A51FF0A02E1FF0E091907E0266BC0
:1009440009C427F40AC428F42CEC00F0829252C3A0
:10095400E1FF53C3E2FF3A0EE66E50C300F051C309
:1009640001F020EC00F00BC400F00CC401F0010E07
:1009740004010B5F000E0C5B0050011015E052C324
:10098400E1FF53C3E2FFE66A50C300F051C301F034
:1009940020EC00F007C4E1FF08C4E2FF00C0E6FF5A
:0C09A4000401074B082BDFD782821200F1
:1009B000829252C3E1FF53C3E2FF3A0EE66E50C388
:1009C00000F051C301F020EC00F052C3E1FF53C32B
:1009D000E2FFE66A50C300F051C301F020EC00F0E2
:0409E00082821200FD
:1009E4000BC401F00CC402F0010E04010B5F000EF5
:1009F4000C5B000E021802E1000E01181FE007C490
:100A0400E9FF08C4EAFF09C4D9FF0AC4DAFFEE50BB
:100A1400DE180FE007C4E9FF08C4EAFF09C4D9FFE0
:100A24000AC4DAFFDE50EE5C006E016A000E015A61
:100A340007D0074B082B094B0A2BD2D7006A016A4F
:020A440012009E
:100A4600020E0C6E490E0D6E0D2EFED70C2EFCD727
:060A560000000000120088
:100A5C000301FD6B3C0E3C6F000E3D6F3E6F3F6F14
:100A6C00A1DF00C0FBF30050020AD8A41BD1030184
:100A7C00FC6B0F0EFC5D04E295DF0301FC2BF9D738
:100A8C002E0E0401076F030E086FFF0E096FFF0E89
:100A9C000A6F040E0B6F000E0C6F46DF0301FC6B2C
:100AAC00080EFC5D04E27EDF0301FC2BF9D7FC6B26
:100ABC00060EFC5D12E276DF00C0FBF3320ED96E3F
:100ACC00030EDA6E0301FC51D926D8B0DA2A005095
:100ADC00DE1801E014D1FC2BEBD7FC6BCE0EFC5DC9
:100AEC0004E260DF0301FC2BF9D7FE6B5BDF00C077
:100AFC00FBF3B9D057DF00C0FBF30050010A04E14F
:100B0C0051DF00C0FDF301D0FAD0C8D04BDF00C0DC
:100B1C00FBF30050040A0FE1480E0401076F030EAB
:100B2C00086FFF0E096FFF0E0A6F040E0B6F000E9D
:100B3C000C6FFADE01D0E3D0B1D034DF00C0FBF390
:100B4C00040E005C0FE34C0E0401076F030E086FDC
:100B5C00FF0E096FFF0E0A6F040E0B6F000E0C6F69
:100B6C00E3DE01D0CCD0040E0301FB5F0301FBC319
:100B7C0000F0FB07005202E015DFF8D78FD012DF30
:100B8C0000C0FBF3040E005C0FE3400E0401076F82
:100B9C00030E086FFF0E096FFF0E0A6F040E0B6F2A
:100BAC00000E0C6FC1DE01D0AAD0040E0301FB5F56
:100BBC000301FBC300F0FB07005202E0F3DEF8D7A1
:100BCC006DD0F0DE00C0FBF30050040A0FE1FF0E05
:100BDC000401076F030E086FFF0E096FFF0E0A6FFB
:100BEC00040E0B6F000E0C6F9FDE01D088D056D018
:100BFC00010E0301FE6F52D0D5DE00C0FBF3005096
:100C0C00040A23E13C0E0401076F030E086FFF0E6C
:100C1C00096FFF0E0A6F040E0B6F000E0C6F84DE53
:100C2C0003013F51000808E13E51000805E13D5128
:100C3C00070802E13C51080807E2080E3C5F070E6A
:100C4C003D5B000E3E5B3F5B01D059D027D0AADE46
:100C5C0000C0FBF3FBC300F00301FB07005202E0F2
:100C6C00A1DEF8D71BD00301FB51350AD8B442D70B
:100C7C00FB51010AD8B44AD7FB51030AD8B45DD74B
:100C8C00FB51060AD8B47BD7FB51360A9AE0FB51CC
:100C9C00FF0AAEE0FB51330AAFE0D9D70301FE5394
:100CAC00D8B424D70301FD51020A10E1440E04010B
:100CBC00156F030E166FFF0E176F030E186F040ED1
:100CCC00196F000E1A6F3BEC02F016D00401440EA3
:100CDC00076F030E086FFF0E096F030E0A6F040EE9
:100CEC000B6F000E0C6F78DE000E011802E1000E87
:100CFC00001802E00301FD6BFDC300F001D0006A97
:020D0C001200D3
:100D0E00380E0401156F030E166F01C417F402C4DA
:100D1E0018F4040E196F000E1A6F3BEC02F0700EF1
:100D2E00156F030E166F03C417F404C418F4040EE3
:100D3E00196F000E1A6F3BEC02F0740E156F030E56
:100D4E00166F05C417F406C418F4040E196F000EBE
:100D5E001A6F3BEC02F06A0E076F030E086F85DC0C
:020D6E00120071
:100D70000401016B026B829252C3E1FF53C3E2FF95
:100D80007A0EE66E50C300F051C301F020EC00F083
:100D9000FBC300F0FCC301F0FDC302F0010E030130
:100DA000FB27000EFC23FD2300C0F6FF01C0F7FF68
:100DB00002C0F8FF0900F5CF00F000C0FEF30052BA
:100DC00010E052C3E1FF53C3E2FFFEC3E6FF50C38E
:100DD00000F051C301F020EC00F00401014B022BA4
:0E0DE000D7D7828201C400F002C401F01200D5
:100DEE00F90E0301FE6F000EFF6F020E0401266F57
:100DFE00D90E276F190E286F2CEC00F0C10E0401CE
:100E0E00076F2C0E086F000E096F0C0E0A6F000E86
:100E1E000B6F52DD0301FB51030A0EE1FC530CE094
:100E2E002E0E0401156F030E166F040E176F000EB3
:100E3E00186FEAEC01F00CD00301FD6B040EFD5DA2
:100E4E0007E20401236B92EC00F00301FD2BF6D7B1
:100E5E000301FD6B0C0EFD5D07E20401236B92ECAA
:100E6E0000F00301FD2BF6D7320E0401156F030EB1
:100E7E00166F060E176F000E186FEAEC01F00301E5
:100E8E00FD6BCA0EFD5D07E20401236B92EC00F0D0
:100E9E000301FD2BF6D7D90E0401076F2C0E086F38
:100EAE00000E096F060E0A6F000E0B6F05DDFBC3F9
:100EBE0023F492EC00F00301FB51030A1CE1FC53F6
:100ECE001AE1360E0401236F92EC00F0040E0401B9
:100EDE00236F92EC00F0440E0401156F030E166F93
:100EEE00040E176F000E186FEAEC01F0060E0301E8
:100EFE00FE27000EFF23DF0E0401076F2C0E086F76
:100F0E00000E096F050E0A6F000E0B6FD5DC030184
:100F1E00FB51030A24E1FC5322E1320E0401236F3C
:100F2E0092EC00F0040E0401236F92EC00F003012A
:100F3E00FD6B040EFD5D0FE22E0EE96E030EEA6EE2
:100F4E00FD51E926D8B0EA2AEECF23F492EC00F058
:100F5E000301FD2BEED7060EFE27000EFF23FF0E1C
:100F6E000401236F92EC00F0220E0401076F000EB5
:100F7E00086F220E096F000E0A6F440E0B6F000EE3
:100F8E000C6F430E0D6F000E0E6FFEC30FF4FFC3FA
:080F9E0010F470EC03F01200E6
:100FA600FBC302F0FCC303F0FEC300F0FFC301F075
:100FB600010E0301FE5F000EFF5B0050011009E009
:100FC60002C0E1FF03C0E2FFFDC3E6FF024A032AB7
:0C0FD600EBD7FBC300F0FCC301F01200DD
:100FE2000301FE6BFF6B829252C3E1FF53C3E2FF28
:100FF2007A0EE66E50C300F051C301F020EC00F00F
:10100200FBC300F0FCC301F00301FB4BFC2B00C04F
:10101200E9FF01C0EAFFEECF00F000C0FDF300528D
:1010220010E052C3E1FF53C3E2FFFDC3E6FF50C32A
:1010320000F051C301F020EC00F00301FE4BFF2B46
:0E104200DFD78282FEC300F0FFC301F0120070
:10105000B50E0401156F190E166FBB0E176F190E22
:10106000186FAF0E196F190E1A6F1B6BFFEC00F0A3
:10107000B50E156F190E166F320E176F030E186F1F
:0E108000060E196F000E1A6F86EC01F01200BA
:10108E000B6A0A6A096A00500402F4CF09F0F3CF22
:10109E0008F001500502F4CF0BF0F3CF0AF0005028
:1010AE000502F3500926F4500A22E86A0B22015079
:1010BE000402F3500926F4500A22E86A0B2208C0F3
:1010CE0000F009C001F00AC002F00BC003F01200DC
:1010DE000401236BC8EC00F000C0F2F3010E040112
:1010EE00236FC8EC00F000C0F3F30401266BEDC3D0
:1010FE0027F4EEC328F42CEC00F0829252C3E1FFE9
:10110E0053C3E2FF3A0EE66E50C300F051C301F036
:10111E0020EC00F00301F15318E052C3E1FF53C37A
:10112E00E2FFE66A50C300F051C301F020EC00F07C
:10113E00EFC3D9FFF0C3DAFF0050DE1801E005D08F
:10114E000301EF4BF02BF107E5D782820401266BEA
:10115E00F2C327F4F3C328F42CEC00F0F1C300F033
:02116E0012006D
:101170000301ED6BC80EED5D04E265DC64DCED2B74
:04118000F9D7120089
:101184008292400E0301ED11006E52C3E1FF53C37E
:10119400E2FF00C0E6FF50C300F051C301F020ECB1
:1011A40000F052C3E1FF53C3E2FFEEC3E6FF50C3B6
:0E11B40000F051C301F020EC00F08282120026
:1011C2000301EE51190802E1ED51AD0804E2AE0E41
:1011D200ED5F190EEE5B0401266BEDC327F4EEC33F
:0811E20028F42CEC00F01200CF
:1011EA000301F76BF86B000EF85D02E10A0EF75D7A
:1011FA0012E2A50EF725F96F030EF821FA6FD8EC63
:10120A0004F0F9C3E1FFFAC3E2FF00C0E6FF0301FD
:10121A00F74BF82BE8D7A50EF725E16E030EF82158
:10122A00E26EE66AA50E0401076F030E086F280E28
:10123A00096F030E0A6F050E0B6F000E0C6FF2ECAE
:10124A0004F00050011003E0006A016A6CD0AB0E92
:10125A000401076F030E086F250E096F030E0A6F4C
:10126A00020E0B6F000E0C6FF2EC04F0005001102E
:10127A0003E1050E816E28D0AB0E0401076F030E41
:10128A00086F1D0E096F030E0A6F020E0B6F000E18
:10129A000C6FF2EC04F00050011003E1010E816EB4
:1012AA0013D0AB0E0401076F030E086F200E096FEF
:1012BA00030E0A6F040E0B6F000E0C6FF2EC04F0B3
:1012CA0000500110D8B4816A000E0301F21902E13C
:1012DA00500EF11903E0006A016A25D0A30EFB6FD4
:1012EA002C0EFC6F000EFD6F3EDD00C0F7F301C04F
:1012FA00F8F3CD0E0301FB6F2C0EFC6F000EFD6F91
:10130A0032DD00500301F7270150F823380EFB6F36
:10131A00000EFC6F61DEF7510026F851012200C071
:08132A00F7F301C0F8F3120013
:10133200C90E0401156F190E166FCD0E176F190E17
:10134200186FCD0E196F190E1A6F1B6BFFEC00F0A0
:10135200C90E156F190E166F570E176F030E186F01
:0E136200040E196F000E1A6F86EC01F01200D7
:06137000006A016A120090
:10137600D8EC04F0D8EC04F0D8EC04F000C0EEF39E
:10138600D8EC04F000C0EDF3D8EC04F000C0F0F3A4
:10139600D8EC04F000C0EFF3D8EC04F000C0F2F390
:1013A600D8EC04F000C0F1F3D8EC04F0D8EC04F06B
:1013B600D8EC04F0D8EC04F0EFC300F0F0C301F071
:1013C600010E0301EF5F000EF05B005001100EE00E
:1013D600D8EC04F0005201E0FBD7D8EC04F0D8ECCE
:1013E60004F0D8EC04F0D8EC04F0E6D7F1C300F032
:1013F600F2C301F0010E0301F15F000EF25B005033
:10140600011048E0D8EC04F0D8EC04F0D8EC04F075
:1014160000C0F6F3D8EC04F000C0F5F3D8EC04F005
:10142600D8EC04F0D8EC04F0D8EC04F0D8EC04F0D6
:10143600D8EC04F0D8EC04F000C0F4F3D8EC04F0D7
:1014460000C0F3F3000E0301F61902E1010EF519CF
:1014560011E1D8EC04F000C060F3D8EC04F000C051
:1014660061F3D8EC04F000C062F3D8EC04F000C0DD
:1014760063F310D0F3C300F0F4C301F0010E0301CF
:10148600F35F000EF45B0050011003E0D8EC04F0AB
:06149600F1D7ACD71200F3
:10149C00B0D0570E0301FB6F030EFC6FFD6B040EF7
:1014AC00FE6F000EFF6F79DD010EFB6FFC6B99DC9C
:1014BC002BC05CF32CC05DF32DC05EF32EC05FF32C
:1014CC00030E216EA7D0050E03015C25016E000EE4
:1014DC005D21026E000E5E21036E000E5F21046E14
:1014EC002E50045C08E12D50035C05E12C50025C8D
:1014FC0002E12B50015C02E2020E216E2EEC05F093
:10150C000050020A03E1040E216E01D083D0030EB9
:10151C000301FB6F2AC0FCF364DC2BC05CF32CC012
:10152C005DF32DC05EF32EC05FF3050E216E72D0FD
:10153C002EEC05F000C0EDF30050060A03E1040E9A
:10154C00216E2DD00301ED51050A29E12BC05CF36E
:10155C002CC05DF32DC05EF32EC05FF3060E216E22
:10156C00570E0401156F030E166F2E0E176F030E18
:10157C00186F040E196F000E1A6F3BEC02F0480E38
:10158C00016F030E026F4C0E036F030E046F400EBF
:10159C00056F030E066F87EC06F02A6A3BD03AD033
:1015AC00010E03015C25016E000E5D21026E000E22
:1015BC005E21036E000E5F21046E04502E5C08E168
:1015CC0003502D5C05E102502C5C02E101502B5CB8
:1015DC000FE30301010E3C5F000E3D5B3E5B3F5B86
:1015EC002BC05CF32CC05DF32DC05EF32EC05FF3FB
:1015FC0011D02150020AD8B44CD72150030AD8B4C8
:10160C0062D72150040A83E02150050A91E0215051
:06161C00060AC6E0120000
:10162200C4C323F4C5C324F4E0EC00F000C0D4F337
:10163200D8EC04F000C0D3F3D8EC04F000C0D2F32D
:10164200D8EC04F000C0D1F30301D96BDE6B010EBC
:10165200DF6FDC6BDD6B0C0EC4250401236F000E03
:101662000301C5210401246FE0EC00F000C0D7F3B0
:10167200000E0301D86FD733D79FD733D79F000E01
:10168200D86FFC0ED717FF0ED817E80E0401076FAC
:10169200030E086FC90E096F190E0A6F040E0B6F45
:1016A200000E0C6F9AEC04F00D0E0301C425040128
:1016B200236F000E0301C5210401246FE0EC00F04A
:1016C2003F0E00140301D56FD66B000ED617000E25
:1016D200D66F0E0E545DDA6F000E5559DB6FC25194
:1016E200DA5FC351DB5BD751DA5FD851DB5B020EA5
:1016F200C4250401236F000E0301C5210401246FD8
:10170200E0EC00F000C025F4C4C323F4C5C324F404
:1017120054EC00F0030E0301C4250401236F000EF4
:101722000301C5210401246FE0EC00F000C023F4A2
:1017320092EC00F0D3C315F4D4C316F417EC02F004
:10174200040E0301C4250401236F000E0301C52109
:101752000401246FE0EC00F000C0E3F3D8EC04F0E5
:1017620000C0E2F3D8EC04F000C0E1F3D8EC04F0DE
:1017720000C0E0F3D8EC04F000C0E7F3D8EC04F0CA
:1017820000C0E6F3D8EC04F000C0E5F3D8EC04F0B6
:1017920000C0E4F3000E0301D61902E1020ED519CE
:1017A2003DE1010EE025006E000EE121016E000E0A
:1017B200E221026E000EE321036E00C0E4F301C0D9
:1017C200E5F302C0E6F303C0E7F3120ED56F000E95
:1017D200D66F0C0E0401236FC8EC00F000C0E0F3DA
:1017E2000D0E0401236FC8EC00F000C0E1F3040108
:1017F200236BC8EC00F000C0E2F3010E0401236F7A
:10180200C8EC00F000C0E3F30301D92B180ED76F28
:10181200000ED86FDC6BDD6B1F6A6ED0000ED6191E
:1018220002E1180ED5192FE1E0C3C6F3E1C3C7F3F5
:10183200E2C3C8F3E3C3C9F3E4C3E0F3E5C3E1F3EE
:10184200E6C3E2F3E7C3E3F3DA51C625006EDB51E8
:10185200C721016E000EC821026E000EC921036E5F
:1018620000C0E4F301C0E5F302C0E6F303C0E7F30E
:10187200100ED56F000ED66FD92B140ED76F000E37
:10188200D86FDE2B39D0000ED61902E1110ED51910
:1018920033E1E0C3CAF3E1C3CBF3E2C3CCF3E3C366
:1018A200CDF3E4C3E0F3E5C3E1F3E6C3E2F3E7C358
:1018B200E3F3010ECA25006E000ECB21016E000E6D
:1018C200CC21026E000ECD21036E00C0E4F301C0F4
:1018D200E5F302C0E6F303C0E7F3100ED56F000E86
:1018E200D66FD92B140ED76F000ED86FDC6BDD6B61
:1018F200205202E11F2A206AD953D8B407D2040E1B
:10190200C4250401156F000E0301C5210401166FE1
:10191200E3C317F4E2C318F4DFEC01F0E1C323F4EC
:1019220092EC00F0E0C323F492EC00F0E7C323F45E
:1019320092EC00F0E6C323F492EC00F0E5C323F44A
:1019420092EC00F0E4C323F492EC00F00C0E0301DD
:10195200C4250401236F000E0301C5210401246F75
:10196200E0EC00F00F0E00140401256FD7C300F065
:101972000036009000360090005025130C0E030133
:10198200C4250401236F000E0301C5210401246F45
:1019920054EC00F00D0E0301C4250401236F000E68
:1019A2000301C5210401246FE0EC00F0C00E001415
:1019B2000401256F0301D551040125130D0E030106
:1019C200C4250401236F000E0301C5210401246F05
:1019D20054EC00F0000E0301D61902E1120ED519E3
:1019E20029E10E0EC4250401156F000E0301C52165
:1019F2000401166F050E176FEE0E186FDFEC01F083
:101A0200140E0301C4250401156F000E0301C52144
:101A12000401166F020E176F040E186FDFEC01F04F
:101A2200050E0401236F92EC00F0780E0401236F7F
:101A320092EC00F00301C251DC25DA6FC351DD21C3
:101A4200DB6FD751DA27D851DB23DF5303E028ECD1
:101A520008F06EDC0401BF0E156F190E166FDBC3A2
:101A620017F4DAC318F4DFEC01F0C70E0401156FA6
:101A7200190E166F176B186BDFEC01F0BD0E040127
:101A8200156F190E166FC2C317F4C3C318F4B7EC5F
:101A920001F0160E0401236FC8EC00F000C0ECF355
:101AA200170E0401236FC8EC00F000C017F4C70E34
:101AB2000401156F190E166FECC318F4DFEC01F078
:101AC200BD0E0301DA25CF6F190EDB21D06F100E88
:101AD200C4250401156F000E0301C5210401166F10
:101AE200176B186BDFEC01F0010E0301DA15CE6FF4
:101AF200CFC323F4D0C324F40401256B54EC00F0CB
:101B0200C90E0401156F190E166FD10E176F190E3B
:101B1200186F0301CE51CF250401196F000E030186
:101B2200D02104011A6F1B6BFFEC00F0080E0301B9
:101B3200CF250401156F000E0301D0210401166F99
:101B42000301CE5104011527000E1623176B060E52
:101B5200186FDFEC01F00A0E0301CF250401156FA7
:101B6200000E0301D0210401166F0301CE510401BE
:101B72001527000E16230301DC51D725036EDD5114
:101B8200D821046E04C000F0016A00C017F403C03B
:101B920018F4DFEC01F0C4C315F4C5C316F4030155
:101BA200DC51D7250401176F0301DD51D82104014F
:101BB200186F0C0E1727000E18230301CE510401D3
:101BC2001727000E1823B7EC01F0160E0401236F3D
:101BD200C8EC00F000C0ECF3170E0401236FC8EC50
:101BE20000F000C017F4100E0301C4250401156FA4
:101BF200000E0301C5210401166FECC318F4DFECDB
:101C020001F00E0E0301DA250401156F000E030127
:101C1200DB210401166F63EC02F00301DE5351E095
:101C2200100ED56F000ED66FDE6BDF6B020E040155
:101C3200266F0301D751C4250401276F0301D85130
:101C4200C5210401286F2CEC00F00E0E0301C02503
:101C5200ED6F000EC121EE6FC251ED27C351EE238D
:101C6200D751ED27D851EE23E1EC08F01F2AE80EF8
:101C72000301ED6F030EEE6FD3C3EFF3D4C3F0F3A2
:101C8200D1C3F1F3D2C3F2F30E0E545DF36F000E23
:101C92005559F46FC251F35FC351F45BD751F35FEF
:101CA200D851F45B560EF56F030EF66FF5EC08F0A3
:101CB20000C0DCF301C0DDF3030156B101D01F6A9D
:101CC2001ED61F5223E0DC51E025006EDD51E121DA
:101CD200016E000EE221026E000EE321036E00C0CF
:101CE200E0F301C0E1F302C0E2F303C0E3F3110E3B
:101CF200D56F000ED66F1F6ADF6B140ED76F000E02
:0E1D0200D86FDC6BDD6B010E206EF9D5120080
:101D10001F0E0401236F010E246F75EC00F01F0EDF
:101D20000401236F020E246FABEC00F0140E0301CC
:101D3000ED6FC0C3EEF3C2EC08F0120E0401236F86
:101D4000010E246FABEC00F0B8EC08F0120E0401A9
:101D5000236F010E246F75EC00F0180E0401236F41
:101D6000C8EC00F0C3C3E1FFC4C3E2FF00C0E6FF5C
:101D7000190E0401236FC8EC00F0C1C3E1FFC2C318
:081D8000E2FF00C0E6FF1200C3
:101D8800C3C323F4C4C324F4E0EC00F000C0CEF3D2
:101D9800D8EC04F000C0CDF3D8EC04F000C0CCF3CC
:101DA800D8EC04F000C0CBF3000E0301CC1902E11B
:101DB800000ECB1901E18FD0D8EC04F000C0D0F3AD
:101DC800D8EC04F000C0CFF3D10E0401076F030E66
:101DD800086FC90E096F190E0A6F040E0B6F000EFB
:101DE8000C6F9AEC04F0020E266F080E0301C3254F
:101DF8000401276F000E0301C4210401286F2CEC95
:101E080000F00E0E0301C025ED6F000EC121EE6F2C
:101E1800C251ED27000EEE23080EED27000EEE232B
:101E2800E1EC08F0000E0301CE1902E1350ECD19E0
:101E380003E1BBEC09F04FD0000E0301CC1902E11D
:101E4800440ECB1903E14EEC0AF045D0D10E030144
:101E5800ED6F030EEE6FCDC3EFF3CEC3F0F3CBC33C
:101E6800F1F3CCC3F2F3080ECF5DF36F000ED05937
:101E7800F46F560EF56F030EF66FB8EC09F000C05C
:101E8800CFF301C0D0F30050011025E0C50E0401C6
:101E9800076F030E086FB50E096F190E0A6F060E4D
:101EA8000B6F000E0C6F9AEC04F0C50E076F030E53
:101EB800086FD10E096F030E0A6FCBC30BF4CCC3A6
:101EC8000CF4CDC30DF4CEC30EF4CFC30FF4D0C3BE
:081ED80010F470EC03F012009D
:101EE000C40E0401236F190E246FE0EC00F000C053
:101EF000C0F3E8D0D50E0301ED6F190EEE6F570E4B
:101F0000EF6F030EF06F040EF16F6FEC08F00050EE
:101F1000000A4BE1C40E0401236F190E246F020E58
:101F2000256F54EC00F028EC08F0CB0E156F190E5D
:101F3000166FCF0E176F190E186FD50E196F190E79
:101F40001A6F1B6BFFEC00F0CB0E156F190E166F9E
:101F5000570E176F030E186F040E196F000E1A6FCD
:101F600086EC01F0C50E156F190E166FCB0E176FAC
:101F7000190E186FCF0E196F190E1A6F1B6BFFEC2D
:101F800000F0C50E156F190E166F320E176F030E87
:101F9000186F060E196F000E1A6F86EC01F03C0EDA
:101FA000156F000E166F63EC02F095D0AF0E0301B3
:101FB000ED6F190EEE6F320EEF6F030EF06F060E1F
:101FC000F16F6FEC08F00050000A7BE1CB0E0301CB
:101FD000ED6F190EEE6F6EC3EFF36FC3F0F3040EE7
:101FE000F16F6FEC08F00050000A6BE10F0E006E0D
:101FF000000E016E37C004F0000E056E47EC08F0CD
:10200000780E00240401076F030E0120086F090EEB
:102010000727000E0823C50E096F190E0A6F060E5A
:102020000B6F000E0C6F9AEC04F00F0E006E000E9A
:10203000016E37C004F0000E056E47EC08F0780E14
:102040000024156F030E0120166F050E1527000ED4
:1020500016236EC317F46FC318F4040E196F000E25
:102060001A6F3BEC02F00F0E006E000E016E37C0CF
:1020700004F0000E056E47EC08F0780E0024E16EC7
:10208000030E0120E26E010EE66E0F0E006E000ED2
:10209000016E37C004F0000E056E47EC08F0780EB4
:1020A0000026030E0122010E0024E16E000E012025
:1020B000E26E2BC0E6FF2CC0E6FF2DC0E6FF2EC06F
:1020C000E6FF09D00301C051010AD8B413D7C051AB
:0820D000020AD8B46BD712001C
:1020D8001F0E0401236F010E246F75EC00F01F0E14
:1020E8000401236F020E246FABEC00F0140E030101
:1020F800ED6FC0C3EEF3C2EC08F0B8EC08F0160EB2
:10210800ED6FC2C3EEF3C2EC08F0B8EC08F0170E9E
:10211800ED6FC1C3EEF3C2EC08F0B8EC08F01200A2
:102128000301ED6BB45303E00D0EB56F02D0050E3D
:10213800B56FB5C3EEF3C2EC08F0020E0301ED6F04
:10214800B45303E0310EB66F02D0300EB66FB6C38B
:10215800EEF3C2EC08F00A0E0401266FEE0E276FAC
:10216800050E286F2CEC00F0040E0301ED6FB4533C
:1021780003E0150EB76F02D0120EB76FB7C3EEF3B8
:10218800C2EC08F0060E0301ED6F120EEE6FC2EC02
:1021980008F00301B45306E1070EED6F0C0EEE6F65
:1021A800C2EC08F00301B45306E1090EED6F3F0ECF
:1021B800EE6FC2EC08F01F0E0401236F010E246FAE
:1021C800ABEC00F01F0E0401236F020E246FABEC82
:1021D80000F0040E0301ED6F32C3EEF3C2EC08F019
:1021E800050E0301ED6F33C3EEF3C2EC08F0020EE7
:1021F8000301ED6F34C3EEF3C2EC08F0030E0301E4
:10220800ED6F35C3EEF3C2EC08F00301ED6B36C396
:10221800EEF3C2EC08F0010E0301ED6F37C3EEF3E5
:10222800C2EC08F0150E0301ED6FEE6BC2EC08F07E
:10223800120E0401236FC8EC00F000C05BF3030129
:10224800C06BB90EC16F030EC26FBA0EC36F030E17
:10225800C46F5ADD0301C06BFE0EB915C16FB453CC
:1022680003E0010EB86F01D0B86BB851C113BAC3FF
:10227800C2F32EDF100EC06F010EC16FC26B28DFD4
:102288001F0E0401236F040E246FABEC00F0B8ECB2
:1022980008F0780EFB6F030EFC6FFD6B2D0EFE6FC2
:1022A800000EFF6FD3EC07F01F0E0401236F010E21
:1022B800246F75EC00F01F0E0401236F020E246FCB
:0622C80075EC00F01200AD
:1022CE000301BD6B568156931F0E0401236F010E41
:1022DE00246F75EC00F01F0E0401236F020E246FA5
:1022EE0075EC00F00401266B28C027F429C028F4F1
:1022FE002CEC00F0829252C3E1FF53C3E2FF3A0E80
:10230E00E66E50C300F051C301F020EC00F052C352
:10231E00E1FF53C3E2FFE66A50C300F051C301F080
:10232E0020EC00F000C028F052C3E1FF53C3E2FFDF
:10233E00E66A50C300F051C301F020EC00F000C07B
:10234E0029F052C3E1FF53C3E2FFE66A50C300F027
:10235E0051C301F020EC00F000C054F352C3E1FF72
:10236E0053C3E2FFE66A50C300F051C301F020EC04
:10237E0000F000C055F352C3E1FF53C3E2FFE66A1B
:10238E0050C300F051C301F020EC00F000C0BBF3CD
:10239E0052C3E1FF53C3E2FFE66A50C300F051C3DC
:1023AE0001F020EC00F000C0BCF38282040E0301A9
:1023BE00545F000E555B2950190802E12850AD08F4
:1023CE000DE328B00BD0BCBF09D05551050802E172
:1023DE005451EE0803E3BBAF01D003D0010E006EE3
:1023EE00DAD10401236BC8EC00F000C0B9F3010E82
:1023FE000401236FC8EC00F000C0BAF3B9C315F4A2
:10240E00BAC316F403015451B9250401176F030121
:10241E005551BA210401186FAF0E196F190E1A6FAC
:10242E00010E1B6FFFEC00F0BB0E236F190E246F15
:10243E00E0EC00F000C0BCF3D8EC04F000C0BBF33D
:10244E000301BC51080A02E1060EBB1911E1BD0ED3
:10245E00ED6F190EEE6F2F0EEF6F000EF06F070E71
:10246E00F16F6FEC08F00050000A01E132DD69D126
:10247E000301BC51080A02E1000EBB19D8A45ED1BB
:10248E00CD0EED6F190EEE6F6A0EEF6F030EF06F3D
:10249E00040EF16F6FEC08F0005202E10301568357
:1024AE000301CD0EED6F190EEE6F220EEF6F000EC3
:1024BE00F06F040EF16F6FEC08F0005202E10301B1
:1024CE0056830301CD0EED6F190EEE6F570EEF6FA3
:1024DE00030EF06F040EF16F6FEC08F0005206E081
:1024EE00030156B303D0020EBD6F27D1BD0E0401FA
:1024FE00236F190E246FE0EC00F0F00E0014016E45
:10250E000150400A04E0030E0301BD6F16D1BD0E4B
:10251E000401236F190E246FE0EC00F000C0B7F336
:10252E00000E0301B86F0F0EB717000EB817B737AE
:10253E00B791B837B737B791B837C30E0401236FC9
:10254E00190E246FE0EC00F0BF0E0014016E015066
:10255E00000AD8A4F2D0C40E0401236F190E246F02
:10256E00E0EC00F00050000AD8A4E7D0BD0E030145
:10257E00B725B56F190EB821B66FC60E0401236FBD
:10258E00190E246FE0EC00F000C0B4F30050010A05
:10259E00D8A494D0B5C323F4B6C324F4E0EC00F071
:1025AE000050080AD8A489D0010E0301B5250401F4
:1025BE00236F000E0301B6210401246FE0EC00F03E
:1025CE000050000A7AE1B5C323F4B6C324F4040123
:1025DE00256B54EC00F028EC08F099EC09F0C70ECE
:1025EE00156F190E166F176B186BDFEC01F0BD0E21
:1025FE000401156F190E166FB7C317F4B8C318F48C
:10260E00B7EC01F0160E0401236FC8EC00F000C009
:10261E00BEF3170E0401236FC8EC00F000C017F4D0
:10262E00C70E0401156F190E166FBEC318F4DFEC3A
:10263E0001F0020E0301B5250401156F000E030112
:10264E00B6210401166F176B186BDFEC01F0B5C3E2
:10265E0015F4B6C316F40301B751545D0401176F98
:10266E000301B85155590401186F0E0E175F000E75
:10267E00185BB7EC01F0160E0401236FC8EC00F0E6
:10268E0000C0BEF3170E0401236FC8EC00F000C0AB
:10269E0017F4020E0301B5250401156F000E030198
:1026AE00B6210401166FBEC318F4DFEC01F054C35B
:1026BE0015F455C316F463EC02F03FD00301B45188
:1026CE00110A0DE1B9C3C0F3BAC3C1F3B7C3C2F364
:1026DE00B5C3C3F3B6C3C4F3C4EC0EF02ED00301DE
:1026EE00B451060A2AE1100EB9250401236F000E1B
:1026FE000301BA210401246FE0EC00F000C0BFF327
:10270E000301BE6BD8EC04F000500301BE25546FDC
:10271E00000EBF21556F0E0E5427000E5523B9C360
:10272E00C0F3BAC3C1F3B7C3C2F3B8C3C3F3B5C3DF
:10273E00C4F3B6C3C5F311EC0BF003D00301040EC2
:10274E00BD6F1E0E0401236F400E246FABEC00F024
:10275E00010E285C016E000E2958026E02501908F7
:10276E0002E10150AD080AE20C0E0401266FAD0E17
:10277E00276F190E286F2CEC00F00BD00C0E0401F5
:10278E00266F010E285C276F000E2958286F2CEC3F
:08279E0000F0BDC300F01200C1
:1027A600C69A1C0E0301506F000E516F290E526F10
:1027B600040E536FFF0E666FFF0E676FFF0E686F96
:1027C600FF0E696F949A94969488C66A400EC76EF7
:0427D600C68A12009D
:1027DA000900F5CFE6FF0006FBE10106F9E1120068
:1027EA000301AF6B1F0E0401236F010E246FABECC4
:1027FA0000F01F0E0401236F020E246F75EC00F027
:10280A00190E0401236FC8EC00F00050000803E21F
:10281A0059DD00C0AFF31F0E0401236F010E246FB0
:10282A0075EC00F01F0E0401236F020E246F75EC85
:08283A0000F0AFC300F0120032
:102842009490828094928282B8EC08F08280B8ECF4
:1028520008F08290B8EC08F08280B8EC08F082921E
:1028620052C3E1FF53C3E2FFFF0EE66E50C300F016
:1028720051C301F020EC00F08282B8EC08F0320E75
:102882000401156F030E166FAFC317F4B0C318F42B
:10289200060E196F000E1A6F3BEC02F0570E156F01
:1028A200030E166FB1C317F4B2C318F4040E196FF6
:1028B200000E1A6F3BEC02F01F0E236F010E246F05
:1028C20075EC00F01F0E0401236F020E246F75ECED
:1028D20000F0080E0401266F276B286B2CEC00F029
:1028E2000A0E0401266FAD0E276F190E286F2CEC0D
:1028F20000F00C0E0401266FAD0E276F190E286F23
:102902002CEC00F00401266B276B286B2CEC00F0FA
:10291200040E0401266FAE0E276F190E286F2CECE1
:1029220000F01F0E0401236F010E246F75EC00F0FE
:102932001F0E0401236F020E246FABEC00F0B3C331
:08294200B4F394EC10F0120054
:10294A0072EC16F0380ED36E936A926A816A010E9F
:10295A00806E0F013A6B3B6B956A836A1FDF150E17
:10296A00AF6F000EB06F1B0EB16F000EB26F010E8B
:10297A00B36F62DF35DF010E806E806AFBD7FFD747
:102CE40010EE15F0190E006E040E016E8A0EF66ECB
:0E2CF400290EF76E000EF86EEDEC13F01200D4
:06298A000014A576193FC0
:04299000C0A80014C7
:012994000042
:012995000041
:012996000040
:06299700FFFFFFFFFFFF40
:02299D00000038
:01299F000037
:0429A0000000000033
:0829A400000108000604000018
:0129AC00002A
:1029AD003C68746D6C3E3C626F64793E3C666F7240
:1029BD006D206E616D653D22696E70757422206D9E
:1029CD006574686F643D22676574223E3C74616274
:1029DD006C6520616C69676E3D63656E7465722010
:1029ED0077696474683D353030206267636F6C6F52
:1029FD00723D236163666666666620626F7264650A
:102A0D00723D343E3C74723E3C746420616C696767
:102A1D006E3D63656E74657220636F6C7370616E6D
:102A2D003D323E3C666F6E742073697A653D37208A
:102A3D00636F6C6F723D426C61636B2066616365A1
:102A4D003D2276657264616E61223E3C623E4D4F61
:102A5D00544F5220434F4E54524F4C3C2F623E3CEC
:102A6D002F666F6E743E3C2F74643E3C2F74723E25
:102A7D003C74723E3C746420616C69676E3D6365A5
:102A8D006E746572206267636F6C6F723D23616354
:102A9D0066666666663E3C696E707574206E616D25
:102AAD00653D2254412220747970653D2273756213
:102ABD006D6974222076616C75653D224C65667476
:102ACD00223E3C2F74643E3C746420616C69676ED9
:102ADD003D63656E746572206267636F6C6F723DE6
:102AED0023616366666666663E3C696E707574202A
:102AFD006E616D653D2254422220747970653D22D0
:102B0D007375626D6974222076616C75653D225214
:102B1D0069676874223E3C2F74643E3C2F74723E8C
:102B2D003C74723E3C746420616C69676E3D6365F4
:102B3D006E746572206267636F6C6F723D236163A3
:102B4D00666666666620636F6C7370616E3D313EBE
:102B5D003C696E707574206E616D653D222B22206F
:102B6D00747970653D227375626D6974222076618A
:102B7D006C75653D222B223E3C2F74643E3C746483
:102B8D0020616C69676E3D63656E74657220626766
:102B9D00636F6C6F723D2361636666666666206364
:102BAD006F6C7370616E3D313E3C696E7075742053
:102BBD006E616D653D222D2220747970653D227305
:102BCD0075626D6974222076616C75653D222D22CA
:102BDD003E3C2F74643E3C2F74723E3C74723E3CFE
:102BED00746420616C69676E3D63656E74657220F7
:102BFD006267636F6C6F723D2361636666666666BE
:102C0D0020636F6C7370616E3D323E3C696E707502
:102C1D0074206E616D653D2273746F70222074791E
:102C2D0070653D227375626D6974222076616C75D5
:102C3D00653D2253746F70223E3C2F74643E3C2FD1
:102C4D0074723E3C2F7461626C653E3C2F666F72F0
:102C5D006D3E3C736372697074207372633D222202
:102C6D00206173796E632064656665723E3C2F73D7
:102C7D0063726970743E3C2F626F64793E3C2F68BD
:052C8D00746D6C3E00B7
:032C9200544200A9
:052C950073746F700074
:032C9A00544100A2
:062C9D00474554202F0002
:102CA300485454502F312E3120323030204F4B0AAC
:0E2CB300436F6E74656E742D747970653A000F
:0C2CC100010106001223344500008000D1
:0C2CCD00746578742F68746D6C0A0A003E
:062CD90063825363350124
:052CDF003703010306AC
:020000040030CA
:0D000100231F3CFFBF81FF0FC00FE00F4029
:00000001FF
