:100000003AEF15F00000000000EF00F000000000E3
:0A0010000000000000000000F3D71C
:10001C0051C1C9FFC7B002D00000FCD7C9CF00F056
:02002C001200C0
:10002E0051C16FFF6DB002D00000FCD76FCF00F052
:02003E001200AE
:10004000F250026EF29E0500FF6A0150FE6E0050F3
:08005000FD6E02BEF28E1200EB
:100058008292400E01014E11006E5AC0E1FF5BC052
:10006800E2FF00C0E6FF58C000F059C001F0E4DF2D
:100078005AC0E1FF5BC0E2FF4FC1E6FF58C000F085
:1000880059C001F0D9DF5AC0E1FF5BC0E2FF50C19F
:10009800E6FF58C000F059C001F0CEDF828212009E
:1000A800020E01014E6F4BC14FF14CC150F1D0DF30
:1000B80082925AC0E1FF5BC0E2FF7A0EE66E58C03A
:1000C80000F059C001F0B8DF5AC0E1FF5BC0E2FFA1
:1000D8004DC1E6FF58C000F059C001F0ADDF828283
:0200E800120004
:1000EA008292A00E01014B11006E5AC0E1FF5BC063
:1000FA00E2FF00C0E6FF58C000F059C001F09BDFE4
:10010A005AC0E1FF5BC0E2FF4CC1E6FF58C000F0F5
:0A011A0059C001F090DF828212004C
:1001240082925AC0E1FF5BC0E2FF7A0EE66E58C0CD
:1001340000F059C001F082DF5AC0E1FF5BC0E2FF6A
:100144004BC1E6FF58C000F059C001F077DF82824E
:02015400120097
:100156008292800E01014B11006E5AC0E1FF5BC016
:10016600E2FF00C0E6FF58C000F059C001F065DFAD
:100176005AC0E1FF5BC0E2FF4CC1E6FF58C000F089
:0A01860059C001F05ADF8282120016
:1001900082925AC0E1FF5BC0E2FF4BC1E6FF58C04C
:1001A00000F059C001F04CDF5AC0E1FF5BC0E2FF34
:1001B000E66A58C000F059C001F042DF82821200A6
:1001C00001014E6B4BC14FF14CC150F145DF8292A2
:1001D0005AC0E1FF5BC0E2FF3A0EE66E58C000F085
:1001E00059C001F02DDF5AC0E1FF5BC0E2FFE66AB3
:0E01F00058C000F059C001F023DF82821200D7
:1001FE0001014A6B010E3F5F000E405B43530DE061
:10020E004051190802E13F51AD0807E24A2BAD0EED
:10021E003F5D486F190E4059496F4A5305E0AD0EC8
:10022E00446F190E456F04D03FC144F140C145F1F2
:10023E003E51451902E144513D190DE13DC14BF1CD
:10024E003EC14CF1B6DF00C04DF141C14BF142C190
:10025E004CF123DF36D0100E01014E6F3DC14FF130
:10026E003EC150F1F2DE120E01014E6F4A5305E00F
:10027E00AD0E466F190E476F04D03FC146F140C117
:10028E0047F146C14FF147C150F1DFDE140E0101B7
:10029E004E6F41C14FF142C150F1D7DE1F0E010129
:1002AE004B6F100E4C6F1ADF1F0E01014B6F200E9D
:1002BE004C6F4ADF1F0E01014B6F63DF00AA01D0A6
:1002CE00F9D701014A531AE03D513F5D006E3E5190
:1002DE004059016E4851005E4951015A004A012AA7
:1002EE000050412701504223010E485D3F6F000E22
:0E02FE004959406F3D6B3E6B4A6B8FD7120023
:10030C00020E01014E6F3DC14FF13EC150F19EDE18
:10031C0082925AC0E1FF5BC0E2FF7A0EE66E58C0D3
:10032C0000F059C001F086DE01014151421117E085
:10033C005AC0E1FF5BC0E2FF3FC1E9FF40C1EAFFE9
:10034C00EECFE6FF58C000F059C001F073DE01019A
:10035C003F4B402B010E415F000E425BE5D7828282
:02036C0012007D
:10036E0001013F513D25416F40513E21426F010E2B
:10037E00415F000E425B100E4E6F3DC14FF13EC10C
:10038E0050F163DE120E01014E6F41C14FF142C1B9
:10039E0050F15BDE1F0E01014B6F300E4C6FD4DE41
:1003AE001F0E01014B6FEDDE00AA01D0F9D712002E
:1003BE003DC14BF13EC14CF13FC14DF16EDE40C12E
:0603CE004BF1A9DE120054
:1003D40082925AC0E1FF5BC0E2FF7A0EE66E58C01B
:1003E40000F059C001F02ADE3FC100F040C101F025
:1003F400010E01013F5F000E405B0050011013E04D
:100404005AC0E1FF5BC0E2FF3DC1E9FF3EC1EAFF24
:10041400EECFE6FF58C000F059C001F00FDE010135
:0A0424003D4B3E2BE1D7828212000F
:10042E0082925AC0E1FF5BC0E2FF7A0EE66E58C0C0
:10043E0000F059C001F0FDDD5AC0E1FF5BC0E2FFE4
:10044E003EC1E6FF58C000F059C001F0F2DD5AC0BF
:10045E00E1FF5BC0E2FF3DC1E6FF58C000F059C0AE
:08046E0001F0E7DD82821200BB
:100476003FC104F040C105F03DC102F03EC103F0AA
:1004860041C100F042C101F0010E0101415F000EC1
:10049600425B005001100FE004C0E9FF05C0EAFF0F
:1004A60002C0E1FF03C0E2FFEECFE6FF024A032AE5
:1004B600044A052AE5D73DC100F03EC101F012000D
:1004C600AE0E01014B6F190E4C6F4D6BEADDAE0E91
:1004D60001013D25006E190E3E21016E00C03DF161
:1004E60001C03EF1060E4E6F00C04FF101C050F143
:1004F600B0DD1F0E01014B6F800E4C6F29DE1F0E03
:1005060001014B6F800E4C6FEDDD5350050A04E080
:100516005350070A01E006D01C0E01014B6F0A0E6C
:100526004C6FE0DD1F0E01014B6F080E4C6F10DEA5
:100536005350050A04E05350070A01E080D0010138
:10054600426B436B1C0E4B6F20DE0A0E00160052E8
:100556000AE10101424B432B030E435D02E1E80E23
:10056600425D01E2EFD701011C0E4B6F0EDE00B2B9
:1005760008D0030E0101435D02E1E80E425D01E28F
:100586005DD001011F0E4B6F080E4C6FABDD040EE4
:1005960001013D254B6F000E3E214C6F0EDE00C063
:1005A60041F101013F6B100E3F5D48E21C0E4B6F9F
:1005B600ECDD00A23FD0010141AB3CD01F0E4B6FDA
:1005C600800E4C6FC5DD1F0E01014B6F800E4C6F08
:1005D60089DD1C0E01014B6F0A0E4C6F83DD1F0E69
:1005E60001014B6F080E4C6FB3DD0101426B436B8B
:1005F6001C0E4B6FCADD0A0E001600520AE10101FD
:10060600424B432B030E435D02E1E80E425D01E2DD
:10061600EFD701011F0E4B6F080E4C6F63DD040E02
:1006260001013D254B6F000E3E214C6FC6DD00C01B
:1006360041F101D003D001013F2BB5D707D001010D
:100646001F0E4B6FA2DD00A601D0F9D71D0E0101CA
:100656004B6F9BDD060E0016005203E00101406B56
:0E06660003D00101010E406F40C100F01200F0
:10067400AF0E01013D6F190E3E6F2FC13FF130C126
:1006840040F1060E416F000E426F3EDE4D0E3D6F8F
:10069400000E3E6F060E3F6F000E406F99DE000E97
:1006A4003D6F080E3E6FC1DE1C0E010137253A6F07
:1006B400000E38213B6F000E3D6F450E3E6FB5DED8
:1006C4003AC13DF13BC13EF1B0DE7CC03DF17DC09D
:1006D4003EF1ABDE00017C4B7D2B01013D6B3E6B9B
:1006E400A4DE110E01013D6F800E3E6F9EDE0101FE
:1006F4003D6B3E6B9ADE5C0E01013D6F000E3E6F5A
:10070400040E3F6F000E406F63DE31C13DF132C114
:100714003EF1040E3F6F000E406F5ADE080E37257F
:100724003A6F000E38213B6F33C13DF134C13EF1C5
:100734007CDE35C13DF136C13EF177DE3AC13DF193
:100744003BC13EF172DE01013D6B3E6B6EDEBD0EC0
:1007540001013D6F190E3E6F140E3F6F000E406F86
:1007640004DE160E01014B6F11DD00C03CF1170EC3
:1007740001014B6F0BDD00C03FF1C70E01013D6F5E
:10078400190E3E6F3CC140F118DE010E01013A150D
:10079400396FD90E37254B6F190E38214C6F4D6BBD
:1007A40081DCC90E01013D6F190E3E6FD10E3F6F02
:1007B400190E406FD90E3725416F190E3821426F3B
:1007C40039514127000E4223436B17DDD90E3725DB
:1007D4003D6F190E38213E6F39513D27000E3E23DF
:1007E400080E3D27000E3E233F6B110E406FE5DDE2
:1007F4003BC14BF195DC3AC14BF192DCD10E0101C6
:100804003D6F190E3E6F0C0E3A253F6F000E3B21D3
:10081400406F39513F27000E4023A7DD160E01011A
:100824004B6FB4DC00C03CF1170E01014B6FAEDC22
:1008340000C03FF1D70E01013D6F190E3E6F3CC160
:1008440040F1BBDD2A0E010137253D6F000E382132
:060854003E6F37DE1200CA
:10085A002FC13DF130C13EF15C0E01013F6F000E28
:10086A00406F040E416F000E426F00DE316B315152
:10087A00030821E331512F25026E000E3021036E49
:10088A0002C0E9FF03C0EAFFEECF01F0680EE96E8D
:10089A00000EEA6E3151E926D8B0EA2AFF0EEE18A8
:1008AA00006E0150001202C0E1FF03C0E2FF00C067
:0808BA00E6FF312BDCD7120030
:1008C20082925AC0E1FF5BC0E2FF7A0EE66E58C028
:1008D20000F059C001F020EC00F032C100F033C149
:1008E20001F0010E0101325F000E335B0050011076
:1008F2001CE05AC0E1FF5BC0E2FF2FC1F6FF30C12E
:10090200F7FF31C1F8FF0900F5CF00F000C0E6FFA4
:1009120058C000F059C001F020EC00F0010E0101B6
:0E0922002F27000E30233123D8D782821200F7
:1009300082925AC0E1FF5BC0E2FF3A0EE66E58C0F9
:1009400000F059C001F020EC00F05AC0E1FF5BC09C
:10095000E2FFE66A58C000F059C001F020EC00F058
:04096000828212007D
:1009640001013251FF0A02E1FF0E311907E04E6B1B
:1009740031C14FF132C150F12CEC00F082925AC0D7
:10098400E1FF5BC0E2FF3A0EE66E58C000F059C0CA
:1009940001F020EC00F033C100F034C101F0010E8D
:1009A4000101335F000E345B0050011015E05AC0A2
:1009B400E1FF5BC0E2FFE66A58C000F059C001F0F5
:1009C40020EC00F02FC1E1FF30C1E2FF00C0E6FFE0
:0C09D40001012F4B302BDFD78282120074
:1009E00033C101F034C102F0010E0101335F000E8A
:1009F000345B000E021802E1000E01181FE02FC147
:100A0000E9FF30C1EAFF31C1D9FF32C1DAFFEE5050
:100A1000DE180FE02FC1E9FF30C1EAFF31C1D9FF75
:100A200032C1DAFFDE50EE5C006E016A000E015A40
:100A300007D02F4B302B314B322BD2D7006A016AB3
:020A40001200A2
:100A4200680E01013D6F000E3E6F27C13FF128C1C4
:100A520040F1040E416F000E426F0CDD6C0E3D6FD3
:100A6200000E3E6F29C13FF12AC140F1040E416FD1
:100A7200000E426FFFDC600E3D6F000E3E6F2BC119
:100A82003FF12CC140F1040E416F000E426FF2DCC7
:0C0A9200640E2F6F000E306FDFDE1200CC
:100A9E00020E0C6E490E0D6E0D2EFED70C2EFCD7CF
:060AAE0000000000120030
:100AB4000101296B3C0E546E000E556E566E576E36
:100AC40035DF00C027F10050020AD8A418D1010173
:100AD400286B0F0E285D04E229DF0101282BF9D7CA
:100AE400490E2F6F000E306FFF0E316FFF0E326F05
:100AF400040E336F000E346F33DF286B080E285D4D
:100B040004E214DF0101282BF9D7286B060E285DB7
:100B140012E20CDF00C027F14D0ED96E000EDA6E22
:100B240001012851D926D8B0DA2A0050DE1801E094
:100B340011D1282BEBD7286BCE0E285D04E2F6DE0C
:100B44000101282BF9D72A6BF1DE00C027F1B8D0B8
:100B5400EDDE00C027F10050010A04E1E7DE00C029
:100B640029F101D0F7D0C7D0E1DE00C027F1005051
:100B7400040A0FE1700E01012F6F000E306FFF0E9B
:100B8400316FFF0E326F040E336F000E346FE8DEE8
:100B940001D0E0D0B0D0CADE00C027F1040E005C62
:100BA4000FE3880E01012F6F000E306FFF0E316FBF
:100BB400FF0E326F040E336F000E346FD1DE01D09E
:100BC400C9D00101040E275F010127C100F02707E6
:100BD400005202E0ABDEF8D78ED0A8DE00C027F1C9
:100BE400040E005C0FE38C0E01012F6F000E306FBA
:100BF400FF0E316FFF0E326F040E336F000E346F31
:100C0400AFDE01D0A7D00101040E275F010127C187
:100C140000F02707005202E089DEF8D76CD086DEA8
:100C240000C027F10050040A0FE12B0E01012F6FC1
:100C3400010E306FFF0E316FFF0E326F040E336FF3
:100C4400000E346F8DDE01D085D055D00101010E28
:100C54002A6F51D06BDE00C027F10050040A22E154
:100C6400540E01012F6F000E306FFF0E316FFF0E17
:100C7400326F040E336F000E346F72DE575000086B
:100C840008E15650000805E15550070802E15450A8
:100C9400080807E2080E545E070E555A000E565A0D
:100CA400575A01D057D027D041DE00C027F127C1C1
:100CB40000F001012707005202E038DEF8D71BD00C
:100CC40001012751350AD8B443D72751010AD8B4B2
:100CD4004BD72751030AD8B45ED72751060AD8B494
:100CE4007CD72751360A9BE02751FF0AAFE02751F2
:100CF400330AB0E0D9D701012A53D8B425D701016A
:100D04002951020A0FE1820E3D6F000E3E6F2B0E39
:100D14003F6F010E406F040E416F000E426F3BECBB
:100D240002F015D0820E2F6F000E306F2B0E316F34
:100D3400010E326F040E336F000E346F4FDE000E5F
:100D4400011802E1000E001802E00101296B29C11B
:080D540000F001D0006A12005A
:100D5C00F90E01012A6F000E2B6F020E4E6FD90E89
:100D6C004F6F190E506F2CEC00F0830E01012F6F9A
:100D7C002B0E306F000E316F0C0E326F000E336F76
:100D8C009ADD2751030A0DE128530BE0490E3D6F04
:100D9C00000E3E6F040E3F6F000E406FEAEC01F048
:100DAC000AD0296B040E295D06E24B6B92EC00F025
:100DBC000101292BF7D7296B0C0E295D06E24B6B31
:100DCC0092EC00F00101292BF7D74D0E3D6F000E70
:100DDC003E6F060E3F6F000E406FEAEC01F0296B80
:100DEC00CA0E295D06E24B6B92EC00F00101292B37
:100DFC00F7D7A10E2F6F2B0E306F000E316F060E32
:100E0C00326F000E336F57DD27C14BF192EC00F0BF
:100E1C0001012751030A1AE1285318E1360E4B6FD2
:100E2C0092EC00F0040E01014B6F92EC00F0820E7C
:100E3C0001013D6F000E3E6F040E3F6F000E406FC0
:100E4C00EAEC01F0060E2A27000E2B23A70E2F6FBB
:100E5C002B0E306F000E316F050E326F000E336F9C
:100E6C002ADD2751030A23E1285321E1320E4B6F6F
:100E7C0092EC00F0040E01014B6F92EC00F00101BA
:100E8C00296B040E295D0FE2490EE96E000EEA6E25
:100E9C002951E926D8B0EA2AEECF4BF192EC00F0BA
:100EAC000101292BEED7060E2A27000E2B23FF0E4D
:100EBC004B6F92EC00F0220E01012F6F000E306F81
:100ECC00220E316F000E326F440E336F000E346FF2
:100EDC00430E356F000E366F2AC137F12BC138F136
:060EEC003AEC03F01200D5
:100EF20027C102F028C103F02AC100F02BC101F082
:100F0200010E01012A5F000E2B5B0050011009E067
:100F120002C0E1FF03C0E2FF29C1E6FF024A032A41
:0C0F2200EBD727C100F028C101F012003D
:100F2E0001012B6B2C6B82925AC0E1FF5BC0E2FF7A
:100F3E007A0EE66E58C000F059C001F020EC00F0B9
:100F4E0027C100F028C101F029C102F0010E0101F4
:100F5E002727000E2823292300C0F6FF01C0F7FF24
:100F6E0002C0F8FF0900F5CF00F000C02AF10052D0
:100F7E0010E05AC0E1FF5BC0E2FF2AC1E6FF58C095
:100F8E0000F059C001F020EC00F001012B4B2C2B8E
:0E0F9E00D7D782822BC100F02CC101F01200C7
:100FAC0001010651190802E10551AD0804E2AE0E2B
:100FBC00055F190E065B4E6B05C14FF106C150F172
:060FCC002CEC00F0120005
:100FD2000B6A0A6A096A00500402F4CF09F0F3CFDF
:100FE20008F001500502F4CF0BF0F3CF0AF00050E5
:100FF2000502F3500926F4500A22E86A0B22015036
:101002000402F3500926F4500A22E86A0B2208C0AF
:1010120000F009C001F00AC002F00BC003F0120098
:10102200B50E01013D6F190E3E6FBB0E3F6F190EDB
:10103200406FAF0E416F190E426F436BFFEC00F031
:10104200B50E3D6F190E3E6F4D0E3F6F000E406F95
:0E105200060E416F000E426F86EC01F0120098
:1010600001014B6BC8EC00F000C00AF1010E010158
:101070004B6FC8EC00F000C00BF101014E6B05C1D5
:101080004FF106C150F12CEC00F082925AC0E1FF02
:101090005BC0E2FF3A0EE66E58C000F059C001F0A6
:1010A00020EC00F00101095318E05AC0E1FF5BC0D9
:1010B000E2FFE66A58C000F059C001F020EC00F0F1
:1010C00007C1D9FF08C1DAFF0050DE1801E005D0E2
:1010D0000101074B082B0907E5D7010182824E6BFE
:1010E0000AC14FF10BC150F12CEC00F009C100F026
:0210F0001200EC
:1010F2008292400E01010511006E5AC0E1FF5BC0F1
:10110200E2FF00C0E6FF58C000F059C001F020EC39
:1011120000F05AC0E1FF5BC0E2FF06C1E6FF58C023
:0E11220000F059C001F020EC00F082821200B3
:101130000101056BC80E055D04E2B1DCB0DC052BD6
:04114000F9D71200C9
:101144000101236B246B000E245D02E10A0E235D72
:1011540012E2BD0E2325256F000E2421266F98EC84
:1011640004F025C1E1FF26C1E2FF00C0E6FF010152
:10117400234B242BE8D7BD0E2325E16E000E24213A
:10118400E26EE66ABD0E2F6F000E306F470E0F6FD2
:10119400450E106F540E116F200E126F2F0E136F29
:1011A400146B0F0E316F010E326F050E336F000E8C
:1011B400346F14DC0050011003E0006A016A09D1A5
:1011C400000E01010A1902E1500E091903E0006A38
:1011D400016AFFD0510E276F2B0E286F000E296F66
:1011E400A4DE00C023F101C024F18F0E276F2B0E63
:1011F400286F000E296F99DE005023270150242305
:10120400C20E2F6F000E306F530E156F540E166FF3
:10121400176B150E316F010E326F020E336F000E15
:10122400346FF0EC04F00050011003E1386A396ABD
:101234002DD0C20E01012F6F000E306F410E186FBA
:10124400430E196F1A6B180E316F010E326F020EB6
:10125400336F000E346FF0EC04F00050011005E120
:10126400010E386E000E396E11D09B0E0101276FEE
:101274002B0E286F000E296F58DE235100262451AF
:10128400012200C023F101C024F1A3D00101C40E46
:101294002F6F000E306F2C0E1B6F1C6B1B0E316FEB
:1012A400010E326F010E336F000E346FF0EC04F058
:1012B4000050011011E09B0E0101276F2B0E286FC7
:1012C400000E296F32DE235100262451012200C072
:1012D40023F101C024F17DD00101C50E2F6F000E52
:1012E400306F520E1D6F1E6B1D0E316F010E326F6B
:1012F400010E336F000E346FF0EC04F00050011057
:1013040005E1010E3C6E000E3D6E29D0C50E0101B3
:101314002F6F000E306F4C0E1F6F206B1F0E316F3E
:10132400010E326F010E336F000E346FF0EC04F0D7
:101334000050011003E13C6A3D6A11D09B0E01018B
:10134400276F2B0E286F000E296FEFDD2351002627
:101354002451012200C023F101C024F13AD001013B
:10136400C60E2F6F000E306F3B0E216F226B210EC5
:10137400316F010E326F010E336F000E346FF0ECDB
:1013840004F00050011011E09B0E0101276F2B0E99
:10139400286F000E296FC9DD235100262451012234
:1013A40000C023F101C024F114D00101010E3A6EF2
:1013B400000E3B6EAC0E276F2B0E286F000E296FAC
:1013C400B4DD235100262451012200C023F101C0C1
:0413D40024F11200EE
:1013D800C90E01013D6F190E3E6FCD0E3F6F190EFC
:1013E800406FCD0E416F190E426F436BFFEC00F05A
:1013F800C90E3D6F190E3E6F5C0E3F6F000E406FB9
:0E140800040E416F000E426F86EC01F01200E0
:06141600006A016A1200E9
:10141C0098EC04F098EC04F098EC04F000C006F1A1
:10142C0098EC04F000C005F198EC04F000C008F151
:10143C0098EC04F000C007F198EC04F000C00AF13D
:10144C0098EC04F000C009F198EC04F098EC04F06E
:10145C0098EC04F098EC04F007C100F008C101F01E
:10146C00010E0101075F000E085B005001100EE039
:10147C0098EC04F0005201E0FBD798EC04F098ECE7
:10148C0004F098EC04F098EC04F0E6D709C100F0F5
:10149C000AC101F0010E0101095F000E0A5B005048
:1014AC00011048E098EC04F098EC04F098EC04F08F
:1014BC0000C00EF198EC04F000C00DF198EC04F0B3
:1014CC0098EC04F098EC04F098EC04F098EC04F030
:1014DC0098EC04F098EC04F000C00CF198EC04F0DB
:1014EC0000C00BF1000E01010E1902E1010E0D19E5
:1014FC0011E198EC04F000C078F098EC04F000C016
:10150C0079F098EC04F000C07AF098EC04F000C08C
:10151C007BF010D00BC100F00CC101F0010E0101E9
:10152C000B5F000E0C5B0050011003E098EC04F014
:06153C00F1D7ACD712004C
:10154200B0D05C0E0101276F000E286F296B040ECC
:101552002A6F000E2B6FCCDC010E276F286BAEECCE
:1015620006F02BC074F02CC075F02DC076F02EC0A2
:1015720077F0030E216EA6D0050E00017425016ED0
:10158200000E7521026E000E7621036E000E772189
:10159200046E2E50045C08E12D50035C05E12C50D2
:1015A200025C02E12B50015C02E2020E216E5AEC57
:1015B20005F00050020A03E1040E216E01D082D030
:1015C200030E0101276F2AC028F1AEEC06F02BC0F2
:1015D20074F02CC075F02DC076F02EC077F0050E99
:1015E200216E70D05AEC05F000C005F10050060AD9
:1015F20003E1040E216E2CD001010551050A28E1F8
:101602002BC074F02CC075F02DC076F02EC077F090
:10161200060E216E5C0E3D6F000E3E6F490E3F6F4F
:10162200000E406F040E416F000E426F3BEC02F061
:10163200700E276F000E286F880E296F000E2A6F1A
:101642008C0E2B6F000E2C6F21EC05F02A6A3AD01B
:1016520039D0010E00017425016E000E7521026E53
:10166200000E7621036E000E7721046E04502E5C6C
:1016720008E103502D5C05E102502C5C02E10150AF
:101682002B5C0EE3010E545E000E555A565A575A01
:101692002BC074F02CC075F02DC076F02EC077F000
:1016A20011D02150020AD8B44CD72150030AD8B421
:1016B20063D72150040A84E02150050A93E02150A7
:0616C200060AC7E0120059
:1016C800DBC04BF1DCC04CF1E0EC00F000C0E6F010
:1016D80098EC04F000C0E5F098EC04F000C0E4F0E9
:1016E80098EC04F000C0E3F0000E0001E41902E1F8
:1016F800000EE31901E193D098EC04F000C0E8F083
:1017080098EC04F000C0E7F0E90E01012F6F000E1D
:10171800306FC90E316F190E326F040E336F000E21
:10172800346FB2EC04F0020E4E6F080E0001DB2598
:1017380001014F6F000E0001DC210101506F2CECFC
:1017480000F00E0E0001D8250101056F000E000102
:10175800D9210101066F0001DA5101010527000EA8
:101768000623080E0527000E06231CDC000E0001C8
:10177800E61902E1350EE51902E14CDE50D0000E03
:101788000001E41902E1440EE31902E1D6DE47D074
:10179800E90E0101056F000E066FE5C007F1E6C00E
:1017A80008F1E3C009F1E4C00AF1080E0001E75DA1
:1017B80001010B6F000E0001E85901010C6F460E84
:1017C8000D6F000E0E6F23DE00C0E7F001C0E8F0D9
:1017D8000050011024E0DD0E2F6F000E306FB50EA3
:1017E800316F190E326F060E336F000E346FB2EC84
:1017F80004F0DD0E2F6F000E306FE90E316F000E12
:10180800326FE3C033F1E4C034F1E5C035F1E6C02E
:1018180036F1E7C037F1E8C038F13AEC03F01200CE
:10182800DCC04BF1DDC04CF1E0EC00F000C0ECF0A6
:1018380098EC04F000C0EBF098EC04F000C0EAF07B
:1018480098EC04F000C0E9F00001F16BF66B010EB2
:10185800F76FF46BF56B0C0EDC2501014B6F000E76
:101868000001DD2101014C6FE0EC00F000C0EFF059
:10187800000E0001F06FEF33EF9FEF33EF9F000E84
:10188800F06FFC0EEF17FF0EF017000E01012F6F1F
:10189800010E306FC90E316F190E326F040E336F9F
:1018A800000E346FB2EC04F00D0E0001DC250101CE
:1018B8004B6F000E0001DD2101014C6FE0EC00F0E0
:1018C8003F0E00140001ED6FEE6B000EEE17000ED8
:1018D800EE6F0E0E475CF26F000E4858F36FDA5148
:1018E800F25FDB51F35BEF51F25FF051F35B020EF5
:1018F800DC2501014B6F000E0001DD2101014C6F59
:10190800E0EC00F000C04DF1DCC04BF1DDC04CF163
:1019180054EC00F0030E0001DC2501014B6F000EB2
:101928000001DD2101014C6FE0EC00F000C04BF13B
:1019380092EC00F0EBC03DF1ECC03EF117EC02F088
:10194800040E0001DC2501014B6F000E0001DD21B2
:1019580001014C6FE0EC00F000C0FBF098EC04F0E3
:1019680000C0FAF098EC04F000C0F9F098EC04F02C
:1019780000C0F8F098EC04F000C0FFF098EC04F018
:1019880000C0FEF098EC04F000C0FDF098EC04F004
:1019980000C0FCF0000E0001EE1902E1020EED1984
:1019A8003DE1010EF825006E000EF921016E000ED2
:1019B800FA21026E000EFB21036E00C0FCF001C08C
:1019C800FDF002C0FEF003C0FFF0120EED6F000E36
:1019D800EE6F0C0E01014B6FC8EC00F000C0F8F080
:1019E8000D0E01014B6FC8EC00F000C0F9F00101C9
:1019F8004B6BC8EC00F000C0FAF0010E01014B6F10
:101A0800C8EC00F000C0FBF00001F12B180EEF6FDE
:101A1800000EF06FF46BF56B166A6ED0000EEE19BF
:101A280002E1180EED192FE1F8C0DEF0F9C0DFF081
:101A3800FAC0E0F0FBC0E1F0FCC0F8F0FDC0F9F03E
:101A4800FEC0FAF0FFC0FBF0F251DE25006EF35144
:101A5800DF21016E000EE021026E000EE121036E0F
:101A680000C0FCF001C0FDF002C0FEF003C0FFF0B2
:101A7800100EED6F000EEE6FF12B140EEF6F000ECF
:101A8800F06FF62B39D0000EEE1902E1110EED19A8
:101A980033E1F8C0E2F0F9C0E3F0FAC0E4F0FBC0CB
:101AA800E5F0FCC0F8F0FDC0F9F0FEC0FAF0FFC0A8
:101AB800FBF0010EE225006E000EE321016E000E20
:101AC800E421026E000EE521036E00C0FCF001C0A7
:101AD800FDF002C0FEF003C0FFF0100EED6F000E27
:101AE800EE6FF12B140EEF6F000EF06FF46BF56BC9
:101AF800155202E1162A156AF153D8B41BD2000117
:101B0800040EDC2501013D6F000E0001DD210101FD
:101B18003E6FFBC03FF1FAC040F1DFEC01F0F9C0C5
:101B28004BF192EC00F0F8C04BF192EC00F0FFC0E2
:101B38004BF192EC00F0FEC04BF192EC00F0FDC0CE
:101B48004BF192EC00F0FCC04BF192EC00F00C0E63
:101B58000001DC2501014B6F000E0001DD210101B0
:101B68004C6FE0EC00F00F0E001401014D6FEFC058
:101B780000F0003600900036009000504D130C0E17
:101B88000001DC2501014B6F000E0001DD21010180
:101B98004C6F54EC00F00D0E0001DC2501014B6F79
:101BA800000E0001DD2101014C6FE0EC00F0C00ED9
:101BB800001401014D6F0001ED5101014D130D0E8F
:101BC8000001DC2501014B6F000E0001DD21010140
:101BD8004C6F54EC00F0000E0001EE1902E1120EF9
:101BE800ED1929E10E0EDC2501013D6F000E000103
:101BF800DD2101013E6F050E3F6FEE0E406FDFECF9
:101C080001F0140E0001DC2501013D6F000E0001FA
:101C1800DD2101013E6F020E3F6F040E406FDFECC5
:101C280001F0050E01014B6F92EC00F0780E0101F6
:101C38004B6F92EC00F00001DA51F425F26FDB51A2
:101C4800F521F36FEF51F227F051F323F75304E036
:101C580011EC08F0ECEC09F00101BF0E3D6F190E14
:101C68003E6FF3C03FF1F2C040F1DFEC01F0C70E68
:101C780001013D6F190E3E6F3F6B406BDFEC01F0C9
:101C8800BD0E01013D6F190E3E6FDAC03FF1DBC09A
:101C980040F1B7EC01F0160E01014B6FC8EC00F0F3
:101CA80000C004F1170E01014B6FC8EC00F000C032
:101CB8003FF1C70E01013D6F190E3E6F04C140F19F
:101CC800DFEC01F0BD0E0001F225E76F190EF321DC
:101CD800E86F100EDC2501013D6F000E0001DD21CB
:101CE80001013E6F3F6B406BDFEC01F0010E00011C
:101CF800F215E66FE7C04BF1E8C04CF101014D6BFE
:101D080054EC00F0C90E01013D6F190E3E6FD10E63
:101D18003F6F190E406F0001E651E7250101416F41
:101D2800000E0001E8210101426F436BFFEC00F057
:101D3800080E0001E72501013D6F000E0001E821B2
:101D480001013E6F0001E65101013D27000E3E23CF
:101D58003F6B060E406FDFEC01F00A0E0001E7252D
:101D680001013D6F000E0001E82101013E6F0001F5
:101D7800E65101013D27000E3E230001F451EF25F5
:101D8800036EF551F021046E04C000F0016A00C032
:101D98003FF103C040F1DFEC01F0DCC03DF1DDC0F4
:101DA8003EF10001F451EF2501013F6F0001F551AB
:101DB800F0210101406F0C0E3F27000E4023000167
:101DC800E65101013F27000E4023B7EC01F0160E43
:101DD80001014B6FC8EC00F000C004F1170E0101BF
:101DE8004B6FC8EC00F000C03FF1100E0001DC257D
:101DF80001013D6F000E0001DD2101013E6F04C1AC
:101E080040F1DFEC01F00E0E0001F22501013D6FFB
:101E1800000E0001F32101013E6F63EC02F00001A6
:101E2800F65362E0100EED6F000EEE6FF66BF76B77
:101E3800020E01014E6F0001EF51DC2501014F6FC9
:101E48000001F051DD210101506F2CEC00F00E0E65
:101E58000001D8250101056F000E0001D9210101FB
:101E6800066F0001DA51010105270001DB5101016C
:101E780006230001EF51010105270001F05101017E
:101E88000623D6EC07F0162A000E0101056F010E95
:101E9800066FEBC007F1ECC008F1E9C009F1EAC030
:101EA8000AF10E0E475C0B6F000E48580C6F0001CC
:101EB800DA5101010B5F0001DB5101010C5B0001EC
:101EC800EF5101010B5F0001F05101010C5B460E5F
:101ED8000D6F000E0E6FA2EC08F000C0F4F001C008
:101EE800F5F046A0166A0BD6165224E00001F4510C
:101EF800F825006EF551F921016E000EFA21026EE7
:101F0800000EFB21036E00C0F8F001C0F9F002C01A
:101F1800FAF003C0FBF0110EED6F000EEE6F166ABB
:101F2800F76B140EEF6F000EF06FF46BF56B010E8C
:061F3800156EE5D5120054
:101F3E001F0E01014B6F010E4C6F75EC00F01F0E62
:101F4E0001014B6F020E4C6FABEC00F0140E010151
:101F5E00056FD8C006F179EC08F0120E01014B6F37
:101F6E00010E4C6FABEC00F098EC08F0120E4B6FBC
:101F7E00010E4C6F75EC00F0180E01014B6FC8ECA2
:101F8E0000F0DBC0E1FFDCC0E2FF00C0E6FF190E8F
:101F9E0001014B6FC8EC00F0D9C0E1FFDAC0E2FFDF
:061FAE0000C0E6FF120076
:101FB4001F0E01014B6F010E4C6F75EC00F01F0EEC
:101FC40001014B6F020E4C6FABEC00F0140E0101DB
:101FD400056FD8C006F179EC08F098EC08F0160EFD
:101FE400056FDAC006F179EC08F098EC08F0170EEA
:101FF400056FD9C006F179EC08F098EC08F01200EE
:10200400C40E01014B6F190E4C6FE0EC00F000C0E0
:10201400D8F0E8D0D50E0101056F190E066F5C0EDD
:10202400076F000E086F040E096F30EC08F00050C3
:10203400000A4BE1C40E01014B6F190E4C6F020EE6
:102044004D6F54EC00F011EC08F0CB0E3D6F190EFF
:102054003E6FCF0E3F6F190E406FD50E416F190EB4
:10206400426F436BFFEC00F0CB0E3D6F190E3E6FD9
:102074005C0E3F6F000E406F040E416F000E426F06
:1020840086EC01F0C50E3D6F190E3E6FCB0E3F6F0F
:10209400190E406FCF0E416F190E426F436BFFEC68
:1020A40000F0C50E3D6F190E3E6F4D0E3F6F000ED2
:1020B400406F060E416F000E426F86EC01F03C0E3D
:1020C4003D6F000E3E6F63EC02F095D00101AF0E40
:1020D400056F190E066F4D0E076F000E086F060E82
:1020E400096F30EC08F00050000A7BE1CB0E0101CF
:1020F400056F190E066F86C007F187C008F1040E3C
:10210400096F30EC08F00050000A6BE10F0E006E0E
:10211400000E016E37C004F0000E056EE9EC07F006
:10212400900E002401012F6F000E0120306F090E64
:102134002F27000E3023C50E316F190E326F060E95
:10214400336F000E346FB2EC04F00F0E006E000E0D
:10215400016E37C004F0000E056EE9EC07F0900E36
:1021640000243D6F000E01203E6F050E3D27000E3A
:102174003E2386C03FF187C040F1040E416F000E3C
:10218400426F3BEC02F00F0E006E000E016E37C082
:1021940004F0000E056EE9EC07F0900E0024E16EE9
:1021A400000E0120E26E010EE66E0F0E006E000EB0
:1021B400016E37C004F0000E056EE9EC07F0900ED6
:1021C4000026000E0122010E0024E16E000E012003
:1021D400E26E2BC0E6FF2CC0E6FF2DC0E6FF2EC04A
:1021E400E6FF09D00001D851010AD8B413D7D85159
:0821F400020AD8B46BD71200F7
:1021FC000101056B0001CC5303E00D0ECD6F02D035
:10220C00050ECD6FCDC006F179EC08F0020E010180
:10221C00056F0001CC5303E0310ECE6F02D0300EAF
:10222C00CE6FCEC006F179EC08F00A0E01014E6FAC
:10223C00EE0E4F6F050E506F2CEC00F0040E0101EA
:10224C00056F0001CC5303E0150ECF6F02D0120EB8
:10225C00CF6FCFC006F179EC08F0060E0101056FC7
:10226C00120E066F79EC08F00001CC5307E1070E53
:10227C000101056F0C0E066F79EC08F00001CC53D0
:10228C0007E1090E0101056F3F0E066F79EC08F0AE
:10229C001F0E01014B6F010E4C6FABEC00F01F0ECB
:1022AC0001014B6F020E4C6FABEC00F0040E010100
:1022BC00056F4DC006F179EC08F0050E0101056FB4
:1022CC004EC006F179EC08F0020E0101056F4FC00B
:1022DC0006F179EC08F0030E0101056F50C006F110
:1022EC0079EC08F00101056B51C006F179EC08F0AE
:1022FC00010E0101056F52C006F179EC08F0150EC4
:10230C000101056F066B79EC08F0120E01014B6FA1
:10231C00C8EC00F000C053F00001D86BD10ED96F9F
:10232C00000EDA6FD20EDB6F000EDC6F02DE0001E6
:10233C00D86BFE0ED115D96FCC5303E0010ED06FC4
:10234C0001D0D06BD051D913D2C0DAF02DDE100EE3
:10235C000001D86F010ED96FDA6B26DE1F0E4B6FA2
:10236C00040E4C6FABEC00F098EC08F0900E276F5D
:10237C00000E286F296B2D0E2A6F000E2B6F79EC37
:10238C0007F01F0E4B6F010E4C6F75EC00F01F0E1B
:0E239C0001014B6F020E4C6F75EC00F0120049
:1023AA000001D56B468046921F0E01014B6F010E4C
:1023BA004C6F75EC00F01F0E01014B6F020E4C6F53
:1023CA0075EC00F001014E6B28C04FF129C050F1A5
:1023DA002CEC00F082925AC0E1FF5BC0E2FF3A0E99
:1023EA00E66E58C000F059C001F020EC00F05AC067
:1023FA00E1FF5BC0E2FFE66A58C000F059C001F095
:10240A0020EC00F000C028F05AC0E1FF5BC0E2FFF8
:10241A00E66A58C000F059C001F020EC00F000C094
:10242A0029F05AC0E1FF5BC0E2FFE66A58C000F03B
:10243A0059C001F020EC00F000C047F05AC0E1FF9B
:10244A005BC0E2FFE66A58C000F059C001F020EC18
:10245A0000F000C048F05AC0E1FF5BC0E2FFE66A44
:10246A0058C000F059C001F020EC00F000C0D3F0D1
:10247A005AC0E1FF5BC0E2FFE66A58C000F059C0EB
:10248A0001F020EC00F000C0D4F08282040E475E16
:10249A00000E485A2950190802E12850AD080FE3E6
:1024AA0028B00DD00001D4BF0AD04850050802E177
:1024BA004750EE0804E30001D3AF01D003D0010E68
:1024CA00006EDAD101014B6BC8EC00F000C0D1F00C
:1024DA00010E01014B6FC8EC00F000C0D2F0D1C070
:1024EA003DF1D2C03EF147500001D12501013F6FB5
:1024FA0048500001D2210101406FAF0E416F190E01
:10250A00426F010E436FFFEC00F0BB0E4B6F190ECA
:10251A004C6FE0EC00F000C0D4F098EC04F000C07E
:10252A00D3F00001D451080A02E1060ED31912E1D0
:10253A00BD0E0101056F190E066F2F0E076F000EF3
:10254A00086F070E096F30EC08F00050000A01E12D
:10255A0054DD68D10001D451080A02E1000ED319F2
:10256A00D8A45DD1CD0E0101056F190E066F640E58
:10257A00076F000E086F040E096F30EC08F0005266
:10258A00D8B44682CD0E0101056F190E066F220ED0
:10259A00076F000E086F040E096F30EC08F0005246
:1025AA00D8B44682CD0E0101056F190E066F5C0E76
:1025BA00076F000E086F040E096F30EC08F0005226
:1025CA0006E046B204D0020E0001D56F27D1BD0E37
:1025DA0001014B6F190E4C6FE0EC00F0F00E001485
:1025EA00016E0150400A04E0030E0001D56F16D1B6
:1025FA00BD0E01014B6F190E4C6FE0EC00F000C0EC
:10260A00CFF0000E0001D06F0F0ECF17000ED017BB
:10261A00CF37CF91D037CF37CF91D037C30E010103
:10262A004B6F190E4C6FE0EC00F0BF0E0014016EF8
:10263A000150000AD8A4F2D0C40E01014B6F190E42
:10264A004C6FE0EC00F00050000AD8A4E7D0BD0EB1
:10265A000001CF25CD6F190ED021CE6FC60E010114
:10266A004B6F190E4C6FE0EC00F000C0CCF000503C
:10267A00010AD8A494D0CDC04BF1CEC04CF1E0EC05
:10268A0000F00050080AD8A489D0010E0001CD2517
:10269A0001014B6F000E0001CE2101014C6FE0ECED
:1026AA0000F00050000A7AE1CDC04BF1CEC04CF1E7
:1026BA0001014D6B54EC00F011EC08F0ECEC09F060
:1026CA00C70E3D6F190E3E6F3F6B406BDFEC01F09A
:1026DA00BD0E01013D6F190E3E6FCFC03FF1D0C054
:1026EA0040F1B7EC01F0160E01014B6FC8EC00F097
:1026FA0000C0D6F0170E01014B6FC8EC00F000C005
:10270A003FF1C70E01013D6F190E3E6FD6C040F171
:10271A00DFEC01F0020E0001CD2501013D6F000E34
:10272A000001CE2101013E6F3F6B406BDFEC01F0EF
:10273A00CDC03DF1CEC03EF10001CF51475C010151
:10274A003F6F0001D05148580101406F0E0E3F5FA4
:10275A00000E405BB7EC01F0160E01014B6FC8EC9E
:10276A0000F000C0D6F0170E01014B6FC8EC00F064
:10277A0000C03FF1020E0001CD2501013D6F000EA0
:10278A000001CE2101013E6FD6C040F1DFEC01F01D
:10279A0047C03DF148C03EF163EC02F03FD0000172
:1027AA00CC51110A0DE1D1C0D8F0D2C0D9F0CFC0B6
:1027BA00DAF0CDC0DBF0CEC0DCF064EC0BF02ED04A
:1027CA000001CC51060A2AE1100ED12501014B6FF6
:1027DA00000E0001D22101014C6FE0EC00F000C0B4
:1027EA00D7F00001D66B98EC04F000500001D62512
:1027FA00476E000ED721486E0E0E4726000E48225D
:10280A00D1C0D8F0D2C0D9F0CFC0DAF0D0C0DBF056
:10281A00CDC0DCF0CEC0DDF014EC0CF003D0040E19
:10282A000001D56F1E0E01014B6F400E4C6FABECD1
:10283A0000F0010E285C016E000E2958026E02504B
:10284A00190802E10150AD080AE20C0E01014E6FAF
:10285A00AD0E4F6F190E506F2CEC00F00BD00C0E12
:10286A0001014E6F010E285C4F6F000E2958506F00
:0A287A002CEC00F0D5C000F01200B5
:10288400C69A1C0E586E000E596E510E5A6E010EE9
:102894005B6EFF0E00017E6FFF0E7F6FFF0E806F79
:1028A400FF0E816F949A94969488C66A400EC76E00
:0428B400C68A1200BE
:1028B8000900F5CFE6FF0006FBE10106F9E1120089
:1028C800949082809492828298EC08F0828098ECAE
:1028D80008F0829098EC08F0828098EC08F08292D8
:1028E8005AC0E1FF5BC0E2FFFF0EE66E58C000F081
:1028F80059C001F020EC00F0828298EC08F04D0EEF
:102908003D6F000E3E6FC7C03FF1C8C040F1060ED4
:10291800416F000E426F3BEC02F05C0E3D6F000E03
:102928003E6FC9C03FF1CAC040F1040E416F000EAE
:10293800426F3BEC02F01F0E4B6F010E4C6F75ECB3
:1029480000F01F0E01014B6F020E4C6F75EC00F08A
:10295800080E01014E6F4F6B506B2CEC00F00A0E05
:1029680001014E6FAD0E4F6F190E506F2CEC00F039
:102978000C0E01014E6FAD0E4F6F190E506F2CECFF
:1029880000F001014E6B4F6B506B2CEC00F0040E05
:1029980001014E6FAE0E4F6F190E506F2CEC00F008
:1029A8001F0E01014B6F010E4C6F75EC00F01F0EEE
:1029B80001014B6F020E4C6FABEC00F0CBC0CCF0BA
:0429C80019DC120004
:1029CC000001C76BC86B3A503B1005E1C7C044F01F
:1029DC00C8C045F01CD0030EC76F000EC86F07D0DF
:1029EC00C78511D00B0EC717000EC8170CD0000EE0
:1029FC003D1802E1000E3C18F3E0000E3D1802E118
:102A0C00010E3C18EFE0C7C044F0C8C045F01200FE
:102A1C000001C76B1F0E01014B6F010E4C6FABEC2D
:102A2C0000F01F0E01014B6F020E4C6F75EC00F0A5
:102A3C00190E01014B6FC8EC00F00050000803E2C6
:102A4C00AEDC00C0C7F01F0E01014B6F010E4C6FC6
:102A5C0075EC00F01F0E01014B6F020E4C6F75EC04
:082A6C0000F0C7C000F01200E9
:102A7400D8EC15F0380ED36E936A926A816A806A34
:102A84000F013A6B3B6B956A836AFADE170EC76FC8
:102A9400000EC86F1D0EC96F000ECA6F010ECB6FFA
:102AA40011DFBADF000E3B1802E1000E3A1801E113
:102AB400F8D726D03A503B1021E086DF010E40249F
:102AC400006E000E4120016E00C040F001C041F0D4
:102AD40041503F1802E13E5040180DE1080E4418E1
:102AE400006E45C001F0000E011A00C044F001C0A0
:102AF40045F0406A416A44C081FFDCD70DD00CD058
:102B0400000E391802E1000E3818D4E0000E39180E
:0C2B140002E1010E3818F3E0C4D7FFD72F
:102BB00010EE15F0310E006E010E016E200EF66E55
:0E2BC0002B0EF76E000EF86E5CEC14F0120097
:012B200000B4
:012B210000B3
:062B22000014A576193F26
:042B28000AD3370590
:012B2C0000A8
:062B2D00FFFFFFFFFFFFA8
:022B33000000A0
:012B3500009F
:042B3600000000009B
:082B3A00000108000604000080
:012B42000092
:0E2B430000000000000028000000000000005C
:102B5100485454502F312E3120323030204F4B0AFF
:0E2B6100436F6E74656E742D747970653A0062
:062B6F00474554202F0031
:032B7500535400B6
:032B7800414300D6
:022B7B002C002C
:022B7D00520004
:022B7F004C0008
:022B81003B0017
:0C2B830001010600122334450000800010
:0C2B8F00746578742F68746D6C0A0A007D
:062B9B004552524F5200AA
:062BA1006382536335015D
:052BA7003703010306E5
:032BAC004F4B008C
:00000001FF
