:10000000EDEF1EF00000000000EF00F00000000027
:0A0010000000000000000000F3D71C
:10001C006DC16FFF6DB002D00000FCD76FCF00F048
:02002C001200C0
:10002E006DC1C9FFC7B002D00000FCD7C9CF00F028
:02003E001200AE
:10004000F250026EF29E0500FF6A0150FE6E0050F3
:08005000FD6E02BEF28E1200EB
:100058008292400E01016A11006E66C0E1FF67C01E
:10006800E2FF00C0E6FF64C000F065C001F0E4DF15
:1000780066C0E1FF67C0E2FF6BC1E6FF64C000F045
:1000880065C001F0D9DF66C0E1FF67C0E2FF6CC15F
:10009800E6FF64C000F065C001F0CEDF8282120086
:1000A8000B840BAE5FEF00F0010E036E026A016A6B
:0A00B800006A0A360232FF0E120041
:0800C2000AAE029E000E1200BE
:1000CA00829266C0E1FF67C0E2FF7A0EE66E64C004
:1000DA0000F065C001F0AFDF66C0E1FF67C0E2FF74
:1000EA0067C1E6FF64C000F065C001F0A4DF828248
:0200FA001200F2
:1000FC0001016A6B67C16BF168C16CF1A7DF829279
:10010C0066C0E1FF67C0E2FF3A0EE66E64C000F025
:10011C0065C001F08FDF66C0E1FF67C0E2FFE66AF1
:0E012C0064C000F065C001F085DF8282120021
:10013A008292A00E01016711006E66C0E1FF67C0DE
:10014A00E2FF00C0E6FF64C000F065C001F073DFA3
:10015A0066C0E1FF67C0E2FF68C1E6FF64C000F065
:0A016A0065C001F068DF8282120018
:100174000B820BAEC4EF00F00368026801680068EC
:080184000A360232FF0E1200E0
:10018C00829266C0E1FF67C0E2FF67C1E6FF64C010
:10019C0000F065C001F04EDF66C0E1FF67C0E2FF12
:1001AC00E66A64C000F065C001F044DF8282120090
:1001BC008292800E01016711006E66C0E1FF67C07C
:1001CC00E2FF00C0E6FF64C000F065C001F032DF62
:1001DC0066C0E1FF67C0E2FF68C1E6FF64C000F0E3
:0A01EC0065C001F027DF82821200D7
:0E01F600026A016A006A086A036A000E1200BB
:10020400020E01016A6F67C16BF168C16CF122DFF4
:10021400829266C0E1FF67C0E2FF7A0EE66E64C0B8
:1002240000F065C001F00ADF66C0E1FF67C0E2FFCD
:1002340069C1E6FF64C000F065C001F0FFDE8282A0
:020244001200A6
:10024600020E01016A6F59C16BF15AC16CF101DFEF
:10025600829266C0E1FF67C0E2FF7A0EE66E64C076
:1002660000F065C001F0E9DE01015D515E1117E0A5
:1002760066C0E1FF67C0E2FF5BC1E9FF5CC1EAFF60
:10028600EECFE6FF64C000F065C001F0D6DE0101E6
:100296005B4B5C2B010E5D5F000E5E5BE5D78282D9
:0202A600120044
:1002A800829266C0E1FF67C0E2FF7A0EE66E64C024
:1002B80000F065C001F0C0DE5BC100F05CC101F078
:1002C800010E01015B5F000E5C5B0050011013E042
:1002D80066C0E1FF67C0E2FF59C1E9FF5AC1EAFF02
:1002E800EECFE6FF64C000F065C001F0A5DE0101B5
:0A02F800594B5A2BE1D78282120005
:100302005BC104F05CC105F059C102F05AC103F0AF
:100312005DC100F05EC101F0010E01015D5F000EE2
:100322005E5B005001100FE004C0E9FF05C0EAFF68
:1003320002C0E1FF03C0E2FFEECFE6FF024A032A5A
:10034200044A052AE5D759C100F05AC101F012004A
:10035200AE0E0101676F190E686F696B52DFAE0E48
:1003620001015925006E190E5A21016E00C059F182
:1003720001C05AF1060E6A6F00C06BF101C06CF148
:100382006ADE1F0E0101676F800E686F16DF1F0E97
:100392000101676F800E686FCFDE4E50050A04E0E0
:1003A2004E50070A01E006D01C0E0101676F0A0ECB
:1003B200686FC2DE1F0E0101676F080E686FFDDEF7
:1003C2004E50050A04E04E50070A01E080D00101B8
:1003D2005E6B5F6B1C0E676FD8DE0A0E0016005252
:1003E2000AE101015E4B5F2B030E5F5D02E1E80E45
:1003F2005E5D01E2EFD701011C0E676FC6DE00B23F
:1004020008D0030E01015F5D02E1E80E5E5D01E2CC
:100412005DD001011F0E676F080E686F8DDE040E3E
:1004220001015925676F000E5A21686F66DE00C010
:100432005DF101015B6B100E5B5D48E21C0E676FA4
:10044200A4DE00A23FD001015DAB3CD01F0E676F5E
:10045200800E686FB2DE1F0E0101676F800E686F3B
:100462006BDE1C0E0101676F0A0E686F65DE1F0EE0
:100472000101676F080E686FA0DE01015E6B5F6BA2
:100482001C0E676F82DE0A0E001600520AE101019D
:100492005E4B5F2B030E5F5D02E1E80E5E5D01E2E3
:1004A200EFD701011F0E676F080E686F45DE040E5D
:1004B20001015925676F000E5A21686F1EDE00C0C8
:1004C2005DF101D003D001015B2BB5D707D001014B
:1004D2001F0E676F5ADE00A601D0F9D71D0E01016B
:1004E200676F53DE060E0016005203E001015C6BDB
:0E04F20003D00101010E5C6F5CC100F012002E
:1005000001015B5159255D6F5C515A215E6F010EEF
:100510005D5F000E5E5B100E6A6F59C16BF15AC1D0
:100520006CF19ADD120E01016A6F5DC16BF15EC163
:100530006CF192DD1F0E0101676F300E686F3EDEB9
:100540001F0E0101676F22DE00AA01D0F9D7120049
:1005500059C167F15AC168F15BC169F153DE5CC1F1
:0605600067F1B3DD12009B
:100566000101666B010E5B5F000E5C5B5F530DE085
:100576005C51190802E15B51AD0807E2662BAD0E2E
:100586005B5D646F190E5C59656F665305E0AD0ED1
:10059600606F190E616F04D05BC160F15CC161F1DF
:1005A6005A51611902E1605159190DE159C167F1BA
:1005B6005AC168F1A0DD00C069F15DC167F15EC195
:1005C60068F11DDE36D0100E01016A6F59C16BF15C
:1005D6005AC16CF13EDD120E01016A6F665305E0E9
:1005E600AD0E626F190E636F04D05BC162F15CC120
:1005F60063F162C16BF163C16CF12BDD140E010175
:100606006A6F5DC16BF15EC16CF123DD1F0E0101E6
:10061600676F100E686F8EDD1F0E0101676F200E6B
:10062600686FC9DD1F0E0101676FADDD00AA01D03D
:10063600F9D7010166531AE059515B5D006E5A51B4
:100646005C59016E6451005E6551015A004A012AE7
:1006560000505D2701505E23010E645D5B6F000E46
:0E06660065595C6F596B5A6B666B8FD712002B
:10067400829266C0E1FF67C0E2FF7A0EE66E64C054
:1006840000F065C001F0DADC66C0E1FF67C0E2FF9C
:100694005AC1E6FF64C000F065C001F0CFDC66C05B
:1006A400E1FF67C0E2FF59C1E6FF64C000F065C026
:0806B40001F0C4DC8282120097
:1006BC00040E016E59C100F0015004E000360090A8
:1006CC00FF0FFBD7300E00160C0E0010BD6E59C17B
:1006DC0000F05AC101F001320032019E01320032A9
:0806EC00019E00C0BEFF1200D8
:1006F4000CB0BCEF03F00CA263EF04F00E6A000E22
:100704000264D3EF03F0F00E0214D8A49EEF03F0BA
:10071400023A01380F0B02260138F00B016E003843
:100724000F0B01260038F00B006E08380F0B002663
:100734000838F00B086E0E84D89002BEB7EF03F0B1
:1007440008360036013602360E2A02BEB7EF03F031
:1007540008360036013602360E2A02BEB7EF03F021
:1007640008360036013602360E2A0E50036458EF5E
:1007740004F0035E0BBC08AE5EEF04F0D880800E7C
:1007840008640030000E002201220222D8A05EEF8D
:1007940004F0023201320032034A63EF04F05EEFE8
:1007A40004F001C002F000C001F008C000F0086AC3
:1007B400000E0E8602640AEF04F0F00E0214D8A4B0
:1007C400F2EF03F0023A01380F0B02260138F00B66
:1007D400016E00380F0B01260038F00B006E0E84FA
:1007E400D89002BEB7EF03F00036013602360E2A67
:1007F40002BEB7EF03F00036013602360E2A02BEFF
:10080400B7EF03F00036013602360E2AB7EF03F0D5
:1008140001C002F000C001F0006A000E0E960E88BE
:10082400026437EF04F0F00E0214D8A422EF04F0AF
:10083400023A01380F0B02260138F00B016E0E84C8
:10084400D89002BEB7EF03F0013602360E2A02BE7C
:10085400B7EF03F0013602360E2A02BEB7EF03F0FB
:10086400013602360E2AB7EF03F001C002F0016A26
:10087400000E0E86026468EF04F0F00E0214D8A491
:1008840046EF04F0023A0E84D89002BEB7EF03F0AC
:1008940002360E2A02BEB7EF03F002360E2A02BE5B
:1008A400B7EF03F002360E2AB7EF03F0010E0C6E19
:1008B40054EC00F06BEF04F0020E0C6E00DC6BEFF6
:1008C40004F0040E0C6E54DC6BEF04F0080E0C6E96
:0408D40090DC1200A2
:1008D8002DD0BD6A080E836E080EB96E0C0EBD6E63
:1008E800A20E796E47D0040E836EA10E796E42D0A7
:1008F800BD6A040E836E040EB96E0C0EBD6EA00E9A
:10090800796E38D0100E836EA20E796E33D0BD6A20
:10091800100E836E020EB96E0C0EBD6EA10E796EAE
:1009280029D0080E836EA00E796E24D0000E4D18C3
:1009380002E1000E4C18CDE0000E4D1802E1010E48
:100948004C18D1E0000E4D1802E1020E4C18D0E010
:10095800000E4D1802E1030E4C18D4E0000E4D189D
:1009680002E1040E4C18D3E0000E4D1802E1050E0A
:100978004C18D7E04C4A4D2A000E4D5C02E1060E99
:0A0988004C5C02E34C6A4D6A120059
:100992000B800BAED5EF04F0026A0AAEFF0E026EB8
:0C09A200016E006E0A360232FF0E1200D9
:1009AE0001014B6B4C6B3A503B10D8A44B81010E9E
:1009BE004B6F000E4C6F000E471802E1010E4618E9
:1009CE00D8B44B8307D04B8511D00B0E4B17000EAE
:1009DE004C170CD0000E3D1802E1000E3C18F3E04F
:1009EE00000E3D1802E1010E3C18EFE04BC14AF03B
:0609FE004CC14BF0120099
:100A04000B6A0A6A096A00500402F4CF09F0F3CFB2
:100A140008F001500502F4CF0BF0F3CF0AF00050B8
:100A24000502F3500926F4500A22E86A0B22015009
:100A34000402F3500926F4500A22E86A0B2208C083
:100A440000F009C001F00AC002F00BC003F012006C
:080A54000B6A0B86FF0E120075
:100A5C00AF0E0101596F190E5A6F4BC15BF14CC1AE
:100A6C005CF1060E5D6F000E5E6F23EC01F0680EFC
:100A7C00596F000E5A6F060E5B6F000E5C6F0EDC2A
:100A8C00000E596F080E5A6FEFDD1C0E0101532535
:100A9C00566F000E5421576F000E596F450E5A6F4A
:100AAC00E3DD56C159F157C15AF1DEDDADC059F144
:100ABC00AEC05AF1D9DD0001AD4BAE2B0101596B23
:100ACC005A6BD2DD110E0101596F800E5A6FCCDDBD
:100ADC000101596B5A6BC8DD5A0E0101596F000E9A
:100AEC005A6F040E5B6F000E5C6F54EC01F04DC13D
:100AFC0059F14EC15AF1040E5B6F000E5C6F54EC51
:100B0C0001F0080E5325566F000E5421576F4FC13C
:100B1C0059F150C15AF1A8DD51C159F152C15AF1E4
:100B2C00A3DD56C159F157C15AF19EDD0101596B34
:100B3C005A6B9ADDBD0E0101596F190E5A6F140EC6
:100B4C005B6F000E5C6FD6DC160E0101676FC6EC96
:100B5C0000F000C058F1170E0101676FC6EC00F0F1
:100B6C0000C05BF1C70E0101596F190E5A6F58C1C5
:100B7C005CF1E8DC010E01015615556FD90E5325B9
:100B8C00676F190E5421686F696B02EC01F0C90E86
:100B9C000101596F190E5A6FD10E5B6F190E5C6FF4
:100BAC00D90E53255D6F190E54215E6F55515D277B
:100BBC00000E5E235F6BD1DCD90E5325596F190ED5
:100BCC0054215A6F55515927000E5A23080E592794
:100BDC00000E5A235B6B110E5C6FB4DC57C167F1CE
:100BEC0065EC00F056C167F165EC00F0D10E010127
:100BFC00596F190E5A6F0C0E56255B6F000E57214C
:100C0C005C6F55515B27000E5C2374DC160E0101E2
:100C1C00676FC6EC00F000C058F1170E0101676F4A
:100C2C00C6EC00F000C05BF1D70E0101596F190E34
:100C3C005A6F58C15CF186DC2A0E01015325596F9D
:0C0C4C00000E54215A6FA9EC01F01200B8
:100C5800829266C0E1FF67C0E2FF3A0EE66E64C0AA
:100C680000F065C001F020EC00F066C0E1FF67C04D
:100C7800E2FFE66A64C000F065C001F020EC00F015
:040C88008282120052
:100C8C00025006180E6E086A096A0B6A0350076454
:100C9C0039EF07F006500A6E068E028E03500B6E6B
:100CAC000750036E000E0B6489EF06F00B50075EC5
:100CBC00D8B42AEF07F0070E0764F8EF06F0075ECA
:100CCC0000C008F001C000F002C001F0026A074E3B
:100CDC002AEF07F00764CDEF06F0075E00C008F0BE
:100CEC0001C000F0016A074E2AEF07F00764ABEF72
:100CFC0006F0075E00C008F0006A074E2AEF07F006
:100D0C00076492EF06F00AC002F005C001F004C0BF
:100D1C0000F0086A56EF08F0030E07649DEF06F02A
:100D2C00075E08380F0B086E074E2AEF07F0D890B5
:100D3C000832074E2AEF07F0D8900832074E2AEFF8
:100D4C0007F0D89008322AEF07F0030E0764BCEFC7
:100D5C0006F0075E08380F0B086E0038F00B0826FB
:100D6C0000380F0B006E074E2AEF07F0D8900032B8
:100D7C000832074E2AEF07F0D89000320832074E9F
:100D8C002AEF07F0D890003208322AEF07F0030E52
:100D9C000764E4EF06F0075E08380F0B086E0038A6
:100DAC00F00B082600380F0B006E0138F00B0026F4
:100DBC0001380F0B016E074E2AEF07F0D890013265
:100DCC0000320832074E2AEF07F0D8900132003279
:100DDC000832074E2AEF07F0D89001320032083261
:100DEC002AEF07F0030E076415EF07F0075E0838CB
:100DFC000F0B086E0038F00B082600380F0B006E36
:100E0C000138F00B002601380F0B016E0238F00B85
:100E1C00012602380F0B026E074E2AEF07F0D8900E
:100E2C000232013200320832074E2AEF07F0D89016
:100E3C000232013200320832074E2AEF07F0D89006
:100E4C000232013200320832096A000E0EAE1EEF79
:100E5C0008F0081E001E011E021E082A0022012294
:100E6C0002221EEF08F00750D8A43FEF07F056EF10
:100E7C0008F0096A02C00AF0028E068E0750035C65
:100E8C00076ED8B411EF08F0070E0764DFEF07F018
:100E9C00075E0450096E0550046E0650056E066A16
:100EAC00074E11EF08F0070E0764B4EF07F0075E6A
:100EBC000450096E0550046E056A074E11EF08F0D8
:100ECC00070E076492EF07F0075E0450096E046A80
:100EDC00074E11EF08F0070E076479EF07F00AC010
:100EEC0002F056EF08F0030E076484EF07F0075E7C
:100EFC0009380F0B096E074E11EF08F0D890093224
:100F0C00074E11EF08F0D8900932074E11EF08F098
:100F1C00D890093211EF08F0030E0764A3EF07F025
:100F2C00075E09380F0B096E0438F00B09260438DC
:100F3C000F0B046E074E11EF08F0D89004320932F3
:100F4C00074E11EF08F0D89004320932074E11EF1A
:100F5C0008F0D8900432093211EF08F0030E076440
:100F6C00CBEF07F0075E09380F0B096E0438F00B56
:100F7C00092604380F0B046E0538F00B04260538CF
:100F8C000F0B056E074E11EF08F0D89005320432A6
:100F9C000932074E11EF08F0D890053204320932AD
:100FAC00074E11EF08F0D89005320432093211EFD8
:100FBC0008F0030E0764FCEF07F0075E09380F0B0F
:100FCC00096E0438F00B092604380F0B046E053833
:100FDC00F00B042605380F0B056E0638F00B0526B2
:100FEC0006380F0B066E074E11EF08F0D89006323C
:100FFC00053204320932074E11EF08F0D890063250
:10100C00053204320932074E11EF08F0D89006323F
:10101C00053204320932086A000E0EAE1EEF08F0DB
:10102C00091E041E051E061E092A0422052206227C
:10103C0009500826045000220550012206500222B5
:10104C000EBE35EF08F0D8A044EF08F002320132A2
:10105C0000320832033E44EF08F050EF08F0D8B0ED
:10106C004AEF08F0000E081E001E011E021E082A80
:10107C000022012202220A7E4AEF08F0010E0C6EB9
:10108C007AEC03F058EF08F0020E0C6E7AEC03F0D9
:10109C0058EF08F0040E0C6EBAEC00F058EF08F0A4
:0610AC00000E0C6E1200A4
:1010B200386A396A3A6A3B6A3C6A3D6A3E6A3F6A02
:1010C200406A416A426A436A446A456A466A476AB2
:0A10D200486A496A4A6A4B6A120034
:1010DC004BC159F14CC15AF15A0E01015B6F000E14
:1010EC005C6F040E5D6F000E5E6F81EC01F04D6B5A
:1010FC004D51030821E34D514B25026E000E4C213E
:10110C00036E02C0E9FF03C0EAFFEECF01F0BB0E95
:10111C00E96E000EEA6E4D51E926D8B0EA2AFF0EB0
:10112C00EE18006E0150001202C0E1FF03C0E2FF96
:0A113C0000C0E6FF4D2BDCD71200C7
:1011460001014E51FF0A02E1FF0E4D1907E06A6BDD
:101156004DC16BF14EC16CF12CEC00F0829266C071
:10116600E1FF67C0E2FF3A0EE66E64C000F065C0BC
:1011760001F020EC00F04FC100F050C101F0010E6B
:1011860001014F5F000E505B0050011015E066C074
:10119600E1FF67C0E2FFE66A64C000F065C001F0E7
:1011A60020EC00F04BC1E1FF4CC1E2FF00C0E6FFBE
:0C11B60001014B4B4C2BDFD78282120052
:1011C200956A836AC00EF26EA19C0C0EBD6EBE6A59
:0E11D2003EC059F13FC05AF15EEC03F012002E
:1011E0000134083609360450085E0550D8A0053C85
:1011F000095E003601360F0E0C6E013408360936D2
:10120000045000A006D0085E0550D8A0053C095E39
:1012100005D008260550D8B0053C09260036013611
:101220000C2EEBD700B006D0045008260550D8B0DD
:08123000053C09260000120034
:101238004FC101F050C102F0010E01014F5F000ED5
:10124800505B000E021802E1000E01181FE04BC1AE
:10125800E9FF4CC1EAFF4DC1D9FF4EC1DAFFEE509C
:10126800DE180FE04BC1E9FF4CC1EAFF4DC1D9FFC1
:101278004EC1DAFFDE50EE5C006E016A000E015AC4
:1012880007D04B4B4C2B4D4B4E2BD2D7006A016AE3
:02129800120042
:10129A0001014B51390806E3300E4B5D03E3010EA1
:0812AA00006E01D0006A120081
:1012B200829266C0E1FF67C0E2FF7A0EE66E64C00A
:1012C20000F065C001F020EC00F04EC100F04FC10B
:1012D20001F0010E01014E5F000E4F5B0050011044
:1012E2001CE066C0E1FF67C0E2FF4BC1F6FF4CC1E4
:1012F200F7FF4DC1F8FF0900F5CF00F000C0E6FF8F
:1013020064C000F065C001F020EC00F0010E0101A4
:0E1312004B27000E4C234D23D8D782821200A9
:1013200042C04BF143C04CF1800E006E800E0101B3
:101330004C19005C02E14B51000819E23EC062F01A
:101340003FC063F062C000F063C001F0010E000115
:10135000625F000E635B0050011001E0F3D76CEC9C
:1013600004F0010E01014B5F000E4C5BDDD7120053
:101370000C6A0E6A0250D8A4D1EF09F001C002F045
:1013800000C001F0006A0E860250D8A4D1EF09F027
:1013900001C002F0016A0E960E880250D8B4E3EF45
:1013A00009F00E50035ED8A4D8A0E9EF09F0D89058
:1013B00002BEEFEF09F0003601360236032ED8EFF9
:1013C00009F0E9EF09F0010E0C6EFBEC00F0F3EF11
:1013D00009F0020E0C6E54EC00F0F3EF09F0040E6D
:0813E0000C6E61EC00F012003C
:1013E8003A503B10D8B468D0000E391802E1000E0C
:1013F800381858E1D7EC04F0010E4024006E000EB6
:101408004120016E00C040F001C041F0800E41183B
:10141800006E800E3F18005C02E13E50405C17E30E
:10142800080E4A18006E4BC001F0000E011A00C0E9
:101438004AF001C04BF0406A416A010E4824006E30
:10144800000E4920016E00C048F001C049F04AC0B2
:1014580081FF000E471802E1000E461815E14950B9
:10146800431802E1425048180FE1000E451802E106
:10147800000E441802E119DEB3D7010E466E000EC5
:10148800476E486A496A0DD0000E471802E1010EFE
:10149800461807E14950451802E14450481801E14F
:1014A80004DE09D0000E391802E1010E381803E1F4
:0A14B80084DE32DFFADD94D7120063
:1014C20043C1E9FF44C1EAFFEECF45F1000E01013D
:1014D200466F000E466F000E461902E1200E4519B6
:1014E20007E0000E461902E1090E451901E003D09A
:1014F200434B442BE5D7476B486B496B4A6B000E55
:10150200461902E12D0E451905E1494B4A2B434B81
:10151200442B08D0000E461902E12B0E451902E1B8
:10152200434B442B43C1E9FF44C1EAFFEECF45F1EF
:10153200000E466F000E466F45C14BF1ADDE005204
:1015420019E047C100F048C101F00A0E046E000E16
:10155200056E02EC05F0300E455D026E000E465936
:10156200036E02500024476F03500120486F434B23
:10157200442BD8D749514A1108E047510008006E60
:1015820048C101F0000E015604D047C100F048C125
:0415920001F0120052
:101596000101476B486B829266C0E1FF67C0E2FFBC
:1015A6007A0EE66E64C000F065C001F020EC00F033
:1015B60043C100F044C101F045C102F0010E010132
:1015C6004327000E4423452300C0F6FF01C0F7FF62
:1015D60002C0F8FF0900F5CF00F000C046F1005246
:1015E60010E066C0E1FF67C0E2FF46C1E6FF64C0E7
:1015F60000F065C001F020EC00F00101474B482BDC
:0E160600D7D7828247C100F048C101F0120020
:1016140043C102F044C103F046C100F047C101F0E8
:10162400010E0101465F000E475B0050011009E006
:1016340002C0E1FF03C0E2FF45C1E6FF024A032AFC
:0C164400EBD743C100F044C101F01200DC
:10165000020E0C6E490E0D6E0D2EFED70C2EFCD711
:0616600000000000120072
:101666000450000A08E10550000A05E1FF0E006E6D
:101676007F0E016E57D00D6A096A086A0150001084
:10168600D8B4000C015005180A6E0ABE0D1E0B6A6E
:1016960005AE05D0041E051E042AD8B4052A01AEDF
:1016A60005D0001E011E002AD8B4012A01500510DB
:1016B6000A6E0ABE10D091DD0BB020D00DAE000C24
:1016C600001E011E002AD8B4012A081E091E082A77
:1016D600D8B4092A000C05AE0DD001BE07D00150C2
:1016E600096E0050086E016A006AE8D7016A006A4E
:1016F600002A000C011E001E0B2ADDD7082AD8B4CA
:10170600092A0450085CD8A4D9D70550095CD8A486
:10171600D5D7096A086A002AD8B4012A01AECED7FD
:061726000000FF0C1200A0
:10172C00F90E0101466F000E476F020E6A6FD90E5B
:10173C006B6F190E6C6F2CEC00F0380E01014B6FB7
:10174C003F0E4C6F000E4D6F0C0E4E6F000E4F6F18
:10175C00AADD4351030A0DE144530BE0760E596F99
:10176C00000E5A6F040E5B6F000E5C6F54EC01F0B0
:10177C000AD0456B040E455D06E2676B65EC00F024
:10178C000101452BF7D7456B0C0E455D06E2676BE7
:10179C0065EC00F00101452BF7D7680E596F000E70
:1017AC005A6F060E5B6F000E5C6F54EC01F0456BCC
:1017BC00CA0E455D06E2676B65EC00F00101452B36
:1017CC00F7D7440E4B6F3F0E4C6F000E4D6F060E4D
:1017DC004E6F000E4F6F67DD43C167F165EC00F093
:1017EC0001014351030A1AE1445318E1360E676FA5
:1017FC0065EC00F0040E0101676F65EC00F0550E0E
:10180C000101596F000E5A6F040E5B6F000E5C6F76
:10181C0054EC01F0060E4627000E47234A0E4B6F80
:10182C003F0E4C6F000E4D6F050E4E6F000E4F6F3E
:10183C003ADD4351030A23E1445321E1320E676F31
:10184C0065EC00F0040E0101676F65EC00F001011E
:10185C00456B040E455D0FE2760EE96E000EEA6EE6
:10186C004551E926D8B0EA2AEECF67F165EC00F0D5
:10187C000101452BEED7060E4627000E4723FF0E1F
:10188C00676F65EC00F0310E01014B6F000E4C6F71
:10189C00310E4D6F000E4E6F440E4F6F000E506F99
:1018AC00430E516F000E526F46C153F147C154F1B4
:0618BC002EEC05F0120005
:1018C2000B6A0350D8B4A7EF0CF002500A6E028ED6
:1018D2008E0E035E03AEABEF0CF0036C080E035CDE
:1018E200D8A086EF0CF0036E013602C001F0026A46
:1018F200080E035CD8A086EF0CF0036E0136016A75
:101902000350D8A4D89090EF0CF00350D8B490EFC5
:101912000CF0D89002320132032E8AEF0CF00BBC8D
:1019220001A09DEF0CF0D8A09DEF0CF0012AD8B4D5
:10193200022A02BEBAEF0CF00AAEC0EF0CF0021E91
:10194200011E012AD8B4022AC0EF0CF0026A016A11
:10195200C0EF0CF00B800BAEC4EF0CF0026A0AAEC3
:10196200C4EF0CF0FF0E026E016E0A360232C4EFB3
:101972000CF0010E0C6EC9EC04F0C6EF0CF0000E78
:101982000C6EC6EF0CF0FF0E0C6E0150006E025092
:04199200016E1200D0
:1019960043C1E9FF44C1EAFFEE500101451905E1E3
:1019A60043C100F044C101F010D043C100F044C16E
:1019B60001F0434B442B00C0E9FF01C0EAFFEECF24
:0C19C60000F00052E5E1006A016A120026
:1019D2000450000A12E10550000A0FE10650000A05
:1019E2000CE10750000A09E1FF0E006EFF0E016EC6
:1019F2007F0E026EFF0E036EA8D0086A096A0750B6
:101A0200D8B494EF0DF00350D8B499EF0DF0025012
:101A120006180A6E028E068E0E6A02C008F001C017
:101A22000CF000C00DF004500D5E0550D8A0053C2E
:101A32000C5E0650D8A0063C085E086A0C6A0D6A65
:101A4200D8A02BEF0DF0D8900232013200320832CA
:101A5200010E0E6E0750035ED8A038EF0DF07E0E19
:101A62000E240326D8B09EEF0DF03EEF0DF07E0E51
:101A72000E240326D8A0A3EF0DF0180E0B6E0D3620
:101A82000C3608360036013602360E360450005E39
:101A92000550D8A0053C015E0650D8A0063C025E67
:101AA20006340E120EA059EF0DF00D8064EF0DF00A
:101AB200045000260550D8B0053C01260650D8B087
:101AC200062802260D900B2E40EF0DF08AEF0DF046
:101AD200D8900036013602360E360450005E0550AC
:101AE200D8A0053C015E0650D8A0063C025E063432
:101AF2000E10010B0D26D8B00C2AD8B4082AD8A48F
:101B02008AEF0DF008320C320D32032AD8B49EEF60
:101B12000DF00AAE089E0850026E0C50016E0D5078
:101B2200006EA6EF0DF0010E2AEC05F0A6EF0DF007
:101B3200020EFBEC00F0A6EF0DF0040EBAEC00F082
:0C1B4200A6EF0DF0080E54EC00F01200AD
:101B4E0000C008F00150006E016A026A036A0B6A57
:101B5E000C6A016A026A036A960E036E0A6A00AE86
:101B6E00BFEF0DF0081E001E082AD8B4002A0A8EF8
:101B7E0000C001F008C000F0086A026AB8EC09F073
:021B8E00120043
:101B9000BB0E0101596F000E5A6F43C15BF144C186
:101BA0005CF1040E5D6F000E5E6F81EC01F0BF0E04
:101BB000596F000E5A6F45C15BF146C15CF1040ECE
:101BC0005D6F000E5E6F81EC01F0B30E596F000E79
:101BD0005A6F47C15BF148C15CF1040E5D6F000EA6
:101BE0005E6F81EC01F0B70E4B6F000E4C6F6EEC28
:041BF00008F01200E7
:081BF400067E46EC06F012002B
:101BFC000101456B3C0E0001726F000E736F746F28
:101C0C00756F2CEC06F000C043F10050020AD8A40A
:101C1C002FD10101446B0F0E445D05E22CEC06F054
:101C2C000101442BF8D7760E4B6F000E4C6FFF0E54
:101C3C004D6FFF0E4E6F040E4F6F000E506FA3ECE6
:101C4C0008F0446B080E445D05E22CEC06F0010133
:101C5C00442BF8D7446B060E445D13E22CEC06F0D3
:101C6C0000C043F1680ED96E000EDA6E01014451CA
:101C7C00D926D8B0DA2A0050DE1801E025D1442B41
:101C8C00EAD7446BCE0E445D05E22CEC06F0010164
:101C9C00442BF8D7466B2CEC06F000C043F1C9D0AE
:101CAC002CEC06F000C043F10050010A05E12CECCD
:101CBC0006F000C045F101D007D1D6D02CEC06F0CF
:101CCC0000C043F10050040A10E16E0E01014B6F8D
:101CDC00000E4C6FFF0E4D6FFF0E4E6F040E4F6FCC
:101CEC00000E506FA3EC08F001D0EED0BDD02CEC60
:101CFC0006F000C043F1040E005C10E35E0E01011F
:101D0C004B6F000E4C6FFF0E4D6FFF0E4E6F040E9F
:101D1C004F6F000E506FA3EC08F001D0D5D001012D
:101D2C00040E435F010143C100F04307005203E07E
:101D3C002CEC06F0F7D798D02CEC06F000C043F151
:101D4C00040E005C10E3510E01014B6F000E4C6F42
:101D5C00FF0E4D6FFF0E4E6F040E4F6F000E506F47
:101D6C00A3EC08F001D0B0D00101040E435F0101D7
:101D7C0043C100F04307005203E02CEC06F0F7D708
:101D8C0073D02CEC06F000C043F10050040A10E1B3
:101D9C00470E01014B6F010E4C6FFF0E4D6FFF0E86
:101DAC004E6F040E4F6F000E506FA3EC08F001D075
:101DBC008BD05AD00101010E466F56D02CEC06F098
:101DCC0000C043F10050040A24E1720E01014B6F74
:101DDC00000E4C6FFF0E4D6FFF0E4E6F040E4F6FCB
:101DEC00000E506FA3EC08F000017551000808E1DB
:101DFC007451000805E17351070802E1725108089B
:101E0C0007E2080E725F070E735B000E745B755B66
:101E1C0001D05AD029D02CEC06F000C043F143C1BC
:101E2C0000F001014307005203E02CEC06F0F7D759
:101E3C001BD001014351350AD8B432D74351010AA2
:101E4C00D8B43CD74351030AD8B451D74351060AEE
:101E5C00D8B472D74351360A94E04351FF0AAAE032
:101E6C004351330AABE0D7D701014653D8B413D74B
:101E7C0001014551020A0FE1550E596F000E5A6FC0
:101E8C00470E5B6F010E5C6F040E5D6F000E5E6F94
:101E9C0081EC01F016D0550E4B6F000E4C6F470EB7
:101EAC004D6F010E4E6F040E4F6F000E506F1CECF9
:101EBC0009F0000E011802E1000E001802E0010109
:0C1ECC00456B45C100F001D0006A120017
:101ED8000A6A0350D8A40A800750D8A40A820A5074
:101EE800D8B4CFEF0FF0030AD8B488EF0FF00AB0D8
:101EF80083EF0FF006AECDEF0FF0CBEF0FF002AE91
:101F0800CBEF0FF0CDEF0FF00250800B0A6E029E60
:101F18000650800B069E0A18D8B499EF0FF00A50A5
:101F2800D8B4CBEF0FF0CDEF0FF00750035CD8B467
:101F3800A3EF0FF0D8A0BFEF0FF0C5EF0FF00650DA
:101F4800025CD8B4ADEF0FF0D8A0BFEF0FF0C5EF2B
:101F58000FF00550015CD8B4B7EF0FF0D8A0BFEF71
:101F68000FF0C5EF0FF00450005CD8B4CFEF0FF0BE
:101F7800D8B0C5EF0FF00A52D8B4CDEF0FF0CBEFC1
:101F88000FF00A52D8B4CBEF0FF0CDEF0FF0D88096
:0E1F98001200D8901200D880D88412001200D7
:101FA600B50E0101596F190E5A6FBB0E5B6F190EF4
:101FB6005C6FAF0E5D6F190E5E6F5F6BB3EC02F078
:101FC600B50E596F190E5A6F680E5B6F000E5C6F77
:0E1FD600060E5D6F000E5E6F23EC01F0120030
:101FE40001011A51190802E11951AD0804E2AE0EBB
:101FF400195F190E1A5B6A6B19C16BF11AC16CF186
:062004002CEC00F01200BC
:10200A000101676BC6EC00F000C01EF1010E010170
:10201A00676FC6EC00F000C01FF101016A6B19C1BD
:10202A006BF11AC16CF12CEC00F0829266C0E1FFF0
:10203A0067C0E2FF3A0EE66E64C000F065C001F0C8
:10204A0020EC00F001011D5318E066C0E1FF67C0F3
:10205A00E2FFE66A64C000F065C001F020EC00F01F
:10206A001BC1D9FF1CC1DAFF0050DE1801E005D000
:10207A0001011B4B1C2B1D07E5D7010182826A6BEC
:10208A001EC16BF11FC16CF12CEC00F01DC100F0F8
:02209A00120032
:10209C000101196BC80E195D06E228EC0BF028EC57
:0820AC000BF0192BF7D712000D
:1020B4008292400E01011911006E66C0E1FF67C0F3
:1020C400E2FF00C0E6FF64C000F065C001F020EC50
:1020D40000F066C0E1FF67C0E2FF1AC1E6FF64C01A
:0E20E40000F065C001F020EC00F082821200D6
:0620F200006A016A120001
:1020F800C90E0101596F190E5A6FCD0E5B6F190E7B
:102108005C6FCD0E5D6F190E5E6F5F6BB3EC02F006
:10211800C90E596F190E5A6F5A0E5B6F000E5C6F1D
:0E212800040E5D6F000E5E6F23EC01F01200DE
:1021360001013B6B3C6B000E3C5D02E1140E3B5D06
:1021460012E2C70E3B253D6F000E3C213E6F2CEC84
:1021560006F03DC1E1FF3EC1E2FF00C0E6FF01011E
:102166003B4B3C2BE8D7C70E3B25E16E000E3C21CE
:10217600E26EE66AC70E4B6F000E4C6F470E236F7A
:10218600450E246F540E256F200E266F2F0E276FD7
:10219600286B230E4D6F010E4E6F050E4F6F000E0E
:1021A600506F1CEC09F00050011003E0006A016A50
:1021B60001D3000E01011E1902E1500E1D1903E0A4
:1021C600006A016AF7D2CC0E4B6F000E4C6F4F0EB1
:1021D600296F460E2A6F460E2B6F2C6B290E4D6FFC
:1021E600010E4E6F030E4F6F000E506F1CEC09F080
:1021F600005001102CE159EC08F0510E0101436F1B
:102206003E0E446F000E456FCBEC0AF000C03BF16A
:1022160001C03CF12C0E436F3F0E446F000E456F1C
:10222600CBEC0AF000503B2701503C234F0E436F86
:102236003F0E446F000E456FCBEC0AF03B51002673
:102246003C51012200C03BF101C03CF1B3D2010177
:10225600CC0E4B6F000E4C6F530E2D6F540E2E6F1F
:102266002F6B2D0E4D6F010E4E6F020E4F6F000E2F
:10227600506F1CEC09F00050011003E1386A396A0E
:1022860046D0CC0E01014B6F000E4C6F410E306FE5
:10229600430E316F326B300E4D6F010E4E6F020ED4
:1022A6004F6F000E506F1CEC09F00050011005E155
:1022B600010E386E000E396E2AD00C0E0101436FE6
:1022C6003E0E446F000E456FCBEC0AF000C03BF1AA
:1022D60001C03CF12C0E436F3F0E446F000E456F5C
:1022E600CBEC0AF000503B2701503C231F0E436FF6
:1022F6003F0E446F000E456FCBEC0AF03B510026B3
:102306003C51012200C03BF101C03CF153D2010116
:10231600CE0E4B6F000E4C6F2C0E336F346B330E9C
:102326004D6F010E4E6F010E4F6F000E506F1CEC7D
:1023360009F0005001102AE00C0E0101436F3E0E19
:10234600446F000E456FCBEC0AF000C03BF101C0B4
:102356003CF12C0E436F3F0E446F000E456FCBECE5
:102366000AF000503B2701503C230A0E436F3F0EF4
:10237600446F000E456FCBEC0AF03B5100263C51F2
:10238600012200C03BF101C03CF114D20101CF0E85
:102396004B6F000E4C6F520E356F366B350E4D6F10
:1023A600010E4E6F010E4F6F000E506F1CEC09F0C0
:1023B6000050011005E1010E3C6E000E3D6E42D04C
:1023C600CF0E01014B6F000E4C6F4C0E376F386B02
:1023D600370E4D6F010E4E6F010E4F6F000E506F90
:1023E6001CEC09F00050011003E13C6A3D6A2AD05A
:1023F6000C0E0101436F3E0E446F000E456FCBEC91
:102406000AF000C03BF101C03CF12C0E436F3F0EB9
:10241600446F000E456FCBEC0AF000503B2701508D
:102426003C231F0E436F3F0E446F000E456FCBECEF
:102436000AF03B5100263C51012200C03BF101C08D
:102446003CF1B8D10101D00E4B6F000E4C6F2C0E33
:10245600396F3A6B390E4D6F010E4E6F010E4F6F8D
:10246600000E506F1CEC09F0005001102AE00C0E13
:102476000101436F3E0E446F000E456FCBEC0AF030
:1024860000C03BF101C03CF12C0E436F3F0E446F80
:10249600000E456FCBEC0AF000503B2701503C2361
:1024A6000A0E436F3F0E446F000E456FCBEC0AF0E9
:1024B6003B5100263C51012200C03BF101C03CF1DA
:1024C60079D10101D10E436F000E446F61EC0AF021
:1024D60000C03EF001C03FF0000E011802E1000E00
:1024E600001829E10C0E436F3E0E446F000E456F37
:1024F600CBEC0AF000C03BF101C03CF12C0E436F5F
:102506003F0E446F000E456FCBEC0AF000503B27A0
:1025160001503C23DE0E436F3E0E446F000E456FA6
:10252600CBEC0AF03B5100263C51012200C03BF1A6
:1025360001C03CF13FD1385039100EE13EC004F0E5
:102546003FC005F0500E006E480E016E33EC0BF0E6
:1025560000C03EF001C03FF0D10E0101436F000EF6
:10256600446F2C0E456FCBEC0CF0C70E005E000ED0
:10257600015A004A012AC70E0024436F000E0120AB
:10258600446F61EC0AF000C042F001C043F0000E57
:10259600011802E1000E001829E10C0E436F3E0EF1
:1025A600446F000E456FCBEC0AF000C03BF101C052
:1025B6003CF12C0E436F3F0E446F000E456FCBEC83
:1025C6000AF000503B2701503C23F40E436F3E0EA9
:1025D600446F000E456FCBEC0AF03B5100263C5190
:1025E600012200C03BF101C03CF1E4D0A7D0010EAE
:1025F6004224006E000E4320016E00C042F001C06E
:1026060043F042C000F043C001F0A7EC0DF000C05B
:102616003DF101C03EF102C03FF103C040F1660E3C
:10262600046E660E056E660E066E7F0E076E3DC163
:1026360000F03EC101F03FC102F040C103F0E9ECF9
:102646000CF061EC0CF000C041F101C042F141C157
:1026560044F042C145F0660E046E660E056E660EC7
:10266600066E7F0E076E3DC100F03EC101F03FC110
:1026760002F040C103F0E9EC0CF000C03DF101C0EE
:102686003EF102C03FF103C040F141C100F042C13A
:1026960001F0A7EC0DF000C004F001C005F002C087
:1026A60006F003C007F03DC100F03EC101F03FC196
:1026B60002F040C103F0FAEC0DF000C004F001C0D6
:1026C60005F002C006F003C007F0006A016A026A5C
:1026D600036A6CEC0FF0010ED8B0000E006E0052CB
:1026E60005E0010E446E000E456E02D0446A456A4E
:1026F60042C000F043C001F0A7EC0DF0660E046E78
:10270600660E056E660E066E7F0E076EE9EC0CF021
:1027160061EC0CF000C042F001C043F01CD042C096
:1027260000F043C001F00A0E046E000E056E02ECC6
:1027360005F000C042F001C043F00DD0000E39187C
:1027460002E1000E3818D8B452D7000E391802E14B
:10275600010E3818E4E0010E3A6E000E3B6EF4EC02
:1027660009F0510E0101436F3E0E446F000E456F96
:10277600CBEC0AF000C03BF101C03CF12C0E436FDC
:102786003F0E446F000E456FCBEC0AF000503B271E
:1027960001503C234F0E436F3F0E446F000E456FB2
:1027A600CBEC0AF03B5100263C51012200C03BF124
:0627B60001C03CF112001D
:1027BC002CEC06F02CEC06F02CEC06F000C01AF118
:1027CC002CEC06F000C019F12CEC06F000C01CF14A
:1027DC002CEC06F000C01BF12CEC06F000C01EF136
:1027EC002CEC06F000C01DF12CEC06F02CEC06F0E5
:1027FC002CEC06F02CEC06F01BC100F01CC101F017
:10280C00010E01011B5F000E1C5B005001100EE05D
:10281C002CEC06F0005201E0FBD72CEC06F02CEC73
:10282C0006F02CEC06F02CEC06F0E6D71DC100F0FF
:10283C001EC101F0010E01011D5F000E1E5B005058
:10284C00011048E02CEC06F02CEC06F02CEC06F019
:10285C0000C022F12CEC06F000C021F12CEC06F0AB
:10286C002CEC06F02CEC06F02CEC06F02CEC06F024
:10287C002CEC06F02CEC06F000C020F12CEC06F051
:10288C0000C01FF1000E0101221902E1010E2119F5
:10289C0011E12CEC06F000C0A7F02CEC06F000C007
:1028AC00A8F02CEC06F000C0A9F02CEC06F000C04F
:1028BC00AAF010D01FC100F020C101F0010E0101DF
:1028CC001F5F000E205B0050011003E02CEC06F0A3
:0628DC00F1D7ACD7120099
:1028E200B2D05A0E0101436F000E446F456B040EC5
:1028F200466F000E476F0AEC0BF0010E436F446BFC
:1029020096EC0BF02DC0C3F02EC0C4F02FC0C5F062
:1029120030C0C6F0030E376EA7D0050E0001C325E6
:10292200016E000EC421026E000EC521036E000E60
:10293200C621046E3050045C08E12F50035C05E1AF
:102942002E50025C02E12D50015C02E2020E376E53
:10295200FEEC0DF00050020A03E1040E376E01D0C6
:1029620083D0030E0101436F2CC044F196EC0BF0AF
:102972002DC0C3F02EC0C4F02FC0C5F030C0C6F0C9
:10298200050E376E71D0FEEC0DF000C019F100504B
:10299200060A03E1040E376E2CD001011951050A13
:1029A20028E12DC0C3F02EC0C4F02FC0C5F030C046
:1029B200C6F0060E376E5A0E596F000E5A6F760E1B
:1029C2005B6F000E5C6F040E5D6F000E5E6F81EC3C
:1029D20001F06E0E436F000E446F5E0E456F000EE7
:1029E200466F510E476F000E486FC8EC0DF02C6A0F
:1029F2003BD03AD0010E0001C325016E000EC42166
:102A0200026E000EC521036E000EC621046E045034
:102A1200305C08E103502F5C05E102502E5C02E1BC
:102A220001502D5C0FE30001010E725F000E735B1B
:102A3200745B755B2DC0C3F02EC0C4F02FC0C5F00F
:102A420030C0C6F011D03750020AD8B44AD7375036
:102A5200030AD8B462D73750040A83E03750050A14
:0A2A620092E03750060AC6E01200A9
:102A6C00F0C067F1F1C068F17EEC00F000C002F13B
:102A7C002CEC06F000C001F12CEC06F000C0FEF0CE
:102A8C002CEC06F000C0FDF00001FF6B0101006BA7
:102A9C00010E0B6F096B0A6B0C0E0001F025010186
:102AAC00676F000E0001F1210101686F7EEC00F0F0
:102ABC0000C005F1000E0101066F0533059F0533BB
:102ACC00059F000E066FFC0E0517FF0E0617140E61
:102ADC004B6F010E4C6FC90E4D6F190E4E6F040EDD
:102AEC004F6F000E506FA3EC08F00D0E0001F02597
:102AFC000101676F000E0001F1210101686F7EEC8E
:102B0C0000F03F0E00140101036F046B000E04175C
:102B1C00000E046F0E0E4F5C076F000E5058086FBE
:102B2C000001EE510101075F0001EF510101085B4B
:102B3C000551075F0651085B020E0001F0250101EB
:102B4C00676F000E0001F1210101686F7EEC00F04F
:102B5C0000C069F1F0C067F1F1C068F102EC01F05E
:102B6C00030E0001F0250101676F000E0001F12139
:102B7C000101686F7EEC00F000C067F165EC00F0BD
:102B8C0001C159F102C15AF13AEC03F0040E0001F3
:102B9C00F0250101676F000E0001F1210101686F42
:102BAC007EEC00F000C00FF12CEC06F000C00EF132
:102BBC002CEC06F000C00DF12CEC06F000C00CF172
:102BCC002CEC06F000C013F12CEC06F000C012F156
:102BDC002CEC06F000C011F12CEC06F000C010F14A
:102BEC00000E0101041902E1020E03193DE1010E70
:102BFC000C25006E000E0D21016E000E0E21026ED2
:102C0C00000E0F21036E00C010F101C011F102C0C3
:102C1C0012F103C013F1120E036F000E046F0C0EB1
:102C2C00676FC6EC00F000C00CF10D0E0101676F70
:102C3C00C6EC00F000C00DF10101676BC6EC00F0B2
:102C4C0000C00EF1010E0101676FC6EC00F000C070
:102C5C000FF10001FF2B180E0101056F000E066F1E
:102C6C00096B0A6B156A78D0000E041902E1180E74
:102C7C00031935E10CC1F2F00DC1F3F00EC1F4F003
:102C8C000FC1F5F010C10CF111C10DF112C10EF113
:102C9C0013C10FF107510001F225006E010108511B
:102CAC000001F321016E000EF421026E000EF521DD
:102CBC00036E00C010F101C011F102C012F103C08B
:102CCC0013F1100E0101036F000E046F0001FF2BB6
:102CDC00140E0101056F000E066F002B3DD0000E87
:102CEC00041902E1110E031937E10CC1F6F00DC104
:102CFC00F7F00EC1F8F00FC1F9F010C10CF111C1D1
:102D0C000DF112C10EF113C10FF1010E0001F625E8
:102D1C00006E000EF721016E000EF821026E000EFF
:102D2C00F921036E00C010F101C011F102C012F1C3
:102D3C0003C013F1100E0101036F000E046F0001AC
:102D4C00FF2B140E0101056F000E066F096B0A6B49
:102D5C00165202E1152A166A0001FF53D8B40FD29D
:102D6C000001040EF0250101596F000E0001F12144
:102D7C0001015A6F0FC15BF10EC15CF1A8EC02F0BE
:102D8C000DC167F165EC00F00CC167F165EC00F06A
:102D9C0013C167F165EC00F012C167F165EC00F04E
:102DAC0011C167F165EC00F010C167F165EC00F042
:102DBC000C0E0001F0250101676F000E0001F121DE
:102DCC000101686F7EEC00F00F0E00140101696FB9
:102DDC0005C100F0003600900036009000506913D9
:102DEC000C0E0001F0250101676F000E0001F121AE
:102DFC000101686F02EC01F00D0E0001F0250101DC
:102E0C00676F000E0001F1210101686F7EEC00F08C
:102E1C00C00E00140101696F035169130D0E0001FE
:102E2C00F0250101676F000E0001F1210101686FAF
:102E3C0002EC01F0000E0101041902E1120E03195B
:102E4C002AE10E0E0001F0250101596F000E000160
:102E5C00F12101015A6F050E5B6FEE0E5C6FA8EC51
:102E6C0002F0140E0001F0250101596F000E000153
:102E7C00F12101015A6F020E5B6F040E5C6FA8EC1E
:102E8C0002F0050E0101676F65EC00F0780E010190
:102E9C00676F65EC00F00001EE5101010925076F29
:102EAC000001EF5101010A21086F05510727065156
:102EBC0008230B5304E0D3EC0FF07CEC10F0BF0EA6
:102ECC00596F190E5A6F08C15BF107C15CF1A8EC80
:102EDC0002F0C70E0101596F190E5A6F5B6B5C6BD8
:102EEC00A8EC02F0BD0E0101596F190E5A6FEEC01D
:102EFC005BF1EFC05CF180EC02F0160E0101676F24
:102F0C00C6EC00F000C018F1170E0101676FC6EC9B
:102F1C0000F000C05BF1C70E0101596F190E5A6F1A
:102F2C0018C15CF1A8EC02F0BD0E010107250001EF
:102F3C00FB6F190E010108210001FC6F100EF0252A
:102F4C000101596F000E0001F12101015A6F5B6BF9
:102F5C005C6BA8EC02F0010E010107150001FA6F81
:102F6C00FBC067F1FCC068F10101696B02EC01F078
:102F7C00C90E0101596F190E5A6FD10E5B6F190EE4
:102F8C005C6F0001FA51FB2501015D6F000E000121
:102F9C00FC2101015E6F5F6BB3EC02F0080E0001C7
:102FAC00FB250101596F000E0001FC2101015A6F34
:102FBC000001FA5101015927000E5A235B6B060ED2
:102FCC005C6FA8EC02F00A0E0001FB250101596FA1
:102FDC00000E0001FC2101015A6F0001FA510101A0
:102FEC005927000E5A2309510525036E0A51062153
:102FFC00046E04C000F0016A00C05BF103C05CF118
:10300C00A8EC02F0F0C059F1F1C05AF101010951DC
:10301C0005255B6F0A5106215C6F0C0E5B27000EB9
:10302C005C230001FA5101015B27000E5C2380EC4C
:10303C0002F0160E0101676FC6EC00F000C018F12B
:10304C00170E0101676FC6EC00F000C05BF1100EAB
:10305C000001F0250101596F000E0001F121010161
:10306C005A6F18C15CF1A8EC02F00E0E0101072595
:10307C00596F000E08215A6FA9EC01F0005359E06A
:10308C00100E036F000E046F006B0B6B020E6A6F59
:10309C0005510001F02501016B6F06510001F12172
:1030AC0001016C6F2CEC00F00E0E0001EC250101FF
:1030BC00196F000E0001ED2101011A6F0001EE5194
:1030CC00010119270001EF5101011A23055119279C
:1030DC0006511A23F2EC0FF0152A140E0101196F88
:1030EC00010E1A6F01C11BF102C11CF1FDC01DF1D3
:1030FC00FEC01EF10E0E4F5C1F6F000E5058206F5D
:10310C000001EE5101011F5F0001EF510101205B35
:10311C0005511F5F0651205B590E216F000E226F67
:10312C009BEC10F000C009F101C00AF159A0156A1E
:10313C0017D6155224E0010109510C25006E0A51D5
:10314C000D21016E000E0E21026E000E0F21036E7A
:10315C0000C00CF101C00DF102C00EF103C00FF163
:10316C00110E036F000E046F156A0B6B140E056FB6
:10317C00000E066F096B0A6B010E166EF1D512006C
:10318C001F0E0101676F010E686F9DEC00F01F0EA2
:10319C000101676F020E686FDEEC00F0140E010186
:1031AC00196FECC01AF15AEC10F0120E0101676F96
:1031BC00010E686FDEEC00F04EEC10F0120E676F33
:1031CC00010E686F9DEC00F0180E0101676FC6ECE4
:1031DC0000F0EFC0E1FFF0C0E2FF00C0E6FF190E07
:1031EC000101676FC6EC00F0EDC0E1FFEEC0E2FF3D
:0631FC0000C0E6FF120016
:103202001F0E0101676F010E686F9DEC00F01F0E2B
:103212000101676F020E686FDEEC00F0140E01010F
:10322200196FECC01AF15AEC10F04EEC10F0160EB9
:10323200196FEEC01AF15AEC10F04EEC10F0170EA6
:10324200196FEDC01AF15AEC10F04EEC10F01200AA
:10325200C40E0101676F190E686F7EEC00F000C0AA
:10326200ECF0E8D0D50E0101196F190E1A6F5A0E43
:103272001B6F000E1C6F040E1D6F05EC10F000504A
:10328200000A4BE1C40E0101676F190E686F020E4E
:10329200696F02EC01F0D3EC0FF0CB0E596F190EEF
:1032A2005A6FCF0E5B6F190E5C6FD50E5D6F190EE4
:1032B2005E6F5F6BB3EC02F0CB0E596F190E5A6F53
:1032C2005A0E5B6F000E5C6F040E5D6F000E5E6F38
:1032D20023EC01F0C50E596F190E5A6FCB0E5B6FBE
:1032E200190E5C6FCF0E5D6F190E5E6F5F6BB3ECE4
:1032F20002F0C50E596F190E5A6F680E5B6F000E01
:103302005C6F060E5D6F000E5E6F23EC01F03C0EEB
:10331200596F000E5A6FA9EC01F095D00101AF0E62
:10332200196F190E1A6F680E1B6F000E1C6F060EB6
:103332001D6F05EC10F00050000A7BE1CB0E01017D
:10334200196F190E1A6FABC01BF1ACC01CF1040E41
:103352001D6F05EC10F00050000A6BE10F0E006EBD
:10336200000E016E21C004F0000E056E02EC05F0A5
:103372007A0E002401014B6F000E01204C6F090EE2
:103382004B27000E4C23C50E4D6F190E4E6F060EC5
:103392004F6F000E506FA3EC08F00F0E006E000E80
:1033A200016E21C004F0000E056E02EC05F07A0EEB
:1033B2000024596F000E01205A6F050E5927000E86
:1033C2005A23ABC05BF1ACC05CF1040E5D6F000E22
:1033D2005E6F81EC01F00F0E006E000E016E21C0D7
:1033E20004F0000E056E02EC05F07A0E0024E16E88
:1033F200000E0120E26E010EE66E0F0E006E000E50
:10340200016E21C004F0000E056E02EC05F07A0E8A
:103412000026000E0122010E0024E16E000E0120A2
:10342200E26E2DC0E6FF2EC0E6FF2FC0E6FF30C0E1
:10343200E6FF09D00001EC51010AD8B413D7EC51D0
:08344200020AD8B46BD7120096
:10344A00EFC067F1F0C068F17EEC00F000C0FAF05E
:10345A002CEC06F000C0F9F02CEC06F000C0F8F0F5
:10346A002CEC06F000C0F7F0000E0001F81902E19A
:10347A00000EF71901E197D02CEC06F000C0FCF021
:10348A002CEC06F000C0FBF0FD0E01014B6F000EA4
:10349A004C6FC90E4D6F190E4E6F040E4F6F000E12
:1034AA00506FA3EC08F0020E6A6F080E0001EF25B8
:1034BA0001016B6F000E0001F02101016C6F2CEC11
:1034CA0000F00E0E0001EC250101196F000E00013B
:1034DA00ED2101011A6F0001EE5101011927000EB9
:1034EA001A23080E1927000E1A23F2EC0FF0000E09
:1034FA000001FA1902E1350EF91903E1DEEC13F0C5
:10350A0052D0000E0001F81902E1440EF71903E146
:10351A0071EC14F048D0FD0E0101196F000E1A6FFC
:10352A00F9C01BF1FAC01CF1F7C01DF1F8C01EF179
:10353A00080E0001FB5D01011F6F000E0001FC591E
:10354A000101206F590E216F000E226F79EC10F0E5
:10355A0000C0FBF001C0FCF00050011024E0F10EA5
:10356A004B6F000E4C6FB50E4D6F190E4E6F060E57
:10357A004F6F000E506FA3EC08F0F10E4B6F000E68
:10358A004C6FFD0E4D6F000E4E6FF7C04FF1F8C035
:10359A0050F1F9C051F1FAC052F1FBC053F1FCC02D
:0835AA0054F12EEC05F01200B3
:1035B2000101196B0001E05303E00D0EE16F02D02F
:1035C200050EE16FE1C01AF15AEC10F0020E010192
:1035D200196F0001E05303E0310EE26F02D0300EAA
:1035E200E26FE2C01AF15AEC10F00A0E01016A6FA2
:1035F200EE0E6B6F050E6C6F2CEC00F0040E0101E9
:10360200196F0001E05303E0150EE36F02D0120EB2
:10361200E36FE3C01AF15AEC10F0060E0101196FC4
:10362200120E1A6F5AEC10F00001E05307E1070E78
:103632000101196F0C0E1A6F5AEC10F00001E053E1
:1036420007E1090E0101196F3F0E1A6F5AEC10F0D3
:103652001F0E0101676F010E686FDEEC00F01F0E96
:103662000101676F020E686FDEEC00F0040E0101CB
:10367200196F68C01AF15AEC10F0050E0101196FAA
:1036820069C01AF15AEC10F0020E0101196F6AC0FA
:103692001AF15AEC10F0030E0101196F6BC01AF106
:1036A2005AEC10F00101196B6CC01AF15AEC10F0CF
:1036B200010E0101196F6DC01AF15AEC10F0150ECE
:1036C2000101196F1A6B5AEC10F0120E0101676FAB
:1036D200C6EC00F000C04EF00001EC6BE50EED6FA1
:1036E200000EEE6FE60EEF6F000EF06F4EDD000182
:1036F200EC6BFE0EE515ED6FE05303E0010EE46F97
:1037020001D0E46BE451ED13E6C0EEF079DD100E6A
:103712000001EC6F010EED6FEE6B72DD1F0E676F35
:10372200040E686FDEEC00F04EEC10F07A0E436F80
:10373200000E446F456B2D0E466F000E476F0AEC6C
:103742000BF01F0E676F010E686F9DEC00F01F0EED
:0E3752000101676F020E686F9DEC00F012001F
:103760000001E96B598059921F0E0101676F010E2C
:10377000686F9DEC00F01F0E0101676F020E686F0D
:103780009DEC00F001016A6B22C06BF123C06CF16B
:103790002CEC00F0829266C0E1FF67C0E2FF3A0EB7
:1037A000E66E64C000F065C001F020EC00F066C079
:1037B000E1FF67C0E2FFE66A64C000F065C001F0A7
:1037C00020EC00F000C022F066C0E1FF67C0E2FF1D
:1037D000E66A64C000F065C001F020EC00F000C0B3
:1037E00023F066C0E1FF67C0E2FFE66A64C000F054
:1037F00065C001F020EC00F000C04FF066C0E1FFB2
:1038000067C0E2FFE66A64C000F065C001F020EC2A
:1038100000F000C050F066C0E1FF67C0E2FFE66A5A
:1038200064C000F065C001F020EC00F000C0E7F0DB
:1038300066C0E1FF67C0E2FFE66A64C000F065C0F1
:1038400001F020EC00F000C0E8F08282040E4F5E30
:10385000000E505A2350190802E12250AD080FE320
:1038600022B00DD00001E8BF0AD05050050802E197
:103870004F50EE0804E30001E7AF01D003D0010E82
:10388000006ED9D10101676BC6EC00F000C0E5F015
:10389000010E0101676FC6EC00F000C0E6F0E5C064
:1038A00059F1E6C05AF14F500001E52501015B6F67
:1038B00050500001E62101015C6FAF0E5D6F190EE3
:1038C0005E6F010E5F6FB3EC02F0BB0E676F190EF7
:1038D000686F7EEC00F000C0E8F02CEC06F000C051
:1038E000E7F00001E851080A02E1060EE71912E1CB
:1038F000BD0E0101196F190E1A6F240E1B6F000EF9
:103900001C6F070E1D6F05EC10F00050000A01E15E
:10391000A0DC67D10001E851080A02E1000EE719B6
:10392000D8A45CD1CD0E0101196F190E1A6FB70E14
:103930001B6F000E1C6F040E1D6F05EC10F0005283
:10394000D8B45982CD0E0101196F190E1A6F310EBC
:103950001B6F000E1C6F040E1D6F05EC10F0005263
:10396000D8B45982CD0E0101196F190E1A6F5A0E73
:103970001B6F000E1C6F040E1D6F05EC10F0005243
:1039800006E059B204D0020E0001E96F26D1BD0E47
:103990000101676F190E686F7EEC00F0F00E0014E5
:1039A000016E0150400A04E0030E0001E96F15D1D9
:1039B000BD0E0101676F190E686F7EEC00F000C04C
:1039C000E3F0000E0001E46F0F0EE317000EE417A2
:1039D000E337E391E437E337E391E437C30E0101C2
:1039E000676F190E686F7EEC00F0BF0E0014016E59
:1039F0000150000AD8A4F1D0C40E0101676F190E5E
:103A0000686F7EEC00F00050000AD8A4E6D0BD0E2E
:103A10000001E325E16F190EE421E26FC60E0101FA
:103A2000676F190E686F7EEC00F000C0E0F0005088
:103A3000010AD8A494D0E1C067F1E2C068F17EEC3D
:103A400000F00050080AD8A489D0010E0001E12539
:103A50000101676F000E0001E2210101686F7EEC39
:103A600000F00050000A7AE1E1C067F1E2C068F1BD
:103A70000101696B02EC01F0D3EC0FF07CEC10F06B
:103A8000C70E596F190E5A6F5B6B5C6BA8EC02F096
:103A9000BD0E0101596F190E5A6FE3C05BF1E4C00E
:103AA0005CF180EC02F0160E0101676FC6EC00F0CD
:103AB00000C0EAF0170E0101676FC6EC00F000C00D
:103AC0005BF1C70E0101596F190E5A6FEAC05CF124
:103AD000A8EC02F0020E0001E1250101596F000E71
:103AE0000001E22101015A6F5B6B5C6BA8EC02F0F4
:103AF000E1C059F1E2C05AF10001E3514F5C01010C
:103B00005B6F0001E451505801015C6F0E0E5B5F6A
:103B1000000E5C5B80EC02F0160E0101676FC6ECD4
:103B200000F000C0EAF0170E0101676FC6EC00F06C
:103B300000C05BF1020E0001E1250101596F000E8A
:103B40000001E22101015A6FEAC05CF1A8EC02F029
:103B50004FC059F150C05AF1A9EC01F03ED000011C
:103B6000E051110A0CE1E5C0ECF0E6C0EDF0E3C075
:103B7000EEF0E1C0EFF0E2C0F0F067DC2ED0000123
:103B8000E051060A2AE1100EE5250101676F000EDB
:103B90000001E6210101686F7EEC00F000C0EBF04F
:103BA0000001EA6B2CEC06F000500001EA254F6E94
:103BB000000EEB21506E0E0E4F26000E5022E5C077
:103BC000ECF0E6C0EDF0E3C0EEF0E4C0EFF0E1C0F1
:103BD000F0F0E2C0F1F036EC15F003D0040E000175
:103BE000E96F1E0E0101676F400E686FDEEC00F09A
:103BF000010E225C016E000E2358026E025019085D
:103C000002E10150AD080AE20C0E01016A6FAD0E2F
:103C10006B6F190E6C6F2CEC00F00BD00C0E0101C9
:103C20006A6F010E225C6B6F000E23586C6F2CECD8
:083C300000F0E9C000F01200F1
:103C3800C69A2E0E0001646F000E656F6D0E666FDA
:103C4800010E676FFF0EAF6FFF0EB06FFF0EB16F03
:103C5800FF0EB26F949A94969488C66A400EC76E07
:043C6800C68A1200F6
:103C6C000900F5CFE6FF0006FBE10106F9E11200C1
:103C7C000001DB6B1F0E0101676F010E686FDEEC3C
:103C8C0000F01F0E0101676F020E686F9DEC00F0D3
:103C9C00190E0101676FC6EC00F00050000803E23A
:103CAC0059DD00C0DBF01F0E0101676F010E686F5C
:103CBC009DEC00F01F0E0101676F020E686F9DEC0A
:083CCC0000F0DBC000F0120063
:103CD40094908280949282824EEC10F082804EEC1A
:103CE40010F082904EEC10F082804EEC10F0829234
:103CF40066C0E1FF67C0E2FFFF0EE66E64C000F03D
:103D040065C001F020EC00F082824EEC10F0680EE9
:103D1400596F000E5A6FDBC05BF1DCC05CF1060E1C
:103D24005D6F000E5E6F81EC01F05A0E596F000E4C
:103D34005A6FDDC05BF1DEC05CF1040E5D6F000EF6
:103D44005E6F81EC01F01F0E676F010E686F9DECD2
:103D540000F01F0E0101676F020E686F9DEC00F00A
:103D6400080E01016A6F6B6B6C6B2CEC00F00A0E91
:103D740001016A6FAD0E6B6F190E6C6F2CEC00F0C5
:103D84000C0E01016A6FAD0E6B6F190E6C6F2CEC8B
:103D940000F001016A6B6B6B6C6B2CEC00F0040E91
:103DA40001016A6FAE0E6B6F190E6C6F2CEC00F094
:103DB4001F0E0101676F010E686F9DEC00F01F0E6E
:103DC4000101676F020E686FDEEC00F0DFC0E0F007
:063DD400D9EC1AF0120008
:103DDA00A9EC1FF0100E0F01386F380ED36E936ADC
:103DEA00816A3A6B24DF170EDB6F000EDC6F1D0E43
:103DFA00DD6F000EDE6F010EDF6F67DF3ADFFED781
:023E0A00FFD7E0
:103F520010EE15F0390E006E010E016E8D0EF66E2A
:0E3F62003E0EF76E000EF86E36EC1EF01200EA
:103E0C00485454502F312E312034303020426164CC
:103E1C0020526571756573740A4163636573732D04
:103E2C00436F6E74726F6C2D416C6C6F772D4F728B
:103E3C006967696E3A2A0A436F6E74656E742D74E5
:053E4C007970653A00E9
:103E5100485454502F312E3120323030204F4B0AEC
:103E61004163636573732D436F6E74726F6C2D4183
:103E71006C6C6F772D4F726967696E3A2A0A436FCE
:0C3E81006E74656E742D747970653A00E3
:013E8D000034
:013E8E000033
:063E8F000014A576193FA6
:043E95000AD3370510
:013E99000028
:023E9A00000026
:083E9C0000010800060400000B
:013EA400001D
:043EA5000000000019
:063EA900FFFFFFFFFFFF19
:013EAF000012
:103EB0000000000000000000000000000000000002
:043EC00000000000FE
:023EC4000000FC
:063EC600474554202F00C7
:043ECC004F46460017
:033ED00053540048
:033ED30041430068
:023ED6002C00BE
:023ED800520096
:023EDA004C009A
:023EDC002C00B8
:103EDE004661696C656420746F2070617273652031
:063EEE00737065656400BD
:103EF4004661696C656420746F207061727365201B
:063F0400616E676C6500B0
:103F0A0057726F6E6720636F6D6D616E6420666FA6
:053F1A00726D617400EE
:0D3F1F0057726F6E67206F7074696F6E00CF
:0C3F2C00746578742F68746D6C0A0A00CC
:0C3F380001010600122334450000800047
:063F4400638253633501A6
:053F4A0037030103062E
:033F4F004F4B00D5
:020000040030CA
:0D000100231F3CFFBF81FF0FC00FE00F4029
:00000001FF
