:10000000B8EF14F00000000000EF00F00000000066
:0A0010000000000000000000F3D71C
:10001C00D2C5C9FFC7B002D00000FCD7C9CF00F0D1
:02002C001200C0
:10002E00D2C56FFF6DB002D00000FCD76FCF00F0CD
:02003E001200AE
:10004000F250026EF29E0500FF6A0150FE6E0050F3
:08005000FD6E02BEF28E1200EB
:100058008292400E0501CF11006EF9C4E1FFFAC487
:10006800E2FF00C0E6FFF7C400F0F8C401F0E4DFE7
:10007800F9C4E1FFFAC4E2FFD0C5E6FFF7C400F017
:10008800F8C401F0D9DFF9C4E1FFFAC4E2FFD1C531
:10009800E6FFF7C400F0F8C401F0CEDF8282120058
:1000A800020E0501CF6FCCC5D0F5CDC5D1F5D0DF97
:1000B8008292F9C4E1FFFAC4E2FF7A0EE66EF7C451
:1000C80000F0F8C401F0B8DFF9C4E1FFFAC4E2FFB8
:1000D800CEC5E6FFF7C400F0F8C401F0ADDF8282B8
:0200E800120004
:1000EA000501CF6BCCC5D0F5CDC5D1F5B0DF829275
:1000FA00F9C4E1FFFAC4E2FF3A0EE66EF7C400F073
:10010A00F8C401F098DFF9C4E1FFFAC4E2FFE66A35
:0E011A00F7C400F0F8C401F08EDF82821200FC
:100128008292F9C4E1FFFAC4E2FF7A0EE66EF7C4E0
:1001380000F0F8C401F080DFF9C4E1FFFAC4E2FF7F
:10014800CCC5E6FFF7C400F0F8C401F075DF828281
:02015800120093
:10015A008292800E0501CC11006EF9C4E1FFFAC447
:10016A00E2FF00C0E6FFF7C400F0F8C401F063DF65
:10017A00F9C4E1FFFAC4E2FFCDC5E6FFF7C400F017
:0A018A00F8C401F058DF8282120071
:100194008292F9C4E1FFFAC4E2FFCCC5E6FFF7C4DA
:1001A40000F0F8C401F04ADFF9C4E1FFFAC4E2FF49
:1001B400E66AF7C400F0F8C401F040DF828212005E
:1001C4008292A00E0501CC11006EF9C4E1FFFAC4BD
:1001D400E2FF00C0E6FFF7C400F0F8C401F02EDF30
:1001E400F9C4E1FFFAC4E2FFCDC5E6FFF7C400F0AD
:0A01F400F8C401F023DF828212003C
:1001FE000501CB6B010EC05F000EC15BC4530DE059
:10020E00C151190802E1C051AD0807E2CB2BAD0E6A
:10021E00C05DC96F190EC159CA6FCB5305E0AD0E43
:10022E00C56F190EC66F04D0C0C5C5F5C1C5C6F5DC
:10023E00BF51C61902E1C551BE190DE1BEC5CCF5BF
:10024E00BFC5CDF54BDF00C0CEF5C2C5CCF5C3C5DD
:10025E00CDF523DF36D0100E0501CF6FBEC5D0F51C
:10026E00BFC5D1F5F2DE120E0501CF6FCB5305E0FF
:10027E00AD0EC76F190EC86F04D0C0C5C7F5C1C586
:10028E00C8F5C7C5D0F5C8C5D1F5DFDE140E05011A
:10029E00CF6FC2C5D0F5C3C5D1F5D7DE1F0E050190
:1002AE00CC6F100ECD6F87DF1F0E0501CC6F200EA9
:1002BE00CD6F4CDF1F0E0501CC6F65DF00AA01D09C
:1002CE00F9D70501CB531AE0BE51C05D006EBF5188
:1002DE00C159016EC951005ECA51015A004A012A24
:1002EE000050C2270150C323010EC95DC06F000E1E
:0E02FE00CA59C16FBE6BBF6BCB6B8FD712009E
:10030C00020E0501CF6FBEC5D0F5BFC5D1F59EDE7F
:10031C008292F9C4E1FFFAC4E2FF7A0EE66EF7C4EA
:10032C0000F0F8C401F086DE0501C251C31117E0DC
:10033C00F9C4E1FFFAC4E2FFC0C5E9FFC1C5EAFF99
:10034C00EECFE6FFF7C400F0F8C401F073DE050150
:10035C00C04BC12B010EC25F000EC35BE5D782827E
:02036C0012007D
:10036E000501C051BE25C26FC151BF21C36F010E21
:10037E00C25F000EC35B100ECF6FBEC5D0F5BFC5FA
:10038E00D1F563DE120E0501CF6FC2C5D0F5C3C520
:10039E00D1F55BDE1F0E0501CC6F300ECD6FD6DEB4
:1003AE001F0E0501CC6FEFDE00AA01D0F9D71200A7
:1003BE00BEC5CCF5BFC5CDF5C0C5CEF56EDEC1C58B
:0603CE00CCF5ABDE1200CD
:1003D4008292F9C4E1FFFAC4E2FF7A0EE66EF7C432
:1003E40000F0F8C401F02ADEC0C500F0C1C501F078
:1003F400010E0501C05F000EC15B0050011013E047
:10040400F9C4E1FFFAC4E2FFBEC5E9FFBFC5EAFFD4
:10041400EECFE6FFF7C400F0F8C401F00FDE0501EB
:0A042400BE4BBF2BE1D7828212000D
:10042E008292F9C4E1FFFAC4E2FF7A0EE66EF7C4D7
:10043E0000F0F8C401F0FDDDF9C4E1FFFAC4E2FFFB
:10044E00BFC5E6FFF7C400F0F8C401F0F2DDF9C451
:10045E00E1FFFAC4E2FFBEC5E6FFF7C400F0F8C440
:08046E0001F0E7DD82821200BB
:10047600C0C504F0C1C505F0BEC502F0BFC503F096
:10048600C2C500F0C3C501F0010E0501C25F000E32
:10049600C35B005001100FE004C0E9FF05C0EAFF8E
:1004A60002C0E1FF03C0E2FFEECFE6FF024A032AE5
:1004B600044A052AE5D7BEC500F0BFC501F0120003
:1004C600AE0E0501CC6F190ECD6FCE6BEADDAE0E0A
:1004D6000501BE25006E190EBF21016E00C0BEF5D6
:1004E60001C0BFF5060ECF6F00C0D0F501C0D1F533
:1004F600B0DD1F0E0501CC6F800ECD6F2BDE1F0EFB
:100506000501CC6F800ECD6F5ADE05015351050AE9
:1005160004E05351070A01E005D01C0ECC6F0A0E09
:10052600CD6F4DDE1F0E0501CC6F080ECD6F12DEAE
:1005360005015351050A04E05351070A01E07FD033
:10054600C36BC46B1C0ECC6F22DE0A0E0016005263
:100556000AE10501C34BC42B030EC45D02E1E80E9C
:10056600C35D01E2EFD705011C0ECC6F10DE00B2B1
:1005760008D0030E0501C45D02E1E80EC35D01E289
:100586005DD005011F0ECC6F080ECD6F18DE040E70
:100596000501BE25CC6F000EBF21CD6FA3DD00C0C7
:1005A600C2F50501C06B100EC05D48E21C0ECC6F93
:1005B600EEDD00A23FD00501C2AB3CD01F0ECC6FD2
:1005C600800ECD6FC7DD1F0E0501CC6F800ECD6F7F
:1005D600F6DD1C0E0501CC6F0A0ECD6FF0DD1F0E89
:1005E6000501CC6F080ECD6FB5DD0501C36BC46B7D
:1005F6001C0ECC6FCCDD0A0E001600520AE1050176
:10060600C34BC42B030EC45D02E1E80EC35D01E2D9
:10061600EFD705011F0ECC6F080ECD6FD0DD040E8F
:100626000501BE25CC6F000EBF21CD6F5BDD00C07E
:10063600C2F501D003D00501C02BB5D707D00501FF
:100646001F0ECC6FA4DD00A601D0F9D71D0E050143
:10065600CC6F9DDD060E0016005203E00501C16B4E
:0E06660003D00501010EC16FC1C500F01200E6
:10067400B0C5BEF5B1C5BFF50A0E0501C06F050EC4
:10068400C16F040EC26F000EC36FF3DEB26BB251C2
:10069400030821E3B251B025026E000EB121036EAE
:1006A40002C0E9FF03C0EAFFEECF01F00E0EE96ECF
:1006B400050EEA6EB251E926D8B0EA2AFF0EEE180A
:1006C400006E0150001202C0E1FF03C0E2FF00C04F
:0806D400E6FFB22BDCD7120097
:1006DC00AF0E0501BE6F190EBF6FB0C5C0F5B1C529
:1006EC00C1F5060EC26F000EC36F0ADE030EBE6F9D
:1006FC00050EBF6F060EC06F000EC16F65DE000EDB
:10070C00BE6F080EBF6F8DDE1C0E0501B825BB6FCA
:10071C00000EB921BC6F000EBE6F450EBF6F81DE9F
:10072C00BBC5BEF5BCC5BFF57CDE49C5BEF54AC52B
:10073C00BFF577DE0501494B4A2BBE6BBF6B71DEF3
:10074C00110E0501BE6F800EBF6F6BDE0501BE6B17
:10075C00BF6B67DE0A0E0501BE6F050EBF6F040E80
:10076C00C06F000EC16F30DEB2C5BEF5B3C5BFF5AC
:10077C00040EC06F000EC16F27DE080EB825BB6FCC
:10078C00000EB921BC6FB4C5BEF5B5C5BFF549DEC9
:10079C00B6C5BEF5B7C5BFF544DEBBC5BEF5BCC519
:1007AC00BFF53FDE0501BE6BBF6B3BDEBD0E050129
:1007BC00BE6F190EBF6F140EC06F000EC16FD1DD6E
:1007CC00160E0501CC6FE0DC00C0BDF5170E05015F
:1007DC00CC6FDADC00C0C0F5C70E0501BE6F190E78
:1007EC00BF6FBDC5C1F5E5DD010E0501BB15BA6FC7
:1007FC00D90EB825CC6F190EB921CD6FCE6B4EDC4E
:10080C00C90E0501BE6F190EBF6FD10EC06F190E48
:10081C00C16FD90EB825C26F190EB921C36FBA5169
:10082C00C227000EC323C46BE4DCD90EB825BE6FFF
:10083C00190EB921BF6FBA51BE27000EBF23080E87
:10084C00BE27000EBF23C06B110EC16FB2DDBCC53D
:10085C00CCF564DCBBC5CCF561DCD10E0501BE6FFB
:10086C00190EBF6F0C0EBB25C06F000EBC21C16FE3
:10087C00BA51C027000EC12374DD160E0501CC6FD2
:10088C0083DC00C0BDF5170E0501CC6F7DDC00C00C
:10089C00C0F5D70E0501BE6F190EBF6FBDC5C1F5F2
:1008AC0088DD2A0E0501B825BE6F000EB921BF6F79
:0408BC0004DE120044
:1008C0008292F9C4E1FFFAC4E2FF7A0EE66EF7C441
:1008D00000F0F8C401F020EC00F0B3C500F0B4C59E
:1008E00001F0010E0501B35F000EB45B0050011072
:1008F0001CE0F9C4E1FFFAC4E2FFB0C5F6FFB1C5E0
:10090000F7FFB2C5F8FF0900F5CF00F000C0E6FF21
:10091000F7C400F0F8C401F020EC00F0010E05016E
:0E092000B027000EB123B223D8D78282120076
:10092E000501B351FF0A02E1FF0EB21907E0CF6BCA
:10093E00B2C5D0F5B3C5D1F52CEC00F08292F9C456
:10094E00E1FFFAC4E2FF3A0EE66EF7C400F0F8C417
:10095E0001F020EC00F0B4C500F0B5C501F0010EB9
:10096E000501B45F000EB55B0050011015E0F9C42F
:10097E00E1FFFAC4E2FFE66AF7C400F0F8C401F042
:10098E0020EC00F0B0C5E1FFB1C5E2FF00C0E6FF0C
:0C099E000501B04BB12BDFD782821200A4
:1009AA008292F9C4E1FFFAC4E2FF3A0EE66EF7C496
:1009BA0000F0F8C401F020EC00F0F9C4E1FFFAC439
:1009CA00E2FFE66AF7C400F0F8C401F020EC00F098
:0409DA008282120003
:1009DE00B4C501F0B5C502F0010E0501B45F000EFD
:1009EE00B55B000E021802E1000E01181FE0B0C543
:1009FE00E9FFB1C5EAFFB2C5D9FFB3C5DAFFEE50C4
:100A0E00DE180FE0B0C5E9FFB1C5EAFFB2C5D9FFE8
:100A1E00B3C5DAFFDE50EE5C006E016A000E015ABD
:100A2E0007D0B04BB12BB24BB32BD2D7006A016AB1
:020A3E001200A4
:100A40000E0E0501BE6F050EBF6FA8C5C0F5A9C586
:100A5000C1F5040EC26F000EC36F0DDD540EBE6FE4
:100A6000050EBF6FAAC5C0F5ABC5C1F5040EC26FB8
:100A7000000EC36F00DD4B0EBE6F050EBF6FACC521
:100A8000C0F5ADC5C1F5040EC26F000EC36FF3DC37
:0C0A9000580EB06F050EB16FEDDD1200C6
:100A9C00020E0C6E490E0D6E0D2EFED70C2EFCD7D1
:060AAC0000000000120032
:100AB2000501AA6B3C0E0401FB6F000EFC6FFD6F7B
:100AC200FE6F72DF00C0A8F50050020AD8A419D147
:100AD2000501A96B0F0EA95D04E266DF0501A92BD2
:100AE200F9D7FF0EB06F040EB16FFF0EB26FFF0E9B
:100AF200B36F040EB46F000EB56F18DFA96B080E4A
:100B0200A95D04E251DF0501A92BF9D7A96B060EF5
:100B1200A95D12E249DF00C0A8F5030ED96E050EE9
:100B2200DA6E0501A951D926D8B0DA2A0050DE18AA
:100B320001E012D1A92BEBD7A96BCE0EA95D04E27D
:100B420033DF0501A92BF9D7AB6B2EDF00C0A8F567
:100B5200B9D02ADF00C0A8F50050010A04E124DF61
:100B620000C0AAF501D0F8D0C8D01EDF00C0A8F599
:100B72000050040A0FE1F10E0501B06F040EB16FCF
:100B8200FF0EB26FFF0EB36F040EB46F000EB56F9F
:100B9200CDDE01D0E1D0B1D007DF00C0A8F5040E50
:100BA200005C0FE3DB0E0501B06F040EB16FFF0EA8
:100BB200B26FFF0EB36F040EB46F000EB56FB6DEE8
:100BC20001D0CAD00501040EA85F0501A8C500F036
:100BD200A807005202E0E8DEF8D78FD0E5DE00C0B9
:100BE200A8F5040E005C0FE3DF0E0501B06F040EE2
:100BF200B16FFF0EB26FFF0EB36F040EB46F000E33
:100C0200B56F94DE01D0A8D00501040EA85F0501DE
:100C1200A8C500F0A807005202E0C6DEF8D76DD0E2
:100C2200C3DE00C0A8F50050040A0FE1AC0E0501B6
:100C3200B06F050EB16FFF0EB26FFF0EB36F040EF1
:100C4200B46F000EB56F72DE01D086D056D00501AA
:100C5200010EAB6F52D0A8DE00C0A8F50050040A06
:100C620023E1FB0E0501B06F040EB16FFF0EB26FF0
:100C7200FF0EB36F040EB46F000EB56F57DE0401A2
:100C8200FE51000808E1FD51000805E1FC5107088A
:100C920002E1FB51080807E2080EFB5F070EFC5B4E
:100CA200000EFD5BFE5B01D057D027D07DDE00C079
:100CB200A8F5A8C500F00501A807005202E074DEFD
:100CC200F8D71BD00501A851350AD8B442D7A8518C
:100CD200010AD8B44AD7A851030AD8B45DD7A8519B
:100CE200060AD8B47BD7A851360A9AE0A851FF0A5F
:100CF200AEE0A851330AAFE0D9D70501AB53D8B45F
:100D020024D70501AA51020A0FE1ED0EBE6F040EAF
:100D1200BF6FAC0EC06F050EC16F040EC26F000E26
:100D2200C36F3BEC02F015D0ED0EB06F040EB16F45
:100D3200AC0EB26F050EB36F040EB46F000EB56F3A
:100D42004DDE000E011802E1000E001802E005015E
:0C0D5200AA6BAAC500F001D0006A1200D4
:100D5E00A8C502F0A9C503F0ABC500F0ACC501F003
:100D6E00010E0501AB5F000EAC5B0050011009E0F7
:100D7E0002C0E1FF03C0E2FFAAC5E6FF024A032A52
:0C0D8E00EBD7A8C500F0A9C501F01200C9
:100D9A00F90E0501AB6F000EAC6F020ECF6FD90EC4
:100DAA00D06F190ED16F2CEC00F0CC0E0501B06F8C
:100DBA002E0EB16F000EB26F0C0EB36F000EB46F31
:100DCA007ADDA851030A0DE1A9530BE0FF0EBE6FAD
:100DDA00040EBF6F040EC06F000EC16FEAEC01F083
:100DEA000AD0AA6B040EAA5D06E2CC6B94EC00F062
:100DFA000501AA2BF7D7AA6B0C0EAA5D06E2CC6BEB
:100E0A0094EC00F00501AA2BF7D7030EBE6F050E6E
:100E1A00BF6F060EC06F000EC16FEAEC01F0AA6B3D
:100E2A00CA0EAA5D06E2CC6B94EC00F00501AA2B6F
:100E3A00F7D7E40EB06F2E0EB16F000EB26F060E2A
:100E4A00B36F000EB46F37DDA8C5CCF594EC00F093
:100E5A000501A851030A1AE1A95318E1360ECC6F0D
:100E6A0094EC00F0040E0501CC6F94EC00F0ED0E4A
:100E7A000501BE6F040EBF6F040EC06F000EC16F76
:100E8A00EAEC01F0060EAB27000EAC23EA0EB06FB7
:100E9A002E0EB16F000EB26F050EB36F000EB46F57
:100EAA000ADDA851030A23E1A95321E1320ECC6FCE
:100EBA0094EC00F0040E0501CC6F94EC00F00501EF
:100ECA00AA6B040EAA5D0FE2FF0EE96E040EEA6E2B
:100EDA00AA51E926D8B0EA2AEECFCCF594EC00F074
:100EEA000501AA2BEED7060EAB27000EAC23FF0E88
:100EFA00CC6F94EC00F0D00E0501B06F040EB16F08
:100F0A00D00EB26F040EB36F440EB46F000EB56FFD
:100F1A00430EB66F000EB76FABC5B8F5ACC5B9F5E1
:060F2A006EEC03F0120062
:100F30000501AC6BAD6B8292F9C4E1FFFAC4E2FF2C
:100F40007A0EE66EF7C400F0F8C401F020EC00F071
:100F5000A8C500F0A9C501F0AAC502F0010E05015F
:100F6000A827000EA923AA2300C0F6FF01C0F7FF9F
:100F700002C0F8FF0900F5CF00F000C0ABF5005249
:100F800010E0F9C4E1FFFAC4E2FFABC5E6FFF7C425
:100F900000F0F8C401F020EC00F00501AC4BAD2BE3
:0E0FA000D7D78282ACC500F0ADC501F01200BB
:100FAE000501AB6BAC6B8292F9C4E1FFFAC4E2FFB0
:100FBE007A0EE66EF7C400F0F8C401F020EC00F0F3
:100FCE00A8C500F0A9C501F00501A84BA92B00C0CA
:100FDE00E9FF01C0EAFFEECF00F000C0AAF5005213
:100FEE0010E0F9C4E1FFFAC4E2FFAAC5E6FFF7C4B8
:100FFE0000F0F8C401F020EC00F00501AB4BAC2B77
:0E100E00DFD78282ABC500F0ACC501F0120046
:10101C0005019B51190802E19A51AD0804E2AE0E8C
:10102C009A5F190E9B5BCF6B9AC5D0F59BC5D1F51A
:06103C002CEC00F0120094
:101042000B6A0A6A096A00500402F4CF09F0F3CF6E
:1010520008F001500502F4CF0BF0F3CF0AF0005074
:101062000502F3500926F4500A22E86A0B220150C5
:101072000402F3500926F4500A22E86A0B2208C03F
:1010820000F009C001F00AC002F00BC003F0120028
:10109200B50E0501BE6F190EBF6FBB0EC06F190EE4
:1010A200C16FAF0EC26F190EC36FC46BFFEC00F0BD
:1010B200B50EBE6F190EBF6F030EC06F050EC16F66
:0E10C200060EC26F000EC36F86EC01F0120026
:1010D0000501CC6BCAEC00F000C09FF5010E0501C4
:1010E000CC6FCAEC00F000C0A0F50501CF6B9AC52B
:1010F000D0F59BC5D1F52CEC00F08292F9C4E1FF4C
:10110000FAC4E2FF3A0EE66EF7C400F0F8C401F04C
:1011100020EC00F005019E5318E0F9C4E1FFFAC489
:10112000E2FFE66AF7C400F0F8C401F020EC00F03A
:101130009CC5D9FF9DC5DAFF0050DE1801E005D03F
:1011400005019C4B9D2B9E07E5D705018282CF6B45
:101150009FC5D0F5A0C5D1F52CEC00F09EC500F0E0
:0211600012007B
:101162008292400E05019A11006EF9C4E1FFFAC4A1
:10117200E2FF00C0E6FFF7C400F0F8C401F020EC83
:1011820000F0F9C4E1FFFAC4E2FF9BC5E6FFF7C431
:0E11920000F0F8C401F020EC00F082821200A0
:1011A00005019A6BC80E9A5D04E278DC77DC9A2B15
:0411B000F9D7120059
:1011B4000501A46BA56B000EA55D02E10A0EA45DFA
:1011C40012E2E30EA425A66F040EA521A76FD5ECA9
:1011D40004F0A6C5E1FFA7C5E2FF00C0E6FF0501D4
:1011E400A44BA52BE8D7E30EA425E16E040EA5219C
:1011F400E26EE66AE30EB06F040EB16FA20EB26F38
:10120400040EB36F050EB46F000EB56FEFEC04F06F
:101214000050011003E0006A016ABDD0E90E050127
:10122400B06F040EB16FB50EB26F040EB36F020E41
:10123400B46F000EB56FEFEC04F00050011008E13C
:101244000401AD6BAE6B010EAB6F000EAC6F76D0CC
:10125400E90E0501B06F040EB16FA80EB26F040E53
:10126400B36F020EB46F000EB56FEFEC04F00050D4
:1012740001100AE1010E0401AD6F000EAE6F010E04
:10128400AB6F000EAC6F5AD0E90E0501B06F040EBF
:10129400B16F1F0EB26F000EB36F040EB46F000E69
:1012A400B56FEFEC04F00050011004E10401AB6BE6
:1012B400AC6B44D0E90E0501B06F040EB16F1A0E89
:1012C400B26F000EB36F040EB46F000EB56FEFEC87
:1012D40004F00050011015E1800E006E800E040130
:1012E400B019005C02E1AF5102080BE2050EAF5DDC
:1012F400006E000EB059016E00C0AFF401C0B0F42E
:101304001DD0E90E0501B06F040EB16F150EB26F5A
:10131400000EB36F040EB46F000EB56FEFEC04F063
:10132400005001100BE1050E0401AF25006E000E04
:10133400B021016E00C0AFF401C0B0F4000E05018D
:101344009F1902E1500E9E1903E0006A016A23D03E
:10135400AE0EA86F2E0EA96F000EAA6FE7DD00C0B7
:10136400A4F501C0A5F5D80EA86F2E0EA96F000E26
:10137400AA6FDCDD0050A4270150A523240EA86F1A
:10138400000EA96F12DEA4510026A551012200C04F
:08139400A4F501C0A5F512004B
:10139C00C90E0501BE6F190EBF6FCD0EC06F190EB1
:1013AC00C16FCD0EC26F190EC36FC46BFFEC00F092
:1013BC00C90EBE6F190EBF6F0A0EC06F050EC16F3E
:0E13CC00040EC26F000EC36F86EC01F012001B
:0613DA00006A016A120026
:1013E000D5EC04F0D5EC04F0D5EC04F000C09BF58E
:1013F000D5EC04F000C09AF5D5EC04F000C09DF5E2
:10140000D5EC04F000C09CF5D5EC04F000C09FF5CD
:10141000D5EC04F000C09EF5D5EC04F0D5EC04F05A
:10142000D5EC04F0D5EC04F09CC500F09DC501F0AE
:10143000010E05019C5F000E9D5B005001100EE047
:10144000D5EC04F0005201E0FBD7D5EC04F0D5EC6C
:1014500004F0D5EC04F0D5EC04F0E6D79EC500F01E
:101460009FC501F0010E05019E5F000E9F5B0050BD
:10147000011048E0D5EC04F0D5EC04F0D5EC04F014
:1014800000C0A3F5D5EC04F000C0A2F5D5EC04F043
:10149000D5EC04F0D5EC04F0D5EC04F0D5EC04F078
:1014A000D5EC04F0D5EC04F000C0A1F5D5EC04F0C7
:1014B00000C0A0F5000E0501A31902E1010EA2195A
:1014C00011E1D5EC04F000C045F5D5EC04F000C006
:1014D00046F5D5EC04F000C047F5D5EC04F000C0AB
:1014E00048F510D0A0C500F0A1C501F0010E05011E
:1014F000A05F000EA15B0050011003E0D5EC04F0EA
:06150000F1D7ACD7120088
:10150600B7D00A0E0501A86F050EA96FAA6B040EC7
:10151600AB6F000EAC6F20DC010EA86FA96B3ADC36
:10152600C4C441F5C5C442F5C6C443F5C7C444F5B1
:10153600030E0401D76FAFD0050E05014125016EDC
:10154600000E4221026E000E4321036E000E44215E
:10155600046E0401C751045C08E1C651035C05E151
:10156600C551025C02E1C451015C02E2020ED76F72
:1015760059EC05F00050020A04E1040E0401D76F8D
:1015860001D089D0030E0501A86FD8C4A9F502DCE5
:10159600C4C441F5C5C442F5C6C443F5C7C444F541
:1015A600050E0401D76F77D059EC05F000C09AF507
:1015B6000050060A04E1040E0401D76F2FD005017E
:1015C6009A51050A2BE1C4C441F5C5C442F5C6C407
:1015D60043F5C7C444F5060E0401D76F0A0E05018C
:1015E600BE6F050EBF6FFF0EC06F040EC16F040EF7
:1015F600C26F000EC36F3BEC02F0F10EA86F040E33
:10160600A96FDB0EAA6F040EAB6FDF0EAC6F040E74
:10161600AD6F20EC05F00401D86B3DD03CD0010E37
:1016260005014125016E000E4221026E000E432186
:10163600036E000E4421046E04500401C75D08E1E8
:101646000350C65D05E10250C55D02E10150C45D6F
:101656000EE3010EFB5F000EFC5BFD5BFE5BC4C48C
:1016660041F5C5C442F5C6C443F5C7C444F513D015
:101676000401D751020AD8B444D7D751030AD8B4C3
:101686005BD7D751040AD8B47DD7D751050A8CE069
:08169600D751060AC4E012005E
:10169E0070C5CCF571C5CDF575EC00F000C07BF5CD
:1016AE00D5EC04F000C07AF5D5EC04F000C079F565
:1016BE00D5EC04F000C078F5000E0501791902E1B1
:1016CE00000E781901E186D0D5EC04F000C07DF54E
:1016DE00D5EC04F000C07CF57E0E0501B06F050E52
:1016EE00B16FC90EB26F190EB36F040EB46F000E48
:1016FE00B56F97EC04F0020ECF6F080E7025D06F09
:10170E00000E7121D16F2CEC00F00E0E05016D252F
:10171E009A6F000E6E219B6F6F519A27000E9B23BE
:10172E00080E9A27000E9B2372DC000E05017B1912
:10173E0002E1350E7A1902E14CDE4CD0000E0501A5
:10174E00791902E1440E781902E1D6DE43D07E0EFD
:10175E0005019A6F050E9B6F7AC59CF57BC59DF5AD
:10176E0078C59EF579C59FF5080E7C5DA06F000EBD
:10177E007D59A16F090EA26F050EA36F27DE00C063
:10178E007CF501C07DF50050011024E0720EB06FA3
:10179E00050EB16FB50EB26F190EB36F060EB46FA4
:1017AE00000EB56F97EC04F0720EB06F050EB16FB0
:1017BE007E0EB26F050EB36F78C5B4F579C5B5F56B
:1017CE007AC5B6F57BC5B7F57CC5B8F57DC5B9F557
:0617DE006EEC03F01200A6
:1017E40071C5CCF572C5CDF575EC00F000C081F57E
:1017F400D5EC04F000C080F5D5EC04F000C07FF512
:10180400D5EC04F000C07EF50501866B8B6B010EF0
:101814008C6F896B8A6B0C0E7125CC6F000E722154
:10182400CD6F75EC00F000C084F5000E0501856FE6
:101834008433849F8433849F000E856FFC0E841749
:10184400FF0E8517950EB06F050EB16FC90EB26FFE
:10185400190EB36F040EB46F000EB56F97EC04F05D
:101864000D0E7125CC6F000E7221CD6F75EC00F05A
:101874003F0E00140501826F836B000E8317000E68
:10188400836F0E0E0401F55D0501876F000E0401E0
:10189400F6590501886F6F51875F7051885B8451D9
:1018A400875F8551885B020E7125CC6F000E722113
:1018B400CD6F75EC00F000C0CEF571C5CCF572C5E6
:1018C400CDF554EC00F0030E05017125CC6F000E2C
:1018D4007221CD6F75EC00F000C0CCF594EC00F0F3
:1018E40080C5BEF581C5BFF517EC02F0040E0501F5
:1018F4007125CC6F000E7221CD6F75EC00F000C025
:1019040090F5D5EC04F000C08FF5D5EC04F000C0E0
:101914008EF5D5EC04F000C08DF5D5EC04F000C0D4
:1019240094F5D5EC04F000C093F5D5EC04F000C0B8
:1019340092F5D5EC04F000C091F5000E0501831971
:1019440002E1020E82193DE1010E8D25006E000EAA
:101954008E21016E000E8F21026E000E9021036E07
:1019640000C091F501C092F502C093F503C094F54F
:10197400120E826F000E836F0C0ECC6FCAEC00F057
:1019840000C08DF50D0E0501CC6FCAEC00F000C04F
:101994008EF50501CC6BCAEC00F000C08FF5010E8A
:1019A4000501CC6FCAEC00F000C090F50501862B50
:1019B400180E846F000E856F896B8A6B0401C36BEC
:1019C40070D0000E0501831902E1180E82192FE16F
:1019D4008DC573F58EC574F58FC575F590C576F50F
:1019E40091C58DF592C58EF593C58FF594C590F587
:1019F40087517325006E88517421016E000E752184
:101A0400026E000E7621036E00C091F501C092F5BE
:101A140002C093F503C094F5100E826F000E836F1D
:101A2400862B140E846F000E856F8B2B3AD0000E1C
:101A3400831902E1110E821934E18DC577F58EC543
:101A440078F58FC579F590C57AF591C58DF592C570
:101A54008EF593C58FF594C590F5010E7725006E2C
:101A6400000E7821016E000E7921026E000E7A219B
:101A7400036E00C091F501C092F502C093F503C056
:101A840094F5100E826F000E836F862B140E846FF4
:101A9400000E856F896B8A6B0401B85302E1C32B76
:101AA400B86B05018653D8B4D5D10501040E712550
:101AB400BE6F000E7221BF6F90C5C0F58FC5C1F512
:101AC400DFEC01F08EC5CCF594EC00F08DC5CCF5BF
:101AD40094EC00F094C5CCF594EC00F093C5CCF5EF
:101AE40094EC00F092C5CCF594EC00F091C5CCF5E3
:101AF40094EC00F00C0E05017125CC6F000E7221E0
:101B0400CD6F75EC00F00F0E00140501CE6F84C587
:101B140000F000360090003600900050CE130C0EFA
:101B24007125CC6F000E7221CD6F54EC00F00D0EB8
:101B340005017125CC6F000E7221CD6F75EC00F09C
:101B4400C00E00140501CE6F8251CE130D0E712507
:101B5400CC6F000E7221CD6F54EC00F0000E050125
:101B6400831902E1120E821923E10E0E7125BE6F54
:101B7400000E7221BF6F050EC06FEE0EC16FDFEC59
:101B840001F0140E05017125BE6F000E7221BF6FA6
:101B9400020EC06F040EC16FDFEC01F0050E0501EB
:101BA400CC6F94EC00F0780E0501CC6F94EC00F04F
:101BB40005016F518925876F70518A21886F84517F
:101BC4008727855188238C5304E049EC08F0CEEC38
:101BD40009F0BF0EBE6F190EBF6F88C5C0F587C56B
:101BE400C1F5DFEC01F0C70E0501BE6F190EBF6F22
:101BF400C06BC16BDFEC01F0BD0E0501BE6F190EA9
:101C0400BF6F6FC5C0F570C5C1F5B7EC01F0160E16
:101C14000501CC6FCAEC00F000C099F5170E050160
:101C2400CC6FCAEC00F000C0C0F5C70E0501BE6F52
:101C3400190EBF6F99C5C1F5DFEC01F0BD0E0501AA
:101C440087257C6F190E88217D6F100E7125BE6F5C
:101C5400000E7221BF6FC06BC16BDFEC01F0010E8F
:101C6400050187157B6F7CC5CCF57DC5CDF5CE6BA5
:101C740054EC00F0C90E0501BE6F190EBF6FD10EF2
:101C8400C06F190EC16F7B517C25C26F000E7D2180
:101C9400C36FC46BFFEC00F0080E7C25BE6F000E12
:101CA4007D21BF6F7B51BE27000EBF23C06B060E84
:101CB400C16FDFEC01F00A0E05017C25BE6F000E3A
:101CC4007D21BF6F7B51BE27000EBF238951842520
:101CD400036E8A518521046E04C000F0016A00C0BD
:101CE400C0F503C0C1F5DFEC01F071C5BEF572C5E6
:101CF400BFF5050189518425C06F8A518521C16FC3
:101D04000C0EC027000EC1237B51C027000EC12337
:101D1400B7EC01F0160E0501CC6FCAEC00F000C060
:101D240099F5170E0501CC6FCAEC00F000C0C0F5A0
:101D3400100E05017125BE6F000E7221BF6F99C58B
:101D4400C1F5DFEC01F00E0E05018725BE6F000E14
:101D54008821BF6F63EC02F08B5352E0100E826F48
:101D6400000E836F8B6B8C6B020ECF6F84517125C9
:101D7400D06F85517221D16F2CEC00F00E0E05014D
:101D84006D259A6F000E6E219B6F6F519A277051CB
:101D94009B2384519A2785519B230EEC08F0040160
:101DA400C32B950E05019A6F050E9B6F80C59CF59C
:101DB40081C59DF57EC59EF57FC59FF50E0E040178
:101DC400F55D0501A06F000E0401F6590501A16F30
:101DD4006F51A05F7051A15B8451A05F8551A15BDD
:101DE400090EA26F050EA36FDAEC08F000C089F5A6
:101DF40001C08AF5050109B102D00401C36B55D6AF
:101E04000401C35327E0050189518D25006E8A51D1
:101E14008E21016E000E8F21026E000E9021036E42
:101E240000C08DF501C08EF502C08FF503C090F59A
:101E3400110E826F000E836F0401C36B05018C6B5E
:101E4400140E846F000E856F896B8A6B010E04017A
:061E5400B86F2BD612004E
:101E5A001F0E0501CC6F010ECD6FE2EC00F01F0ED4
:101E6A000501CC6F020ECD6FADEC00F0140E05012A
:101E7A009A6F6DC59BF5B1EC08F0120E0501CC6F97
:101E8A00010ECD6FADEC00F0D0EC08F0120ECC6F65
:101E9A00010ECD6FE2EC00F0180E0501CC6FCAEC12
:101EAA0000F070C5E1FF71C5E2FF00C0E6FF190E40
:101EBA000501CC6FCAEC00F06EC5E1FF6FC5E2FF09
:061ECA0000C0E6FF12005B
:101ED0001F0E0501CC6F010ECD6FE2EC00F01F0E5E
:101EE0000501CC6F020ECD6FADEC00F0140E0501B4
:101EF0009A6F6DC59BF5B1EC08F0D0EC08F0160EAA
:101F00009A6F6FC59BF5B1EC08F0D0EC08F0170E96
:101F10009A6F6EC59BF5B1EC08F0D0EC08F012009A
:101F2000C40E0501CC6F190ECD6F75EC00F000C02A
:101F30006DF5E8D0D50E05019A6F190E9B6F0A0E4C
:101F40009C6F050E9D6F040E9E6F68EC08F00050AC
:101F5000000A4BE1C40E0501CC6F190ECD6F020EC5
:101F6000CE6F54EC00F049EC08F0CB0EBE6F190EAA
:101F7000BF6FCF0EC06F190EC16FD50EC26F190E95
:101F8000C36FC46BFFEC00F0CB0EBE6F190EBF6FBA
:101F90000A0EC06F050EC16F040EC26F000EC36F34
:101FA00086EC01F0C50EBE6F190EBF6FCB0EC06F71
:101FB000190EC16FCF0EC26F190EC36FC46BFFEC49
:101FC00000F0C50EBE6F190EBF6F030EC06F050E79
:101FD000C16F060EC26F000EC36F86EC01F03C0E9F
:101FE000BE6F000EBF6F63EC02F095D00501AF0E1F
:101FF0009A6F190E9B6F030E9C6F050E9D6F060E58
:102000009E6F68EC08F00050000A7BE1CB0E0501E2
:102010009A6F190E9B6F12C59CF513C59DF5040EA2
:102020009E6F68EC08F00050000A6BE10F0E006E26
:10203000000E016ED6C404F0000E056E21EC08F00F
:10204000140E00240501B06F050E0120B16F090EBA
:10205000B027000EB123C50EB26F190EB36F060E76
:10206000B46F000EB56F97EC04F00F0E006E000E0B
:10207000016ED6C404F0000E056E21EC08F0140EBB
:102080000024BE6F050E0120BF6F050EBE27000E97
:10209000BF2312C5C0F513C5C1F5040EC26F000EF3
:1020A000C36F3BEC02F00F0E006E000E016ED6C443
:1020B00004F0000E056E21EC08F0140E0024E16E11
:1020C000050E0120E26E010EE66E0F0E006E000E90
:1020D000016ED6C404F0000E056E21EC08F0140E5B
:1020E0000026050E0122010E0024E16E000E0120E3
:1020F000E26EC4C4E6FFC5C4E6FFC6C4E6FFC7C4BB
:10210000E6FF09D005016D51010AD8B413D76D510E
:08211000020AD8B46BD71200DB
:1021180005019A6B615303E00D0E626F02D0050E44
:10212800626F62C59BF5B1EC08F0020E05019A6F6B
:10213800615303E0310E636F02D0300E636F63C5E5
:102148009BF5B1EC08F00A0E0501CF6FEE0ED06FCB
:10215800050ED16F2CEC00F0040E05019A6F615347
:1021680003E0150E646F02D0120E646F64C59BF510
:10217800B1EC08F0060E05019A6F120E9B6FB1ECD8
:1021880008F00501615306E1070E9A6F0C0E9B6F6C
:10219800B1EC08F00501615306E1090E9A6F3F0E94
:1021A8009B6FB1EC08F01F0E0501CC6F010ECD6FCF
:1021B800ADEC00F01F0E0501CC6F020ECD6FADEC3B
:1021C80000F0040E05019A6F03C59BF5B1EC08F009
:1021D800050E05019A6F04C59BF5B1EC08F0020ED7
:1021E80005019A6F05C59BF5B1EC08F0030E0501D2
:1021F8009A6F06C59BF5B1EC08F005019A6B07C507
:102208009BF5B1EC08F0010E05019A6F08C59BF526
:10221800B1EC08F0150E05019A6F9B6BB1EC08F054
:10222800120E0501CC6FCAEC00F000C053F5050191
:102238006D6B660E6E6F050E6F6F670E706F050E15
:10224800716F07DE05016D6BFE0E66156E6F6153CB
:1022580003E0010E656F01D0656B65516E1367C5AC
:102268006FF532DE100E6D6F010E6E6F6F6B2CDE28
:102278001F0ECC6F040ECD6FADEC00F0D0EC08F063
:10228800140EA86F050EA96FAA6B2D0EAB6F000E6A
:10229800AC6FAFEC06F01F0ECC6F010ECD6FE2EC09
:1022A80000F01F0E0501CC6F020ECD6FE2EC00F0BE
:0222B800120012
:1022BA0005016A6B098109931F0ECC6F010ECD6F60
:1022CA00E2EC00F01F0E0501CC6F020ECD6FE2ECBE
:1022DA0000F00501CF6BD9C4D0F5DAC4D1F52CECE6
:1022EA0000F08292F9C4E1FFFAC4E2FF3A0EE66E08
:1022FA00F7C400F0F8C401F020EC00F0F9C4E1FFE3
:10230A00FAC4E2FFE66AF7C400F0F8C401F020EC70
:10231A0000F000C0D9F4F9C4E1FFFAC4E2FFE66AAA
:10232A00F7C400F0F8C401F020EC00F000C0DAF4C1
:10233A00F9C4E1FFFAC4E2FFE66AF7C400F0F8C4A0
:10234A0001F020EC00F000C0F5F4F9C4E1FFFAC492
:10235A00E2FFE66AF7C400F0F8C401F020EC00F0EE
:10236A0000C0F6F4F9C4E1FFFAC4E2FFE66AF7C472
:10237A0000F0F8C401F020EC00F000C068F5F9C4E0
:10238A00E1FFFAC4E2FFE66AF7C400F0F8C401F01C
:10239A0020EC00F000C069F58282040E0401F55FAA
:1023AA00000EF65BDA51190802E1D951AD0810E3C3
:1023BA00D9B10ED0050169BF0BD00401F651050849
:1023CA0002E1F551EE0804E3050168AF01D003D03C
:1023DA00010E006ED5D10501CC6BCAEC00F000C02D
:1023EA0066F5010E0501CC6FCAEC00F000C067F576
:1023FA0066C5BEF567C5BFF50401F5510501662539
:10240A00C06F0401F65105016721C16FAF0EC26F9B
:10241A00190EC36F010EC46FFFEC00F0BB0ECC6F38
:10242A00190ECD6F75EC00F000C069F5D5EC04F01B
:10243A0000C068F505016951080A02E1060E68192B
:10244A0011E1BD0E9A6F190E9B6FC80E9C6F040E98
:10245A009D6F070E9E6F68EC08F00050000A01E1BC
:10246A005ADD5FD105016951080A02E1000E6819B7
:10247A00D8A454D1CD0E9A6F190E9B6F580E9C6F2B
:10248A00050E9D6F040E9E6F68EC08F0005202E183
:10249A00050109830501CD0E9A6F190E9B6FD00EA7
:1024AA009C6F040E9D6F040E9E6F68EC08F000523C
:1024BA0002E1050109830501CD0E9A6F190E9B6F82
:1024CA000A0E9C6F050E9D6F040E9E6F68EC08F055
:1024DA00005206E0050109B303D0020E6A6F1DD14E
:1024EA000501BD0ECC6F190ECD6F75EC00F0F00E24
:1024FA000014016E0150400A04E0030E05016A6FE0
:10250A000CD10501BD0ECC6F190ECD6F75EC00F024
:10251A0000C064F5000E0501656F0F0E6417000E0A
:10252A006517643764916537643764916537C30EFC
:10253A00CC6F190ECD6F75EC00F0BF0E0014016E52
:10254A000150000AD8A4E9D0C40E0501CC6F190EB7
:10255A00CD6F75EC00F00050000AD8A4DED0BD0E95
:10256A0005016425626F190E6521636FC60ECC6F73
:10257A00190ECD6F75EC00F000C061F50050010A2C
:10258A00D8A48CD062C5CCF563C5CDF575EC00F046
:10259A000050080AD8A481D0010E05016225CC6F2B
:1025AA00000E6321CD6F75EC00F00050000A75E152
:1025BA0062C5CCF563C5CDF50501CE6B54EC00F0D0
:1025CA0049EC08F0CEEC09F0C70EBE6F190EBF6FCA
:1025DA00C06BC16BDFEC01F0BD0E0501BE6F190EB9
:1025EA00BF6F64C5C0F565C5C1F5B7EC01F0160E3D
:1025FA000501CC6FCAEC00F000C06BF5170E05019F
:10260A00CC6FCAEC00F000C0C0F5C70E0501BE6F62
:10261A00190EBF6F6BC5C1F5DFEC01F0020E0501A3
:10262A006225BE6F000E6321BF6FC06BC16BDFEC0A
:10263A0001F062C5BEF563C5BFF505016451040129
:10264A00F55D0501C06F65510401F6590501C16FB9
:10265A000E0EC05F000EC15BB7EC01F0160E05014D
:10266A00CC6FCAEC00F000C06BF5170E0501CC6FF9
:10267A00CAEC00F000C0C0F5020E05016225BE6F6B
:10268A00000E6321BF6F6BC5C1F5DFEC01F0F5C425
:10269A00BEF5F6C4BFF563EC02F03FD00501615107
:1026AA00110A0DE166C56DF567C56EF564C56FF56E
:1026BA0062C570F563C571F54FEC0BF02ED00501BC
:1026CA006151060A2AE1100E6625CC6F000E6721B9
:1026DA00CD6F75EC00F000C06CF505016B6BD5ECA5
:1026EA0004F0005005016B250401F56F000E050189
:1026FA006C210401F66F0E0EF527000EF62366C54F
:10270A006DF567C56EF564C56FF565C570F562C58B
:10271A0071F563C572F5F2EC0BF003D0040E0501F6
:10272A006A6F05011E0ECC6F400ECD6FADEC00F046
:10273A00010E0401D95D016E000EDA59026E0250D3
:10274A00190802E10150AD080AE20C0E0501CF6F2B
:10275A00AD0ED06F190ED16F2CEC00F00FD00C0E0D
:10276A000501CF6F010E0401D95D0501D06F000E7E
:10277A000401DA590501D16F2CEC00F06AC500F0AA
:02278A0012003B
:10278C00C69A1C0E0401F76F000EF86FD20EF96F8B
:10279C00050EFA6FFF0E05014F6FFF0E506FFF0E07
:1027AC00516FFF0E526F949A94969488C66A400E9D
:0627BC00C76EC68A120080
:1027C2000900F5CFE6FF0006FBE10106F9E1120080
:1027D2009490828094928282D0EC08F08280D0EC35
:1027E20008F08290D0EC08F08280D0EC08F082925F
:1027F200F9C4E1FFFAC4E2FFFF0EE66EF7C400F08F
:10280200F8C401F020EC00F08282D0EC08F0030E54
:10281200BE6F050EBF6F5CC5C0F55DC5C1F5060E86
:10282200C26F000EC36F3BEC02F00A0EBE6F050EC4
:10283200BF6F5EC5C0F55FC5C1F5040EC26F000E65
:10284200C36F3BEC02F01F0ECC6F010ECD6FE2ECBA
:1028520000F01F0E0501CC6F020ECD6FE2EC00F00E
:10286200080E0501CF6FD06BD16B2CEC00F00A0E75
:102872000501CF6FAD0ED06F190ED16F2CEC00F0A9
:102882000C0E0501CF6FAD0ED06F190ED16F2CEC6F
:1028920000F00501CF6BD06BD16B2CEC00F0040E75
:1028A2000501CF6FAE0ED06F190ED16F2CEC00F078
:1028B2001F0E0501CC6F010ECD6FE2EC00F01F0E72
:1028C2000501CC6F020ECD6FADEC00F060C561F575
:0428D20022DC1200F2
:1028D600000E0401AC1902E1000EAB1903E1B36B63
:1028E600B46B17D00AD0050EB36F000EB46F11D0BB
:1028F600010EB36F000EB46F0CD0000EAE1902E1DC
:10290600000EAD19F0E0000EAE1902E1010EAD1990
:04291600EFE01200DC
:10291A0005015C6B1F0ECC6F010ECD6FADEC00F0A4
:10292A001F0E0501CC6F020ECD6FE2EC00F0190EFE
:10293A000501CC6FCAEC00F00050000803E2B8DCD5
:10294A0000C05CF51F0E0501CC6F010ECD6FE2ECE5
:10295A0000F01F0E0501CC6F020ECD6FE2EC00F005
:06296A005CC500F0120044
:1029700078EC17F0380ED36E936A926A816A806A97
:102980000F013A6B3B6B956A836A00DFBD0E5C6F8B
:10299000040E5D6FB90E5E6F040E5F6F010E606F07
:1029A00018DFBBDF98DF010EB125006E000EB221EB
:1029B000016E00C0B1F401C0B2F4B251B01902E12D
:1029C000AF51B1190DE1080EB319006EB4C401F096
:1029D000000E011A00C0B3F401C0B4F4B16BB26BC5
:0829E000B3C481FFDED7FFD76D
:102EF00010EE15F0C60E006E050E016EE80EF66EB1
:0E2F0000290EF76E000EF86EE1EC13F01200D1
:0529E800494E435200BE
:0529ED004445435200C7
:0529F20053544F50009A
:1029F7003C68746D6C3E3C626F64793E3C666F72F6
:102A07006D206E616D653D22696E70757422206D53
:102A17006574686F643D22676574223E3C74616229
:102A27006C6520616C69676E3D63656E74657220C5
:102A370077696474683D353030206267636F6C6F07
:102A4700723D236163666666666620626F726465BF
:102A5700723D343E3C74723E3C746420616C69671D
:102A67006E3D63656E74657220636F6C7370616E23
:102A77003D323E3C666F6E742073697A653D372040
:102A8700636F6C6F723D426C61636B206661636557
:102A97003D2276657264616E61223E3C623E4D4F17
:102AA700544F5220434F4E54524F4C3C2F623E3CA2
:102AB7002F666F6E743E3C2F74643E3C2F74723EDB
:102AC7003C74723E3C746420616C69676E3D63655B
:102AD7006E74657220636F6C7370616E3D323E3C3D
:102AE700666F6E742073697A653D3220636F6C6F11
:102AF700723D426C61636B20666163653D2276655A
:102B07007264616E61223E3C623E44697265637421
:102B1700696F6E3C2F623E3C2F666F6E743E3C2F92
:102B270074643E3C2F74723E3C74723E3C74642065
:102B3700616C69676E3D63656E7465722062676379
:102B47006F6C6F723D2361636666666666207769A0
:102B57006474683D22353025223E3C696E70757479
:102B6700206E616D653D22544C2220747970653D5D
:102B7700227375626D6974222076616C75653D22DA
:102B87004C65667422207374796C653D227769649D
:102B970074683A203930253B206261636B67726F36
:102BA700756E643A20303B223E3C2F74643E3C7481
:102BB7006420616C69676E3D63656E74657220623F
:102BC70067636F6C6F723D23616366666666662036
:102BD70077696474683D22353025223E3C696E7002
:102BE7007574206E616D653D225452222074797090
:102BF700653D227375626D6974222076616C756517
:102C07003D22526967687422207374796C653D228E
:102C170077696474683A203930253B206261636BB9
:102C270067726F756E643A20303B223E3C2F7464A6
:102C37003E3C2F74723E3C74723E3C746420616C5F
:102C470069676E3D63656E74657220636F6C737040
:102C5700616E3D323E3C666F6E742073697A653DE6
:102C67003220636F6C6F723D426C61636B206661EB
:102C770063653D2276657264616E61223E3C623E09
:102C870053706565643C2F623E3C2F666F6E743EE1
:102C97003C2F74643E3C2F74723E3C74723E3C740D
:102CA7006420616C69676E3D63656E74657220624E
:102CB70067636F6C6F723D23616366666666662045
:102CC700636F6C7370616E3D313E3C696E707574F5
:102CD700206E616D653D22494E4352222074797002
:102CE700653D227375626D6974222076616C756526
:102CF7003D222B22207374796C653D2277696474B9
:102D0700683A203930253B206261636B67726F75C3
:102D17006E643A20303B223E3C2F74643E3C746420
:102D270020616C69676E3D63656E746572206267CA
:102D3700636F6C6F723D23616366666666662063C8
:102D47006F6C7370616E3D313E3C696E70757420B7
:102D57006E616D653D22444543522220747970654A
:102D67003D227375626D6974222076616C75653DCD
:102D7700222D22207374796C653D2277696474680B
:102D87003A203930253B206261636B67726F756E3D
:102D9700643A20303B223E3C2F74643E3C2F7472D1
:102DA7003E3C74723E3C746420616C69676E3D639F
:102DB700656E746572206267636F6C6F723D236125
:102DC70063666666666620636F6C7370616E3D321C
:102DD7003E3C696E707574206E616D653D2253547B
:102DE7004F502220747970653D227375626D697446
:102DF700222076616C75653D2253746F70222073B3
:102E070074796C653D2277696474683A2039302596
:102E17003B206261636B67726F756E643A20303B6B
:102E2700223E3C2F74643E3C2F74723E3C2F7461EB
:102E3700626C653E3C2F666F726D3E3C73637269D0
:102E47007074207372633D2222206173796E632050
:102E570064656665723E3C2F7363726970743E3CAD
:0E2E67002F626F64793E3C2F68746D6C3E00E4
:062E7500474554202F0028
:032E7B00545200AE
:0A2E7E000000000002000000000048
:032E8800544C00A7
:012E8B000046
:042E8C000AD3370529
:062E90000014A576193FB5
:012E9600003B
:042E97000000000037
:082E9B0000010800060400001C
:062EA300FFFFFFFFFFFF2F
:012EA9000028
:012EAA000027
:012EAB000026
:022EAC00000024
:102EAE00485454502F312E3120323030204F4B0A9F
:0E2EBE00436F6E74656E742D747970653A0002
:0C2ECC00010106001223344500008000C4
:0C2ED800746578742F68746D6C0A0A0031
:062EE40063825363350117
:052EEA0037030103069F
:020000040030CA
:0D000100231F3CFFBF81FF0FC00FE00F4029
:00000001FF
