:0400000093EF00F08A
:1000080000C015F01F6A800E1F18006E800E0A0AC5
:10001800005C09E216A003D079AC1F0602D079BCB7
:100028001F061F2AF0D74AD8798EA19C15C000F068
:020038001100B5
:10003A00BD6A040E836E040EB96E0C0EBD6E1200FC
:06004A00040E836E12009B
:06005000100E836E120089
:06005600080E836E12008B
:10005C00BD6A100E836E020EB96E0C0EBD6E1200D0
:10006C00BD6A080E836E080EB96E0C0EBD6E1200C2
:10007C000900F5CFE6FF0006FBE10106F9E11200ED
:10008C00040E016E1DC000F0015004E0003600901B
:10009C00FF0FFBD7300E00160C0E0010BD6E1DC0EE
:1000AC0000F01EC001F001320032019E013200321C
:0800BC00019E00C0BEFF12000E
:1000C40018D0D2DFA20E796E26D0BDDFA10E796ED4
:1000D40022D0B1DFA00E796E1ED0B8DFA20E796EE9
:1000E4001AD0BADFA10E796E16D0B3DFA00E796EE6
:1000F40012D01650000AE5E01650010AE6E0165048
:10010400020AE7E01650030AE8E01650040AE9E0A0
:100114001650050AEAE0162A060E165CD8B0166ACE
:020124001200C7
:10012600166A100E0F01386F836A956AD00EC26E7A
:10013600C09EC00EF26EA19C0C0EBD6EBE6A9E9253
:10014600040EBA6EFF0EBB6EF40E1D6E010E1E6E11
:100156009ADF880E1B6E130E1C6E1BC019F01CC096
:100166001AF019C000F01AC001F0010E195E000E57
:100176001A5A0050011001E0F4D7A1DF320E1B5EBF
:10018600000E1C5AEAD7C282820E0C6EDD0E0D6E70
:100196000D2EFED70C2EFCD700000000C4CF03F0B6
:1001A600000E046E033603900436033603900436BD
:1001B600060E016EC3CF00F0015004E00032009E2F
:1001C600FF0FFBD700500310016E04C002F0000EB3
:1001D600021201C017F002C018F0000E025C02E124
:1001E600500E015C04E2500E176E000E186E17C01A
:0C01F6001DF018C01EF047DFC6D7FFD771
:020000040030CA
:0D000100231F3CFFBF81FF0FC00FE00F4029
:00000001FF
